{"contracts/BountyMarket.sol":{"BountyMarket":{"abi":[{"inputs":[{"internalType":"address","name":"_geneticNFT","type":"address"}],"stateMutability":"nonpayable","type":"constructor"},{"anonymous":false,"inputs":[{"indexed":true,"internalType":"uint256","name":"bountyId","type":"uint256"},{"indexed":false,"internalType":"uint256","name":"refundAmount","type":"uint256"}],"name":"BountyCancelled","type":"event"},{"anonymous":false,"inputs":[{"indexed":true,"internalType":"uint256","name":"bountyId","type":"uint256"},{"indexed":true,"internalType":"address","name":"researcher","type":"address"},{"indexed":false,"internalType":"string","name":"queryType","type":"string"},{"indexed":false,"internalType":"uint256","name":"rewardPerResponse","type":"uint256"},{"indexed":false,"internalType":"uint256","name":"maxResponses","type":"uint256"},{"indexed":false,"internalType":"uint256","name":"expiresAt","type":"uint256"}],"name":"BountyCreated","type":"event"},{"anonymous":false,"inputs":[{"indexed":true,"internalType":"uint256","name":"bountyId","type":"uint256"}],"name":"BountyExpired","type":"event"},{"anonymous":false,"inputs":[{"indexed":true,"internalType":"uint256","name":"bountyId","type":"uint256"},{"indexed":true,"internalType":"uint256","name":"responseId","type":"uint256"},{"indexed":true,"internalType":"uint256","name":"tokenId","type":"uint256"},{"indexed":false,"internalType":"address","name":"responder","type":"address"},{"indexed":false,"internalType":"bool","name":"result","type":"bool"}],"name":"BountyResponse","type":"event"},{"anonymous":false,"inputs":[{"indexed":true,"internalType":"address","name":"previousOwner","type":"address"},{"indexed":true,"internalType":"address","name":"newOwner","type":"address"}],"name":"OwnershipTransferred","type":"event"},{"anonymous":false,"inputs":[{"indexed":false,"internalType":"address","name":"account","type":"address"}],"name":"Paused","type":"event"},{"anonymous":false,"inputs":[{"indexed":true,"internalType":"uint256","name":"bountyId","type":"uint256"},{"indexed":true,"internalType":"uint256","name":"responseId","type":"uint256"},{"indexed":true,"internalType":"address","name":"responder","type":"address"},{"indexed":false,"internalType":"uint256","name":"amount","type":"uint256"}],"name":"RewardPaid","type":"event"},{"anonymous":false,"inputs":[{"indexed":false,"internalType":"address","name":"account","type":"address"}],"name":"Unpaused","type":"event"},{"inputs":[],"name":"MAX_DURATION","outputs":[{"internalType":"uint256","name":"","type":"uint256"}],"stateMutability":"view","type":"function"},{"inputs":[],"name":"MIN_DURATION","outputs":[{"internalType":"uint256","name":"","type":"uint256"}],"stateMutability":"view","type":"function"},{"inputs":[{"internalType":"uint256","name":"","type":"uint256"}],"name":"activeBountyIds","outputs":[{"internalType":"uint256","name":"","type":"uint256"}],"stateMutability":"view","type":"function"},{"inputs":[{"internalType":"uint256","name":"","type":"uint256"}],"name":"bounties","outputs":[{"internalType":"uint256","name":"id","type":"uint256"},{"internalType":"address","name":"researcher","type":"address"},{"internalType":"string","name":"queryType","type":"string"},{"internalType":"string","name":"queryParams","type":"string"},{"internalType":"uint256","name":"rewardPerResponse","type":"uint256"},{"internalType":"uint256","name":"maxResponses","type":"uint256"},{"internalType":"uint256","name":"responseCount","type":"uint256"},{"internalType":"uint256","name":"totalFunded","type":"uint256"},{"internalType":"uint256","name":"remainingFunds","type":"uint256"},{"internalType":"uint256","name":"createdAt","type":"uint256"},{"internalType":"uint256","name":"expiresAt","type":"uint256"},{"internalType":"bool","name":"isActive","type":"bool"}],"stateMutability":"view","type":"function"},{"inputs":[{"internalType":"uint256","name":"","type":"uint256"},{"internalType":"uint256","name":"","type":"uint256"}],"name":"bountyResponses","outputs":[{"internalType":"uint256","name":"","type":"uint256"}],"stateMutability":"view","type":"function"},{"inputs":[{"internalType":"uint256","name":"tokenId","type":"uint256"},{"internalType":"uint256","name":"bountyId","type":"uint256"}],"name":"canRespond","outputs":[{"internalType":"bool","name":"","type":"bool"}],"stateMutability":"view","type":"function"},{"inputs":[{"internalType":"uint256","name":"bountyId","type":"uint256"}],"name":"cancelBounty","outputs":[],"stateMutability":"nonpayable","type":"function"},{"inputs":[{"internalType":"string","name":"queryType","type":"string"},{"internalType":"string","name":"queryParams","type":"string"},{"internalType":"uint256","name":"rewardPerResponse","type":"uint256"},{"internalType":"uint256","name":"maxResponses","type":"uint256"},{"internalType":"uint256","name":"duration","type":"uint256"}],"name":"createBounty","outputs":[{"internalType":"uint256","name":"","type":"uint256"}],"stateMutability":"payable","type":"function"},{"inputs":[],"name":"geneticNFT","outputs":[{"internalType":"contract IGeneticNFT","name":"","type":"address"}],"stateMutability":"view","type":"function"},{"inputs":[],"name":"getActiveBounties","outputs":[{"components":[{"internalType":"uint256","name":"id","type":"uint256"},{"internalType":"address","name":"researcher","type":"address"},{"internalType":"string","name":"queryType","type":"string"},{"internalType":"string","name":"queryParams","type":"string"},{"internalType":"uint256","name":"rewardPerResponse","type":"uint256"},{"internalType":"uint256","name":"maxResponses","type":"uint256"},{"internalType":"uint256","name":"responseCount","type":"uint256"},{"internalType":"uint256","name":"totalFunded","type":"uint256"},{"internalType":"uint256","name":"remainingFunds","type":"uint256"},{"internalType":"uint256","name":"createdAt","type":"uint256"},{"internalType":"uint256","name":"expiresAt","type":"uint256"},{"internalType":"bool","name":"isActive","type":"bool"}],"internalType":"struct BountyMarket.Bounty[]","name":"","type":"tuple[]"}],"stateMutability":"view","type":"function"},{"inputs":[{"internalType":"uint256","name":"bountyId","type":"uint256"}],"name":"getBountyResponses","outputs":[{"components":[{"internalType":"uint256","name":"bountyId","type":"uint256"},{"internalType":"uint256","name":"tokenId","type":"uint256"},{"internalType":"address","name":"responder","type":"address"},{"internalType":"bytes32","name":"responseHash","type":"bytes32"},{"internalType":"bytes","name":"zkProof","type":"bytes"},{"internalType":"bool","name":"result","type":"bool"},{"internalType":"uint256","name":"timestamp","type":"uint256"},{"internalType":"bool","name":"isPaid","type":"bool"}],"internalType":"struct BountyMarket.Response[]","name":"","type":"tuple[]"}],"stateMutability":"view","type":"function"},{"inputs":[{"internalType":"uint256","name":"","type":"uint256"},{"internalType":"uint256","name":"","type":"uint256"}],"name":"hasResponded","outputs":[{"internalType":"bool","name":"","type":"bool"}],"stateMutability":"view","type":"function"},{"inputs":[],"name":"owner","outputs":[{"internalType":"address","name":"","type":"address"}],"stateMutability":"view","type":"function"},{"inputs":[],"name":"pause","outputs":[],"stateMutability":"nonpayable","type":"function"},{"inputs":[],"name":"paused","outputs":[{"internalType":"bool","name":"","type":"bool"}],"stateMutability":"view","type":"function"},{"inputs":[],"name":"platformFeeBps","outputs":[{"internalType":"uint256","name":"","type":"uint256"}],"stateMutability":"view","type":"function"},{"inputs":[{"internalType":"uint256[]","name":"bountyIds","type":"uint256[]"}],"name":"processExpiredBounties","outputs":[],"stateMutability":"nonpayable","type":"function"},{"inputs":[],"name":"renounceOwnership","outputs":[],"stateMutability":"nonpayable","type":"function"},{"inputs":[{"internalType":"uint256","name":"bountyId","type":"uint256"},{"internalType":"uint256","name":"tokenId","type":"uint256"},{"internalType":"bool","name":"result","type":"bool"},{"internalType":"bytes","name":"zkProof","type":"bytes"}],"name":"respondToBounty","outputs":[],"stateMutability":"nonpayable","type":"function"},{"inputs":[{"internalType":"uint256","name":"","type":"uint256"}],"name":"responses","outputs":[{"internalType":"uint256","name":"bountyId","type":"uint256"},{"internalType":"uint256","name":"tokenId","type":"uint256"},{"internalType":"address","name":"responder","type":"address"},{"internalType":"bytes32","name":"responseHash","type":"bytes32"},{"internalType":"bytes","name":"zkProof","type":"bytes"},{"internalType":"bool","name":"result","type":"bool"},{"internalType":"uint256","name":"timestamp","type":"uint256"},{"internalType":"bool","name":"isPaid","type":"bool"}],"stateMutability":"view","type":"function"},{"inputs":[{"internalType":"address","name":"_geneticNFT","type":"address"}],"name":"setGeneticNFT","outputs":[],"stateMutability":"nonpayable","type":"function"},{"inputs":[{"internalType":"uint256","name":"newFeeBps","type":"uint256"}],"name":"setPlatformFee","outputs":[],"stateMutability":"nonpayable","type":"function"},{"inputs":[{"internalType":"address","name":"newOwner","type":"address"}],"name":"transferOwnership","outputs":[],"stateMutability":"nonpayable","type":"function"},{"inputs":[],"name":"unpause","outputs":[],"stateMutability":"nonpayable","type":"function"},{"inputs":[],"name":"withdrawFees","outputs":[],"stateMutability":"nonpayable","type":"function"}],"evm":{"bytecode":{"linkReferences":{},"object":"6080346100c857601f61252238819003918201601f19168301916001600160401b038311848410176100cd578084926020946040528339810103126100c857516001600160a01b039081811681036100c8576000543360018060a01b0319821617600055604051923391167f8be0079c531659141344cd1fd0a4f28419497f9722a3daafe3b4186f6b6457e0600080a3600180556002805460fa600a556001600160a81b03191660089290921b610100600160a81b031691909117905561243e90816100e48239f35b600080fd5b634e487b7160e01b600052604160045260246000fdfe6080604052600436101561001257600080fd5b60003560e01c806312e8e2c314611cb0578063220f8bc514611c8757806322dcd13e14611c695780633def1bcb14611c165780633f4ba83a14611b82578063476343ee14611aed5780635c975abb14611aca578063715018a614611a715780638456cb5914611a175780638da5cb5b146119ee578063a4938a0f146119cb578063b1724b46146119ad578063b4e5126914611653578063b629ed0014611626578063b6a6d17714611609578063b7bdffc8146113a2578063cb2489f514611363578063cf4e44d614610c5c578063d23e93e214610b24578063d9d6ffc4146104ed578063dc2f8744146103ec578063dffde26d146103b4578063e5e5dff1146102ab578063ed35d7e5146101fa5763f2fde38b1461012f57600080fd5b346101f55760203660031901126101f5576004356001600160a01b03818116918290036101f55761015e611f27565b81156101a157600054826001600160601b0360a01b821617600055167f8be0079c531659141344cd1fd0a4f28419497f9722a3daafe3b4186f6b6457e0600080a3005b60405162461bcd60e51b815260206004820152602660248201527f4f776e61626c653a206e6577206f776e657220697320746865207a65726f206160448201526564647265737360d01b6064820152608490fd5b600080fd5b346101f55760203660031901126101f55760043560005260066020526040600020805460018201549160018060a01b036002820154166003820154916102936040516102548161024d8160048701611e38565b0382611f06565b60ff6005840154169460ff6007600686015495015416946040519889988952602089015260408801526060870152610100806080880152860190611dac565b92151560a085015260c0840152151560e08301520390f35b346101f55760203660031901126101f5576004356102c76120bb565b600081815260056020526040902060018101546001600160a01b0316330361037a5780600b6008920180546102fe60ff8216612111565b60ff191690550160008154915580158015610346575b5060207f4fe522caf12f0adba1b0532093b34bea60fc859fb838ae075b44bcd15fcde9ff91604051908152a260018055005b8190600090610371575b600080809381933390f1156103655782610314565b6040513d6000823e3d90fd5b506108fc610350565b60405162461bcd60e51b81526020600482015260126024820152712737ba103137bab73a3c9031b932b0ba37b960711b6044820152606490fd5b346101f5576103c236611d73565b906000526008602052604060002090600052602052602060ff604060002054166040519015158152f35b346101f55760203660031901126101f55760043560005260056020526020604060002080549060018060a01b036001820154166040519161043b836104348160028501611e38565b0384611f06565b60405192610457846104508160038601611e38565b0385611f06565b600482015493600583015460068401546007850154916104ba6008870154946104ac60098901549760ff600b600a8c01549b0154169a6040519e8f9e8f908152015260408d61018091829101528d0190611dac565b908b820360608d0152611dac565b9760808a015260a089015260c088015260e087015261010086015261012085015261014084015215156101608301520390f35b60a03660031901126101f5576004356001600160401b0381116101f557610518903690600401611dd1565b906024356001600160401b0381116101f557610538903690600401611dd1565b9290916105436120bb565b61054b612077565b8115610aea578315610aae5760443515610a695760643515610a2457610e10608435101580610a15575b156109dd57610588606435604435611f7f565b936105a261271061059b600a5488611f7f565b0486611fa8565b938434106109a1576105b5600354611fb5565b95866003556105f76105c960843542611fa8565b92604051946105d786611ece565b8986523360208701526105eb368989611fdf565b60408701523691611fdf565b6060840152604435608084015260643560a0840152600060c08401528060e0840152610100830152426101208301526101408201526001610160820152846000526005602052604060002090805182556001820160018060a01b036020830151166001600160601b0360a01b82541617905560408101518051906001600160401b03821161088957819061069b826106926002880154611dfe565b60028801612016565b602090601f831160011461092f57600092610924575b50508160011b916000199060031b1c19161760028301555b60608101518051906001600160401b038211610889576106f9826106f06003870154611dfe565b60038701612016565b602090601f83116001146108aa579282600b9361016093610795979660009261089f575b50508160011b916000199060031b1c19161760038501555b6080810151600485015560a0810151600585015560c0810151600685015560e0810151600785015561010081015160088501556101208101516009850155610140810151600a8501550151151591019060ff801983541691151516179055565b600954600160401b8110156108895784916107f4836107db8460017f736ab752f6714f3191bc874ebe0b24d2daa1e5a5281882b7c59d90d19c45fda49601600955611d0e565b90919082549060031b91821b91600019901b1916179055565b61080060843542611fa8565b84604051926080845281608085015260a0840137600060a0868401015260443560208301526064356040830152606082015260a0813395601f80199101168101030190a380341161085b575b60208260018055604051908152f35b6000808061086a81943461206a565b818115610880575b3390f115610365578161084c565b506108fc610872565b634e487b7160e01b600052604160045260246000fd5b015190508b8061071d565b906003850160005260206000209160005b601f198516811061090c57508361016093610795979693600193600b97601f198116106108f3575b505050811b016003850155610735565b015160001960f88460031b161c191690558b80806108e3565b919260206001819286850151815501940192016108bb565b0151905088806106b1565b9250600285016000526020600020906000935b601f1984168510610986576001945083601f1981161061096d575b505050811b0160028301556106c9565b015160001960f88460031b161c1916905588808061095d565b81810151835560209485019460019093019290910190610942565b60405162461bcd60e51b8152602060048201526014602482015273496e73756666696369656e742066756e64696e6760601b6044820152606490fd5b60405162461bcd60e51b815260206004820152601060248201526f24b73b30b634b210323ab930ba34b7b760811b6044820152606490fd5b5062278d006084351115610575565b60405162461bcd60e51b815260206004820152601e60248201527f4d617820726573706f6e736573206d75737420626520706f73697469766500006044820152606490fd5b60405162461bcd60e51b815260206004820152601760248201527f526577617264206d75737420626520706f7369746976650000000000000000006044820152606490fd5b60405162461bcd60e51b8152602060048201526014602482015273496e76616c696420717565727920706172616d7360601b6044820152606490fd5b60405162461bcd60e51b8152602060048201526012602482015271496e76616c6964207175657279207479706560701b6044820152606490fd5b346101f5576020806003193601126101f557600435906001600160401b038083116101f557366023840112156101f55782600401359081116101f55760248301926005906024369184841b0101116101f55760005b828110610b8257005b610b8d8184876123f8565b356000528184526040600020600b8101805460ff811680610c4e575b610bbf575b505050610bba90611fb5565b610b79565b60ff19169055600881018054918215918215610c17575b5050505080610be9610bba9285886123f8565b357f7e45726102429d3393312813ea8bafe4c9b51580b5d82860d827662116ff9df2600080a2908680610bae565b60009384938493848094556001808060a01b0391015416908390610c45575bf1156103655785808080610bd6565b506108fc610c36565b50600a830154421015610ba9565b346101f55760803660031901126101f55760443580151581036101f5576064356001600160401b0381116101f557610c98903690600401611dd1565b9091610ca26120bb565b610caa612077565b6004356000526005602052604060002092610ccb60ff600b86015416612111565b600a84015442101561132d576006840154600585015411156112f0576024356000526008602052604060002060043560005260205260ff604060002054166112a15760018060a01b0360025460081c166040516331a9108f60e11b81526024356004820152602081602481855afa9081156103655760009161125f575b50336001600160a01b03909116036112285760006024916040519283809263349abfa760e11b8252823560048301525afa80156103655760c091600091611205575b500151156111c757602435600052600860205260406000206004356000526020526040600020600160ff19825416179055610dc86006850154611fb5565b6006850155610dd8600454611fb5565b928360045560405190600435602083015260243560408301523360601b606083015283151560f81b6074830152426075830152607582528160a08101106001600160401b0360a0840111176108895760a0820160405281516020830120610e4160a08401611eea565b60043560a0840152610e6d60c0840194602435865260e085019333855261010086019384523691611fdf565b91610120840192835285151561014085015242610160850152600061018085015286600052600660205260406000209460a08501518655516001860155600285019060018060a01b039051166001600160601b0360a01b825416179055516003840155518051906001600160401b03821161088957610efc82610ef36004870154611dfe565b60048701612016565b602090601f831160011461114d57928260079361018093610f7a9796600092611142575b50508160011b916000199060031b1c19161760048501555b610f586101408201511515600586019060ff801983541691151516179055565b61016081015160068501550151151591019060ff801983541691151516179055565b600435600052600760205260406000208054600160401b811015610889576107db81610fac9360018794018155611d5b565b604051903382521515602082015281602435917f21d2a330c9c55eee9f106192fc6ef6dc7f831e8c844821041b847769a888c666604060043592a46004356000526005602052604060002090806000526006602052604060002060078101805460ff811661110e576008850192600484549601958654116110d457600060028194928294936001849560ff191617905588549661104a88825461206a565b90550180549095906001600160a01b03168282156110cb575bf1156103655760018060a01b0390541691546040519081527f948a6b23642cd8250e916708e5abe784e0d7a2f77937955f8906335408fd7dec602060043592a46006810154600582015411156110ba575b60018055005b600b01805460ff19169055806110b4565b506108fc611063565b60405162461bcd60e51b8152602060048201526012602482015271496e73756666696369656e742066756e647360701b6044820152606490fd5b60405162461bcd60e51b815260206004820152600c60248201526b105b1c9958591e481c185a5960a21b6044820152606490fd5b015190508a80610f20565b906004850160005260206000209160005b601f19851681106111af57508361018093610f7a979693600193600797601f19811610611196575b505050811b016004850155610f38565b015160001960f88460031b161c191690558a8080611186565b9192602060018192868501518155019401920161115e565b60405162461bcd60e51b815260206004820152601660248201527547656e6f6d652064617461206e6f742061637469766560501b6044820152606490fd5b61122291503d806000833e61121a8183611f06565b810190612196565b86610d8a565b60405162461bcd60e51b815260206004820152600f60248201526e2737ba103a37b5b2b71037bbb732b960891b6044820152606490fd5b90506020813d602011611299575b8161127a60209383611f06565b810103126101f557516001600160a01b03811681036101f55786610d48565b3d915061126d565b60405162461bcd60e51b815260206004820152602160248201527f416c726561647920726573706f6e6465642077697468207468697320746f6b656044820152603760f91b6064820152608490fd5b60405162461bcd60e51b815260206004820152601560248201527413585e081c995cdc1bdb9cd95cc81c995858da1959605a1b6044820152606490fd5b60405162461bcd60e51b815260206004820152600e60248201526d109bdd5b9d1e48195e1c1a5c995960921b6044820152606490fd5b346101f55761137136611d73565b906000526007602052604060002080548210156101f55760209161139491611d5b565b90546040519160031b1c8152f35b346101f5576020806003193601126101f5576004356000526007808252604060002090604051808385829554938481520190600052856000209260005b878282106115f3575050506113f692500383611f06565b81519061140282612258565b916114106040519384611f06565b80835261141f601f1991612258565b018460005b8281106115a65750505060005b83518110156114ed57806114486114e8928661226f565b516000526006808752604060002090846040519261146584611eea565b8054845260018101548a85015260028101546001600160a01b031660408086019190915260038201546060860152516114a58161024d8160048601611e38565b608085015260ff9283600583015416151560a086015281015460c0850152015416151560e08201526114d7828661226f565b526114e2818561226f565b50611fb5565b611431565b604080518681528451818801819052600092600582901b8301810191878a01918a9085015b82871061151f5785850386f35b909192938280600192603f19898203018552875190815181528282015183820152848060a01b0360408301511660408201526060808301519082015260e080611578608080860151906101008091870152850190611dac565b9360a08082015115159085015260c08082015190850152015115159101529601920196019592919092611512565b6040516115b281611eea565b600081526000838201526000604082015260606000818301526080820152600060a0820152600060c0820152600060e0820152828287010152018590611424565b85548452600195860195889550930192016113df565b346101f55760003660031901126101f5576020604051610e108152f35b346101f55760003660031901126101f55760025460405160089190911c6001600160a01b03168152602090f35b346101f55760003660031901126101f55760008060098054915b82811061192b575061167e83612258565b9261168c6040519485611f06565b80845261169b601f1991612258565b0160005b8181106118be5750506000805b8381106117a3576040805160208082528751818301819052600093600582901b8401810192808b01929185015b8287106116e65785850386f35b909192938280600192603f1989820301855287519081518152848060a01b0383830151168382015261173d61172a6040840151610180806040860152840190611dac565b6060808501519084830390850152611dac565b916080808201519083015260a0808201519083015260c0808201519083015260e081015160e083015261010080820151908301526101208082015190830152610140808201519083015261016080910151151591015296019201960195929190926116d9565b6117ac81611d0e565b9054600391821b1c60005260059060209180835261024d611816604060002093604051956117d987611ece565b8554875260018601546001600160a01b0316908701526040516118038161024d8160028a01611e38565b6040870152604051928380928701611e38565b60608401526004820154608084015281015460a0830152600681015460c0830152600781015460e083015260088101546101008301528481015461012083015260ff600b600a830154928361014086015201541615159081610160840152816118b4575b5061188f575b5061188a90611fb5565b6116ac565b826118ad916118a261188a94958961226f565b526114e2818861226f565b9190611880565b905042108761187a565b6020906040516118cd81611ece565b600081528260008183015260608060408401528083015260006080830152600060a0830152600060c0830152600060e0830152600061010083015260006101208301526000610140830152600061016083015282880101520161169f565b61193481611d0e565b9054600391821b1c6000526005602081815260ff600b60406000200154169283611984575b50505061196f575b61196a90611fb5565b61166d565b9261197c61196a91611fb5565b939050611961565b9091925061199184611d0e565b9054911b1c60005252600a604060002001544210858080611959565b346101f55760003660031901126101f557602060405162278d008152f35b346101f55760206119e46119de36611d73565b90612283565b6040519015158152f35b346101f55760003660031901126101f5576000546040516001600160a01b039091168152602090f35b346101f55760003660031901126101f557611a30611f27565b611a38612077565b600160ff1960025416176002557f62e78cea01bee320cd4e420270b5ea74000d11b0c9f74754ebdbfc544b05a2586020604051338152a1005b346101f55760003660031901126101f557611a8a611f27565b600080546001600160a01b0319811682556001600160a01b03167f8be0079c531659141344cd1fd0a4f28419497f9722a3daafe3b4186f6b6457e08280a3005b346101f55760003660031901126101f557602060ff600254166040519015158152f35b346101f55760003660031901126101f557611b06611f27565b60006001906003545b80831115611b5557611b21824761206a565b80158015611b2b57005b6000808093819360018060a01b03835416908390611b4c575bf11561036557005b506108fc611b44565b90611b75611b7b9184600052600560205260086040600020015490611fa8565b92611fb5565b9190611b0f565b346101f55760003660031901126101f557611b9b611f27565b60025460ff811615611bda5760ff19166002557f5db9ee0a495bf2e6ff9c91a7834c1ba4fdd244a5e8aa4e537bd38aeae4b073aa6020604051338152a1005b60405162461bcd60e51b815260206004820152601460248201527314185d5cd8589b194e881b9bdd081c185d5cd95960621b6044820152606490fd5b346101f55760203660031901126101f5576004356001600160a01b03811681036101f557611c42611f27565b60028054610100600160a81b03191660089290921b610100600160a81b0316919091179055005b346101f55760003660031901126101f5576020600a54604051908152f35b346101f55760203660031901126101f5576004356009548110156101f557611394602091611d0e565b346101f55760203660031901126101f557600435611ccc611f27565b6103e88111611cda57600a55005b60405162461bcd60e51b815260206004820152600c60248201526b08ccaca40e8dede40d0d2ced60a31b6044820152606490fd5b600954811015611d455760096000527f6e1540171b6c0c960b71a7020d9f60077f6af931a8bbf590da0223dacf75c7af0190600090565b634e487b7160e01b600052603260045260246000fd5b8054821015611d455760005260206000200190600090565b60409060031901126101f5576004359060243590565b60005b838110611d9c5750506000910152565b8181015183820152602001611d8c565b90602091611dc581518092818552858086019101611d89565b601f01601f1916010190565b9181601f840112156101f5578235916001600160401b0383116101f557602083818601950101116101f557565b90600182811c92168015611e2e575b6020831014611e1857565b634e487b7160e01b600052602260045260246000fd5b91607f1691611e0d565b9060009291805491611e4983611dfe565b918282526001938481169081600014611eab5750600114611e6b575b50505050565b90919394506000526020928360002092846000945b838610611e97575050505001019038808080611e65565b805485870183015294019385908201611e80565b9294505050602093945060ff191683830152151560051b01019038808080611e65565b61018081019081106001600160401b0382111761088957604052565b61010081019081106001600160401b0382111761088957604052565b90601f801991011681019081106001600160401b0382111761088957604052565b6000546001600160a01b03163303611f3b57565b606460405162461bcd60e51b815260206004820152602060248201527f4f776e61626c653a2063616c6c6572206973206e6f7420746865206f776e65726044820152fd5b81810292918115918404141715611f9257565b634e487b7160e01b600052601160045260246000fd5b91908201809211611f9257565b6000198114611f925760010190565b6001600160401b03811161088957601f01601f191660200190565b929192611feb82611fc4565b91611ff96040519384611f06565b8294818452818301116101f5578281602093846000960137010152565b90601f811161202457505050565b600091825260208220906020601f850160051c83019410612060575b601f0160051c01915b82811061205557505050565b818155600101612049565b9092508290612040565b91908203918211611f9257565b60ff6002541661208357565b60405162461bcd60e51b815260206004820152601060248201526f14185d5cd8589b194e881c185d5cd95960821b6044820152606490fd5b6002600154146120cc576002600155565b60405162461bcd60e51b815260206004820152601f60248201527f5265656e7472616e637947756172643a207265656e7472616e742063616c6c006044820152606490fd5b1561211857565b60405162461bcd60e51b8152602060048201526011602482015270426f756e7479206e6f742061637469766560781b6044820152606490fd5b81601f820112156101f557805161216781611fc4565b926121756040519485611f06565b818452602082840101116101f5576121939160208085019101611d89565b90565b906020828203126101f55781516001600160401b03928382116101f5570160e0818303126101f5576040519260e08401848110828211176108895760405281518181116101f557836121e9918401612151565b84526020820151602085015260408201518181116101f5578361220d918401612151565b604085015260608201519081116101f55760c09261222c918301612151565b60608401526080810151608084015260a081015160a0840152015180151581036101f55760c082015290565b6001600160401b0381116108895760051b60200190565b8051821015611d455760209160051b010190565b90600080928282526005602052604092838320908451916122a383611ece565b8054835260018101546001600160a01b03908116602085015286519093906122d28161024d8160028701611e38565b8782015286516122e98161024d8160038701611e38565b6060820152600482015460808201526005820154918260a08301526006810154918260c0820152600782015460e08201526008820154610100820152600982015461012082015260ff600b600a8401549384610140850152015416159061016082159101526123ed574210156123e35710156123db57828452600860205284842090845260205260ff84842054166123d45760249060025460081c1693518094819363349abfa760e11b835260048301525afa8291816123b8575b506123ad575090565b60c091500151151590565b6123cd9192503d8085833e61121a8183611f06565b90386123a4565b5050505090565b505050505090565b5050505050505090565b505050505050505090565b9190811015611d455760051b019056fea2646970667358221220b5e8bfb57ee974718eb0aeaf730410a331cbf1e5f27f33166a35bf639f49754b64736f6c63430008130033","opcodes":"PUSH1 0x80 CALLVALUE PUSH2 0xC8 JUMPI PUSH1 0x1F PUSH2 0x2522 CODESIZE DUP2 SWAP1 SUB SWAP2 DUP3 ADD PUSH1 0x1F NOT AND DUP4 ADD SWAP2 PUSH1 0x1 PUSH1 0x1 PUSH1 0x40 SHL SUB DUP4 GT DUP5 DUP5 LT OR PUSH2 0xCD JUMPI DUP1 DUP5 SWAP3 PUSH1 0x20 SWAP5 PUSH1 0x40 MSTORE DUP4 CODECOPY DUP2 ADD SUB SLT PUSH2 0xC8 JUMPI MLOAD PUSH1 0x1 PUSH1 0x1 PUSH1 0xA0 SHL SUB SWAP1 DUP2 DUP2 AND DUP2 SUB PUSH2 0xC8 JUMPI PUSH1 0x0 SLOAD CALLER PUSH1 0x1 DUP1 PUSH1 0xA0 SHL SUB NOT DUP3 AND OR PUSH1 0x0 SSTORE PUSH1 0x40 MLOAD SWAP3 CALLER SWAP2 AND PUSH32 0x8BE0079C531659141344CD1FD0A4F28419497F9722A3DAAFE3B4186F6B6457E0 PUSH1 0x0 DUP1 LOG3 PUSH1 0x1 DUP1 SSTORE PUSH1 0x2 DUP1 SLOAD PUSH1 0xFA PUSH1 0xA SSTORE PUSH1 0x1 PUSH1 0x1 PUSH1 0xA8 SHL SUB NOT AND PUSH1 0x8 SWAP3 SWAP1 SWAP3 SHL PUSH2 0x100 PUSH1 0x1 PUSH1 0xA8 SHL SUB AND SWAP2 SWAP1 SWAP2 OR SWAP1 SSTORE PUSH2 0x243E SWAP1 DUP2 PUSH2 0xE4 DUP3 CODECOPY RETURN JUMPDEST PUSH1 0x0 DUP1 REVERT JUMPDEST PUSH4 0x4E487B71 PUSH1 0xE0 SHL PUSH1 0x0 MSTORE PUSH1 0x41 PUSH1 0x4 MSTORE PUSH1 0x24 PUSH1 0x0 REVERT INVALID PUSH1 0x80 PUSH1 0x40 MSTORE PUSH1 0x4 CALLDATASIZE LT ISZERO PUSH2 0x12 JUMPI PUSH1 0x0 DUP1 REVERT JUMPDEST PUSH1 0x0 CALLDATALOAD PUSH1 0xE0 SHR DUP1 PUSH4 0x12E8E2C3 EQ PUSH2 0x1CB0 JUMPI DUP1 PUSH4 0x220F8BC5 EQ PUSH2 0x1C87 JUMPI DUP1 PUSH4 0x22DCD13E EQ PUSH2 0x1C69 JUMPI DUP1 PUSH4 0x3DEF1BCB EQ PUSH2 0x1C16 JUMPI DUP1 PUSH4 0x3F4BA83A EQ PUSH2 0x1B82 JUMPI DUP1 PUSH4 0x476343EE EQ PUSH2 0x1AED JUMPI DUP1 PUSH4 0x5C975ABB EQ PUSH2 0x1ACA JUMPI DUP1 PUSH4 0x715018A6 EQ PUSH2 0x1A71 JUMPI DUP1 PUSH4 0x8456CB59 EQ PUSH2 0x1A17 JUMPI DUP1 PUSH4 0x8DA5CB5B EQ PUSH2 0x19EE JUMPI DUP1 PUSH4 0xA4938A0F EQ PUSH2 0x19CB JUMPI DUP1 PUSH4 0xB1724B46 EQ PUSH2 0x19AD JUMPI DUP1 PUSH4 0xB4E51269 EQ PUSH2 0x1653 JUMPI DUP1 PUSH4 0xB629ED00 EQ PUSH2 0x1626 JUMPI DUP1 PUSH4 0xB6A6D177 EQ PUSH2 0x1609 JUMPI DUP1 PUSH4 0xB7BDFFC8 EQ PUSH2 0x13A2 JUMPI DUP1 PUSH4 0xCB2489F5 EQ PUSH2 0x1363 JUMPI DUP1 PUSH4 0xCF4E44D6 EQ PUSH2 0xC5C JUMPI DUP1 PUSH4 0xD23E93E2 EQ PUSH2 0xB24 JUMPI DUP1 PUSH4 0xD9D6FFC4 EQ PUSH2 0x4ED JUMPI DUP1 PUSH4 0xDC2F8744 EQ PUSH2 0x3EC JUMPI DUP1 PUSH4 0xDFFDE26D EQ PUSH2 0x3B4 JUMPI DUP1 PUSH4 0xE5E5DFF1 EQ PUSH2 0x2AB JUMPI DUP1 PUSH4 0xED35D7E5 EQ PUSH2 0x1FA JUMPI PUSH4 0xF2FDE38B EQ PUSH2 0x12F JUMPI PUSH1 0x0 DUP1 REVERT JUMPDEST CALLVALUE PUSH2 0x1F5 JUMPI PUSH1 0x20 CALLDATASIZE PUSH1 0x3 NOT ADD SLT PUSH2 0x1F5 JUMPI PUSH1 0x4 CALLDATALOAD PUSH1 0x1 PUSH1 0x1 PUSH1 0xA0 SHL SUB DUP2 DUP2 AND SWAP2 DUP3 SWAP1 SUB PUSH2 0x1F5 JUMPI PUSH2 0x15E PUSH2 0x1F27 JUMP JUMPDEST DUP2 ISZERO PUSH2 0x1A1 JUMPI PUSH1 0x0 SLOAD DUP3 PUSH1 0x1 PUSH1 0x1 PUSH1 0x60 SHL SUB PUSH1 0xA0 SHL DUP3 AND OR PUSH1 0x0 SSTORE AND PUSH32 0x8BE0079C531659141344CD1FD0A4F28419497F9722A3DAAFE3B4186F6B6457E0 PUSH1 0x0 DUP1 LOG3 STOP JUMPDEST PUSH1 0x40 MLOAD PUSH3 0x461BCD PUSH1 0xE5 SHL DUP2 MSTORE PUSH1 0x20 PUSH1 0x4 DUP3 ADD MSTORE PUSH1 0x26 PUSH1 0x24 DUP3 ADD MSTORE PUSH32 0x4F776E61626C653A206E6577206F776E657220697320746865207A65726F2061 PUSH1 0x44 DUP3 ADD MSTORE PUSH6 0x646472657373 PUSH1 0xD0 SHL PUSH1 0x64 DUP3 ADD MSTORE PUSH1 0x84 SWAP1 REVERT JUMPDEST PUSH1 0x0 DUP1 REVERT JUMPDEST CALLVALUE PUSH2 0x1F5 JUMPI PUSH1 0x20 CALLDATASIZE PUSH1 0x3 NOT ADD SLT PUSH2 0x1F5 JUMPI PUSH1 0x4 CALLDATALOAD PUSH1 0x0 MSTORE PUSH1 0x6 PUSH1 0x20 MSTORE PUSH1 0x40 PUSH1 0x0 KECCAK256 DUP1 SLOAD PUSH1 0x1 DUP3 ADD SLOAD SWAP2 PUSH1 0x1 DUP1 PUSH1 0xA0 SHL SUB PUSH1 0x2 DUP3 ADD SLOAD AND PUSH1 0x3 DUP3 ADD SLOAD SWAP2 PUSH2 0x293 PUSH1 0x40 MLOAD PUSH2 0x254 DUP2 PUSH2 0x24D DUP2 PUSH1 0x4 DUP8 ADD PUSH2 0x1E38 JUMP JUMPDEST SUB DUP3 PUSH2 0x1F06 JUMP JUMPDEST PUSH1 0xFF PUSH1 0x5 DUP5 ADD SLOAD AND SWAP5 PUSH1 0xFF PUSH1 0x7 PUSH1 0x6 DUP7 ADD SLOAD SWAP6 ADD SLOAD AND SWAP5 PUSH1 0x40 MLOAD SWAP9 DUP10 SWAP9 DUP10 MSTORE PUSH1 0x20 DUP10 ADD MSTORE PUSH1 0x40 DUP9 ADD MSTORE PUSH1 0x60 DUP8 ADD MSTORE PUSH2 0x100 DUP1 PUSH1 0x80 DUP9 ADD MSTORE DUP7 ADD SWAP1 PUSH2 0x1DAC JUMP JUMPDEST SWAP3 ISZERO ISZERO PUSH1 0xA0 DUP6 ADD MSTORE PUSH1 0xC0 DUP5 ADD MSTORE ISZERO ISZERO PUSH1 0xE0 DUP4 ADD MSTORE SUB SWAP1 RETURN JUMPDEST CALLVALUE PUSH2 0x1F5 JUMPI PUSH1 0x20 CALLDATASIZE PUSH1 0x3 NOT ADD SLT PUSH2 0x1F5 JUMPI PUSH1 0x4 CALLDATALOAD PUSH2 0x2C7 PUSH2 0x20BB JUMP JUMPDEST PUSH1 0x0 DUP2 DUP2 MSTORE PUSH1 0x5 PUSH1 0x20 MSTORE PUSH1 0x40 SWAP1 KECCAK256 PUSH1 0x1 DUP2 ADD SLOAD PUSH1 0x1 PUSH1 0x1 PUSH1 0xA0 SHL SUB AND CALLER SUB PUSH2 0x37A JUMPI DUP1 PUSH1 0xB PUSH1 0x8 SWAP3 ADD DUP1 SLOAD PUSH2 0x2FE PUSH1 0xFF DUP3 AND PUSH2 0x2111 JUMP JUMPDEST PUSH1 0xFF NOT AND SWAP1 SSTORE ADD PUSH1 0x0 DUP2 SLOAD SWAP2 SSTORE DUP1 ISZERO DUP1 ISZERO PUSH2 0x346 JUMPI JUMPDEST POP PUSH1 0x20 PUSH32 0x4FE522CAF12F0ADBA1B0532093B34BEA60FC859FB838AE075B44BCD15FCDE9FF SWAP2 PUSH1 0x40 MLOAD SWAP1 DUP2 MSTORE LOG2 PUSH1 0x1 DUP1 SSTORE STOP JUMPDEST DUP2 SWAP1 PUSH1 0x0 SWAP1 PUSH2 0x371 JUMPI JUMPDEST PUSH1 0x0 DUP1 DUP1 SWAP4 DUP2 SWAP4 CALLER SWAP1 CALL ISZERO PUSH2 0x365 JUMPI DUP3 PUSH2 0x314 JUMP JUMPDEST PUSH1 0x40 MLOAD RETURNDATASIZE PUSH1 0x0 DUP3 RETURNDATACOPY RETURNDATASIZE SWAP1 REVERT JUMPDEST POP PUSH2 0x8FC PUSH2 0x350 JUMP JUMPDEST PUSH1 0x40 MLOAD PUSH3 0x461BCD PUSH1 0xE5 SHL DUP2 MSTORE PUSH1 0x20 PUSH1 0x4 DUP3 ADD MSTORE PUSH1 0x12 PUSH1 0x24 DUP3 ADD MSTORE PUSH18 0x2737BA103137BAB73A3C9031B932B0BA37B9 PUSH1 0x71 SHL PUSH1 0x44 DUP3 ADD MSTORE PUSH1 0x64 SWAP1 REVERT JUMPDEST CALLVALUE PUSH2 0x1F5 JUMPI PUSH2 0x3C2 CALLDATASIZE PUSH2 0x1D73 JUMP JUMPDEST SWAP1 PUSH1 0x0 MSTORE PUSH1 0x8 PUSH1 0x20 MSTORE PUSH1 0x40 PUSH1 0x0 KECCAK256 SWAP1 PUSH1 0x0 MSTORE PUSH1 0x20 MSTORE PUSH1 0x20 PUSH1 0xFF PUSH1 0x40 PUSH1 0x0 KECCAK256 SLOAD AND PUSH1 0x40 MLOAD SWAP1 ISZERO ISZERO DUP2 MSTORE RETURN JUMPDEST CALLVALUE PUSH2 0x1F5 JUMPI PUSH1 0x20 CALLDATASIZE PUSH1 0x3 NOT ADD SLT PUSH2 0x1F5 JUMPI PUSH1 0x4 CALLDATALOAD PUSH1 0x0 MSTORE PUSH1 0x5 PUSH1 0x20 MSTORE PUSH1 0x20 PUSH1 0x40 PUSH1 0x0 KECCAK256 DUP1 SLOAD SWAP1 PUSH1 0x1 DUP1 PUSH1 0xA0 SHL SUB PUSH1 0x1 DUP3 ADD SLOAD AND PUSH1 0x40 MLOAD SWAP2 PUSH2 0x43B DUP4 PUSH2 0x434 DUP2 PUSH1 0x2 DUP6 ADD PUSH2 0x1E38 JUMP JUMPDEST SUB DUP5 PUSH2 0x1F06 JUMP JUMPDEST PUSH1 0x40 MLOAD SWAP3 PUSH2 0x457 DUP5 PUSH2 0x450 DUP2 PUSH1 0x3 DUP7 ADD PUSH2 0x1E38 JUMP JUMPDEST SUB DUP6 PUSH2 0x1F06 JUMP JUMPDEST PUSH1 0x4 DUP3 ADD SLOAD SWAP4 PUSH1 0x5 DUP4 ADD SLOAD PUSH1 0x6 DUP5 ADD SLOAD PUSH1 0x7 DUP6 ADD SLOAD SWAP2 PUSH2 0x4BA PUSH1 0x8 DUP8 ADD SLOAD SWAP5 PUSH2 0x4AC PUSH1 0x9 DUP10 ADD SLOAD SWAP8 PUSH1 0xFF PUSH1 0xB PUSH1 0xA DUP13 ADD SLOAD SWAP12 ADD SLOAD AND SWAP11 PUSH1 0x40 MLOAD SWAP15 DUP16 SWAP15 DUP16 SWAP1 DUP2 MSTORE ADD MSTORE PUSH1 0x40 DUP14 PUSH2 0x180 SWAP2 DUP3 SWAP2 ADD MSTORE DUP14 ADD SWAP1 PUSH2 0x1DAC JUMP JUMPDEST SWAP1 DUP12 DUP3 SUB PUSH1 0x60 DUP14 ADD MSTORE PUSH2 0x1DAC JUMP JUMPDEST SWAP8 PUSH1 0x80 DUP11 ADD MSTORE PUSH1 0xA0 DUP10 ADD MSTORE PUSH1 0xC0 DUP9 ADD MSTORE PUSH1 0xE0 DUP8 ADD MSTORE PUSH2 0x100 DUP7 ADD MSTORE PUSH2 0x120 DUP6 ADD MSTORE PUSH2 0x140 DUP5 ADD MSTORE ISZERO ISZERO PUSH2 0x160 DUP4 ADD MSTORE SUB SWAP1 RETURN JUMPDEST PUSH1 0xA0 CALLDATASIZE PUSH1 0x3 NOT ADD SLT PUSH2 0x1F5 JUMPI PUSH1 0x4 CALLDATALOAD PUSH1 0x1 PUSH1 0x1 PUSH1 0x40 SHL SUB DUP2 GT PUSH2 0x1F5 JUMPI PUSH2 0x518 SWAP1 CALLDATASIZE SWAP1 PUSH1 0x4 ADD PUSH2 0x1DD1 JUMP JUMPDEST SWAP1 PUSH1 0x24 CALLDATALOAD PUSH1 0x1 PUSH1 0x1 PUSH1 0x40 SHL SUB DUP2 GT PUSH2 0x1F5 JUMPI PUSH2 0x538 SWAP1 CALLDATASIZE SWAP1 PUSH1 0x4 ADD PUSH2 0x1DD1 JUMP JUMPDEST SWAP3 SWAP1 SWAP2 PUSH2 0x543 PUSH2 0x20BB JUMP JUMPDEST PUSH2 0x54B PUSH2 0x2077 JUMP JUMPDEST DUP2 ISZERO PUSH2 0xAEA JUMPI DUP4 ISZERO PUSH2 0xAAE JUMPI PUSH1 0x44 CALLDATALOAD ISZERO PUSH2 0xA69 JUMPI PUSH1 0x64 CALLDATALOAD ISZERO PUSH2 0xA24 JUMPI PUSH2 0xE10 PUSH1 0x84 CALLDATALOAD LT ISZERO DUP1 PUSH2 0xA15 JUMPI JUMPDEST ISZERO PUSH2 0x9DD JUMPI PUSH2 0x588 PUSH1 0x64 CALLDATALOAD PUSH1 0x44 CALLDATALOAD PUSH2 0x1F7F JUMP JUMPDEST SWAP4 PUSH2 0x5A2 PUSH2 0x2710 PUSH2 0x59B PUSH1 0xA SLOAD DUP9 PUSH2 0x1F7F JUMP JUMPDEST DIV DUP7 PUSH2 0x1FA8 JUMP JUMPDEST SWAP4 DUP5 CALLVALUE LT PUSH2 0x9A1 JUMPI PUSH2 0x5B5 PUSH1 0x3 SLOAD PUSH2 0x1FB5 JUMP JUMPDEST SWAP6 DUP7 PUSH1 0x3 SSTORE PUSH2 0x5F7 PUSH2 0x5C9 PUSH1 0x84 CALLDATALOAD TIMESTAMP PUSH2 0x1FA8 JUMP JUMPDEST SWAP3 PUSH1 0x40 MLOAD SWAP5 PUSH2 0x5D7 DUP7 PUSH2 0x1ECE JUMP JUMPDEST DUP10 DUP7 MSTORE CALLER PUSH1 0x20 DUP8 ADD MSTORE PUSH2 0x5EB CALLDATASIZE DUP10 DUP10 PUSH2 0x1FDF JUMP JUMPDEST PUSH1 0x40 DUP8 ADD MSTORE CALLDATASIZE SWAP2 PUSH2 0x1FDF JUMP JUMPDEST PUSH1 0x60 DUP5 ADD MSTORE PUSH1 0x44 CALLDATALOAD PUSH1 0x80 DUP5 ADD MSTORE PUSH1 0x64 CALLDATALOAD PUSH1 0xA0 DUP5 ADD MSTORE PUSH1 0x0 PUSH1 0xC0 DUP5 ADD MSTORE DUP1 PUSH1 0xE0 DUP5 ADD MSTORE PUSH2 0x100 DUP4 ADD MSTORE TIMESTAMP PUSH2 0x120 DUP4 ADD MSTORE PUSH2 0x140 DUP3 ADD MSTORE PUSH1 0x1 PUSH2 0x160 DUP3 ADD MSTORE DUP5 PUSH1 0x0 MSTORE PUSH1 0x5 PUSH1 0x20 MSTORE PUSH1 0x40 PUSH1 0x0 KECCAK256 SWAP1 DUP1 MLOAD DUP3 SSTORE PUSH1 0x1 DUP3 ADD PUSH1 0x1 DUP1 PUSH1 0xA0 SHL SUB PUSH1 0x20 DUP4 ADD MLOAD AND PUSH1 0x1 PUSH1 0x1 PUSH1 0x60 SHL SUB PUSH1 0xA0 SHL DUP3 SLOAD AND OR SWAP1 SSTORE PUSH1 0x40 DUP2 ADD MLOAD DUP1 MLOAD SWAP1 PUSH1 0x1 PUSH1 0x1 PUSH1 0x40 SHL SUB DUP3 GT PUSH2 0x889 JUMPI DUP2 SWAP1 PUSH2 0x69B DUP3 PUSH2 0x692 PUSH1 0x2 DUP9 ADD SLOAD PUSH2 0x1DFE JUMP JUMPDEST PUSH1 0x2 DUP9 ADD PUSH2 0x2016 JUMP JUMPDEST PUSH1 0x20 SWAP1 PUSH1 0x1F DUP4 GT PUSH1 0x1 EQ PUSH2 0x92F JUMPI PUSH1 0x0 SWAP3 PUSH2 0x924 JUMPI JUMPDEST POP POP DUP2 PUSH1 0x1 SHL SWAP2 PUSH1 0x0 NOT SWAP1 PUSH1 0x3 SHL SHR NOT AND OR PUSH1 0x2 DUP4 ADD SSTORE JUMPDEST PUSH1 0x60 DUP2 ADD MLOAD DUP1 MLOAD SWAP1 PUSH1 0x1 PUSH1 0x1 PUSH1 0x40 SHL SUB DUP3 GT PUSH2 0x889 JUMPI PUSH2 0x6F9 DUP3 PUSH2 0x6F0 PUSH1 0x3 DUP8 ADD SLOAD PUSH2 0x1DFE JUMP JUMPDEST PUSH1 0x3 DUP8 ADD PUSH2 0x2016 JUMP JUMPDEST PUSH1 0x20 SWAP1 PUSH1 0x1F DUP4 GT PUSH1 0x1 EQ PUSH2 0x8AA JUMPI SWAP3 DUP3 PUSH1 0xB SWAP4 PUSH2 0x160 SWAP4 PUSH2 0x795 SWAP8 SWAP7 PUSH1 0x0 SWAP3 PUSH2 0x89F JUMPI JUMPDEST POP POP DUP2 PUSH1 0x1 SHL SWAP2 PUSH1 0x0 NOT SWAP1 PUSH1 0x3 SHL SHR NOT AND OR PUSH1 0x3 DUP6 ADD SSTORE JUMPDEST PUSH1 0x80 DUP2 ADD MLOAD PUSH1 0x4 DUP6 ADD SSTORE PUSH1 0xA0 DUP2 ADD MLOAD PUSH1 0x5 DUP6 ADD SSTORE PUSH1 0xC0 DUP2 ADD MLOAD PUSH1 0x6 DUP6 ADD SSTORE PUSH1 0xE0 DUP2 ADD MLOAD PUSH1 0x7 DUP6 ADD SSTORE PUSH2 0x100 DUP2 ADD MLOAD PUSH1 0x8 DUP6 ADD SSTORE PUSH2 0x120 DUP2 ADD MLOAD PUSH1 0x9 DUP6 ADD SSTORE PUSH2 0x140 DUP2 ADD MLOAD PUSH1 0xA DUP6 ADD SSTORE ADD MLOAD ISZERO ISZERO SWAP2 ADD SWAP1 PUSH1 0xFF DUP1 NOT DUP4 SLOAD AND SWAP2 ISZERO ISZERO AND OR SWAP1 SSTORE JUMP JUMPDEST PUSH1 0x9 SLOAD PUSH1 0x1 PUSH1 0x40 SHL DUP2 LT ISZERO PUSH2 0x889 JUMPI DUP5 SWAP2 PUSH2 0x7F4 DUP4 PUSH2 0x7DB DUP5 PUSH1 0x1 PUSH32 0x736AB752F6714F3191BC874EBE0B24D2DAA1E5A5281882B7C59D90D19C45FDA4 SWAP7 ADD PUSH1 0x9 SSTORE PUSH2 0x1D0E JUMP JUMPDEST SWAP1 SWAP2 SWAP1 DUP3 SLOAD SWAP1 PUSH1 0x3 SHL SWAP2 DUP3 SHL SWAP2 PUSH1 0x0 NOT SWAP1 SHL NOT AND OR SWAP1 SSTORE JUMP JUMPDEST PUSH2 0x800 PUSH1 0x84 CALLDATALOAD TIMESTAMP PUSH2 0x1FA8 JUMP JUMPDEST DUP5 PUSH1 0x40 MLOAD SWAP3 PUSH1 0x80 DUP5 MSTORE DUP2 PUSH1 0x80 DUP6 ADD MSTORE PUSH1 0xA0 DUP5 ADD CALLDATACOPY PUSH1 0x0 PUSH1 0xA0 DUP7 DUP5 ADD ADD MSTORE PUSH1 0x44 CALLDATALOAD PUSH1 0x20 DUP4 ADD MSTORE PUSH1 0x64 CALLDATALOAD PUSH1 0x40 DUP4 ADD MSTORE PUSH1 0x60 DUP3 ADD MSTORE PUSH1 0xA0 DUP2 CALLER SWAP6 PUSH1 0x1F DUP1 NOT SWAP2 ADD AND DUP2 ADD SUB ADD SWAP1 LOG3 DUP1 CALLVALUE GT PUSH2 0x85B JUMPI JUMPDEST PUSH1 0x20 DUP3 PUSH1 0x1 DUP1 SSTORE PUSH1 0x40 MLOAD SWAP1 DUP2 MSTORE RETURN JUMPDEST PUSH1 0x0 DUP1 DUP1 PUSH2 0x86A DUP2 SWAP5 CALLVALUE PUSH2 0x206A JUMP JUMPDEST DUP2 DUP2 ISZERO PUSH2 0x880 JUMPI JUMPDEST CALLER SWAP1 CALL ISZERO PUSH2 0x365 JUMPI DUP2 PUSH2 0x84C JUMP JUMPDEST POP PUSH2 0x8FC PUSH2 0x872 JUMP JUMPDEST PUSH4 0x4E487B71 PUSH1 0xE0 SHL PUSH1 0x0 MSTORE PUSH1 0x41 PUSH1 0x4 MSTORE PUSH1 0x24 PUSH1 0x0 REVERT JUMPDEST ADD MLOAD SWAP1 POP DUP12 DUP1 PUSH2 0x71D JUMP JUMPDEST SWAP1 PUSH1 0x3 DUP6 ADD PUSH1 0x0 MSTORE PUSH1 0x20 PUSH1 0x0 KECCAK256 SWAP2 PUSH1 0x0 JUMPDEST PUSH1 0x1F NOT DUP6 AND DUP2 LT PUSH2 0x90C JUMPI POP DUP4 PUSH2 0x160 SWAP4 PUSH2 0x795 SWAP8 SWAP7 SWAP4 PUSH1 0x1 SWAP4 PUSH1 0xB SWAP8 PUSH1 0x1F NOT DUP2 AND LT PUSH2 0x8F3 JUMPI JUMPDEST POP POP POP DUP2 SHL ADD PUSH1 0x3 DUP6 ADD SSTORE PUSH2 0x735 JUMP JUMPDEST ADD MLOAD PUSH1 0x0 NOT PUSH1 0xF8 DUP5 PUSH1 0x3 SHL AND SHR NOT AND SWAP1 SSTORE DUP12 DUP1 DUP1 PUSH2 0x8E3 JUMP JUMPDEST SWAP2 SWAP3 PUSH1 0x20 PUSH1 0x1 DUP2 SWAP3 DUP7 DUP6 ADD MLOAD DUP2 SSTORE ADD SWAP5 ADD SWAP3 ADD PUSH2 0x8BB JUMP JUMPDEST ADD MLOAD SWAP1 POP DUP9 DUP1 PUSH2 0x6B1 JUMP JUMPDEST SWAP3 POP PUSH1 0x2 DUP6 ADD PUSH1 0x0 MSTORE PUSH1 0x20 PUSH1 0x0 KECCAK256 SWAP1 PUSH1 0x0 SWAP4 JUMPDEST PUSH1 0x1F NOT DUP5 AND DUP6 LT PUSH2 0x986 JUMPI PUSH1 0x1 SWAP5 POP DUP4 PUSH1 0x1F NOT DUP2 AND LT PUSH2 0x96D JUMPI JUMPDEST POP POP POP DUP2 SHL ADD PUSH1 0x2 DUP4 ADD SSTORE PUSH2 0x6C9 JUMP JUMPDEST ADD MLOAD PUSH1 0x0 NOT PUSH1 0xF8 DUP5 PUSH1 0x3 SHL AND SHR NOT AND SWAP1 SSTORE DUP9 DUP1 DUP1 PUSH2 0x95D JUMP JUMPDEST DUP2 DUP2 ADD MLOAD DUP4 SSTORE PUSH1 0x20 SWAP5 DUP6 ADD SWAP5 PUSH1 0x1 SWAP1 SWAP4 ADD SWAP3 SWAP1 SWAP2 ADD SWAP1 PUSH2 0x942 JUMP JUMPDEST PUSH1 0x40 MLOAD PUSH3 0x461BCD PUSH1 0xE5 SHL DUP2 MSTORE PUSH1 0x20 PUSH1 0x4 DUP3 ADD MSTORE PUSH1 0x14 PUSH1 0x24 DUP3 ADD MSTORE PUSH20 0x496E73756666696369656E742066756E64696E67 PUSH1 0x60 SHL PUSH1 0x44 DUP3 ADD MSTORE PUSH1 0x64 SWAP1 REVERT JUMPDEST PUSH1 0x40 MLOAD PUSH3 0x461BCD PUSH1 0xE5 SHL DUP2 MSTORE PUSH1 0x20 PUSH1 0x4 DUP3 ADD MSTORE PUSH1 0x10 PUSH1 0x24 DUP3 ADD MSTORE PUSH16 0x24B73B30B634B210323AB930BA34B7B7 PUSH1 0x81 SHL PUSH1 0x44 DUP3 ADD MSTORE PUSH1 0x64 SWAP1 REVERT JUMPDEST POP PUSH3 0x278D00 PUSH1 0x84 CALLDATALOAD GT ISZERO PUSH2 0x575 JUMP JUMPDEST PUSH1 0x40 MLOAD PUSH3 0x461BCD PUSH1 0xE5 SHL DUP2 MSTORE PUSH1 0x20 PUSH1 0x4 DUP3 ADD MSTORE PUSH1 0x1E PUSH1 0x24 DUP3 ADD MSTORE PUSH32 0x4D617820726573706F6E736573206D75737420626520706F7369746976650000 PUSH1 0x44 DUP3 ADD MSTORE PUSH1 0x64 SWAP1 REVERT JUMPDEST PUSH1 0x40 MLOAD PUSH3 0x461BCD PUSH1 0xE5 SHL DUP2 MSTORE PUSH1 0x20 PUSH1 0x4 DUP3 ADD MSTORE PUSH1 0x17 PUSH1 0x24 DUP3 ADD MSTORE PUSH32 0x526577617264206D75737420626520706F736974697665000000000000000000 PUSH1 0x44 DUP3 ADD MSTORE PUSH1 0x64 SWAP1 REVERT JUMPDEST PUSH1 0x40 MLOAD PUSH3 0x461BCD PUSH1 0xE5 SHL DUP2 MSTORE PUSH1 0x20 PUSH1 0x4 DUP3 ADD MSTORE PUSH1 0x14 PUSH1 0x24 DUP3 ADD MSTORE PUSH20 0x496E76616C696420717565727920706172616D73 PUSH1 0x60 SHL PUSH1 0x44 DUP3 ADD MSTORE PUSH1 0x64 SWAP1 REVERT JUMPDEST PUSH1 0x40 MLOAD PUSH3 0x461BCD PUSH1 0xE5 SHL DUP2 MSTORE PUSH1 0x20 PUSH1 0x4 DUP3 ADD MSTORE PUSH1 0x12 PUSH1 0x24 DUP3 ADD MSTORE PUSH18 0x496E76616C69642071756572792074797065 PUSH1 0x70 SHL PUSH1 0x44 DUP3 ADD MSTORE PUSH1 0x64 SWAP1 REVERT JUMPDEST CALLVALUE PUSH2 0x1F5 JUMPI PUSH1 0x20 DUP1 PUSH1 0x3 NOT CALLDATASIZE ADD SLT PUSH2 0x1F5 JUMPI PUSH1 0x4 CALLDATALOAD SWAP1 PUSH1 0x1 PUSH1 0x1 PUSH1 0x40 SHL SUB DUP1 DUP4 GT PUSH2 0x1F5 JUMPI CALLDATASIZE PUSH1 0x23 DUP5 ADD SLT ISZERO PUSH2 0x1F5 JUMPI DUP3 PUSH1 0x4 ADD CALLDATALOAD SWAP1 DUP2 GT PUSH2 0x1F5 JUMPI PUSH1 0x24 DUP4 ADD SWAP3 PUSH1 0x5 SWAP1 PUSH1 0x24 CALLDATASIZE SWAP2 DUP5 DUP5 SHL ADD ADD GT PUSH2 0x1F5 JUMPI PUSH1 0x0 JUMPDEST DUP3 DUP2 LT PUSH2 0xB82 JUMPI STOP JUMPDEST PUSH2 0xB8D DUP2 DUP5 DUP8 PUSH2 0x23F8 JUMP JUMPDEST CALLDATALOAD PUSH1 0x0 MSTORE DUP2 DUP5 MSTORE PUSH1 0x40 PUSH1 0x0 KECCAK256 PUSH1 0xB DUP2 ADD DUP1 SLOAD PUSH1 0xFF DUP2 AND DUP1 PUSH2 0xC4E JUMPI JUMPDEST PUSH2 0xBBF JUMPI JUMPDEST POP POP POP PUSH2 0xBBA SWAP1 PUSH2 0x1FB5 JUMP JUMPDEST PUSH2 0xB79 JUMP JUMPDEST PUSH1 0xFF NOT AND SWAP1 SSTORE PUSH1 0x8 DUP2 ADD DUP1 SLOAD SWAP2 DUP3 ISZERO SWAP2 DUP3 ISZERO PUSH2 0xC17 JUMPI JUMPDEST POP POP POP POP DUP1 PUSH2 0xBE9 PUSH2 0xBBA SWAP3 DUP6 DUP9 PUSH2 0x23F8 JUMP JUMPDEST CALLDATALOAD PUSH32 0x7E45726102429D3393312813EA8BAFE4C9B51580B5D82860D827662116FF9DF2 PUSH1 0x0 DUP1 LOG2 SWAP1 DUP7 DUP1 PUSH2 0xBAE JUMP JUMPDEST PUSH1 0x0 SWAP4 DUP5 SWAP4 DUP5 SWAP4 DUP5 DUP1 SWAP5 SSTORE PUSH1 0x1 DUP1 DUP1 PUSH1 0xA0 SHL SUB SWAP2 ADD SLOAD AND SWAP1 DUP4 SWAP1 PUSH2 0xC45 JUMPI JUMPDEST CALL ISZERO PUSH2 0x365 JUMPI DUP6 DUP1 DUP1 DUP1 PUSH2 0xBD6 JUMP JUMPDEST POP PUSH2 0x8FC PUSH2 0xC36 JUMP JUMPDEST POP PUSH1 0xA DUP4 ADD SLOAD TIMESTAMP LT ISZERO PUSH2 0xBA9 JUMP JUMPDEST CALLVALUE PUSH2 0x1F5 JUMPI PUSH1 0x80 CALLDATASIZE PUSH1 0x3 NOT ADD SLT PUSH2 0x1F5 JUMPI PUSH1 0x44 CALLDATALOAD DUP1 ISZERO ISZERO DUP2 SUB PUSH2 0x1F5 JUMPI PUSH1 0x64 CALLDATALOAD PUSH1 0x1 PUSH1 0x1 PUSH1 0x40 SHL SUB DUP2 GT PUSH2 0x1F5 JUMPI PUSH2 0xC98 SWAP1 CALLDATASIZE SWAP1 PUSH1 0x4 ADD PUSH2 0x1DD1 JUMP JUMPDEST SWAP1 SWAP2 PUSH2 0xCA2 PUSH2 0x20BB JUMP JUMPDEST PUSH2 0xCAA PUSH2 0x2077 JUMP JUMPDEST PUSH1 0x4 CALLDATALOAD PUSH1 0x0 MSTORE PUSH1 0x5 PUSH1 0x20 MSTORE PUSH1 0x40 PUSH1 0x0 KECCAK256 SWAP3 PUSH2 0xCCB PUSH1 0xFF PUSH1 0xB DUP7 ADD SLOAD AND PUSH2 0x2111 JUMP JUMPDEST PUSH1 0xA DUP5 ADD SLOAD TIMESTAMP LT ISZERO PUSH2 0x132D JUMPI PUSH1 0x6 DUP5 ADD SLOAD PUSH1 0x5 DUP6 ADD SLOAD GT ISZERO PUSH2 0x12F0 JUMPI PUSH1 0x24 CALLDATALOAD PUSH1 0x0 MSTORE PUSH1 0x8 PUSH1 0x20 MSTORE PUSH1 0x40 PUSH1 0x0 KECCAK256 PUSH1 0x4 CALLDATALOAD PUSH1 0x0 MSTORE PUSH1 0x20 MSTORE PUSH1 0xFF PUSH1 0x40 PUSH1 0x0 KECCAK256 SLOAD AND PUSH2 0x12A1 JUMPI PUSH1 0x1 DUP1 PUSH1 0xA0 SHL SUB PUSH1 0x2 SLOAD PUSH1 0x8 SHR AND PUSH1 0x40 MLOAD PUSH4 0x31A9108F PUSH1 0xE1 SHL DUP2 MSTORE PUSH1 0x24 CALLDATALOAD PUSH1 0x4 DUP3 ADD MSTORE PUSH1 0x20 DUP2 PUSH1 0x24 DUP2 DUP6 GAS STATICCALL SWAP1 DUP2 ISZERO PUSH2 0x365 JUMPI PUSH1 0x0 SWAP2 PUSH2 0x125F JUMPI JUMPDEST POP CALLER PUSH1 0x1 PUSH1 0x1 PUSH1 0xA0 SHL SUB SWAP1 SWAP2 AND SUB PUSH2 0x1228 JUMPI PUSH1 0x0 PUSH1 0x24 SWAP2 PUSH1 0x40 MLOAD SWAP3 DUP4 DUP1 SWAP3 PUSH4 0x349ABFA7 PUSH1 0xE1 SHL DUP3 MSTORE DUP3 CALLDATALOAD PUSH1 0x4 DUP4 ADD MSTORE GAS STATICCALL DUP1 ISZERO PUSH2 0x365 JUMPI PUSH1 0xC0 SWAP2 PUSH1 0x0 SWAP2 PUSH2 0x1205 JUMPI JUMPDEST POP ADD MLOAD ISZERO PUSH2 0x11C7 JUMPI PUSH1 0x24 CALLDATALOAD PUSH1 0x0 MSTORE PUSH1 0x8 PUSH1 0x20 MSTORE PUSH1 0x40 PUSH1 0x0 KECCAK256 PUSH1 0x4 CALLDATALOAD PUSH1 0x0 MSTORE PUSH1 0x20 MSTORE PUSH1 0x40 PUSH1 0x0 KECCAK256 PUSH1 0x1 PUSH1 0xFF NOT DUP3 SLOAD AND OR SWAP1 SSTORE PUSH2 0xDC8 PUSH1 0x6 DUP6 ADD SLOAD PUSH2 0x1FB5 JUMP JUMPDEST PUSH1 0x6 DUP6 ADD SSTORE PUSH2 0xDD8 PUSH1 0x4 SLOAD PUSH2 0x1FB5 JUMP JUMPDEST SWAP3 DUP4 PUSH1 0x4 SSTORE PUSH1 0x40 MLOAD SWAP1 PUSH1 0x4 CALLDATALOAD PUSH1 0x20 DUP4 ADD MSTORE PUSH1 0x24 CALLDATALOAD PUSH1 0x40 DUP4 ADD MSTORE CALLER PUSH1 0x60 SHL PUSH1 0x60 DUP4 ADD MSTORE DUP4 ISZERO ISZERO PUSH1 0xF8 SHL PUSH1 0x74 DUP4 ADD MSTORE TIMESTAMP PUSH1 0x75 DUP4 ADD MSTORE PUSH1 0x75 DUP3 MSTORE DUP2 PUSH1 0xA0 DUP2 ADD LT PUSH1 0x1 PUSH1 0x1 PUSH1 0x40 SHL SUB PUSH1 0xA0 DUP5 ADD GT OR PUSH2 0x889 JUMPI PUSH1 0xA0 DUP3 ADD PUSH1 0x40 MSTORE DUP2 MLOAD PUSH1 0x20 DUP4 ADD KECCAK256 PUSH2 0xE41 PUSH1 0xA0 DUP5 ADD PUSH2 0x1EEA JUMP JUMPDEST PUSH1 0x4 CALLDATALOAD PUSH1 0xA0 DUP5 ADD MSTORE PUSH2 0xE6D PUSH1 0xC0 DUP5 ADD SWAP5 PUSH1 0x24 CALLDATALOAD DUP7 MSTORE PUSH1 0xE0 DUP6 ADD SWAP4 CALLER DUP6 MSTORE PUSH2 0x100 DUP7 ADD SWAP4 DUP5 MSTORE CALLDATASIZE SWAP2 PUSH2 0x1FDF JUMP JUMPDEST SWAP2 PUSH2 0x120 DUP5 ADD SWAP3 DUP4 MSTORE DUP6 ISZERO ISZERO PUSH2 0x140 DUP6 ADD MSTORE TIMESTAMP PUSH2 0x160 DUP6 ADD MSTORE PUSH1 0x0 PUSH2 0x180 DUP6 ADD MSTORE DUP7 PUSH1 0x0 MSTORE PUSH1 0x6 PUSH1 0x20 MSTORE PUSH1 0x40 PUSH1 0x0 KECCAK256 SWAP5 PUSH1 0xA0 DUP6 ADD MLOAD DUP7 SSTORE MLOAD PUSH1 0x1 DUP7 ADD SSTORE PUSH1 0x2 DUP6 ADD SWAP1 PUSH1 0x1 DUP1 PUSH1 0xA0 SHL SUB SWAP1 MLOAD AND PUSH1 0x1 PUSH1 0x1 PUSH1 0x60 SHL SUB PUSH1 0xA0 SHL DUP3 SLOAD AND OR SWAP1 SSTORE MLOAD PUSH1 0x3 DUP5 ADD SSTORE MLOAD DUP1 MLOAD SWAP1 PUSH1 0x1 PUSH1 0x1 PUSH1 0x40 SHL SUB DUP3 GT PUSH2 0x889 JUMPI PUSH2 0xEFC DUP3 PUSH2 0xEF3 PUSH1 0x4 DUP8 ADD SLOAD PUSH2 0x1DFE JUMP JUMPDEST PUSH1 0x4 DUP8 ADD PUSH2 0x2016 JUMP JUMPDEST PUSH1 0x20 SWAP1 PUSH1 0x1F DUP4 GT PUSH1 0x1 EQ PUSH2 0x114D JUMPI SWAP3 DUP3 PUSH1 0x7 SWAP4 PUSH2 0x180 SWAP4 PUSH2 0xF7A SWAP8 SWAP7 PUSH1 0x0 SWAP3 PUSH2 0x1142 JUMPI JUMPDEST POP POP DUP2 PUSH1 0x1 SHL SWAP2 PUSH1 0x0 NOT SWAP1 PUSH1 0x3 SHL SHR NOT AND OR PUSH1 0x4 DUP6 ADD SSTORE JUMPDEST PUSH2 0xF58 PUSH2 0x140 DUP3 ADD MLOAD ISZERO ISZERO PUSH1 0x5 DUP7 ADD SWAP1 PUSH1 0xFF DUP1 NOT DUP4 SLOAD AND SWAP2 ISZERO ISZERO AND OR SWAP1 SSTORE JUMP JUMPDEST PUSH2 0x160 DUP2 ADD MLOAD PUSH1 0x6 DUP6 ADD SSTORE ADD MLOAD ISZERO ISZERO SWAP2 ADD SWAP1 PUSH1 0xFF DUP1 NOT DUP4 SLOAD AND SWAP2 ISZERO ISZERO AND OR SWAP1 SSTORE JUMP JUMPDEST PUSH1 0x4 CALLDATALOAD PUSH1 0x0 MSTORE PUSH1 0x7 PUSH1 0x20 MSTORE PUSH1 0x40 PUSH1 0x0 KECCAK256 DUP1 SLOAD PUSH1 0x1 PUSH1 0x40 SHL DUP2 LT ISZERO PUSH2 0x889 JUMPI PUSH2 0x7DB DUP2 PUSH2 0xFAC SWAP4 PUSH1 0x1 DUP8 SWAP5 ADD DUP2 SSTORE PUSH2 0x1D5B JUMP JUMPDEST PUSH1 0x40 MLOAD SWAP1 CALLER DUP3 MSTORE ISZERO ISZERO PUSH1 0x20 DUP3 ADD MSTORE DUP2 PUSH1 0x24 CALLDATALOAD SWAP2 PUSH32 0x21D2A330C9C55EEE9F106192FC6EF6DC7F831E8C844821041B847769A888C666 PUSH1 0x40 PUSH1 0x4 CALLDATALOAD SWAP3 LOG4 PUSH1 0x4 CALLDATALOAD PUSH1 0x0 MSTORE PUSH1 0x5 PUSH1 0x20 MSTORE PUSH1 0x40 PUSH1 0x0 KECCAK256 SWAP1 DUP1 PUSH1 0x0 MSTORE PUSH1 0x6 PUSH1 0x20 MSTORE PUSH1 0x40 PUSH1 0x0 KECCAK256 PUSH1 0x7 DUP2 ADD DUP1 SLOAD PUSH1 0xFF DUP2 AND PUSH2 0x110E JUMPI PUSH1 0x8 DUP6 ADD SWAP3 PUSH1 0x4 DUP5 SLOAD SWAP7 ADD SWAP6 DUP7 SLOAD GT PUSH2 0x10D4 JUMPI PUSH1 0x0 PUSH1 0x2 DUP2 SWAP5 SWAP3 DUP3 SWAP5 SWAP4 PUSH1 0x1 DUP5 SWAP6 PUSH1 0xFF NOT AND OR SWAP1 SSTORE DUP9 SLOAD SWAP7 PUSH2 0x104A DUP9 DUP3 SLOAD PUSH2 0x206A JUMP JUMPDEST SWAP1 SSTORE ADD DUP1 SLOAD SWAP1 SWAP6 SWAP1 PUSH1 0x1 PUSH1 0x1 PUSH1 0xA0 SHL SUB AND DUP3 DUP3 ISZERO PUSH2 0x10CB JUMPI JUMPDEST CALL ISZERO PUSH2 0x365 JUMPI PUSH1 0x1 DUP1 PUSH1 0xA0 SHL SUB SWAP1 SLOAD AND SWAP2 SLOAD PUSH1 0x40 MLOAD SWAP1 DUP2 MSTORE PUSH32 0x948A6B23642CD8250E916708E5ABE784E0D7A2F77937955F8906335408FD7DEC PUSH1 0x20 PUSH1 0x4 CALLDATALOAD SWAP3 LOG4 PUSH1 0x6 DUP2 ADD SLOAD PUSH1 0x5 DUP3 ADD SLOAD GT ISZERO PUSH2 0x10BA JUMPI JUMPDEST PUSH1 0x1 DUP1 SSTORE STOP JUMPDEST PUSH1 0xB ADD DUP1 SLOAD PUSH1 0xFF NOT AND SWAP1 SSTORE DUP1 PUSH2 0x10B4 JUMP JUMPDEST POP PUSH2 0x8FC PUSH2 0x1063 JUMP JUMPDEST PUSH1 0x40 MLOAD PUSH3 0x461BCD PUSH1 0xE5 SHL DUP2 MSTORE PUSH1 0x20 PUSH1 0x4 DUP3 ADD MSTORE PUSH1 0x12 PUSH1 0x24 DUP3 ADD MSTORE PUSH18 0x496E73756666696369656E742066756E6473 PUSH1 0x70 SHL PUSH1 0x44 DUP3 ADD MSTORE PUSH1 0x64 SWAP1 REVERT JUMPDEST PUSH1 0x40 MLOAD PUSH3 0x461BCD PUSH1 0xE5 SHL DUP2 MSTORE PUSH1 0x20 PUSH1 0x4 DUP3 ADD MSTORE PUSH1 0xC PUSH1 0x24 DUP3 ADD MSTORE PUSH12 0x105B1C9958591E481C185A59 PUSH1 0xA2 SHL PUSH1 0x44 DUP3 ADD MSTORE PUSH1 0x64 SWAP1 REVERT JUMPDEST ADD MLOAD SWAP1 POP DUP11 DUP1 PUSH2 0xF20 JUMP JUMPDEST SWAP1 PUSH1 0x4 DUP6 ADD PUSH1 0x0 MSTORE PUSH1 0x20 PUSH1 0x0 KECCAK256 SWAP2 PUSH1 0x0 JUMPDEST PUSH1 0x1F NOT DUP6 AND DUP2 LT PUSH2 0x11AF JUMPI POP DUP4 PUSH2 0x180 SWAP4 PUSH2 0xF7A SWAP8 SWAP7 SWAP4 PUSH1 0x1 SWAP4 PUSH1 0x7 SWAP8 PUSH1 0x1F NOT DUP2 AND LT PUSH2 0x1196 JUMPI JUMPDEST POP POP POP DUP2 SHL ADD PUSH1 0x4 DUP6 ADD SSTORE PUSH2 0xF38 JUMP JUMPDEST ADD MLOAD PUSH1 0x0 NOT PUSH1 0xF8 DUP5 PUSH1 0x3 SHL AND SHR NOT AND SWAP1 SSTORE DUP11 DUP1 DUP1 PUSH2 0x1186 JUMP JUMPDEST SWAP2 SWAP3 PUSH1 0x20 PUSH1 0x1 DUP2 SWAP3 DUP7 DUP6 ADD MLOAD DUP2 SSTORE ADD SWAP5 ADD SWAP3 ADD PUSH2 0x115E JUMP JUMPDEST PUSH1 0x40 MLOAD PUSH3 0x461BCD PUSH1 0xE5 SHL DUP2 MSTORE PUSH1 0x20 PUSH1 0x4 DUP3 ADD MSTORE PUSH1 0x16 PUSH1 0x24 DUP3 ADD MSTORE PUSH22 0x47656E6F6D652064617461206E6F7420616374697665 PUSH1 0x50 SHL PUSH1 0x44 DUP3 ADD MSTORE PUSH1 0x64 SWAP1 REVERT JUMPDEST PUSH2 0x1222 SWAP2 POP RETURNDATASIZE DUP1 PUSH1 0x0 DUP4 RETURNDATACOPY PUSH2 0x121A DUP2 DUP4 PUSH2 0x1F06 JUMP JUMPDEST DUP2 ADD SWAP1 PUSH2 0x2196 JUMP JUMPDEST DUP7 PUSH2 0xD8A JUMP JUMPDEST PUSH1 0x40 MLOAD PUSH3 0x461BCD PUSH1 0xE5 SHL DUP2 MSTORE PUSH1 0x20 PUSH1 0x4 DUP3 ADD MSTORE PUSH1 0xF PUSH1 0x24 DUP3 ADD MSTORE PUSH15 0x2737BA103A37B5B2B71037BBB732B9 PUSH1 0x89 SHL PUSH1 0x44 DUP3 ADD MSTORE PUSH1 0x64 SWAP1 REVERT JUMPDEST SWAP1 POP PUSH1 0x20 DUP2 RETURNDATASIZE PUSH1 0x20 GT PUSH2 0x1299 JUMPI JUMPDEST DUP2 PUSH2 0x127A PUSH1 0x20 SWAP4 DUP4 PUSH2 0x1F06 JUMP JUMPDEST DUP2 ADD SUB SLT PUSH2 0x1F5 JUMPI MLOAD PUSH1 0x1 PUSH1 0x1 PUSH1 0xA0 SHL SUB DUP2 AND DUP2 SUB PUSH2 0x1F5 JUMPI DUP7 PUSH2 0xD48 JUMP JUMPDEST RETURNDATASIZE SWAP2 POP PUSH2 0x126D JUMP JUMPDEST PUSH1 0x40 MLOAD PUSH3 0x461BCD PUSH1 0xE5 SHL DUP2 MSTORE PUSH1 0x20 PUSH1 0x4 DUP3 ADD MSTORE PUSH1 0x21 PUSH1 0x24 DUP3 ADD MSTORE PUSH32 0x416C726561647920726573706F6E6465642077697468207468697320746F6B65 PUSH1 0x44 DUP3 ADD MSTORE PUSH1 0x37 PUSH1 0xF9 SHL PUSH1 0x64 DUP3 ADD MSTORE PUSH1 0x84 SWAP1 REVERT JUMPDEST PUSH1 0x40 MLOAD PUSH3 0x461BCD PUSH1 0xE5 SHL DUP2 MSTORE PUSH1 0x20 PUSH1 0x4 DUP3 ADD MSTORE PUSH1 0x15 PUSH1 0x24 DUP3 ADD MSTORE PUSH21 0x13585E081C995CDC1BDB9CD95CC81C995858DA1959 PUSH1 0x5A SHL PUSH1 0x44 DUP3 ADD MSTORE PUSH1 0x64 SWAP1 REVERT JUMPDEST PUSH1 0x40 MLOAD PUSH3 0x461BCD PUSH1 0xE5 SHL DUP2 MSTORE PUSH1 0x20 PUSH1 0x4 DUP3 ADD MSTORE PUSH1 0xE PUSH1 0x24 DUP3 ADD MSTORE PUSH14 0x109BDD5B9D1E48195E1C1A5C9959 PUSH1 0x92 SHL PUSH1 0x44 DUP3 ADD MSTORE PUSH1 0x64 SWAP1 REVERT JUMPDEST CALLVALUE PUSH2 0x1F5 JUMPI PUSH2 0x1371 CALLDATASIZE PUSH2 0x1D73 JUMP JUMPDEST SWAP1 PUSH1 0x0 MSTORE PUSH1 0x7 PUSH1 0x20 MSTORE PUSH1 0x40 PUSH1 0x0 KECCAK256 DUP1 SLOAD DUP3 LT ISZERO PUSH2 0x1F5 JUMPI PUSH1 0x20 SWAP2 PUSH2 0x1394 SWAP2 PUSH2 0x1D5B JUMP JUMPDEST SWAP1 SLOAD PUSH1 0x40 MLOAD SWAP2 PUSH1 0x3 SHL SHR DUP2 MSTORE RETURN JUMPDEST CALLVALUE PUSH2 0x1F5 JUMPI PUSH1 0x20 DUP1 PUSH1 0x3 NOT CALLDATASIZE ADD SLT PUSH2 0x1F5 JUMPI PUSH1 0x4 CALLDATALOAD PUSH1 0x0 MSTORE PUSH1 0x7 DUP1 DUP3 MSTORE PUSH1 0x40 PUSH1 0x0 KECCAK256 SWAP1 PUSH1 0x40 MLOAD DUP1 DUP4 DUP6 DUP3 SWAP6 SLOAD SWAP4 DUP5 DUP2 MSTORE ADD SWAP1 PUSH1 0x0 MSTORE DUP6 PUSH1 0x0 KECCAK256 SWAP3 PUSH1 0x0 JUMPDEST DUP8 DUP3 DUP3 LT PUSH2 0x15F3 JUMPI POP POP POP PUSH2 0x13F6 SWAP3 POP SUB DUP4 PUSH2 0x1F06 JUMP JUMPDEST DUP2 MLOAD SWAP1 PUSH2 0x1402 DUP3 PUSH2 0x2258 JUMP JUMPDEST SWAP2 PUSH2 0x1410 PUSH1 0x40 MLOAD SWAP4 DUP5 PUSH2 0x1F06 JUMP JUMPDEST DUP1 DUP4 MSTORE PUSH2 0x141F PUSH1 0x1F NOT SWAP2 PUSH2 0x2258 JUMP JUMPDEST ADD DUP5 PUSH1 0x0 JUMPDEST DUP3 DUP2 LT PUSH2 0x15A6 JUMPI POP POP POP PUSH1 0x0 JUMPDEST DUP4 MLOAD DUP2 LT ISZERO PUSH2 0x14ED JUMPI DUP1 PUSH2 0x1448 PUSH2 0x14E8 SWAP3 DUP7 PUSH2 0x226F JUMP JUMPDEST MLOAD PUSH1 0x0 MSTORE PUSH1 0x6 DUP1 DUP8 MSTORE PUSH1 0x40 PUSH1 0x0 KECCAK256 SWAP1 DUP5 PUSH1 0x40 MLOAD SWAP3 PUSH2 0x1465 DUP5 PUSH2 0x1EEA JUMP JUMPDEST DUP1 SLOAD DUP5 MSTORE PUSH1 0x1 DUP2 ADD SLOAD DUP11 DUP6 ADD MSTORE PUSH1 0x2 DUP2 ADD SLOAD PUSH1 0x1 PUSH1 0x1 PUSH1 0xA0 SHL SUB AND PUSH1 0x40 DUP1 DUP7 ADD SWAP2 SWAP1 SWAP2 MSTORE PUSH1 0x3 DUP3 ADD SLOAD PUSH1 0x60 DUP7 ADD MSTORE MLOAD PUSH2 0x14A5 DUP2 PUSH2 0x24D DUP2 PUSH1 0x4 DUP7 ADD PUSH2 0x1E38 JUMP JUMPDEST PUSH1 0x80 DUP6 ADD MSTORE PUSH1 0xFF SWAP3 DUP4 PUSH1 0x5 DUP4 ADD SLOAD AND ISZERO ISZERO PUSH1 0xA0 DUP7 ADD MSTORE DUP2 ADD SLOAD PUSH1 0xC0 DUP6 ADD MSTORE ADD SLOAD AND ISZERO ISZERO PUSH1 0xE0 DUP3 ADD MSTORE PUSH2 0x14D7 DUP3 DUP7 PUSH2 0x226F JUMP JUMPDEST MSTORE PUSH2 0x14E2 DUP2 DUP6 PUSH2 0x226F JUMP JUMPDEST POP PUSH2 0x1FB5 JUMP JUMPDEST PUSH2 0x1431 JUMP JUMPDEST PUSH1 0x40 DUP1 MLOAD DUP7 DUP2 MSTORE DUP5 MLOAD DUP2 DUP9 ADD DUP2 SWAP1 MSTORE PUSH1 0x0 SWAP3 PUSH1 0x5 DUP3 SWAP1 SHL DUP4 ADD DUP2 ADD SWAP2 DUP8 DUP11 ADD SWAP2 DUP11 SWAP1 DUP6 ADD JUMPDEST DUP3 DUP8 LT PUSH2 0x151F JUMPI DUP6 DUP6 SUB DUP7 RETURN JUMPDEST SWAP1 SWAP2 SWAP3 SWAP4 DUP3 DUP1 PUSH1 0x1 SWAP3 PUSH1 0x3F NOT DUP10 DUP3 SUB ADD DUP6 MSTORE DUP8 MLOAD SWAP1 DUP2 MLOAD DUP2 MSTORE DUP3 DUP3 ADD MLOAD DUP4 DUP3 ADD MSTORE DUP5 DUP1 PUSH1 0xA0 SHL SUB PUSH1 0x40 DUP4 ADD MLOAD AND PUSH1 0x40 DUP3 ADD MSTORE PUSH1 0x60 DUP1 DUP4 ADD MLOAD SWAP1 DUP3 ADD MSTORE PUSH1 0xE0 DUP1 PUSH2 0x1578 PUSH1 0x80 DUP1 DUP7 ADD MLOAD SWAP1 PUSH2 0x100 DUP1 SWAP2 DUP8 ADD MSTORE DUP6 ADD SWAP1 PUSH2 0x1DAC JUMP JUMPDEST SWAP4 PUSH1 0xA0 DUP1 DUP3 ADD MLOAD ISZERO ISZERO SWAP1 DUP6 ADD MSTORE PUSH1 0xC0 DUP1 DUP3 ADD MLOAD SWAP1 DUP6 ADD MSTORE ADD MLOAD ISZERO ISZERO SWAP2 ADD MSTORE SWAP7 ADD SWAP3 ADD SWAP7 ADD SWAP6 SWAP3 SWAP2 SWAP1 SWAP3 PUSH2 0x1512 JUMP JUMPDEST PUSH1 0x40 MLOAD PUSH2 0x15B2 DUP2 PUSH2 0x1EEA JUMP JUMPDEST PUSH1 0x0 DUP2 MSTORE PUSH1 0x0 DUP4 DUP3 ADD MSTORE PUSH1 0x0 PUSH1 0x40 DUP3 ADD MSTORE PUSH1 0x60 PUSH1 0x0 DUP2 DUP4 ADD MSTORE PUSH1 0x80 DUP3 ADD MSTORE PUSH1 0x0 PUSH1 0xA0 DUP3 ADD MSTORE PUSH1 0x0 PUSH1 0xC0 DUP3 ADD MSTORE PUSH1 0x0 PUSH1 0xE0 DUP3 ADD MSTORE DUP3 DUP3 DUP8 ADD ADD MSTORE ADD DUP6 SWAP1 PUSH2 0x1424 JUMP JUMPDEST DUP6 SLOAD DUP5 MSTORE PUSH1 0x1 SWAP6 DUP7 ADD SWAP6 DUP9 SWAP6 POP SWAP4 ADD SWAP3 ADD PUSH2 0x13DF JUMP JUMPDEST CALLVALUE PUSH2 0x1F5 JUMPI PUSH1 0x0 CALLDATASIZE PUSH1 0x3 NOT ADD SLT PUSH2 0x1F5 JUMPI PUSH1 0x20 PUSH1 0x40 MLOAD PUSH2 0xE10 DUP2 MSTORE RETURN JUMPDEST CALLVALUE PUSH2 0x1F5 JUMPI PUSH1 0x0 CALLDATASIZE PUSH1 0x3 NOT ADD SLT PUSH2 0x1F5 JUMPI PUSH1 0x2 SLOAD PUSH1 0x40 MLOAD PUSH1 0x8 SWAP2 SWAP1 SWAP2 SHR PUSH1 0x1 PUSH1 0x1 PUSH1 0xA0 SHL SUB AND DUP2 MSTORE PUSH1 0x20 SWAP1 RETURN JUMPDEST CALLVALUE PUSH2 0x1F5 JUMPI PUSH1 0x0 CALLDATASIZE PUSH1 0x3 NOT ADD SLT PUSH2 0x1F5 JUMPI PUSH1 0x0 DUP1 PUSH1 0x9 DUP1 SLOAD SWAP2 JUMPDEST DUP3 DUP2 LT PUSH2 0x192B JUMPI POP PUSH2 0x167E DUP4 PUSH2 0x2258 JUMP JUMPDEST SWAP3 PUSH2 0x168C PUSH1 0x40 MLOAD SWAP5 DUP6 PUSH2 0x1F06 JUMP JUMPDEST DUP1 DUP5 MSTORE PUSH2 0x169B PUSH1 0x1F NOT SWAP2 PUSH2 0x2258 JUMP JUMPDEST ADD PUSH1 0x0 JUMPDEST DUP2 DUP2 LT PUSH2 0x18BE JUMPI POP POP PUSH1 0x0 DUP1 JUMPDEST DUP4 DUP2 LT PUSH2 0x17A3 JUMPI PUSH1 0x40 DUP1 MLOAD PUSH1 0x20 DUP1 DUP3 MSTORE DUP8 MLOAD DUP2 DUP4 ADD DUP2 SWAP1 MSTORE PUSH1 0x0 SWAP4 PUSH1 0x5 DUP3 SWAP1 SHL DUP5 ADD DUP2 ADD SWAP3 DUP1 DUP12 ADD SWAP3 SWAP2 DUP6 ADD JUMPDEST DUP3 DUP8 LT PUSH2 0x16E6 JUMPI DUP6 DUP6 SUB DUP7 RETURN JUMPDEST SWAP1 SWAP2 SWAP3 SWAP4 DUP3 DUP1 PUSH1 0x1 SWAP3 PUSH1 0x3F NOT DUP10 DUP3 SUB ADD DUP6 MSTORE DUP8 MLOAD SWAP1 DUP2 MLOAD DUP2 MSTORE DUP5 DUP1 PUSH1 0xA0 SHL SUB DUP4 DUP4 ADD MLOAD AND DUP4 DUP3 ADD MSTORE PUSH2 0x173D PUSH2 0x172A PUSH1 0x40 DUP5 ADD MLOAD PUSH2 0x180 DUP1 PUSH1 0x40 DUP7 ADD MSTORE DUP5 ADD SWAP1 PUSH2 0x1DAC JUMP JUMPDEST PUSH1 0x60 DUP1 DUP6 ADD MLOAD SWAP1 DUP5 DUP4 SUB SWAP1 DUP6 ADD MSTORE PUSH2 0x1DAC JUMP JUMPDEST SWAP2 PUSH1 0x80 DUP1 DUP3 ADD MLOAD SWAP1 DUP4 ADD MSTORE PUSH1 0xA0 DUP1 DUP3 ADD MLOAD SWAP1 DUP4 ADD MSTORE PUSH1 0xC0 DUP1 DUP3 ADD MLOAD SWAP1 DUP4 ADD MSTORE PUSH1 0xE0 DUP2 ADD MLOAD PUSH1 0xE0 DUP4 ADD MSTORE PUSH2 0x100 DUP1 DUP3 ADD MLOAD SWAP1 DUP4 ADD MSTORE PUSH2 0x120 DUP1 DUP3 ADD MLOAD SWAP1 DUP4 ADD MSTORE PUSH2 0x140 DUP1 DUP3 ADD MLOAD SWAP1 DUP4 ADD MSTORE PUSH2 0x160 DUP1 SWAP2 ADD MLOAD ISZERO ISZERO SWAP2 ADD MSTORE SWAP7 ADD SWAP3 ADD SWAP7 ADD SWAP6 SWAP3 SWAP2 SWAP1 SWAP3 PUSH2 0x16D9 JUMP JUMPDEST PUSH2 0x17AC DUP2 PUSH2 0x1D0E JUMP JUMPDEST SWAP1 SLOAD PUSH1 0x3 SWAP2 DUP3 SHL SHR PUSH1 0x0 MSTORE PUSH1 0x5 SWAP1 PUSH1 0x20 SWAP2 DUP1 DUP4 MSTORE PUSH2 0x24D PUSH2 0x1816 PUSH1 0x40 PUSH1 0x0 KECCAK256 SWAP4 PUSH1 0x40 MLOAD SWAP6 PUSH2 0x17D9 DUP8 PUSH2 0x1ECE JUMP JUMPDEST DUP6 SLOAD DUP8 MSTORE PUSH1 0x1 DUP7 ADD SLOAD PUSH1 0x1 PUSH1 0x1 PUSH1 0xA0 SHL SUB AND SWAP1 DUP8 ADD MSTORE PUSH1 0x40 MLOAD PUSH2 0x1803 DUP2 PUSH2 0x24D DUP2 PUSH1 0x2 DUP11 ADD PUSH2 0x1E38 JUMP JUMPDEST PUSH1 0x40 DUP8 ADD MSTORE PUSH1 0x40 MLOAD SWAP3 DUP4 DUP1 SWAP3 DUP8 ADD PUSH2 0x1E38 JUMP JUMPDEST PUSH1 0x60 DUP5 ADD MSTORE PUSH1 0x4 DUP3 ADD SLOAD PUSH1 0x80 DUP5 ADD MSTORE DUP2 ADD SLOAD PUSH1 0xA0 DUP4 ADD MSTORE PUSH1 0x6 DUP2 ADD SLOAD PUSH1 0xC0 DUP4 ADD MSTORE PUSH1 0x7 DUP2 ADD SLOAD PUSH1 0xE0 DUP4 ADD MSTORE PUSH1 0x8 DUP2 ADD SLOAD PUSH2 0x100 DUP4 ADD MSTORE DUP5 DUP2 ADD SLOAD PUSH2 0x120 DUP4 ADD MSTORE PUSH1 0xFF PUSH1 0xB PUSH1 0xA DUP4 ADD SLOAD SWAP3 DUP4 PUSH2 0x140 DUP7 ADD MSTORE ADD SLOAD AND ISZERO ISZERO SWAP1 DUP2 PUSH2 0x160 DUP5 ADD MSTORE DUP2 PUSH2 0x18B4 JUMPI JUMPDEST POP PUSH2 0x188F JUMPI JUMPDEST POP PUSH2 0x188A SWAP1 PUSH2 0x1FB5 JUMP JUMPDEST PUSH2 0x16AC JUMP JUMPDEST DUP3 PUSH2 0x18AD SWAP2 PUSH2 0x18A2 PUSH2 0x188A SWAP5 SWAP6 DUP10 PUSH2 0x226F JUMP JUMPDEST MSTORE PUSH2 0x14E2 DUP2 DUP9 PUSH2 0x226F JUMP JUMPDEST SWAP2 SWAP1 PUSH2 0x1880 JUMP JUMPDEST SWAP1 POP TIMESTAMP LT DUP8 PUSH2 0x187A JUMP JUMPDEST PUSH1 0x20 SWAP1 PUSH1 0x40 MLOAD PUSH2 0x18CD DUP2 PUSH2 0x1ECE JUMP JUMPDEST PUSH1 0x0 DUP2 MSTORE DUP3 PUSH1 0x0 DUP2 DUP4 ADD MSTORE PUSH1 0x60 DUP1 PUSH1 0x40 DUP5 ADD MSTORE DUP1 DUP4 ADD MSTORE PUSH1 0x0 PUSH1 0x80 DUP4 ADD MSTORE PUSH1 0x0 PUSH1 0xA0 DUP4 ADD MSTORE PUSH1 0x0 PUSH1 0xC0 DUP4 ADD MSTORE PUSH1 0x0 PUSH1 0xE0 DUP4 ADD MSTORE PUSH1 0x0 PUSH2 0x100 DUP4 ADD MSTORE PUSH1 0x0 PUSH2 0x120 DUP4 ADD MSTORE PUSH1 0x0 PUSH2 0x140 DUP4 ADD MSTORE PUSH1 0x0 PUSH2 0x160 DUP4 ADD MSTORE DUP3 DUP9 ADD ADD MSTORE ADD PUSH2 0x169F JUMP JUMPDEST PUSH2 0x1934 DUP2 PUSH2 0x1D0E JUMP JUMPDEST SWAP1 SLOAD PUSH1 0x3 SWAP2 DUP3 SHL SHR PUSH1 0x0 MSTORE PUSH1 0x5 PUSH1 0x20 DUP2 DUP2 MSTORE PUSH1 0xFF PUSH1 0xB PUSH1 0x40 PUSH1 0x0 KECCAK256 ADD SLOAD AND SWAP3 DUP4 PUSH2 0x1984 JUMPI JUMPDEST POP POP POP PUSH2 0x196F JUMPI JUMPDEST PUSH2 0x196A SWAP1 PUSH2 0x1FB5 JUMP JUMPDEST PUSH2 0x166D JUMP JUMPDEST SWAP3 PUSH2 0x197C PUSH2 0x196A SWAP2 PUSH2 0x1FB5 JUMP JUMPDEST SWAP4 SWAP1 POP PUSH2 0x1961 JUMP JUMPDEST SWAP1 SWAP2 SWAP3 POP PUSH2 0x1991 DUP5 PUSH2 0x1D0E JUMP JUMPDEST SWAP1 SLOAD SWAP2 SHL SHR PUSH1 0x0 MSTORE MSTORE PUSH1 0xA PUSH1 0x40 PUSH1 0x0 KECCAK256 ADD SLOAD TIMESTAMP LT DUP6 DUP1 DUP1 PUSH2 0x1959 JUMP JUMPDEST CALLVALUE PUSH2 0x1F5 JUMPI PUSH1 0x0 CALLDATASIZE PUSH1 0x3 NOT ADD SLT PUSH2 0x1F5 JUMPI PUSH1 0x20 PUSH1 0x40 MLOAD PUSH3 0x278D00 DUP2 MSTORE RETURN JUMPDEST CALLVALUE PUSH2 0x1F5 JUMPI PUSH1 0x20 PUSH2 0x19E4 PUSH2 0x19DE CALLDATASIZE PUSH2 0x1D73 JUMP JUMPDEST SWAP1 PUSH2 0x2283 JUMP JUMPDEST PUSH1 0x40 MLOAD SWAP1 ISZERO ISZERO DUP2 MSTORE RETURN JUMPDEST CALLVALUE PUSH2 0x1F5 JUMPI PUSH1 0x0 CALLDATASIZE PUSH1 0x3 NOT ADD SLT PUSH2 0x1F5 JUMPI PUSH1 0x0 SLOAD PUSH1 0x40 MLOAD PUSH1 0x1 PUSH1 0x1 PUSH1 0xA0 SHL SUB SWAP1 SWAP2 AND DUP2 MSTORE PUSH1 0x20 SWAP1 RETURN JUMPDEST CALLVALUE PUSH2 0x1F5 JUMPI PUSH1 0x0 CALLDATASIZE PUSH1 0x3 NOT ADD SLT PUSH2 0x1F5 JUMPI PUSH2 0x1A30 PUSH2 0x1F27 JUMP JUMPDEST PUSH2 0x1A38 PUSH2 0x2077 JUMP JUMPDEST PUSH1 0x1 PUSH1 0xFF NOT PUSH1 0x2 SLOAD AND OR PUSH1 0x2 SSTORE PUSH32 0x62E78CEA01BEE320CD4E420270B5EA74000D11B0C9F74754EBDBFC544B05A258 PUSH1 0x20 PUSH1 0x40 MLOAD CALLER DUP2 MSTORE LOG1 STOP JUMPDEST CALLVALUE PUSH2 0x1F5 JUMPI PUSH1 0x0 CALLDATASIZE PUSH1 0x3 NOT ADD SLT PUSH2 0x1F5 JUMPI PUSH2 0x1A8A PUSH2 0x1F27 JUMP JUMPDEST PUSH1 0x0 DUP1 SLOAD PUSH1 0x1 PUSH1 0x1 PUSH1 0xA0 SHL SUB NOT DUP2 AND DUP3 SSTORE PUSH1 0x1 PUSH1 0x1 PUSH1 0xA0 SHL SUB AND PUSH32 0x8BE0079C531659141344CD1FD0A4F28419497F9722A3DAAFE3B4186F6B6457E0 DUP3 DUP1 LOG3 STOP JUMPDEST CALLVALUE PUSH2 0x1F5 JUMPI PUSH1 0x0 CALLDATASIZE PUSH1 0x3 NOT ADD SLT PUSH2 0x1F5 JUMPI PUSH1 0x20 PUSH1 0xFF PUSH1 0x2 SLOAD AND PUSH1 0x40 MLOAD SWAP1 ISZERO ISZERO DUP2 MSTORE RETURN JUMPDEST CALLVALUE PUSH2 0x1F5 JUMPI PUSH1 0x0 CALLDATASIZE PUSH1 0x3 NOT ADD SLT PUSH2 0x1F5 JUMPI PUSH2 0x1B06 PUSH2 0x1F27 JUMP JUMPDEST PUSH1 0x0 PUSH1 0x1 SWAP1 PUSH1 0x3 SLOAD JUMPDEST DUP1 DUP4 GT ISZERO PUSH2 0x1B55 JUMPI PUSH2 0x1B21 DUP3 SELFBALANCE PUSH2 0x206A JUMP JUMPDEST DUP1 ISZERO DUP1 ISZERO PUSH2 0x1B2B JUMPI STOP JUMPDEST PUSH1 0x0 DUP1 DUP1 SWAP4 DUP2 SWAP4 PUSH1 0x1 DUP1 PUSH1 0xA0 SHL SUB DUP4 SLOAD AND SWAP1 DUP4 SWAP1 PUSH2 0x1B4C JUMPI JUMPDEST CALL ISZERO PUSH2 0x365 JUMPI STOP JUMPDEST POP PUSH2 0x8FC PUSH2 0x1B44 JUMP JUMPDEST SWAP1 PUSH2 0x1B75 PUSH2 0x1B7B SWAP2 DUP5 PUSH1 0x0 MSTORE PUSH1 0x5 PUSH1 0x20 MSTORE PUSH1 0x8 PUSH1 0x40 PUSH1 0x0 KECCAK256 ADD SLOAD SWAP1 PUSH2 0x1FA8 JUMP JUMPDEST SWAP3 PUSH2 0x1FB5 JUMP JUMPDEST SWAP2 SWAP1 PUSH2 0x1B0F JUMP JUMPDEST CALLVALUE PUSH2 0x1F5 JUMPI PUSH1 0x0 CALLDATASIZE PUSH1 0x3 NOT ADD SLT PUSH2 0x1F5 JUMPI PUSH2 0x1B9B PUSH2 0x1F27 JUMP JUMPDEST PUSH1 0x2 SLOAD PUSH1 0xFF DUP2 AND ISZERO PUSH2 0x1BDA JUMPI PUSH1 0xFF NOT AND PUSH1 0x2 SSTORE PUSH32 0x5DB9EE0A495BF2E6FF9C91A7834C1BA4FDD244A5E8AA4E537BD38AEAE4B073AA PUSH1 0x20 PUSH1 0x40 MLOAD CALLER DUP2 MSTORE LOG1 STOP JUMPDEST PUSH1 0x40 MLOAD PUSH3 0x461BCD PUSH1 0xE5 SHL DUP2 MSTORE PUSH1 0x20 PUSH1 0x4 DUP3 ADD MSTORE PUSH1 0x14 PUSH1 0x24 DUP3 ADD MSTORE PUSH20 0x14185D5CD8589B194E881B9BDD081C185D5CD959 PUSH1 0x62 SHL PUSH1 0x44 DUP3 ADD MSTORE PUSH1 0x64 SWAP1 REVERT JUMPDEST CALLVALUE PUSH2 0x1F5 JUMPI PUSH1 0x20 CALLDATASIZE PUSH1 0x3 NOT ADD SLT PUSH2 0x1F5 JUMPI PUSH1 0x4 CALLDATALOAD PUSH1 0x1 PUSH1 0x1 PUSH1 0xA0 SHL SUB DUP2 AND DUP2 SUB PUSH2 0x1F5 JUMPI PUSH2 0x1C42 PUSH2 0x1F27 JUMP JUMPDEST PUSH1 0x2 DUP1 SLOAD PUSH2 0x100 PUSH1 0x1 PUSH1 0xA8 SHL SUB NOT AND PUSH1 0x8 SWAP3 SWAP1 SWAP3 SHL PUSH2 0x100 PUSH1 0x1 PUSH1 0xA8 SHL SUB AND SWAP2 SWAP1 SWAP2 OR SWAP1 SSTORE STOP JUMPDEST CALLVALUE PUSH2 0x1F5 JUMPI PUSH1 0x0 CALLDATASIZE PUSH1 0x3 NOT ADD SLT PUSH2 0x1F5 JUMPI PUSH1 0x20 PUSH1 0xA SLOAD PUSH1 0x40 MLOAD SWAP1 DUP2 MSTORE RETURN JUMPDEST CALLVALUE PUSH2 0x1F5 JUMPI PUSH1 0x20 CALLDATASIZE PUSH1 0x3 NOT ADD SLT PUSH2 0x1F5 JUMPI PUSH1 0x4 CALLDATALOAD PUSH1 0x9 SLOAD DUP2 LT ISZERO PUSH2 0x1F5 JUMPI PUSH2 0x1394 PUSH1 0x20 SWAP2 PUSH2 0x1D0E JUMP JUMPDEST CALLVALUE PUSH2 0x1F5 JUMPI PUSH1 0x20 CALLDATASIZE PUSH1 0x3 NOT ADD SLT PUSH2 0x1F5 JUMPI PUSH1 0x4 CALLDATALOAD PUSH2 0x1CCC PUSH2 0x1F27 JUMP JUMPDEST PUSH2 0x3E8 DUP2 GT PUSH2 0x1CDA JUMPI PUSH1 0xA SSTORE STOP JUMPDEST PUSH1 0x40 MLOAD PUSH3 0x461BCD PUSH1 0xE5 SHL DUP2 MSTORE PUSH1 0x20 PUSH1 0x4 DUP3 ADD MSTORE PUSH1 0xC PUSH1 0x24 DUP3 ADD MSTORE PUSH12 0x8CCACA40E8DEDE40D0D2CED PUSH1 0xA3 SHL PUSH1 0x44 DUP3 ADD MSTORE PUSH1 0x64 SWAP1 REVERT JUMPDEST PUSH1 0x9 SLOAD DUP2 LT ISZERO PUSH2 0x1D45 JUMPI PUSH1 0x9 PUSH1 0x0 MSTORE PUSH32 0x6E1540171B6C0C960B71A7020D9F60077F6AF931A8BBF590DA0223DACF75C7AF ADD SWAP1 PUSH1 0x0 SWAP1 JUMP JUMPDEST PUSH4 0x4E487B71 PUSH1 0xE0 SHL PUSH1 0x0 MSTORE PUSH1 0x32 PUSH1 0x4 MSTORE PUSH1 0x24 PUSH1 0x0 REVERT JUMPDEST DUP1 SLOAD DUP3 LT ISZERO PUSH2 0x1D45 JUMPI PUSH1 0x0 MSTORE PUSH1 0x20 PUSH1 0x0 KECCAK256 ADD SWAP1 PUSH1 0x0 SWAP1 JUMP JUMPDEST PUSH1 0x40 SWAP1 PUSH1 0x3 NOT ADD SLT PUSH2 0x1F5 JUMPI PUSH1 0x4 CALLDATALOAD SWAP1 PUSH1 0x24 CALLDATALOAD SWAP1 JUMP JUMPDEST PUSH1 0x0 JUMPDEST DUP4 DUP2 LT PUSH2 0x1D9C JUMPI POP POP PUSH1 0x0 SWAP2 ADD MSTORE JUMP JUMPDEST DUP2 DUP2 ADD MLOAD DUP4 DUP3 ADD MSTORE PUSH1 0x20 ADD PUSH2 0x1D8C JUMP JUMPDEST SWAP1 PUSH1 0x20 SWAP2 PUSH2 0x1DC5 DUP2 MLOAD DUP1 SWAP3 DUP2 DUP6 MSTORE DUP6 DUP1 DUP7 ADD SWAP2 ADD PUSH2 0x1D89 JUMP JUMPDEST PUSH1 0x1F ADD PUSH1 0x1F NOT AND ADD ADD SWAP1 JUMP JUMPDEST SWAP2 DUP2 PUSH1 0x1F DUP5 ADD SLT ISZERO PUSH2 0x1F5 JUMPI DUP3 CALLDATALOAD SWAP2 PUSH1 0x1 PUSH1 0x1 PUSH1 0x40 SHL SUB DUP4 GT PUSH2 0x1F5 JUMPI PUSH1 0x20 DUP4 DUP2 DUP7 ADD SWAP6 ADD ADD GT PUSH2 0x1F5 JUMPI JUMP JUMPDEST SWAP1 PUSH1 0x1 DUP3 DUP2 SHR SWAP3 AND DUP1 ISZERO PUSH2 0x1E2E JUMPI JUMPDEST PUSH1 0x20 DUP4 LT EQ PUSH2 0x1E18 JUMPI JUMP JUMPDEST PUSH4 0x4E487B71 PUSH1 0xE0 SHL PUSH1 0x0 MSTORE PUSH1 0x22 PUSH1 0x4 MSTORE PUSH1 0x24 PUSH1 0x0 REVERT JUMPDEST SWAP2 PUSH1 0x7F AND SWAP2 PUSH2 0x1E0D JUMP JUMPDEST SWAP1 PUSH1 0x0 SWAP3 SWAP2 DUP1 SLOAD SWAP2 PUSH2 0x1E49 DUP4 PUSH2 0x1DFE JUMP JUMPDEST SWAP2 DUP3 DUP3 MSTORE PUSH1 0x1 SWAP4 DUP5 DUP2 AND SWAP1 DUP2 PUSH1 0x0 EQ PUSH2 0x1EAB JUMPI POP PUSH1 0x1 EQ PUSH2 0x1E6B JUMPI JUMPDEST POP POP POP POP JUMP JUMPDEST SWAP1 SWAP2 SWAP4 SWAP5 POP PUSH1 0x0 MSTORE PUSH1 0x20 SWAP3 DUP4 PUSH1 0x0 KECCAK256 SWAP3 DUP5 PUSH1 0x0 SWAP5 JUMPDEST DUP4 DUP7 LT PUSH2 0x1E97 JUMPI POP POP POP POP ADD ADD SWAP1 CODESIZE DUP1 DUP1 DUP1 PUSH2 0x1E65 JUMP JUMPDEST DUP1 SLOAD DUP6 DUP8 ADD DUP4 ADD MSTORE SWAP5 ADD SWAP4 DUP6 SWAP1 DUP3 ADD PUSH2 0x1E80 JUMP JUMPDEST SWAP3 SWAP5 POP POP POP PUSH1 0x20 SWAP4 SWAP5 POP PUSH1 0xFF NOT AND DUP4 DUP4 ADD MSTORE ISZERO ISZERO PUSH1 0x5 SHL ADD ADD SWAP1 CODESIZE DUP1 DUP1 DUP1 PUSH2 0x1E65 JUMP JUMPDEST PUSH2 0x180 DUP2 ADD SWAP1 DUP2 LT PUSH1 0x1 PUSH1 0x1 PUSH1 0x40 SHL SUB DUP3 GT OR PUSH2 0x889 JUMPI PUSH1 0x40 MSTORE JUMP JUMPDEST PUSH2 0x100 DUP2 ADD SWAP1 DUP2 LT PUSH1 0x1 PUSH1 0x1 PUSH1 0x40 SHL SUB DUP3 GT OR PUSH2 0x889 JUMPI PUSH1 0x40 MSTORE JUMP JUMPDEST SWAP1 PUSH1 0x1F DUP1 NOT SWAP2 ADD AND DUP2 ADD SWAP1 DUP2 LT PUSH1 0x1 PUSH1 0x1 PUSH1 0x40 SHL SUB DUP3 GT OR PUSH2 0x889 JUMPI PUSH1 0x40 MSTORE JUMP JUMPDEST PUSH1 0x0 SLOAD PUSH1 0x1 PUSH1 0x1 PUSH1 0xA0 SHL SUB AND CALLER SUB PUSH2 0x1F3B JUMPI JUMP JUMPDEST PUSH1 0x64 PUSH1 0x40 MLOAD PUSH3 0x461BCD PUSH1 0xE5 SHL DUP2 MSTORE PUSH1 0x20 PUSH1 0x4 DUP3 ADD MSTORE PUSH1 0x20 PUSH1 0x24 DUP3 ADD MSTORE PUSH32 0x4F776E61626C653A2063616C6C6572206973206E6F7420746865206F776E6572 PUSH1 0x44 DUP3 ADD MSTORE REVERT JUMPDEST DUP2 DUP2 MUL SWAP3 SWAP2 DUP2 ISZERO SWAP2 DUP5 DIV EQ OR ISZERO PUSH2 0x1F92 JUMPI JUMP JUMPDEST PUSH4 0x4E487B71 PUSH1 0xE0 SHL PUSH1 0x0 MSTORE PUSH1 0x11 PUSH1 0x4 MSTORE PUSH1 0x24 PUSH1 0x0 REVERT JUMPDEST SWAP2 SWAP1 DUP3 ADD DUP1 SWAP3 GT PUSH2 0x1F92 JUMPI JUMP JUMPDEST PUSH1 0x0 NOT DUP2 EQ PUSH2 0x1F92 JUMPI PUSH1 0x1 ADD SWAP1 JUMP JUMPDEST PUSH1 0x1 PUSH1 0x1 PUSH1 0x40 SHL SUB DUP2 GT PUSH2 0x889 JUMPI PUSH1 0x1F ADD PUSH1 0x1F NOT AND PUSH1 0x20 ADD SWAP1 JUMP JUMPDEST SWAP3 SWAP2 SWAP3 PUSH2 0x1FEB DUP3 PUSH2 0x1FC4 JUMP JUMPDEST SWAP2 PUSH2 0x1FF9 PUSH1 0x40 MLOAD SWAP4 DUP5 PUSH2 0x1F06 JUMP JUMPDEST DUP3 SWAP5 DUP2 DUP5 MSTORE DUP2 DUP4 ADD GT PUSH2 0x1F5 JUMPI DUP3 DUP2 PUSH1 0x20 SWAP4 DUP5 PUSH1 0x0 SWAP7 ADD CALLDATACOPY ADD ADD MSTORE JUMP JUMPDEST SWAP1 PUSH1 0x1F DUP2 GT PUSH2 0x2024 JUMPI POP POP POP JUMP JUMPDEST PUSH1 0x0 SWAP2 DUP3 MSTORE PUSH1 0x20 DUP3 KECCAK256 SWAP1 PUSH1 0x20 PUSH1 0x1F DUP6 ADD PUSH1 0x5 SHR DUP4 ADD SWAP5 LT PUSH2 0x2060 JUMPI JUMPDEST PUSH1 0x1F ADD PUSH1 0x5 SHR ADD SWAP2 JUMPDEST DUP3 DUP2 LT PUSH2 0x2055 JUMPI POP POP POP JUMP JUMPDEST DUP2 DUP2 SSTORE PUSH1 0x1 ADD PUSH2 0x2049 JUMP JUMPDEST SWAP1 SWAP3 POP DUP3 SWAP1 PUSH2 0x2040 JUMP JUMPDEST SWAP2 SWAP1 DUP3 SUB SWAP2 DUP3 GT PUSH2 0x1F92 JUMPI JUMP JUMPDEST PUSH1 0xFF PUSH1 0x2 SLOAD AND PUSH2 0x2083 JUMPI JUMP JUMPDEST PUSH1 0x40 MLOAD PUSH3 0x461BCD PUSH1 0xE5 SHL DUP2 MSTORE PUSH1 0x20 PUSH1 0x4 DUP3 ADD MSTORE PUSH1 0x10 PUSH1 0x24 DUP3 ADD MSTORE PUSH16 0x14185D5CD8589B194E881C185D5CD959 PUSH1 0x82 SHL PUSH1 0x44 DUP3 ADD MSTORE PUSH1 0x64 SWAP1 REVERT JUMPDEST PUSH1 0x2 PUSH1 0x1 SLOAD EQ PUSH2 0x20CC JUMPI PUSH1 0x2 PUSH1 0x1 SSTORE JUMP JUMPDEST PUSH1 0x40 MLOAD PUSH3 0x461BCD PUSH1 0xE5 SHL DUP2 MSTORE PUSH1 0x20 PUSH1 0x4 DUP3 ADD MSTORE PUSH1 0x1F PUSH1 0x24 DUP3 ADD MSTORE PUSH32 0x5265656E7472616E637947756172643A207265656E7472616E742063616C6C00 PUSH1 0x44 DUP3 ADD MSTORE PUSH1 0x64 SWAP1 REVERT JUMPDEST ISZERO PUSH2 0x2118 JUMPI JUMP JUMPDEST PUSH1 0x40 MLOAD PUSH3 0x461BCD PUSH1 0xE5 SHL DUP2 MSTORE PUSH1 0x20 PUSH1 0x4 DUP3 ADD MSTORE PUSH1 0x11 PUSH1 0x24 DUP3 ADD MSTORE PUSH17 0x426F756E7479206E6F7420616374697665 PUSH1 0x78 SHL PUSH1 0x44 DUP3 ADD MSTORE PUSH1 0x64 SWAP1 REVERT JUMPDEST DUP2 PUSH1 0x1F DUP3 ADD SLT ISZERO PUSH2 0x1F5 JUMPI DUP1 MLOAD PUSH2 0x2167 DUP2 PUSH2 0x1FC4 JUMP JUMPDEST SWAP3 PUSH2 0x2175 PUSH1 0x40 MLOAD SWAP5 DUP6 PUSH2 0x1F06 JUMP JUMPDEST DUP2 DUP5 MSTORE PUSH1 0x20 DUP3 DUP5 ADD ADD GT PUSH2 0x1F5 JUMPI PUSH2 0x2193 SWAP2 PUSH1 0x20 DUP1 DUP6 ADD SWAP2 ADD PUSH2 0x1D89 JUMP JUMPDEST SWAP1 JUMP JUMPDEST SWAP1 PUSH1 0x20 DUP3 DUP3 SUB SLT PUSH2 0x1F5 JUMPI DUP2 MLOAD PUSH1 0x1 PUSH1 0x1 PUSH1 0x40 SHL SUB SWAP3 DUP4 DUP3 GT PUSH2 0x1F5 JUMPI ADD PUSH1 0xE0 DUP2 DUP4 SUB SLT PUSH2 0x1F5 JUMPI PUSH1 0x40 MLOAD SWAP3 PUSH1 0xE0 DUP5 ADD DUP5 DUP2 LT DUP3 DUP3 GT OR PUSH2 0x889 JUMPI PUSH1 0x40 MSTORE DUP2 MLOAD DUP2 DUP2 GT PUSH2 0x1F5 JUMPI DUP4 PUSH2 0x21E9 SWAP2 DUP5 ADD PUSH2 0x2151 JUMP JUMPDEST DUP5 MSTORE PUSH1 0x20 DUP3 ADD MLOAD PUSH1 0x20 DUP6 ADD MSTORE PUSH1 0x40 DUP3 ADD MLOAD DUP2 DUP2 GT PUSH2 0x1F5 JUMPI DUP4 PUSH2 0x220D SWAP2 DUP5 ADD PUSH2 0x2151 JUMP JUMPDEST PUSH1 0x40 DUP6 ADD MSTORE PUSH1 0x60 DUP3 ADD MLOAD SWAP1 DUP2 GT PUSH2 0x1F5 JUMPI PUSH1 0xC0 SWAP3 PUSH2 0x222C SWAP2 DUP4 ADD PUSH2 0x2151 JUMP JUMPDEST PUSH1 0x60 DUP5 ADD MSTORE PUSH1 0x80 DUP2 ADD MLOAD PUSH1 0x80 DUP5 ADD MSTORE PUSH1 0xA0 DUP2 ADD MLOAD PUSH1 0xA0 DUP5 ADD MSTORE ADD MLOAD DUP1 ISZERO ISZERO DUP2 SUB PUSH2 0x1F5 JUMPI PUSH1 0xC0 DUP3 ADD MSTORE SWAP1 JUMP JUMPDEST PUSH1 0x1 PUSH1 0x1 PUSH1 0x40 SHL SUB DUP2 GT PUSH2 0x889 JUMPI PUSH1 0x5 SHL PUSH1 0x20 ADD SWAP1 JUMP JUMPDEST DUP1 MLOAD DUP3 LT ISZERO PUSH2 0x1D45 JUMPI PUSH1 0x20 SWAP2 PUSH1 0x5 SHL ADD ADD SWAP1 JUMP JUMPDEST SWAP1 PUSH1 0x0 DUP1 SWAP3 DUP3 DUP3 MSTORE PUSH1 0x5 PUSH1 0x20 MSTORE PUSH1 0x40 SWAP3 DUP4 DUP4 KECCAK256 SWAP1 DUP5 MLOAD SWAP2 PUSH2 0x22A3 DUP4 PUSH2 0x1ECE JUMP JUMPDEST DUP1 SLOAD DUP4 MSTORE PUSH1 0x1 DUP2 ADD SLOAD PUSH1 0x1 PUSH1 0x1 PUSH1 0xA0 SHL SUB SWAP1 DUP2 AND PUSH1 0x20 DUP6 ADD MSTORE DUP7 MLOAD SWAP1 SWAP4 SWAP1 PUSH2 0x22D2 DUP2 PUSH2 0x24D DUP2 PUSH1 0x2 DUP8 ADD PUSH2 0x1E38 JUMP JUMPDEST DUP8 DUP3 ADD MSTORE DUP7 MLOAD PUSH2 0x22E9 DUP2 PUSH2 0x24D DUP2 PUSH1 0x3 DUP8 ADD PUSH2 0x1E38 JUMP JUMPDEST PUSH1 0x60 DUP3 ADD MSTORE PUSH1 0x4 DUP3 ADD SLOAD PUSH1 0x80 DUP3 ADD MSTORE PUSH1 0x5 DUP3 ADD SLOAD SWAP2 DUP3 PUSH1 0xA0 DUP4 ADD MSTORE PUSH1 0x6 DUP2 ADD SLOAD SWAP2 DUP3 PUSH1 0xC0 DUP3 ADD MSTORE PUSH1 0x7 DUP3 ADD SLOAD PUSH1 0xE0 DUP3 ADD MSTORE PUSH1 0x8 DUP3 ADD SLOAD PUSH2 0x100 DUP3 ADD MSTORE PUSH1 0x9 DUP3 ADD SLOAD PUSH2 0x120 DUP3 ADD MSTORE PUSH1 0xFF PUSH1 0xB PUSH1 0xA DUP5 ADD SLOAD SWAP4 DUP5 PUSH2 0x140 DUP6 ADD MSTORE ADD SLOAD AND ISZERO SWAP1 PUSH2 0x160 DUP3 ISZERO SWAP2 ADD MSTORE PUSH2 0x23ED JUMPI TIMESTAMP LT ISZERO PUSH2 0x23E3 JUMPI LT ISZERO PUSH2 0x23DB JUMPI DUP3 DUP5 MSTORE PUSH1 0x8 PUSH1 0x20 MSTORE DUP5 DUP5 KECCAK256 SWAP1 DUP5 MSTORE PUSH1 0x20 MSTORE PUSH1 0xFF DUP5 DUP5 KECCAK256 SLOAD AND PUSH2 0x23D4 JUMPI PUSH1 0x24 SWAP1 PUSH1 0x2 SLOAD PUSH1 0x8 SHR AND SWAP4 MLOAD DUP1 SWAP5 DUP2 SWAP4 PUSH4 0x349ABFA7 PUSH1 0xE1 SHL DUP4 MSTORE PUSH1 0x4 DUP4 ADD MSTORE GAS STATICCALL DUP3 SWAP2 DUP2 PUSH2 0x23B8 JUMPI JUMPDEST POP PUSH2 0x23AD JUMPI POP SWAP1 JUMP JUMPDEST PUSH1 0xC0 SWAP2 POP ADD MLOAD ISZERO ISZERO SWAP1 JUMP JUMPDEST PUSH2 0x23CD SWAP2 SWAP3 POP RETURNDATASIZE DUP1 DUP6 DUP4 RETURNDATACOPY PUSH2 0x121A DUP2 DUP4 PUSH2 0x1F06 JUMP JUMPDEST SWAP1 CODESIZE PUSH2 0x23A4 JUMP JUMPDEST POP POP POP POP SWAP1 JUMP JUMPDEST POP POP POP POP POP SWAP1 JUMP JUMPDEST POP POP POP POP POP POP POP SWAP1 JUMP JUMPDEST POP POP POP POP POP POP POP POP SWAP1 JUMP JUMPDEST SWAP2 SWAP1 DUP2 LT ISZERO PUSH2 0x1D45 JUMPI PUSH1 0x5 SHL ADD SWAP1 JUMP INVALID LOG2 PUSH5 0x6970667358 0x22 SLT KECCAK256 0xB5 0xE8 0xBF 0xB5 PUSH31 0xE974718EB0AEAF730410A331CBF1E5F27F33166A35BF639F49754B64736F6C PUSH4 0x43000813 STOP CALLER "},"methodIdentifiers":{"MAX_DURATION()":"b1724b46","MIN_DURATION()":"b6a6d177","activeBountyIds(uint256)":"220f8bc5","bounties(uint256)":"dc2f8744","bountyResponses(uint256,uint256)":"cb2489f5","canRespond(uint256,uint256)":"a4938a0f","cancelBounty(uint256)":"e5e5dff1","createBounty(string,string,uint256,uint256,uint256)":"d9d6ffc4","geneticNFT()":"b629ed00","getActiveBounties()":"b4e51269","getBountyResponses(uint256)":"b7bdffc8","hasResponded(uint256,uint256)":"dffde26d","owner()":"8da5cb5b","pause()":"8456cb59","paused()":"5c975abb","platformFeeBps()":"22dcd13e","processExpiredBounties(uint256[])":"d23e93e2","renounceOwnership()":"715018a6","respondToBounty(uint256,uint256,bool,bytes)":"cf4e44d6","responses(uint256)":"ed35d7e5","setGeneticNFT(address)":"3def1bcb","setPlatformFee(uint256)":"12e8e2c3","transferOwnership(address)":"f2fde38b","unpause()":"3f4ba83a","withdrawFees()":"476343ee"}}}}}