{"contracts/ResearcherRegistry.sol":{"ResearcherRegistry":{"abi":[{"inputs":[],"stateMutability":"nonpayable","type":"constructor"},{"anonymous":false,"inputs":[{"indexed":true,"internalType":"address","name":"researcher","type":"address"},{"indexed":false,"internalType":"uint256","name":"totalBounties","type":"uint256"},{"indexed":false,"internalType":"uint256","name":"successfulBounties","type":"uint256"}],"name":"BountyStatsUpdated","type":"event"},{"anonymous":false,"inputs":[{"indexed":false,"internalType":"address","name":"account","type":"address"}],"name":"Paused","type":"event"},{"anonymous":false,"inputs":[{"indexed":true,"internalType":"address","name":"researcher","type":"address"},{"indexed":false,"internalType":"uint256","name":"oldScore","type":"uint256"},{"indexed":false,"internalType":"uint256","name":"newScore","type":"uint256"}],"name":"ReputationUpdated","type":"event"},{"anonymous":false,"inputs":[{"indexed":true,"internalType":"address","name":"researcher","type":"address"},{"indexed":true,"internalType":"address","name":"admin","type":"address"}],"name":"ResearcherReactivated","type":"event"},{"anonymous":false,"inputs":[{"indexed":true,"internalType":"address","name":"researcher","type":"address"},{"indexed":false,"internalType":"string","name":"name","type":"string"},{"indexed":false,"internalType":"string","name":"institution","type":"string"},{"indexed":false,"internalType":"string","name":"email","type":"string"}],"name":"ResearcherRegistered","type":"event"},{"anonymous":false,"inputs":[{"indexed":true,"internalType":"address","name":"researcher","type":"address"},{"indexed":false,"internalType":"string","name":"reason","type":"string"},{"indexed":true,"internalType":"address","name":"admin","type":"address"}],"name":"ResearcherSuspended","type":"event"},{"anonymous":false,"inputs":[{"indexed":true,"internalType":"address","name":"researcher","type":"address"},{"indexed":false,"internalType":"enum ResearcherRegistry.VerificationStatus","name":"status","type":"uint8"},{"indexed":true,"internalType":"address","name":"verifier","type":"address"}],"name":"ResearcherVerified","type":"event"},{"anonymous":false,"inputs":[{"indexed":true,"internalType":"bytes32","name":"role","type":"bytes32"},{"indexed":true,"internalType":"bytes32","name":"previousAdminRole","type":"bytes32"},{"indexed":true,"internalType":"bytes32","name":"newAdminRole","type":"bytes32"}],"name":"RoleAdminChanged","type":"event"},{"anonymous":false,"inputs":[{"indexed":true,"internalType":"bytes32","name":"role","type":"bytes32"},{"indexed":true,"internalType":"address","name":"account","type":"address"},{"indexed":true,"internalType":"address","name":"sender","type":"address"}],"name":"RoleGranted","type":"event"},{"anonymous":false,"inputs":[{"indexed":true,"internalType":"bytes32","name":"role","type":"bytes32"},{"indexed":true,"internalType":"address","name":"account","type":"address"},{"indexed":true,"internalType":"address","name":"sender","type":"address"}],"name":"RoleRevoked","type":"event"},{"anonymous":false,"inputs":[{"indexed":false,"internalType":"address","name":"account","type":"address"}],"name":"Unpaused","type":"event"},{"anonymous":false,"inputs":[{"indexed":true,"internalType":"uint256","name":"requestId","type":"uint256"},{"indexed":true,"internalType":"address","name":"researcher","type":"address"},{"indexed":false,"internalType":"string","name":"documentsHash","type":"string"}],"name":"VerificationRequested","type":"event"},{"inputs":[],"name":"ADMIN_ROLE","outputs":[{"internalType":"bytes32","name":"","type":"bytes32"}],"stateMutability":"view","type":"function"},{"inputs":[],"name":"DEFAULT_ADMIN_ROLE","outputs":[{"internalType":"bytes32","name":"","type":"bytes32"}],"stateMutability":"view","type":"function"},{"inputs":[],"name":"VERIFIER_ROLE","outputs":[{"internalType":"bytes32","name":"","type":"bytes32"}],"stateMutability":"view","type":"function"},{"inputs":[{"internalType":"uint256","name":"","type":"uint256"}],"name":"allResearchers","outputs":[{"internalType":"address","name":"","type":"address"}],"stateMutability":"view","type":"function"},{"inputs":[],"name":"getAllResearchers","outputs":[{"internalType":"address[]","name":"","type":"address[]"}],"stateMutability":"view","type":"function"},{"inputs":[],"name":"getPendingRequests","outputs":[{"internalType":"uint256[]","name":"","type":"uint256[]"}],"stateMutability":"view","type":"function"},{"inputs":[{"internalType":"address","name":"researcherAddress","type":"address"}],"name":"getResearcher","outputs":[{"components":[{"internalType":"address","name":"wallet","type":"address"},{"internalType":"string","name":"name","type":"string"},{"internalType":"string","name":"institution","type":"string"},{"internalType":"string","name":"email","type":"string"},{"internalType":"string","name":"orcidId","type":"string"},{"internalType":"string","name":"researchField","type":"string"},{"internalType":"string","name":"irbApprovalNumber","type":"string"},{"internalType":"enum ResearcherRegistry.VerificationStatus","name":"status","type":"uint8"},{"internalType":"uint256","name":"registeredAt","type":"uint256"},{"internalType":"uint256","name":"verifiedAt","type":"uint256"},{"internalType":"uint256","name":"reputationScore","type":"uint256"},{"internalType":"uint256","name":"totalBounties","type":"uint256"},{"internalType":"uint256","name":"successfulBounties","type":"uint256"},{"internalType":"bool","name":"isActive","type":"bool"}],"internalType":"struct ResearcherRegistry.Researcher","name":"","type":"tuple"}],"stateMutability":"view","type":"function"},{"inputs":[{"internalType":"bytes32","name":"role","type":"bytes32"}],"name":"getRoleAdmin","outputs":[{"internalType":"bytes32","name":"","type":"bytes32"}],"stateMutability":"view","type":"function"},{"inputs":[{"internalType":"bytes32","name":"role","type":"bytes32"},{"internalType":"address","name":"account","type":"address"}],"name":"grantRole","outputs":[],"stateMutability":"nonpayable","type":"function"},{"inputs":[{"internalType":"bytes32","name":"role","type":"bytes32"},{"internalType":"address","name":"account","type":"address"}],"name":"hasRole","outputs":[{"internalType":"bool","name":"","type":"bool"}],"stateMutability":"view","type":"function"},{"inputs":[{"internalType":"address","name":"researcherAddress","type":"address"}],"name":"isVerifiedResearcher","outputs":[{"internalType":"bool","name":"","type":"bool"}],"stateMutability":"view","type":"function"},{"inputs":[],"name":"minReputationScore","outputs":[{"internalType":"uint256","name":"","type":"uint256"}],"stateMutability":"view","type":"function"},{"inputs":[],"name":"pause","outputs":[],"stateMutability":"nonpayable","type":"function"},{"inputs":[],"name":"paused","outputs":[{"internalType":"bool","name":"","type":"bool"}],"stateMutability":"view","type":"function"},{"inputs":[{"internalType":"uint256","name":"requestId","type":"uint256"},{"internalType":"bool","name":"approved","type":"bool"}],"name":"processVerificationRequest","outputs":[],"stateMutability":"nonpayable","type":"function"},{"inputs":[{"internalType":"address","name":"researcherAddress","type":"address"}],"name":"reactivateResearcher","outputs":[],"stateMutability":"nonpayable","type":"function"},{"inputs":[{"internalType":"string","name":"name","type":"string"},{"internalType":"string","name":"institution","type":"string"},{"internalType":"string","name":"email","type":"string"},{"internalType":"string","name":"researchField","type":"string"}],"name":"registerResearcher","outputs":[],"stateMutability":"nonpayable","type":"function"},{"inputs":[{"internalType":"bytes32","name":"role","type":"bytes32"},{"internalType":"address","name":"account","type":"address"}],"name":"renounceRole","outputs":[],"stateMutability":"nonpayable","type":"function"},{"inputs":[{"internalType":"address","name":"","type":"address"}],"name":"researchers","outputs":[{"internalType":"address","name":"wallet","type":"address"},{"internalType":"string","name":"name","type":"string"},{"internalType":"string","name":"institution","type":"string"},{"internalType":"string","name":"email","type":"string"},{"internalType":"string","name":"orcidId","type":"string"},{"internalType":"string","name":"researchField","type":"string"},{"internalType":"string","name":"irbApprovalNumber","type":"string"},{"internalType":"enum ResearcherRegistry.VerificationStatus","name":"status","type":"uint8"},{"internalType":"uint256","name":"registeredAt","type":"uint256"},{"internalType":"uint256","name":"verifiedAt","type":"uint256"},{"internalType":"uint256","name":"reputationScore","type":"uint256"},{"internalType":"uint256","name":"totalBounties","type":"uint256"},{"internalType":"uint256","name":"successfulBounties","type":"uint256"},{"internalType":"bool","name":"isActive","type":"bool"}],"stateMutability":"view","type":"function"},{"inputs":[{"internalType":"bytes32","name":"role","type":"bytes32"},{"internalType":"address","name":"account","type":"address"}],"name":"revokeRole","outputs":[],"stateMutability":"nonpayable","type":"function"},{"inputs":[{"internalType":"uint256","name":"score","type":"uint256"}],"name":"setMinReputationScore","outputs":[],"stateMutability":"nonpayable","type":"function"},{"inputs":[{"internalType":"string","name":"documentsHash","type":"string"},{"internalType":"string","name":"notes","type":"string"}],"name":"submitVerificationDocuments","outputs":[],"stateMutability":"nonpayable","type":"function"},{"inputs":[{"internalType":"bytes4","name":"interfaceId","type":"bytes4"}],"name":"supportsInterface","outputs":[{"internalType":"bool","name":"","type":"bool"}],"stateMutability":"view","type":"function"},{"inputs":[{"internalType":"address","name":"researcherAddress","type":"address"},{"internalType":"string","name":"reason","type":"string"}],"name":"suspendResearcher","outputs":[],"stateMutability":"nonpayable","type":"function"},{"inputs":[],"name":"unpause","outputs":[],"stateMutability":"nonpayable","type":"function"},{"inputs":[{"internalType":"address","name":"researcherAddress","type":"address"},{"internalType":"bool","name":"isSuccessful","type":"bool"}],"name":"updateBountyStats","outputs":[],"stateMutability":"nonpayable","type":"function"},{"inputs":[{"internalType":"string","name":"orcidId","type":"string"},{"internalType":"string","name":"irbApprovalNumber","type":"string"}],"name":"updateProfile","outputs":[],"stateMutability":"nonpayable","type":"function"},{"inputs":[{"internalType":"address","name":"researcherAddress","type":"address"},{"internalType":"uint256","name":"newScore","type":"uint256"}],"name":"updateReputation","outputs":[],"stateMutability":"nonpayable","type":"function"},{"inputs":[{"internalType":"string","name":"","type":"string"}],"name":"usedEmails","outputs":[{"internalType":"bool","name":"","type":"bool"}],"stateMutability":"view","type":"function"},{"inputs":[{"internalType":"uint256","name":"","type":"uint256"}],"name":"verificationRequests","outputs":[{"internalType":"address","name":"researcher","type":"address"},{"internalType":"string","name":"documentsHash","type":"string"},{"internalType":"string","name":"notes","type":"string"},{"internalType":"uint256","name":"submittedAt","type":"uint256"},{"internalType":"bool","name":"isProcessed","type":"bool"}],"stateMutability":"view","type":"function"},{"inputs":[{"internalType":"address","name":"researcherAddress","type":"address"},{"internalType":"enum ResearcherRegistry.VerificationStatus","name":"status","type":"uint8"}],"name":"verifyResearcher","outputs":[],"stateMutability":"nonpayable","type":"function"}],"evm":{"bytecode":{"linkReferences":{},"object":"60806040818152346200016f5760ff19806001541660015560326007556000908180526020828152838320338452815260ff84842054161562000139575b7fa49807205ce4d355092ef5a8a18f56e8913cf4a201fbe287825b095693c21775808452838252848420338552825260ff85852054161562000101575b507f0ce23c3e399818cfee81a7ab0880f714e53d7672b08df0fa62f2843416e1ea0993848452838252808420338552825260ff818520541615620000c6575b612d1e8681620001758239f35b6001918585528481528185209033865252832091825416179055339160008051602062002e93833981519152339280a43880808080620000b9565b80845283825284842033855282528484206001848254161790553390339060008051602062002e938339815191528680a4386200007a565b828052828152838320338452815283832060018382541617905533338460008051602062002e938339815191528180a46200003d565b600080fdfe6080604052600436101561001257600080fd5b60003560e01c806301bc237d146120e457806301ffc9a71461208f578063248a9ca31461206057806326967c0d14611f925780632849fecd14611e9a5780632f2ff15d14611de757806336568abe14611d555780633d3f8c4b14611c8d5780633de3000214611b405780633f4ba83a14611aac5780634089d49f14611a1c578063508f3a37146118cf5780635c975abb146118ac5780635e59897414610f735780637011f95414610f4557806375307ec714610f0357806375b238fc14610ec857806380a1f71214610d715780638456cb5914610d1857806391d1485414610ccb578063a217fddf14610caf578063bdb3c7f614610c91578063c05ca2a414610bdd578063c53c085914610b6b578063c9d3cc6a14610992578063d019cd1a14610604578063d547741f146105c3578063e7705db614610588578063e7eba4c21461030e578063f5c91a08146102705763f7aa022c1461017157600080fd5b3461026b57604036600319011261026b5761018a612477565b610192612731565b60043560005260046020526040600020600481019182549260ff84166102325760ff1993841660011790556101c357005b546001600160a01b03166000818152600260205260409020600781018054909316600317909255600991909101805415610229575b5060405190600382527f8d0a40b1dd2ffb9caac53f99851be912f5f03248ec106974cbc2e9b7f4e3d66d60203393a3005b429055386101f8565b60405162461bcd60e51b8152602060048201526011602482015270105b1c9958591e481c1c9bd8d95cdcd959607a1b6044820152606490fd5b600080fd5b3461026b57604036600319011261026b5761028961223f565b7f5b88a2e3fc1a53234357ab78c104df11c33ccfa79886793654565ad70b8afb6e60406024356102b7612516565b6001600160a01b03938416600081815260026020528390205490946102de91161515612bf0565b6102eb6064821115612c8f565b836000526002602052600a826000200190808254925582519182526020820152a2005b3461026b57602036600319011261026b5761032761223f565b60006101a0604051610338816122a5565b828152606060208201526060604082015260608082015260606080820152606060a0820152606060c08201528260e08201528261010082015282610120820152826101408201528261016082015282610180820152015260018060a01b03166000526002602052604060002060ff600d604051926103b5846122a5565b80546001600160a01b031684526103ce60018201612318565b60208501526103df60028201612318565b60408501526103f060038201612318565b606085015261040160048201612318565b608085015261041260058201612318565b60a085015261042360068201612318565b60c085015261043b8360078301541660e08601612b13565b60088101546101008501526009810154610120850152600a810154610140850152600b810154610160850152600c81015461018085015201541615156101a082015260405180916020825260018060a01b0381511660208301526101a061052c6104b660208401516101c060408701526101e08601906123e1565b6105176105036104ef6104db604088015194601f1995868b83030160608c01526123e1565b6060880151858a83030160808b01526123e1565b6080870151848983030160a08a01526123e1565b60a0860151838883030160c08901526123e1565b9060c0850151908683030160e08701526123e1565b9161054060e0820151610100860190612406565b61010081015161012085015261012081015161014085015261014081015161016085015261016081015161018085015261018081015182850152015115156101c08301520390f35b3461026b57600036600319011261026b5760206040517f0ce23c3e399818cfee81a7ab0880f714e53d7672b08df0fa62f2843416e1ea098152f35b3461026b57604036600319011261026b576106026004356105e2612255565b908060005260006020526105fd600160406000200154612876565b612980565b005b3461026b57610612366124cc565b91929033600052600260205260018060a01b039061063882604060002054161515612bf0565b33600052600260205260ff60076040600020015416600681101561097c576001148015610955575b61066990612c2d565b610674600554612c6a565b93846005556040519160a08301908382106001600160401b038311176108c2576106b8916040523384526106a9368988612486565b92602085019384523691612486565b9060408301918252426060840152600060808401528560005260046020526040600020938351166bffffffffffffffffffffffff60a01b855416178455518051906001600160401b0382116108c25781906107238261071a600189015461226b565b60018901612b1f565b602090601f83116001146108e3576000926108d8575b50508160011b916000199060031b1c19161760018401555b518051906001600160401b0382116108c25761077d82610774600287015461226b565b60028701612b1f565b602090601f83116001146108245760807fa34e1dd2e50439a3590264f0b2c8d97c220efc7ef0fbe5a3552280b9b128c8449694846107fe956108149895600495600092610819575b50508160011b916000199060031b1c19161760028501555b606081015160038501550151151591019060ff801983541691151516179055565b6040519182916020835233966020840191612b8b565b0390a3005b015190508c806107c5565b906002850160005260206000209160005b601f19851681106108aa57507fa34e1dd2e50439a3590264f0b2c8d97c220efc7ef0fbe5a3552280b9b128c844969460018561081498956004956080956107fe99601f19811610610891575b505050811b0160028501556107dd565b015160001960f88460031b161c191690558c8080610881565b91926020600181928685015181550194019201610835565b634e487b7160e01b600052604160045260246000fd5b015190508880610739565b9250600186016000526020600020906000935b601f198416851061093a576001945083601f19811610610921575b505050811b016001840155610751565b015160001960f88460031b161c19169055888080610911565b818101518355602094850194600190930192909101906108f6565b5033600052600260205260ff60076040600020015416600681101561097c57600214610660565b634e487b7160e01b600052602160045260246000fd5b3461026b576109a0366124cc565b9092919233600052602093600285526109c760018060a01b03604060002054161515612bf0565b33600052600285526004604060002001906001600160401b03948582116108c25781906109fe826109f8865461226b565b86612b1f565b600090601f8311600114610b0157600092610af6575b50508160011b916000199060031b1c19161790555b336000526002845260066040600020019282116108c257610a5482610a4e855461226b565b85612b1f565b600093601f8311600114610a92575092819293600092610a87575b5050600019600383901b1c191660019190911b179055005b013590508380610a6f565b90601f198316948460005282600020926000905b878210610ade575050836001959610610ac4575b505050811b019055005b0135600019600384901b60f8161c19169055838080610aba565b80600184968294958701358155019501920190610aa6565b013590508780610a14565b909150601f1983169184600052886000209260005b8a828210610b55575050908460019594939210610b3b575b505050811b019055610a29565b0135600019600384901b60f8161c19169055878080610b2e565b6001849682939587013581550195019201610b16565b3461026b57602036600319011261026b576004356001600160401b03811161026b573660238201121561026b5760ff610bc76020610bb481943690602481600401359101612486565b81604051938285809451938492016123be565b8101600381520301902054166040519015158152f35b3461026b57604036600319011261026b57610bf661223f565b7f0738a182f797bafb9c8bddfbc08082bfb7f5d47d51c0f9962b5849e56fb97bd36040610c21612477565b6001600160a01b0393841660008181526002602052839020549094610c4891161515612bf0565b836000526002602052600c82600020600b810192610c668454612c6a565b809455610c7d575b015482519182526020820152a2005b818101610c8a8154612c6a565b9055610c6e565b3461026b57600036600319011261026b576020600754604051908152f35b3461026b57600036600319011261026b57602060405160008152f35b3461026b57604036600319011261026b57610ce4612255565b600435600052600060205260406000209060018060a01b0316600052602052602060ff604060002054166040519015158152f35b3461026b57600036600319011261026b57610d31612516565b610d39612bac565b600160ff19815416176001557f62e78cea01bee320cd4e420270b5ea74000d11b0c9f74754ebdbfc544b05a2586020604051338152a1005b3461026b57600036600319011261026b5760058054600090600190815b81811115610e7e5750610db9610da384612cd1565b93610db160405195866122f7565b808552612cd1565b9360209182850195601f1901368737600091845b82811115610e11575050505060405192818401908285525180915260408401949160005b828110610dfe5785870386f35b8351875295810195928101928401610df1565b806000989698979597526004875260ff6004604060002001541615610e45575b610e3a90612c6a565b969496959395610dcd565b92610e4f81612c6a565b938551821015610e685790821b85018701819052610e31565b634e487b7160e01b600052603260045260246000fd5b80600095939594929452600460205260ff6004604060002001541615610eb3575b610ea890612c6a565b939193929092610d8e565b90610ec0610ea891612c6a565b919050610e9f565b3461026b57600036600319011261026b5760206040517fa49807205ce4d355092ef5a8a18f56e8913cf4a201fbe287825b095693c217758152f35b3461026b57602036600319011261026b5760043560065481101561026b57610f2c602091612440565b905460405160039290921b1c6001600160a01b03168152f35b3461026b57602036600319011261026b57600435610f61612516565b610f6e6064821115612c8f565b600755005b3461026b57608036600319011261026b576004356001600160401b03811161026b57610fa3903690600401612413565b6024356001600160401b03811161026b57610fc2903690600401612413565b9290916044356001600160401b03811161026b57610fe4903690600401612413565b6064959195356001600160401b03811161026b57611006903690600401612413565b9061100f612bac565b336000908152600260205260409020546001600160a01b031661187257841561183d5783156118015782156117cb5760ff604051848a823760208186810160038152030190205416611791576110bb906040519261106c846122a5565b33845261107a36888a612486565b602085015261108a36878b612486565b604085015261109a36868c612486565b60608501526040516110ab816122c1565b6000815260808501523691612486565b60a08201526040516110cc816122c1565b6000815260c0820152600160e082015242610100820152600061012082015260326101408201526000610160820152600061018082015260016101a0820152336000526002602052604060002060018060a01b038251166bffffffffffffffffffffffff60a01b82541617815560208201518051906001600160401b0382116108c257819061116b82611162600187015461226b565b60018701612b1f565b602090601f831160011461171f57600092611714575b50508160011b916000199060031b1c19161760018201555b60408201518051906001600160401b0382116108c25781906111c282610774600287015461226b565b602090601f83116001146116a257600092611697575b50508160011b916000199060031b1c19161760028201555b60608201518051906001600160401b0382116108c257819061122282611219600387015461226b565b60038701612b1f565b602090601f83116001146116255760009261161a575b50508160011b916000199060031b1c19161760038201555b60808201518051906001600160401b0382116108c257819061128282611279600487015461226b565b60048701612b1f565b602090601f83116001146115a85760009261159d575b50508160011b916000199060031b1c19161760048201555b60a08201518051906001600160401b0382116108c25781906112e2826112d9600587015461226b565b60058701612b1f565b602090601f831160011461152b57600092611520575b50508160011b916000199060031b1c19161760058201555b60c08201518051906001600160401b0382116108c257819061134282611339600687015461226b565b60068701612b1f565b602090601f83116001146114ae576000926114a3575b50508160011b916000199060031b1c19161760068201555b60e082015191600683101561097c576101a0600d916113956113e39560078601612b73565b61010081015160088501556101208101516009850155610140810151600a850155610160810151600b850155610180810151600c8501550151151591019060ff801983541691151516179055565b604051818782376020818381016003815203019020600160ff19825416179055600654680100000000000000008110156108c2577f25d49e40a5afd5ad6364892d282170be6996614a7b6066f53e6a2ecf0dbafc8f9561149e9361145083600161148e9501600655612440565b81549060031b9033821b9160018060a01b03901b1916179055611480604051978897606089526060890191612b8b565b918683036020880152612b8b565b9083820360408501523396612b8b565b0390a2005b015190508a80611358565b9250600684016000526020600020906000935b601f1984168510611505576001945083601f198116106114ec575b505050811b016006820155611370565b015160001960f88460031b161c191690558a80806114dc565b818101518355602094850194600190930192909101906114c1565b015190508a806112f8565b9250600584016000526020600020906000935b601f1984168510611582576001945083601f19811610611569575b505050811b016005820155611310565b015160001960f88460031b161c191690558a8080611559565b8181015183556020948501946001909301929091019061153e565b015190508a80611298565b9250600484016000526020600020906000935b601f19841685106115ff576001945083601f198116106115e6575b505050811b0160048201556112b0565b015160001960f88460031b161c191690558a80806115d6565b818101518355602094850194600190930192909101906115bb565b015190508a80611238565b9250600384016000526020600020906000935b601f198416851061167c576001945083601f19811610611663575b505050811b016003820155611250565b015160001960f88460031b161c191690558a8080611653565b81810151835560209485019460019093019290910190611638565b015190508a806111d8565b9250600284016000526020600020906000935b601f19841685106116f9576001945083601f198116106116e0575b505050811b0160028201556111f0565b015160001960f88460031b161c191690558a80806116d0565b818101518355602094850194600190930192909101906116b5565b015190508a80611181565b9250600184016000526020600020906000935b601f1984168510611776576001945083601f1981161061175d575b505050811b016001820155611199565b015160001960f88460031b161c191690558a808061174d565b81810151835560209485019460019093019290910190611732565b60405162461bcd60e51b8152602060048201526012602482015271115b585a5b08185b1c9958591e481d5cd95960721b6044820152606490fd5b60405162461bcd60e51b815260206004820152600e60248201526d115b585a5b081c995c5d5a5c995960921b6044820152606490fd5b60405162461bcd60e51b8152602060048201526014602482015273125b9cdd1a5d1d5d1a5bdb881c995c5d5a5c995960621b6044820152606490fd5b60405162461bcd60e51b815260206004820152600d60248201526c13985b59481c995c5d5a5c9959609a1b6044820152606490fd5b60405162461bcd60e51b8152602060048201526012602482015271105b1c9958591e481c9959da5cdd195c995960721b6044820152606490fd5b3461026b57600036600319011261026b57602060ff600154166040519015158152f35b3461026b57602036600319011261026b576001600160a01b03806118f161223f565b1660005260026020526040600020906040519061190d826122a5565b825416815261191e60018301612318565b602082015261192f60028301612318565b604082015261194060038301612318565b606082015261195160048301612318565b608082015261196260058301612318565b60a082015261197360068301612318565b60c082015260ff60078301541661198e60e083019182612b13565b600883015461010083015260098301546101208301526101a060ff600d600a860154956101408601968752600b810154610160870152600c810154610180870152015416920191151582525191600683101561097c576003602093149182611a11575b5081611a03575b506040519015158152f35b9050516007541115826119f8565b5115159150836119f1565b3461026b57602036600319011261026b576004356000526004602052604060002060018060a01b03815416611a5360018301612318565b91611a6060028201612318565b611a9b60ff600460038501549401541691611a8d604051968796875260a0602088015260a08701906123e1565b9085820360408701526123e1565b916060840152151560808301520390f35b3461026b57600036600319011261026b57611ac5612516565b60015460ff811615611b045760ff19166001557f5db9ee0a495bf2e6ff9c91a7834c1ba4fdd244a5e8aa4e537bd38aeae4b073aa6020604051338152a1005b60405162461bcd60e51b815260206004820152601460248201527314185d5cd8589b194e881b9bdd081c185d5cd95960621b6044820152606490fd5b3461026b57604036600319011261026b57611b5961223f565b60243590600682101561026b57611b6e612731565b6001600160a01b039081166000818152600260205260409020549091611b9691161515612bf0565b6000600283148015611c80575b818115611c70575b508015611c5f575b611bbd9150612c2d565b8060005260026020526040600020611bd88360078301612b73565b6003831480611c53575b611c48575b600483148015611c3e575b611c2d575b50611c056040518093612406565b7f8d0a40b1dd2ffb9caac53f99851be912f5f03248ec106974cbc2e9b7f4e3d66d60203393a3005b600d01805460ff1916905582611bf7565b5060058314611bf2565b426009820155611be7565b50600981015415611be2565b5061097c57611bbd60058314611bb3565b905061097c576004831481611bab565b5050600060038314611ba3565b3461026b57600036600319011261026b57604051806006548083526020809301809160066000527ff652222313e28459528d920b65115c16c04f3efc82aaedc97be59f3f377c0d3f9060005b86828210611d38578686611cef828803836122f7565b604051928392818401908285525180915260408401929160005b828110611d1857505050500390f35b83516001600160a01b031685528695509381019392810192600101611d09565b83546001600160a01b031685529093019260019283019201611cd9565b3461026b57604036600319011261026b57611d6e612255565b336001600160a01b03821603611d8a5761060290600435612980565b60405162461bcd60e51b815260206004820152602f60248201527f416363657373436f6e74726f6c3a2063616e206f6e6c792072656e6f756e636560448201526e103937b632b9903337b91039b2b63360891b6064820152608490fd5b3461026b57604036600319011261026b57600435611e03612255565b816000526000602052611e1d600160406000200154612876565b81600052600060205260406000209060018060a01b0316908160005260205260ff6040600020541615611e4c57005b8160005260006020526040600020816000526020526040600020600160ff1982541617905533917f2f8788117e7eff1d82e926ec794901d17c78024a50270940304540a733656f0d600080a4005b3461026b57602036600319011261026b57611eb361223f565b611ebb612516565b6001600160a01b039081166000818152600260205260409020549091611ee391161515612bf0565b80600052600260205260ff60076040600020015416600681101561097c57600403611f5d5780600052600260205260406000206001600d600783019260ff1993600385825416179055019182541617905533907f1d10891d85d39917bccd66f332edba6858650f07c85974035506394cee5bba26600080a3005b60405162461bcd60e51b815260206004820152600d60248201526c139bdd081cdd5cdc195b991959609a1b6044820152606490fd5b3461026b57604036600319011261026b57611fab61223f565b602435906001600160401b03821161026b577fd0640df4602abad54cb0c7050249ef4a002fb8b7cad09e5c592f5e5a1a97a216611fef610814933690600401612413565b9390611ff9612516565b6001600160a01b03938416600081815260026020526040902054909461202191161515612bf0565b8360005260026020526040600020600d600782019160ff1992600484825416179055019081541690556040519182916020835233966020840191612b8b565b3461026b57602036600319011261026b5760043560005260006020526020600160406000200154604051908152f35b3461026b57602036600319011261026b5760043563ffffffff60e01b811680910361026b57602090637965db0b60e01b81149081156120d357506040519015158152f35b6301ffc9a760e01b149050826119f8565b3461026b57602036600319011261026b576001600160a01b038061210661223f565b1660005260026020526040600020908154166001820161212590612318565b9161213260028201612318565b61213e60038301612318565b9161214b60048201612318565b9261215860058301612318565b9361216560068401612318565b94600784015460ff1695600885015490600986015492600a87015494600b88015496600c89015498600d015460ff16996040519d8e9d8e528d6101c090816020820152016121b2916123e1565b8d810360408f01526121c3916123e1565b8c810360608e01526121d4916123e1565b8b810360808d01526121e5916123e1565b8a810360a08c01526121f6916123e1565b89810360c08b0152612207916123e1565b9660e0890161221591612406565b61010088015261012087015261014086015261016085015261018084015215156101a08301520390f35b600435906001600160a01b038216820361026b57565b602435906001600160a01b038216820361026b57565b90600182811c9216801561229b575b602083101461228557565b634e487b7160e01b600052602260045260246000fd5b91607f169161227a565b6101c081019081106001600160401b038211176108c257604052565b602081019081106001600160401b038211176108c257604052565b608081019081106001600160401b038211176108c257604052565b90601f801991011681019081106001600160401b038211176108c257604052565b906040519182600082549261232c8461226b565b90818452600194858116908160001461239b5750600114612358575b5050612356925003836122f7565b565b9093915060005260209081600020936000915b81831061238357505061235693508201013880612348565b8554888401850152948501948794509183019161236b565b91505061235694506020925060ff191682840152151560051b8201013880612348565b60005b8381106123d15750506000910152565b81810151838201526020016123c1565b906020916123fa815180928185528580860191016123be565b601f01601f1916010190565b90600682101561097c5752565b9181601f8401121561026b578235916001600160401b03831161026b576020838186019501011161026b57565b600654811015610e685760066000527ff652222313e28459528d920b65115c16c04f3efc82aaedc97be59f3f377c0d3f0190600090565b60243590811515820361026b57565b9291926001600160401b0382116108c257604051916124af601f8201601f1916602001846122f7565b82948184528183011161026b578281602093846000960137010152565b604060031982011261026b576001600160401b039160043583811161026b57826124f891600401612413565b9390939260243591821161026b5761251291600401612413565b9091565b3360009081527f7d7ffb7a348e1c6a02869081a26547b49160dd3df72d1d75a570eb9b698292ec602090815260408083205490927fa49807205ce4d355092ef5a8a18f56e8913cf4a201fbe287825b095693c217759160ff161561257a5750505050565b61258333612a05565b91845190612590826122dc565b6042825284820192606036853782511561271d576030845382519060019182101561271d5790607860218501536041915b8183116126af5750505061266d57604861266993869361264d9361263e985198899376020b1b1b2b9b9a1b7b73a3937b61d1030b1b1b7bab73a1604d1b8a860152612615815180928c6037890191016123be565b8401917001034b99036b4b9b9b4b733903937b6329607d1b6037840152518093868401906123be565b010360288101875201856122f7565b5192839262461bcd60e51b8452600484015260248301906123e1565b0390fd5b60648486519062461bcd60e51b825280600483015260248201527f537472696e67733a20686578206c656e67746820696e73756666696369656e746044820152fd5b909192600f81166010811015612709576f181899199a1a9b1b9c1cb0b131b232b360811b901a6126df85876129f4565b5360041c9280156126f5576000190191906125c1565b634e487b7160e01b82526011600452602482fd5b634e487b7160e01b83526032600452602483fd5b634e487b7160e01b81526032600452602490fd5b3360009081527f1da0b5176dfe03406af5a6eed66ca01dda9b45ac4da671c3fa379cb93717ef81602090815260408083205490927f0ce23c3e399818cfee81a7ab0880f714e53d7672b08df0fa62f2843416e1ea099160ff16156127955750505050565b61279e33612a05565b918451906127ab826122dc565b6042825284820192606036853782511561271d576030845382519060019182101561271d5790607860218501536041915b8183116128305750505061266d57604861266993869361264d9361263e985198899376020b1b1b2b9b9a1b7b73a3937b61d1030b1b1b7bab73a1604d1b8a860152612615815180928c6037890191016123be565b909192600f81166010811015612709576f181899199a1a9b1b9c1cb0b131b232b360811b901a61286085876129f4565b5360041c9280156126f5576000190191906127dc565b600090808252602090828252604092838120338252835260ff84822054161561289f5750505050565b6128a833612a05565b918451906128b5826122dc565b6042825284820192606036853782511561271d576030845382519060019182101561271d5790607860218501536041915b81831161293a5750505061266d57604861266993869361264d9361263e985198899376020b1b1b2b9b9a1b7b73a3937b61d1030b1b1b7bab73a1604d1b8a860152612615815180928c6037890191016123be565b909192600f81166010811015612709576f181899199a1a9b1b9c1cb0b131b232b360811b901a61296a85876129f4565b5360041c9280156126f5576000190191906128e6565b9060009180835282602052604083209160018060a01b03169182845260205260ff6040842054166129b057505050565b80835282602052604083208284526020526040832060ff1981541690557ff6391f5c32d9c69d2a47ea670b442974b53935d1edc7fd64eb21e047a839171b339380a4565b908151811015610e68570160200190565b60405190606082018281106001600160401b038211176108c257604052602a8252602082016040368237825115610e6857603090538151600190811015610e6857607860218401536029905b808211612aa5575050612a615790565b606460405162461bcd60e51b815260206004820152602060248201527f537472696e67733a20686578206c656e67746820696e73756666696369656e746044820152fd5b9091600f81166010811015612afe576f181899199a1a9b1b9c1cb0b131b232b360811b901a612ad484866129f4565b5360041c918015612ae9576000190190612a51565b60246000634e487b7160e01b81526011600452fd5b60246000634e487b7160e01b81526032600452fd5b600682101561097c5752565b90601f8111612b2d57505050565b600091825260208220906020601f850160051c83019410612b69575b601f0160051c01915b828110612b5e57505050565b818155600101612b52565b9092508290612b49565b90600681101561097c5760ff80198354169116179055565b908060209392818452848401376000828201840152601f01601f1916010190565b60ff60015416612bb857565b60405162461bcd60e51b815260206004820152601060248201526f14185d5cd8589b194e881c185d5cd95960821b6044820152606490fd5b15612bf757565b60405162461bcd60e51b815260206004820152600e60248201526d139bdd081c9959da5cdd195c995960921b6044820152606490fd5b15612c3457565b60405162461bcd60e51b815260206004820152600e60248201526d496e76616c69642073746174757360901b6044820152606490fd5b6000198114612c795760010190565b634e487b7160e01b600052601160045260246000fd5b15612c9657565b60405162461bcd60e51b8152602060048201526013602482015272053636f7265206d75737420626520302d31303606c1b6044820152606490fd5b6001600160401b0381116108c25760051b6020019056fea2646970667358221220cace13c4c85253bfe713f8469f7448743961c3b1ba36a0fbdecd8631cbec528e64736f6c634300081300332f8788117e7eff1d82e926ec794901d17c78024a50270940304540a733656f0d","opcodes":"PUSH1 0x80 PUSH1 0x40 DUP2 DUP2 MSTORE CALLVALUE PUSH3 0x16F JUMPI PUSH1 0xFF NOT DUP1 PUSH1 0x1 SLOAD AND PUSH1 0x1 SSTORE PUSH1 0x32 PUSH1 0x7 SSTORE PUSH1 0x0 SWAP1 DUP2 DUP1 MSTORE PUSH1 0x20 DUP3 DUP2 MSTORE DUP4 DUP4 KECCAK256 CALLER DUP5 MSTORE DUP2 MSTORE PUSH1 0xFF DUP5 DUP5 KECCAK256 SLOAD AND ISZERO PUSH3 0x139 JUMPI JUMPDEST PUSH32 0xA49807205CE4D355092EF5A8A18F56E8913CF4A201FBE287825B095693C21775 DUP1 DUP5 MSTORE DUP4 DUP3 MSTORE DUP5 DUP5 KECCAK256 CALLER DUP6 MSTORE DUP3 MSTORE PUSH1 0xFF DUP6 DUP6 KECCAK256 SLOAD AND ISZERO PUSH3 0x101 JUMPI JUMPDEST POP PUSH32 0xCE23C3E399818CFEE81A7AB0880F714E53D7672B08DF0FA62F2843416E1EA09 SWAP4 DUP5 DUP5 MSTORE DUP4 DUP3 MSTORE DUP1 DUP5 KECCAK256 CALLER DUP6 MSTORE DUP3 MSTORE PUSH1 0xFF DUP2 DUP6 KECCAK256 SLOAD AND ISZERO PUSH3 0xC6 JUMPI JUMPDEST PUSH2 0x2D1E DUP7 DUP2 PUSH3 0x175 DUP3 CODECOPY RETURN JUMPDEST PUSH1 0x1 SWAP2 DUP6 DUP6 MSTORE DUP5 DUP2 MSTORE DUP2 DUP6 KECCAK256 SWAP1 CALLER DUP7 MSTORE MSTORE DUP4 KECCAK256 SWAP2 DUP3 SLOAD AND OR SWAP1 SSTORE CALLER SWAP2 PUSH1 0x0 DUP1 MLOAD PUSH1 0x20 PUSH3 0x2E93 DUP4 CODECOPY DUP2 MLOAD SWAP2 MSTORE CALLER SWAP3 DUP1 LOG4 CODESIZE DUP1 DUP1 DUP1 DUP1 PUSH3 0xB9 JUMP JUMPDEST DUP1 DUP5 MSTORE DUP4 DUP3 MSTORE DUP5 DUP5 KECCAK256 CALLER DUP6 MSTORE DUP3 MSTORE DUP5 DUP5 KECCAK256 PUSH1 0x1 DUP5 DUP3 SLOAD AND OR SWAP1 SSTORE CALLER SWAP1 CALLER SWAP1 PUSH1 0x0 DUP1 MLOAD PUSH1 0x20 PUSH3 0x2E93 DUP4 CODECOPY DUP2 MLOAD SWAP2 MSTORE DUP7 DUP1 LOG4 CODESIZE PUSH3 0x7A JUMP JUMPDEST DUP3 DUP1 MSTORE DUP3 DUP2 MSTORE DUP4 DUP4 KECCAK256 CALLER DUP5 MSTORE DUP2 MSTORE DUP4 DUP4 KECCAK256 PUSH1 0x1 DUP4 DUP3 SLOAD AND OR SWAP1 SSTORE CALLER CALLER DUP5 PUSH1 0x0 DUP1 MLOAD PUSH1 0x20 PUSH3 0x2E93 DUP4 CODECOPY DUP2 MLOAD SWAP2 MSTORE DUP2 DUP1 LOG4 PUSH3 0x3D JUMP JUMPDEST PUSH1 0x0 DUP1 REVERT INVALID PUSH1 0x80 PUSH1 0x40 MSTORE PUSH1 0x4 CALLDATASIZE LT ISZERO PUSH2 0x12 JUMPI PUSH1 0x0 DUP1 REVERT JUMPDEST PUSH1 0x0 CALLDATALOAD PUSH1 0xE0 SHR DUP1 PUSH4 0x1BC237D EQ PUSH2 0x20E4 JUMPI DUP1 PUSH4 0x1FFC9A7 EQ PUSH2 0x208F JUMPI DUP1 PUSH4 0x248A9CA3 EQ PUSH2 0x2060 JUMPI DUP1 PUSH4 0x26967C0D EQ PUSH2 0x1F92 JUMPI DUP1 PUSH4 0x2849FECD EQ PUSH2 0x1E9A JUMPI DUP1 PUSH4 0x2F2FF15D EQ PUSH2 0x1DE7 JUMPI DUP1 PUSH4 0x36568ABE EQ PUSH2 0x1D55 JUMPI DUP1 PUSH4 0x3D3F8C4B EQ PUSH2 0x1C8D JUMPI DUP1 PUSH4 0x3DE30002 EQ PUSH2 0x1B40 JUMPI DUP1 PUSH4 0x3F4BA83A EQ PUSH2 0x1AAC JUMPI DUP1 PUSH4 0x4089D49F EQ PUSH2 0x1A1C JUMPI DUP1 PUSH4 0x508F3A37 EQ PUSH2 0x18CF JUMPI DUP1 PUSH4 0x5C975ABB EQ PUSH2 0x18AC JUMPI DUP1 PUSH4 0x5E598974 EQ PUSH2 0xF73 JUMPI DUP1 PUSH4 0x7011F954 EQ PUSH2 0xF45 JUMPI DUP1 PUSH4 0x75307EC7 EQ PUSH2 0xF03 JUMPI DUP1 PUSH4 0x75B238FC EQ PUSH2 0xEC8 JUMPI DUP1 PUSH4 0x80A1F712 EQ PUSH2 0xD71 JUMPI DUP1 PUSH4 0x8456CB59 EQ PUSH2 0xD18 JUMPI DUP1 PUSH4 0x91D14854 EQ PUSH2 0xCCB JUMPI DUP1 PUSH4 0xA217FDDF EQ PUSH2 0xCAF JUMPI DUP1 PUSH4 0xBDB3C7F6 EQ PUSH2 0xC91 JUMPI DUP1 PUSH4 0xC05CA2A4 EQ PUSH2 0xBDD JUMPI DUP1 PUSH4 0xC53C0859 EQ PUSH2 0xB6B JUMPI DUP1 PUSH4 0xC9D3CC6A EQ PUSH2 0x992 JUMPI DUP1 PUSH4 0xD019CD1A EQ PUSH2 0x604 JUMPI DUP1 PUSH4 0xD547741F EQ PUSH2 0x5C3 JUMPI DUP1 PUSH4 0xE7705DB6 EQ PUSH2 0x588 JUMPI DUP1 PUSH4 0xE7EBA4C2 EQ PUSH2 0x30E JUMPI DUP1 PUSH4 0xF5C91A08 EQ PUSH2 0x270 JUMPI PUSH4 0xF7AA022C EQ PUSH2 0x171 JUMPI PUSH1 0x0 DUP1 REVERT JUMPDEST CALLVALUE PUSH2 0x26B JUMPI PUSH1 0x40 CALLDATASIZE PUSH1 0x3 NOT ADD SLT PUSH2 0x26B JUMPI PUSH2 0x18A PUSH2 0x2477 JUMP JUMPDEST PUSH2 0x192 PUSH2 0x2731 JUMP JUMPDEST PUSH1 0x4 CALLDATALOAD PUSH1 0x0 MSTORE PUSH1 0x4 PUSH1 0x20 MSTORE PUSH1 0x40 PUSH1 0x0 KECCAK256 PUSH1 0x4 DUP2 ADD SWAP2 DUP3 SLOAD SWAP3 PUSH1 0xFF DUP5 AND PUSH2 0x232 JUMPI PUSH1 0xFF NOT SWAP4 DUP5 AND PUSH1 0x1 OR SWAP1 SSTORE PUSH2 0x1C3 JUMPI STOP JUMPDEST SLOAD PUSH1 0x1 PUSH1 0x1 PUSH1 0xA0 SHL SUB AND PUSH1 0x0 DUP2 DUP2 MSTORE PUSH1 0x2 PUSH1 0x20 MSTORE PUSH1 0x40 SWAP1 KECCAK256 PUSH1 0x7 DUP2 ADD DUP1 SLOAD SWAP1 SWAP4 AND PUSH1 0x3 OR SWAP1 SWAP3 SSTORE PUSH1 0x9 SWAP2 SWAP1 SWAP2 ADD DUP1 SLOAD ISZERO PUSH2 0x229 JUMPI JUMPDEST POP PUSH1 0x40 MLOAD SWAP1 PUSH1 0x3 DUP3 MSTORE PUSH32 0x8D0A40B1DD2FFB9CAAC53F99851BE912F5F03248EC106974CBC2E9B7F4E3D66D PUSH1 0x20 CALLER SWAP4 LOG3 STOP JUMPDEST TIMESTAMP SWAP1 SSTORE CODESIZE PUSH2 0x1F8 JUMP JUMPDEST PUSH1 0x40 MLOAD PUSH3 0x461BCD PUSH1 0xE5 SHL DUP2 MSTORE PUSH1 0x20 PUSH1 0x4 DUP3 ADD MSTORE PUSH1 0x11 PUSH1 0x24 DUP3 ADD MSTORE PUSH17 0x105B1C9958591E481C1C9BD8D95CDCD959 PUSH1 0x7A SHL PUSH1 0x44 DUP3 ADD MSTORE PUSH1 0x64 SWAP1 REVERT JUMPDEST PUSH1 0x0 DUP1 REVERT JUMPDEST CALLVALUE PUSH2 0x26B JUMPI PUSH1 0x40 CALLDATASIZE PUSH1 0x3 NOT ADD SLT PUSH2 0x26B JUMPI PUSH2 0x289 PUSH2 0x223F JUMP JUMPDEST PUSH32 0x5B88A2E3FC1A53234357AB78C104DF11C33CCFA79886793654565AD70B8AFB6E PUSH1 0x40 PUSH1 0x24 CALLDATALOAD PUSH2 0x2B7 PUSH2 0x2516 JUMP JUMPDEST PUSH1 0x1 PUSH1 0x1 PUSH1 0xA0 SHL SUB SWAP4 DUP5 AND PUSH1 0x0 DUP2 DUP2 MSTORE PUSH1 0x2 PUSH1 0x20 MSTORE DUP4 SWAP1 KECCAK256 SLOAD SWAP1 SWAP5 PUSH2 0x2DE SWAP2 AND ISZERO ISZERO PUSH2 0x2BF0 JUMP JUMPDEST PUSH2 0x2EB PUSH1 0x64 DUP3 GT ISZERO PUSH2 0x2C8F JUMP JUMPDEST DUP4 PUSH1 0x0 MSTORE PUSH1 0x2 PUSH1 0x20 MSTORE PUSH1 0xA DUP3 PUSH1 0x0 KECCAK256 ADD SWAP1 DUP1 DUP3 SLOAD SWAP3 SSTORE DUP3 MLOAD SWAP2 DUP3 MSTORE PUSH1 0x20 DUP3 ADD MSTORE LOG2 STOP JUMPDEST CALLVALUE PUSH2 0x26B JUMPI PUSH1 0x20 CALLDATASIZE PUSH1 0x3 NOT ADD SLT PUSH2 0x26B JUMPI PUSH2 0x327 PUSH2 0x223F JUMP JUMPDEST PUSH1 0x0 PUSH2 0x1A0 PUSH1 0x40 MLOAD PUSH2 0x338 DUP2 PUSH2 0x22A5 JUMP JUMPDEST DUP3 DUP2 MSTORE PUSH1 0x60 PUSH1 0x20 DUP3 ADD MSTORE PUSH1 0x60 PUSH1 0x40 DUP3 ADD MSTORE PUSH1 0x60 DUP1 DUP3 ADD MSTORE PUSH1 0x60 PUSH1 0x80 DUP3 ADD MSTORE PUSH1 0x60 PUSH1 0xA0 DUP3 ADD MSTORE PUSH1 0x60 PUSH1 0xC0 DUP3 ADD MSTORE DUP3 PUSH1 0xE0 DUP3 ADD MSTORE DUP3 PUSH2 0x100 DUP3 ADD MSTORE DUP3 PUSH2 0x120 DUP3 ADD MSTORE DUP3 PUSH2 0x140 DUP3 ADD MSTORE DUP3 PUSH2 0x160 DUP3 ADD MSTORE DUP3 PUSH2 0x180 DUP3 ADD MSTORE ADD MSTORE PUSH1 0x1 DUP1 PUSH1 0xA0 SHL SUB AND PUSH1 0x0 MSTORE PUSH1 0x2 PUSH1 0x20 MSTORE PUSH1 0x40 PUSH1 0x0 KECCAK256 PUSH1 0xFF PUSH1 0xD PUSH1 0x40 MLOAD SWAP3 PUSH2 0x3B5 DUP5 PUSH2 0x22A5 JUMP JUMPDEST DUP1 SLOAD PUSH1 0x1 PUSH1 0x1 PUSH1 0xA0 SHL SUB AND DUP5 MSTORE PUSH2 0x3CE PUSH1 0x1 DUP3 ADD PUSH2 0x2318 JUMP JUMPDEST PUSH1 0x20 DUP6 ADD MSTORE PUSH2 0x3DF PUSH1 0x2 DUP3 ADD PUSH2 0x2318 JUMP JUMPDEST PUSH1 0x40 DUP6 ADD MSTORE PUSH2 0x3F0 PUSH1 0x3 DUP3 ADD PUSH2 0x2318 JUMP JUMPDEST PUSH1 0x60 DUP6 ADD MSTORE PUSH2 0x401 PUSH1 0x4 DUP3 ADD PUSH2 0x2318 JUMP JUMPDEST PUSH1 0x80 DUP6 ADD MSTORE PUSH2 0x412 PUSH1 0x5 DUP3 ADD PUSH2 0x2318 JUMP JUMPDEST PUSH1 0xA0 DUP6 ADD MSTORE PUSH2 0x423 PUSH1 0x6 DUP3 ADD PUSH2 0x2318 JUMP JUMPDEST PUSH1 0xC0 DUP6 ADD MSTORE PUSH2 0x43B DUP4 PUSH1 0x7 DUP4 ADD SLOAD AND PUSH1 0xE0 DUP7 ADD PUSH2 0x2B13 JUMP JUMPDEST PUSH1 0x8 DUP2 ADD SLOAD PUSH2 0x100 DUP6 ADD MSTORE PUSH1 0x9 DUP2 ADD SLOAD PUSH2 0x120 DUP6 ADD MSTORE PUSH1 0xA DUP2 ADD SLOAD PUSH2 0x140 DUP6 ADD MSTORE PUSH1 0xB DUP2 ADD SLOAD PUSH2 0x160 DUP6 ADD MSTORE PUSH1 0xC DUP2 ADD SLOAD PUSH2 0x180 DUP6 ADD MSTORE ADD SLOAD AND ISZERO ISZERO PUSH2 0x1A0 DUP3 ADD MSTORE PUSH1 0x40 MLOAD DUP1 SWAP2 PUSH1 0x20 DUP3 MSTORE PUSH1 0x1 DUP1 PUSH1 0xA0 SHL SUB DUP2 MLOAD AND PUSH1 0x20 DUP4 ADD MSTORE PUSH2 0x1A0 PUSH2 0x52C PUSH2 0x4B6 PUSH1 0x20 DUP5 ADD MLOAD PUSH2 0x1C0 PUSH1 0x40 DUP8 ADD MSTORE PUSH2 0x1E0 DUP7 ADD SWAP1 PUSH2 0x23E1 JUMP JUMPDEST PUSH2 0x517 PUSH2 0x503 PUSH2 0x4EF PUSH2 0x4DB PUSH1 0x40 DUP9 ADD MLOAD SWAP5 PUSH1 0x1F NOT SWAP6 DUP7 DUP12 DUP4 SUB ADD PUSH1 0x60 DUP13 ADD MSTORE PUSH2 0x23E1 JUMP JUMPDEST PUSH1 0x60 DUP9 ADD MLOAD DUP6 DUP11 DUP4 SUB ADD PUSH1 0x80 DUP12 ADD MSTORE PUSH2 0x23E1 JUMP JUMPDEST PUSH1 0x80 DUP8 ADD MLOAD DUP5 DUP10 DUP4 SUB ADD PUSH1 0xA0 DUP11 ADD MSTORE PUSH2 0x23E1 JUMP JUMPDEST PUSH1 0xA0 DUP7 ADD MLOAD DUP4 DUP9 DUP4 SUB ADD PUSH1 0xC0 DUP10 ADD MSTORE PUSH2 0x23E1 JUMP JUMPDEST SWAP1 PUSH1 0xC0 DUP6 ADD MLOAD SWAP1 DUP7 DUP4 SUB ADD PUSH1 0xE0 DUP8 ADD MSTORE PUSH2 0x23E1 JUMP JUMPDEST SWAP2 PUSH2 0x540 PUSH1 0xE0 DUP3 ADD MLOAD PUSH2 0x100 DUP7 ADD SWAP1 PUSH2 0x2406 JUMP JUMPDEST PUSH2 0x100 DUP2 ADD MLOAD PUSH2 0x120 DUP6 ADD MSTORE PUSH2 0x120 DUP2 ADD MLOAD PUSH2 0x140 DUP6 ADD MSTORE PUSH2 0x140 DUP2 ADD MLOAD PUSH2 0x160 DUP6 ADD MSTORE PUSH2 0x160 DUP2 ADD MLOAD PUSH2 0x180 DUP6 ADD MSTORE PUSH2 0x180 DUP2 ADD MLOAD DUP3 DUP6 ADD MSTORE ADD MLOAD ISZERO ISZERO PUSH2 0x1C0 DUP4 ADD MSTORE SUB SWAP1 RETURN JUMPDEST CALLVALUE PUSH2 0x26B JUMPI PUSH1 0x0 CALLDATASIZE PUSH1 0x3 NOT ADD SLT PUSH2 0x26B JUMPI PUSH1 0x20 PUSH1 0x40 MLOAD PUSH32 0xCE23C3E399818CFEE81A7AB0880F714E53D7672B08DF0FA62F2843416E1EA09 DUP2 MSTORE RETURN JUMPDEST CALLVALUE PUSH2 0x26B JUMPI PUSH1 0x40 CALLDATASIZE PUSH1 0x3 NOT ADD SLT PUSH2 0x26B JUMPI PUSH2 0x602 PUSH1 0x4 CALLDATALOAD PUSH2 0x5E2 PUSH2 0x2255 JUMP JUMPDEST SWAP1 DUP1 PUSH1 0x0 MSTORE PUSH1 0x0 PUSH1 0x20 MSTORE PUSH2 0x5FD PUSH1 0x1 PUSH1 0x40 PUSH1 0x0 KECCAK256 ADD SLOAD PUSH2 0x2876 JUMP JUMPDEST PUSH2 0x2980 JUMP JUMPDEST STOP JUMPDEST CALLVALUE PUSH2 0x26B JUMPI PUSH2 0x612 CALLDATASIZE PUSH2 0x24CC JUMP JUMPDEST SWAP2 SWAP3 SWAP1 CALLER PUSH1 0x0 MSTORE PUSH1 0x2 PUSH1 0x20 MSTORE PUSH1 0x1 DUP1 PUSH1 0xA0 SHL SUB SWAP1 PUSH2 0x638 DUP3 PUSH1 0x40 PUSH1 0x0 KECCAK256 SLOAD AND ISZERO ISZERO PUSH2 0x2BF0 JUMP JUMPDEST CALLER PUSH1 0x0 MSTORE PUSH1 0x2 PUSH1 0x20 MSTORE PUSH1 0xFF PUSH1 0x7 PUSH1 0x40 PUSH1 0x0 KECCAK256 ADD SLOAD AND PUSH1 0x6 DUP2 LT ISZERO PUSH2 0x97C JUMPI PUSH1 0x1 EQ DUP1 ISZERO PUSH2 0x955 JUMPI JUMPDEST PUSH2 0x669 SWAP1 PUSH2 0x2C2D JUMP JUMPDEST PUSH2 0x674 PUSH1 0x5 SLOAD PUSH2 0x2C6A JUMP JUMPDEST SWAP4 DUP5 PUSH1 0x5 SSTORE PUSH1 0x40 MLOAD SWAP2 PUSH1 0xA0 DUP4 ADD SWAP1 DUP4 DUP3 LT PUSH1 0x1 PUSH1 0x1 PUSH1 0x40 SHL SUB DUP4 GT OR PUSH2 0x8C2 JUMPI PUSH2 0x6B8 SWAP2 PUSH1 0x40 MSTORE CALLER DUP5 MSTORE PUSH2 0x6A9 CALLDATASIZE DUP10 DUP9 PUSH2 0x2486 JUMP JUMPDEST SWAP3 PUSH1 0x20 DUP6 ADD SWAP4 DUP5 MSTORE CALLDATASIZE SWAP2 PUSH2 0x2486 JUMP JUMPDEST SWAP1 PUSH1 0x40 DUP4 ADD SWAP2 DUP3 MSTORE TIMESTAMP PUSH1 0x60 DUP5 ADD MSTORE PUSH1 0x0 PUSH1 0x80 DUP5 ADD MSTORE DUP6 PUSH1 0x0 MSTORE PUSH1 0x4 PUSH1 0x20 MSTORE PUSH1 0x40 PUSH1 0x0 KECCAK256 SWAP4 DUP4 MLOAD AND PUSH12 0xFFFFFFFFFFFFFFFFFFFFFFFF PUSH1 0xA0 SHL DUP6 SLOAD AND OR DUP5 SSTORE MLOAD DUP1 MLOAD SWAP1 PUSH1 0x1 PUSH1 0x1 PUSH1 0x40 SHL SUB DUP3 GT PUSH2 0x8C2 JUMPI DUP2 SWAP1 PUSH2 0x723 DUP3 PUSH2 0x71A PUSH1 0x1 DUP10 ADD SLOAD PUSH2 0x226B JUMP JUMPDEST PUSH1 0x1 DUP10 ADD PUSH2 0x2B1F JUMP JUMPDEST PUSH1 0x20 SWAP1 PUSH1 0x1F DUP4 GT PUSH1 0x1 EQ PUSH2 0x8E3 JUMPI PUSH1 0x0 SWAP3 PUSH2 0x8D8 JUMPI JUMPDEST POP POP DUP2 PUSH1 0x1 SHL SWAP2 PUSH1 0x0 NOT SWAP1 PUSH1 0x3 SHL SHR NOT AND OR PUSH1 0x1 DUP5 ADD SSTORE JUMPDEST MLOAD DUP1 MLOAD SWAP1 PUSH1 0x1 PUSH1 0x1 PUSH1 0x40 SHL SUB DUP3 GT PUSH2 0x8C2 JUMPI PUSH2 0x77D DUP3 PUSH2 0x774 PUSH1 0x2 DUP8 ADD SLOAD PUSH2 0x226B JUMP JUMPDEST PUSH1 0x2 DUP8 ADD PUSH2 0x2B1F JUMP JUMPDEST PUSH1 0x20 SWAP1 PUSH1 0x1F DUP4 GT PUSH1 0x1 EQ PUSH2 0x824 JUMPI PUSH1 0x80 PUSH32 0xA34E1DD2E50439A3590264F0B2C8D97C220EFC7EF0FBE5A3552280B9B128C844 SWAP7 SWAP5 DUP5 PUSH2 0x7FE SWAP6 PUSH2 0x814 SWAP9 SWAP6 PUSH1 0x4 SWAP6 PUSH1 0x0 SWAP3 PUSH2 0x819 JUMPI JUMPDEST POP POP DUP2 PUSH1 0x1 SHL SWAP2 PUSH1 0x0 NOT SWAP1 PUSH1 0x3 SHL SHR NOT AND OR PUSH1 0x2 DUP6 ADD SSTORE JUMPDEST PUSH1 0x60 DUP2 ADD MLOAD PUSH1 0x3 DUP6 ADD SSTORE ADD MLOAD ISZERO ISZERO SWAP2 ADD SWAP1 PUSH1 0xFF DUP1 NOT DUP4 SLOAD AND SWAP2 ISZERO ISZERO AND OR SWAP1 SSTORE JUMP JUMPDEST PUSH1 0x40 MLOAD SWAP2 DUP3 SWAP2 PUSH1 0x20 DUP4 MSTORE CALLER SWAP7 PUSH1 0x20 DUP5 ADD SWAP2 PUSH2 0x2B8B JUMP JUMPDEST SUB SWAP1 LOG3 STOP JUMPDEST ADD MLOAD SWAP1 POP DUP13 DUP1 PUSH2 0x7C5 JUMP JUMPDEST SWAP1 PUSH1 0x2 DUP6 ADD PUSH1 0x0 MSTORE PUSH1 0x20 PUSH1 0x0 KECCAK256 SWAP2 PUSH1 0x0 JUMPDEST PUSH1 0x1F NOT DUP6 AND DUP2 LT PUSH2 0x8AA JUMPI POP PUSH32 0xA34E1DD2E50439A3590264F0B2C8D97C220EFC7EF0FBE5A3552280B9B128C844 SWAP7 SWAP5 PUSH1 0x1 DUP6 PUSH2 0x814 SWAP9 SWAP6 PUSH1 0x4 SWAP6 PUSH1 0x80 SWAP6 PUSH2 0x7FE SWAP10 PUSH1 0x1F NOT DUP2 AND LT PUSH2 0x891 JUMPI JUMPDEST POP POP POP DUP2 SHL ADD PUSH1 0x2 DUP6 ADD SSTORE PUSH2 0x7DD JUMP JUMPDEST ADD MLOAD PUSH1 0x0 NOT PUSH1 0xF8 DUP5 PUSH1 0x3 SHL AND SHR NOT AND SWAP1 SSTORE DUP13 DUP1 DUP1 PUSH2 0x881 JUMP JUMPDEST SWAP2 SWAP3 PUSH1 0x20 PUSH1 0x1 DUP2 SWAP3 DUP7 DUP6 ADD MLOAD DUP2 SSTORE ADD SWAP5 ADD SWAP3 ADD PUSH2 0x835 JUMP JUMPDEST PUSH4 0x4E487B71 PUSH1 0xE0 SHL PUSH1 0x0 MSTORE PUSH1 0x41 PUSH1 0x4 MSTORE PUSH1 0x24 PUSH1 0x0 REVERT JUMPDEST ADD MLOAD SWAP1 POP DUP9 DUP1 PUSH2 0x739 JUMP JUMPDEST SWAP3 POP PUSH1 0x1 DUP7 ADD PUSH1 0x0 MSTORE PUSH1 0x20 PUSH1 0x0 KECCAK256 SWAP1 PUSH1 0x0 SWAP4 JUMPDEST PUSH1 0x1F NOT DUP5 AND DUP6 LT PUSH2 0x93A JUMPI PUSH1 0x1 SWAP5 POP DUP4 PUSH1 0x1F NOT DUP2 AND LT PUSH2 0x921 JUMPI JUMPDEST POP POP POP DUP2 SHL ADD PUSH1 0x1 DUP5 ADD SSTORE PUSH2 0x751 JUMP JUMPDEST ADD MLOAD PUSH1 0x0 NOT PUSH1 0xF8 DUP5 PUSH1 0x3 SHL AND SHR NOT AND SWAP1 SSTORE DUP9 DUP1 DUP1 PUSH2 0x911 JUMP JUMPDEST DUP2 DUP2 ADD MLOAD DUP4 SSTORE PUSH1 0x20 SWAP5 DUP6 ADD SWAP5 PUSH1 0x1 SWAP1 SWAP4 ADD SWAP3 SWAP1 SWAP2 ADD SWAP1 PUSH2 0x8F6 JUMP JUMPDEST POP CALLER PUSH1 0x0 MSTORE PUSH1 0x2 PUSH1 0x20 MSTORE PUSH1 0xFF PUSH1 0x7 PUSH1 0x40 PUSH1 0x0 KECCAK256 ADD SLOAD AND PUSH1 0x6 DUP2 LT ISZERO PUSH2 0x97C JUMPI PUSH1 0x2 EQ PUSH2 0x660 JUMP JUMPDEST PUSH4 0x4E487B71 PUSH1 0xE0 SHL PUSH1 0x0 MSTORE PUSH1 0x21 PUSH1 0x4 MSTORE PUSH1 0x24 PUSH1 0x0 REVERT JUMPDEST CALLVALUE PUSH2 0x26B JUMPI PUSH2 0x9A0 CALLDATASIZE PUSH2 0x24CC JUMP JUMPDEST SWAP1 SWAP3 SWAP2 SWAP3 CALLER PUSH1 0x0 MSTORE PUSH1 0x20 SWAP4 PUSH1 0x2 DUP6 MSTORE PUSH2 0x9C7 PUSH1 0x1 DUP1 PUSH1 0xA0 SHL SUB PUSH1 0x40 PUSH1 0x0 KECCAK256 SLOAD AND ISZERO ISZERO PUSH2 0x2BF0 JUMP JUMPDEST CALLER PUSH1 0x0 MSTORE PUSH1 0x2 DUP6 MSTORE PUSH1 0x4 PUSH1 0x40 PUSH1 0x0 KECCAK256 ADD SWAP1 PUSH1 0x1 PUSH1 0x1 PUSH1 0x40 SHL SUB SWAP5 DUP6 DUP3 GT PUSH2 0x8C2 JUMPI DUP2 SWAP1 PUSH2 0x9FE DUP3 PUSH2 0x9F8 DUP7 SLOAD PUSH2 0x226B JUMP JUMPDEST DUP7 PUSH2 0x2B1F JUMP JUMPDEST PUSH1 0x0 SWAP1 PUSH1 0x1F DUP4 GT PUSH1 0x1 EQ PUSH2 0xB01 JUMPI PUSH1 0x0 SWAP3 PUSH2 0xAF6 JUMPI JUMPDEST POP POP DUP2 PUSH1 0x1 SHL SWAP2 PUSH1 0x0 NOT SWAP1 PUSH1 0x3 SHL SHR NOT AND OR SWAP1 SSTORE JUMPDEST CALLER PUSH1 0x0 MSTORE PUSH1 0x2 DUP5 MSTORE PUSH1 0x6 PUSH1 0x40 PUSH1 0x0 KECCAK256 ADD SWAP3 DUP3 GT PUSH2 0x8C2 JUMPI PUSH2 0xA54 DUP3 PUSH2 0xA4E DUP6 SLOAD PUSH2 0x226B JUMP JUMPDEST DUP6 PUSH2 0x2B1F JUMP JUMPDEST PUSH1 0x0 SWAP4 PUSH1 0x1F DUP4 GT PUSH1 0x1 EQ PUSH2 0xA92 JUMPI POP SWAP3 DUP2 SWAP3 SWAP4 PUSH1 0x0 SWAP3 PUSH2 0xA87 JUMPI JUMPDEST POP POP PUSH1 0x0 NOT PUSH1 0x3 DUP4 SWAP1 SHL SHR NOT AND PUSH1 0x1 SWAP2 SWAP1 SWAP2 SHL OR SWAP1 SSTORE STOP JUMPDEST ADD CALLDATALOAD SWAP1 POP DUP4 DUP1 PUSH2 0xA6F JUMP JUMPDEST SWAP1 PUSH1 0x1F NOT DUP4 AND SWAP5 DUP5 PUSH1 0x0 MSTORE DUP3 PUSH1 0x0 KECCAK256 SWAP3 PUSH1 0x0 SWAP1 JUMPDEST DUP8 DUP3 LT PUSH2 0xADE JUMPI POP POP DUP4 PUSH1 0x1 SWAP6 SWAP7 LT PUSH2 0xAC4 JUMPI JUMPDEST POP POP POP DUP2 SHL ADD SWAP1 SSTORE STOP JUMPDEST ADD CALLDATALOAD PUSH1 0x0 NOT PUSH1 0x3 DUP5 SWAP1 SHL PUSH1 0xF8 AND SHR NOT AND SWAP1 SSTORE DUP4 DUP1 DUP1 PUSH2 0xABA JUMP JUMPDEST DUP1 PUSH1 0x1 DUP5 SWAP7 DUP3 SWAP5 SWAP6 DUP8 ADD CALLDATALOAD DUP2 SSTORE ADD SWAP6 ADD SWAP3 ADD SWAP1 PUSH2 0xAA6 JUMP JUMPDEST ADD CALLDATALOAD SWAP1 POP DUP8 DUP1 PUSH2 0xA14 JUMP JUMPDEST SWAP1 SWAP2 POP PUSH1 0x1F NOT DUP4 AND SWAP2 DUP5 PUSH1 0x0 MSTORE DUP9 PUSH1 0x0 KECCAK256 SWAP3 PUSH1 0x0 JUMPDEST DUP11 DUP3 DUP3 LT PUSH2 0xB55 JUMPI POP POP SWAP1 DUP5 PUSH1 0x1 SWAP6 SWAP5 SWAP4 SWAP3 LT PUSH2 0xB3B JUMPI JUMPDEST POP POP POP DUP2 SHL ADD SWAP1 SSTORE PUSH2 0xA29 JUMP JUMPDEST ADD CALLDATALOAD PUSH1 0x0 NOT PUSH1 0x3 DUP5 SWAP1 SHL PUSH1 0xF8 AND SHR NOT AND SWAP1 SSTORE DUP8 DUP1 DUP1 PUSH2 0xB2E JUMP JUMPDEST PUSH1 0x1 DUP5 SWAP7 DUP3 SWAP4 SWAP6 DUP8 ADD CALLDATALOAD DUP2 SSTORE ADD SWAP6 ADD SWAP3 ADD PUSH2 0xB16 JUMP JUMPDEST CALLVALUE PUSH2 0x26B JUMPI PUSH1 0x20 CALLDATASIZE PUSH1 0x3 NOT ADD SLT PUSH2 0x26B JUMPI PUSH1 0x4 CALLDATALOAD PUSH1 0x1 PUSH1 0x1 PUSH1 0x40 SHL SUB DUP2 GT PUSH2 0x26B JUMPI CALLDATASIZE PUSH1 0x23 DUP3 ADD SLT ISZERO PUSH2 0x26B JUMPI PUSH1 0xFF PUSH2 0xBC7 PUSH1 0x20 PUSH2 0xBB4 DUP2 SWAP5 CALLDATASIZE SWAP1 PUSH1 0x24 DUP2 PUSH1 0x4 ADD CALLDATALOAD SWAP2 ADD PUSH2 0x2486 JUMP JUMPDEST DUP2 PUSH1 0x40 MLOAD SWAP4 DUP3 DUP6 DUP1 SWAP5 MLOAD SWAP4 DUP5 SWAP3 ADD PUSH2 0x23BE JUMP JUMPDEST DUP2 ADD PUSH1 0x3 DUP2 MSTORE SUB ADD SWAP1 KECCAK256 SLOAD AND PUSH1 0x40 MLOAD SWAP1 ISZERO ISZERO DUP2 MSTORE RETURN JUMPDEST CALLVALUE PUSH2 0x26B JUMPI PUSH1 0x40 CALLDATASIZE PUSH1 0x3 NOT ADD SLT PUSH2 0x26B JUMPI PUSH2 0xBF6 PUSH2 0x223F JUMP JUMPDEST PUSH32 0x738A182F797BAFB9C8BDDFBC08082BFB7F5D47D51C0F9962B5849E56FB97BD3 PUSH1 0x40 PUSH2 0xC21 PUSH2 0x2477 JUMP JUMPDEST PUSH1 0x1 PUSH1 0x1 PUSH1 0xA0 SHL SUB SWAP4 DUP5 AND PUSH1 0x0 DUP2 DUP2 MSTORE PUSH1 0x2 PUSH1 0x20 MSTORE DUP4 SWAP1 KECCAK256 SLOAD SWAP1 SWAP5 PUSH2 0xC48 SWAP2 AND ISZERO ISZERO PUSH2 0x2BF0 JUMP JUMPDEST DUP4 PUSH1 0x0 MSTORE PUSH1 0x2 PUSH1 0x20 MSTORE PUSH1 0xC DUP3 PUSH1 0x0 KECCAK256 PUSH1 0xB DUP2 ADD SWAP3 PUSH2 0xC66 DUP5 SLOAD PUSH2 0x2C6A JUMP JUMPDEST DUP1 SWAP5 SSTORE PUSH2 0xC7D JUMPI JUMPDEST ADD SLOAD DUP3 MLOAD SWAP2 DUP3 MSTORE PUSH1 0x20 DUP3 ADD MSTORE LOG2 STOP JUMPDEST DUP2 DUP2 ADD PUSH2 0xC8A DUP2 SLOAD PUSH2 0x2C6A JUMP JUMPDEST SWAP1 SSTORE PUSH2 0xC6E JUMP JUMPDEST CALLVALUE PUSH2 0x26B JUMPI PUSH1 0x0 CALLDATASIZE PUSH1 0x3 NOT ADD SLT PUSH2 0x26B JUMPI PUSH1 0x20 PUSH1 0x7 SLOAD PUSH1 0x40 MLOAD SWAP1 DUP2 MSTORE RETURN JUMPDEST CALLVALUE PUSH2 0x26B JUMPI PUSH1 0x0 CALLDATASIZE PUSH1 0x3 NOT ADD SLT PUSH2 0x26B JUMPI PUSH1 0x20 PUSH1 0x40 MLOAD PUSH1 0x0 DUP2 MSTORE RETURN JUMPDEST CALLVALUE PUSH2 0x26B JUMPI PUSH1 0x40 CALLDATASIZE PUSH1 0x3 NOT ADD SLT PUSH2 0x26B JUMPI PUSH2 0xCE4 PUSH2 0x2255 JUMP JUMPDEST PUSH1 0x4 CALLDATALOAD PUSH1 0x0 MSTORE PUSH1 0x0 PUSH1 0x20 MSTORE PUSH1 0x40 PUSH1 0x0 KECCAK256 SWAP1 PUSH1 0x1 DUP1 PUSH1 0xA0 SHL SUB AND PUSH1 0x0 MSTORE PUSH1 0x20 MSTORE PUSH1 0x20 PUSH1 0xFF PUSH1 0x40 PUSH1 0x0 KECCAK256 SLOAD AND PUSH1 0x40 MLOAD SWAP1 ISZERO ISZERO DUP2 MSTORE RETURN JUMPDEST CALLVALUE PUSH2 0x26B JUMPI PUSH1 0x0 CALLDATASIZE PUSH1 0x3 NOT ADD SLT PUSH2 0x26B JUMPI PUSH2 0xD31 PUSH2 0x2516 JUMP JUMPDEST PUSH2 0xD39 PUSH2 0x2BAC JUMP JUMPDEST PUSH1 0x1 PUSH1 0xFF NOT DUP2 SLOAD AND OR PUSH1 0x1 SSTORE PUSH32 0x62E78CEA01BEE320CD4E420270B5EA74000D11B0C9F74754EBDBFC544B05A258 PUSH1 0x20 PUSH1 0x40 MLOAD CALLER DUP2 MSTORE LOG1 STOP JUMPDEST CALLVALUE PUSH2 0x26B JUMPI PUSH1 0x0 CALLDATASIZE PUSH1 0x3 NOT ADD SLT PUSH2 0x26B JUMPI PUSH1 0x5 DUP1 SLOAD PUSH1 0x0 SWAP1 PUSH1 0x1 SWAP1 DUP2 JUMPDEST DUP2 DUP2 GT ISZERO PUSH2 0xE7E JUMPI POP PUSH2 0xDB9 PUSH2 0xDA3 DUP5 PUSH2 0x2CD1 JUMP JUMPDEST SWAP4 PUSH2 0xDB1 PUSH1 0x40 MLOAD SWAP6 DUP7 PUSH2 0x22F7 JUMP JUMPDEST DUP1 DUP6 MSTORE PUSH2 0x2CD1 JUMP JUMPDEST SWAP4 PUSH1 0x20 SWAP2 DUP3 DUP6 ADD SWAP6 PUSH1 0x1F NOT ADD CALLDATASIZE DUP8 CALLDATACOPY PUSH1 0x0 SWAP2 DUP5 JUMPDEST DUP3 DUP2 GT ISZERO PUSH2 0xE11 JUMPI POP POP POP POP PUSH1 0x40 MLOAD SWAP3 DUP2 DUP5 ADD SWAP1 DUP3 DUP6 MSTORE MLOAD DUP1 SWAP2 MSTORE PUSH1 0x40 DUP5 ADD SWAP5 SWAP2 PUSH1 0x0 JUMPDEST DUP3 DUP2 LT PUSH2 0xDFE JUMPI DUP6 DUP8 SUB DUP7 RETURN JUMPDEST DUP4 MLOAD DUP8 MSTORE SWAP6 DUP2 ADD SWAP6 SWAP3 DUP2 ADD SWAP3 DUP5 ADD PUSH2 0xDF1 JUMP JUMPDEST DUP1 PUSH1 0x0 SWAP9 SWAP7 SWAP9 SWAP8 SWAP6 SWAP8 MSTORE PUSH1 0x4 DUP8 MSTORE PUSH1 0xFF PUSH1 0x4 PUSH1 0x40 PUSH1 0x0 KECCAK256 ADD SLOAD AND ISZERO PUSH2 0xE45 JUMPI JUMPDEST PUSH2 0xE3A SWAP1 PUSH2 0x2C6A JUMP JUMPDEST SWAP7 SWAP5 SWAP7 SWAP6 SWAP4 SWAP6 PUSH2 0xDCD JUMP JUMPDEST SWAP3 PUSH2 0xE4F DUP2 PUSH2 0x2C6A JUMP JUMPDEST SWAP4 DUP6 MLOAD DUP3 LT ISZERO PUSH2 0xE68 JUMPI SWAP1 DUP3 SHL DUP6 ADD DUP8 ADD DUP2 SWAP1 MSTORE PUSH2 0xE31 JUMP JUMPDEST PUSH4 0x4E487B71 PUSH1 0xE0 SHL PUSH1 0x0 MSTORE PUSH1 0x32 PUSH1 0x4 MSTORE PUSH1 0x24 PUSH1 0x0 REVERT JUMPDEST DUP1 PUSH1 0x0 SWAP6 SWAP4 SWAP6 SWAP5 SWAP3 SWAP5 MSTORE PUSH1 0x4 PUSH1 0x20 MSTORE PUSH1 0xFF PUSH1 0x4 PUSH1 0x40 PUSH1 0x0 KECCAK256 ADD SLOAD AND ISZERO PUSH2 0xEB3 JUMPI JUMPDEST PUSH2 0xEA8 SWAP1 PUSH2 0x2C6A JUMP JUMPDEST SWAP4 SWAP2 SWAP4 SWAP3 SWAP1 SWAP3 PUSH2 0xD8E JUMP JUMPDEST SWAP1 PUSH2 0xEC0 PUSH2 0xEA8 SWAP2 PUSH2 0x2C6A JUMP JUMPDEST SWAP2 SWAP1 POP PUSH2 0xE9F JUMP JUMPDEST CALLVALUE PUSH2 0x26B JUMPI PUSH1 0x0 CALLDATASIZE PUSH1 0x3 NOT ADD SLT PUSH2 0x26B JUMPI PUSH1 0x20 PUSH1 0x40 MLOAD PUSH32 0xA49807205CE4D355092EF5A8A18F56E8913CF4A201FBE287825B095693C21775 DUP2 MSTORE RETURN JUMPDEST CALLVALUE PUSH2 0x26B JUMPI PUSH1 0x20 CALLDATASIZE PUSH1 0x3 NOT ADD SLT PUSH2 0x26B JUMPI PUSH1 0x4 CALLDATALOAD PUSH1 0x6 SLOAD DUP2 LT ISZERO PUSH2 0x26B JUMPI PUSH2 0xF2C PUSH1 0x20 SWAP2 PUSH2 0x2440 JUMP JUMPDEST SWAP1 SLOAD PUSH1 0x40 MLOAD PUSH1 0x3 SWAP3 SWAP1 SWAP3 SHL SHR PUSH1 0x1 PUSH1 0x1 PUSH1 0xA0 SHL SUB AND DUP2 MSTORE RETURN JUMPDEST CALLVALUE PUSH2 0x26B JUMPI PUSH1 0x20 CALLDATASIZE PUSH1 0x3 NOT ADD SLT PUSH2 0x26B JUMPI PUSH1 0x4 CALLDATALOAD PUSH2 0xF61 PUSH2 0x2516 JUMP JUMPDEST PUSH2 0xF6E PUSH1 0x64 DUP3 GT ISZERO PUSH2 0x2C8F JUMP JUMPDEST PUSH1 0x7 SSTORE STOP JUMPDEST CALLVALUE PUSH2 0x26B JUMPI PUSH1 0x80 CALLDATASIZE PUSH1 0x3 NOT ADD SLT PUSH2 0x26B JUMPI PUSH1 0x4 CALLDATALOAD PUSH1 0x1 PUSH1 0x1 PUSH1 0x40 SHL SUB DUP2 GT PUSH2 0x26B JUMPI PUSH2 0xFA3 SWAP1 CALLDATASIZE SWAP1 PUSH1 0x4 ADD PUSH2 0x2413 JUMP JUMPDEST PUSH1 0x24 CALLDATALOAD PUSH1 0x1 PUSH1 0x1 PUSH1 0x40 SHL SUB DUP2 GT PUSH2 0x26B JUMPI PUSH2 0xFC2 SWAP1 CALLDATASIZE SWAP1 PUSH1 0x4 ADD PUSH2 0x2413 JUMP JUMPDEST SWAP3 SWAP1 SWAP2 PUSH1 0x44 CALLDATALOAD PUSH1 0x1 PUSH1 0x1 PUSH1 0x40 SHL SUB DUP2 GT PUSH2 0x26B JUMPI PUSH2 0xFE4 SWAP1 CALLDATASIZE SWAP1 PUSH1 0x4 ADD PUSH2 0x2413 JUMP JUMPDEST PUSH1 0x64 SWAP6 SWAP2 SWAP6 CALLDATALOAD PUSH1 0x1 PUSH1 0x1 PUSH1 0x40 SHL SUB DUP2 GT PUSH2 0x26B JUMPI PUSH2 0x1006 SWAP1 CALLDATASIZE SWAP1 PUSH1 0x4 ADD PUSH2 0x2413 JUMP JUMPDEST SWAP1 PUSH2 0x100F PUSH2 0x2BAC JUMP JUMPDEST CALLER PUSH1 0x0 SWAP1 DUP2 MSTORE PUSH1 0x2 PUSH1 0x20 MSTORE PUSH1 0x40 SWAP1 KECCAK256 SLOAD PUSH1 0x1 PUSH1 0x1 PUSH1 0xA0 SHL SUB AND PUSH2 0x1872 JUMPI DUP5 ISZERO PUSH2 0x183D JUMPI DUP4 ISZERO PUSH2 0x1801 JUMPI DUP3 ISZERO PUSH2 0x17CB JUMPI PUSH1 0xFF PUSH1 0x40 MLOAD DUP5 DUP11 DUP3 CALLDATACOPY PUSH1 0x20 DUP2 DUP7 DUP2 ADD PUSH1 0x3 DUP2 MSTORE SUB ADD SWAP1 KECCAK256 SLOAD AND PUSH2 0x1791 JUMPI PUSH2 0x10BB SWAP1 PUSH1 0x40 MLOAD SWAP3 PUSH2 0x106C DUP5 PUSH2 0x22A5 JUMP JUMPDEST CALLER DUP5 MSTORE PUSH2 0x107A CALLDATASIZE DUP9 DUP11 PUSH2 0x2486 JUMP JUMPDEST PUSH1 0x20 DUP6 ADD MSTORE PUSH2 0x108A CALLDATASIZE DUP8 DUP12 PUSH2 0x2486 JUMP JUMPDEST PUSH1 0x40 DUP6 ADD MSTORE PUSH2 0x109A CALLDATASIZE DUP7 DUP13 PUSH2 0x2486 JUMP JUMPDEST PUSH1 0x60 DUP6 ADD MSTORE PUSH1 0x40 MLOAD PUSH2 0x10AB DUP2 PUSH2 0x22C1 JUMP JUMPDEST PUSH1 0x0 DUP2 MSTORE PUSH1 0x80 DUP6 ADD MSTORE CALLDATASIZE SWAP2 PUSH2 0x2486 JUMP JUMPDEST PUSH1 0xA0 DUP3 ADD MSTORE PUSH1 0x40 MLOAD PUSH2 0x10CC DUP2 PUSH2 0x22C1 JUMP JUMPDEST PUSH1 0x0 DUP2 MSTORE PUSH1 0xC0 DUP3 ADD MSTORE PUSH1 0x1 PUSH1 0xE0 DUP3 ADD MSTORE TIMESTAMP PUSH2 0x100 DUP3 ADD MSTORE PUSH1 0x0 PUSH2 0x120 DUP3 ADD MSTORE PUSH1 0x32 PUSH2 0x140 DUP3 ADD MSTORE PUSH1 0x0 PUSH2 0x160 DUP3 ADD MSTORE PUSH1 0x0 PUSH2 0x180 DUP3 ADD MSTORE PUSH1 0x1 PUSH2 0x1A0 DUP3 ADD MSTORE CALLER PUSH1 0x0 MSTORE PUSH1 0x2 PUSH1 0x20 MSTORE PUSH1 0x40 PUSH1 0x0 KECCAK256 PUSH1 0x1 DUP1 PUSH1 0xA0 SHL SUB DUP3 MLOAD AND PUSH12 0xFFFFFFFFFFFFFFFFFFFFFFFF PUSH1 0xA0 SHL DUP3 SLOAD AND OR DUP2 SSTORE PUSH1 0x20 DUP3 ADD MLOAD DUP1 MLOAD SWAP1 PUSH1 0x1 PUSH1 0x1 PUSH1 0x40 SHL SUB DUP3 GT PUSH2 0x8C2 JUMPI DUP2 SWAP1 PUSH2 0x116B DUP3 PUSH2 0x1162 PUSH1 0x1 DUP8 ADD SLOAD PUSH2 0x226B JUMP JUMPDEST PUSH1 0x1 DUP8 ADD PUSH2 0x2B1F JUMP JUMPDEST PUSH1 0x20 SWAP1 PUSH1 0x1F DUP4 GT PUSH1 0x1 EQ PUSH2 0x171F JUMPI PUSH1 0x0 SWAP3 PUSH2 0x1714 JUMPI JUMPDEST POP POP DUP2 PUSH1 0x1 SHL SWAP2 PUSH1 0x0 NOT SWAP1 PUSH1 0x3 SHL SHR NOT AND OR PUSH1 0x1 DUP3 ADD SSTORE JUMPDEST PUSH1 0x40 DUP3 ADD MLOAD DUP1 MLOAD SWAP1 PUSH1 0x1 PUSH1 0x1 PUSH1 0x40 SHL SUB DUP3 GT PUSH2 0x8C2 JUMPI DUP2 SWAP1 PUSH2 0x11C2 DUP3 PUSH2 0x774 PUSH1 0x2 DUP8 ADD SLOAD PUSH2 0x226B JUMP JUMPDEST PUSH1 0x20 SWAP1 PUSH1 0x1F DUP4 GT PUSH1 0x1 EQ PUSH2 0x16A2 JUMPI PUSH1 0x0 SWAP3 PUSH2 0x1697 JUMPI JUMPDEST POP POP DUP2 PUSH1 0x1 SHL SWAP2 PUSH1 0x0 NOT SWAP1 PUSH1 0x3 SHL SHR NOT AND OR PUSH1 0x2 DUP3 ADD SSTORE JUMPDEST PUSH1 0x60 DUP3 ADD MLOAD DUP1 MLOAD SWAP1 PUSH1 0x1 PUSH1 0x1 PUSH1 0x40 SHL SUB DUP3 GT PUSH2 0x8C2 JUMPI DUP2 SWAP1 PUSH2 0x1222 DUP3 PUSH2 0x1219 PUSH1 0x3 DUP8 ADD SLOAD PUSH2 0x226B JUMP JUMPDEST PUSH1 0x3 DUP8 ADD PUSH2 0x2B1F JUMP JUMPDEST PUSH1 0x20 SWAP1 PUSH1 0x1F DUP4 GT PUSH1 0x1 EQ PUSH2 0x1625 JUMPI PUSH1 0x0 SWAP3 PUSH2 0x161A JUMPI JUMPDEST POP POP DUP2 PUSH1 0x1 SHL SWAP2 PUSH1 0x0 NOT SWAP1 PUSH1 0x3 SHL SHR NOT AND OR PUSH1 0x3 DUP3 ADD SSTORE JUMPDEST PUSH1 0x80 DUP3 ADD MLOAD DUP1 MLOAD SWAP1 PUSH1 0x1 PUSH1 0x1 PUSH1 0x40 SHL SUB DUP3 GT PUSH2 0x8C2 JUMPI DUP2 SWAP1 PUSH2 0x1282 DUP3 PUSH2 0x1279 PUSH1 0x4 DUP8 ADD SLOAD PUSH2 0x226B JUMP JUMPDEST PUSH1 0x4 DUP8 ADD PUSH2 0x2B1F JUMP JUMPDEST PUSH1 0x20 SWAP1 PUSH1 0x1F DUP4 GT PUSH1 0x1 EQ PUSH2 0x15A8 JUMPI PUSH1 0x0 SWAP3 PUSH2 0x159D JUMPI JUMPDEST POP POP DUP2 PUSH1 0x1 SHL SWAP2 PUSH1 0x0 NOT SWAP1 PUSH1 0x3 SHL SHR NOT AND OR PUSH1 0x4 DUP3 ADD SSTORE JUMPDEST PUSH1 0xA0 DUP3 ADD MLOAD DUP1 MLOAD SWAP1 PUSH1 0x1 PUSH1 0x1 PUSH1 0x40 SHL SUB DUP3 GT PUSH2 0x8C2 JUMPI DUP2 SWAP1 PUSH2 0x12E2 DUP3 PUSH2 0x12D9 PUSH1 0x5 DUP8 ADD SLOAD PUSH2 0x226B JUMP JUMPDEST PUSH1 0x5 DUP8 ADD PUSH2 0x2B1F JUMP JUMPDEST PUSH1 0x20 SWAP1 PUSH1 0x1F DUP4 GT PUSH1 0x1 EQ PUSH2 0x152B JUMPI PUSH1 0x0 SWAP3 PUSH2 0x1520 JUMPI JUMPDEST POP POP DUP2 PUSH1 0x1 SHL SWAP2 PUSH1 0x0 NOT SWAP1 PUSH1 0x3 SHL SHR NOT AND OR PUSH1 0x5 DUP3 ADD SSTORE JUMPDEST PUSH1 0xC0 DUP3 ADD MLOAD DUP1 MLOAD SWAP1 PUSH1 0x1 PUSH1 0x1 PUSH1 0x40 SHL SUB DUP3 GT PUSH2 0x8C2 JUMPI DUP2 SWAP1 PUSH2 0x1342 DUP3 PUSH2 0x1339 PUSH1 0x6 DUP8 ADD SLOAD PUSH2 0x226B JUMP JUMPDEST PUSH1 0x6 DUP8 ADD PUSH2 0x2B1F JUMP JUMPDEST PUSH1 0x20 SWAP1 PUSH1 0x1F DUP4 GT PUSH1 0x1 EQ PUSH2 0x14AE JUMPI PUSH1 0x0 SWAP3 PUSH2 0x14A3 JUMPI JUMPDEST POP POP DUP2 PUSH1 0x1 SHL SWAP2 PUSH1 0x0 NOT SWAP1 PUSH1 0x3 SHL SHR NOT AND OR PUSH1 0x6 DUP3 ADD SSTORE JUMPDEST PUSH1 0xE0 DUP3 ADD MLOAD SWAP2 PUSH1 0x6 DUP4 LT ISZERO PUSH2 0x97C JUMPI PUSH2 0x1A0 PUSH1 0xD SWAP2 PUSH2 0x1395 PUSH2 0x13E3 SWAP6 PUSH1 0x7 DUP7 ADD PUSH2 0x2B73 JUMP JUMPDEST PUSH2 0x100 DUP2 ADD MLOAD PUSH1 0x8 DUP6 ADD SSTORE PUSH2 0x120 DUP2 ADD MLOAD PUSH1 0x9 DUP6 ADD SSTORE PUSH2 0x140 DUP2 ADD MLOAD PUSH1 0xA DUP6 ADD SSTORE PUSH2 0x160 DUP2 ADD MLOAD PUSH1 0xB DUP6 ADD SSTORE PUSH2 0x180 DUP2 ADD MLOAD PUSH1 0xC DUP6 ADD SSTORE ADD MLOAD ISZERO ISZERO SWAP2 ADD SWAP1 PUSH1 0xFF DUP1 NOT DUP4 SLOAD AND SWAP2 ISZERO ISZERO AND OR SWAP1 SSTORE JUMP JUMPDEST PUSH1 0x40 MLOAD DUP2 DUP8 DUP3 CALLDATACOPY PUSH1 0x20 DUP2 DUP4 DUP2 ADD PUSH1 0x3 DUP2 MSTORE SUB ADD SWAP1 KECCAK256 PUSH1 0x1 PUSH1 0xFF NOT DUP3 SLOAD AND OR SWAP1 SSTORE PUSH1 0x6 SLOAD PUSH9 0x10000000000000000 DUP2 LT ISZERO PUSH2 0x8C2 JUMPI PUSH32 0x25D49E40A5AFD5AD6364892D282170BE6996614A7B6066F53E6A2ECF0DBAFC8F SWAP6 PUSH2 0x149E SWAP4 PUSH2 0x1450 DUP4 PUSH1 0x1 PUSH2 0x148E SWAP6 ADD PUSH1 0x6 SSTORE PUSH2 0x2440 JUMP JUMPDEST DUP2 SLOAD SWAP1 PUSH1 0x3 SHL SWAP1 CALLER DUP3 SHL SWAP2 PUSH1 0x1 DUP1 PUSH1 0xA0 SHL SUB SWAP1 SHL NOT AND OR SWAP1 SSTORE PUSH2 0x1480 PUSH1 0x40 MLOAD SWAP8 DUP9 SWAP8 PUSH1 0x60 DUP10 MSTORE PUSH1 0x60 DUP10 ADD SWAP2 PUSH2 0x2B8B JUMP JUMPDEST SWAP2 DUP7 DUP4 SUB PUSH1 0x20 DUP9 ADD MSTORE PUSH2 0x2B8B JUMP JUMPDEST SWAP1 DUP4 DUP3 SUB PUSH1 0x40 DUP6 ADD MSTORE CALLER SWAP7 PUSH2 0x2B8B JUMP JUMPDEST SUB SWAP1 LOG2 STOP JUMPDEST ADD MLOAD SWAP1 POP DUP11 DUP1 PUSH2 0x1358 JUMP JUMPDEST SWAP3 POP PUSH1 0x6 DUP5 ADD PUSH1 0x0 MSTORE PUSH1 0x20 PUSH1 0x0 KECCAK256 SWAP1 PUSH1 0x0 SWAP4 JUMPDEST PUSH1 0x1F NOT DUP5 AND DUP6 LT PUSH2 0x1505 JUMPI PUSH1 0x1 SWAP5 POP DUP4 PUSH1 0x1F NOT DUP2 AND LT PUSH2 0x14EC JUMPI JUMPDEST POP POP POP DUP2 SHL ADD PUSH1 0x6 DUP3 ADD SSTORE PUSH2 0x1370 JUMP JUMPDEST ADD MLOAD PUSH1 0x0 NOT PUSH1 0xF8 DUP5 PUSH1 0x3 SHL AND SHR NOT AND SWAP1 SSTORE DUP11 DUP1 DUP1 PUSH2 0x14DC JUMP JUMPDEST DUP2 DUP2 ADD MLOAD DUP4 SSTORE PUSH1 0x20 SWAP5 DUP6 ADD SWAP5 PUSH1 0x1 SWAP1 SWAP4 ADD SWAP3 SWAP1 SWAP2 ADD SWAP1 PUSH2 0x14C1 JUMP JUMPDEST ADD MLOAD SWAP1 POP DUP11 DUP1 PUSH2 0x12F8 JUMP JUMPDEST SWAP3 POP PUSH1 0x5 DUP5 ADD PUSH1 0x0 MSTORE PUSH1 0x20 PUSH1 0x0 KECCAK256 SWAP1 PUSH1 0x0 SWAP4 JUMPDEST PUSH1 0x1F NOT DUP5 AND DUP6 LT PUSH2 0x1582 JUMPI PUSH1 0x1 SWAP5 POP DUP4 PUSH1 0x1F NOT DUP2 AND LT PUSH2 0x1569 JUMPI JUMPDEST POP POP POP DUP2 SHL ADD PUSH1 0x5 DUP3 ADD SSTORE PUSH2 0x1310 JUMP JUMPDEST ADD MLOAD PUSH1 0x0 NOT PUSH1 0xF8 DUP5 PUSH1 0x3 SHL AND SHR NOT AND SWAP1 SSTORE DUP11 DUP1 DUP1 PUSH2 0x1559 JUMP JUMPDEST DUP2 DUP2 ADD MLOAD DUP4 SSTORE PUSH1 0x20 SWAP5 DUP6 ADD SWAP5 PUSH1 0x1 SWAP1 SWAP4 ADD SWAP3 SWAP1 SWAP2 ADD SWAP1 PUSH2 0x153E JUMP JUMPDEST ADD MLOAD SWAP1 POP DUP11 DUP1 PUSH2 0x1298 JUMP JUMPDEST SWAP3 POP PUSH1 0x4 DUP5 ADD PUSH1 0x0 MSTORE PUSH1 0x20 PUSH1 0x0 KECCAK256 SWAP1 PUSH1 0x0 SWAP4 JUMPDEST PUSH1 0x1F NOT DUP5 AND DUP6 LT PUSH2 0x15FF JUMPI PUSH1 0x1 SWAP5 POP DUP4 PUSH1 0x1F NOT DUP2 AND LT PUSH2 0x15E6 JUMPI JUMPDEST POP POP POP DUP2 SHL ADD PUSH1 0x4 DUP3 ADD SSTORE PUSH2 0x12B0 JUMP JUMPDEST ADD MLOAD PUSH1 0x0 NOT PUSH1 0xF8 DUP5 PUSH1 0x3 SHL AND SHR NOT AND SWAP1 SSTORE DUP11 DUP1 DUP1 PUSH2 0x15D6 JUMP JUMPDEST DUP2 DUP2 ADD MLOAD DUP4 SSTORE PUSH1 0x20 SWAP5 DUP6 ADD SWAP5 PUSH1 0x1 SWAP1 SWAP4 ADD SWAP3 SWAP1 SWAP2 ADD SWAP1 PUSH2 0x15BB JUMP JUMPDEST ADD MLOAD SWAP1 POP DUP11 DUP1 PUSH2 0x1238 JUMP JUMPDEST SWAP3 POP PUSH1 0x3 DUP5 ADD PUSH1 0x0 MSTORE PUSH1 0x20 PUSH1 0x0 KECCAK256 SWAP1 PUSH1 0x0 SWAP4 JUMPDEST PUSH1 0x1F NOT DUP5 AND DUP6 LT PUSH2 0x167C JUMPI PUSH1 0x1 SWAP5 POP DUP4 PUSH1 0x1F NOT DUP2 AND LT PUSH2 0x1663 JUMPI JUMPDEST POP POP POP DUP2 SHL ADD PUSH1 0x3 DUP3 ADD SSTORE PUSH2 0x1250 JUMP JUMPDEST ADD MLOAD PUSH1 0x0 NOT PUSH1 0xF8 DUP5 PUSH1 0x3 SHL AND SHR NOT AND SWAP1 SSTORE DUP11 DUP1 DUP1 PUSH2 0x1653 JUMP JUMPDEST DUP2 DUP2 ADD MLOAD DUP4 SSTORE PUSH1 0x20 SWAP5 DUP6 ADD SWAP5 PUSH1 0x1 SWAP1 SWAP4 ADD SWAP3 SWAP1 SWAP2 ADD SWAP1 PUSH2 0x1638 JUMP JUMPDEST ADD MLOAD SWAP1 POP DUP11 DUP1 PUSH2 0x11D8 JUMP JUMPDEST SWAP3 POP PUSH1 0x2 DUP5 ADD PUSH1 0x0 MSTORE PUSH1 0x20 PUSH1 0x0 KECCAK256 SWAP1 PUSH1 0x0 SWAP4 JUMPDEST PUSH1 0x1F NOT DUP5 AND DUP6 LT PUSH2 0x16F9 JUMPI PUSH1 0x1 SWAP5 POP DUP4 PUSH1 0x1F NOT DUP2 AND LT PUSH2 0x16E0 JUMPI JUMPDEST POP POP POP DUP2 SHL ADD PUSH1 0x2 DUP3 ADD SSTORE PUSH2 0x11F0 JUMP JUMPDEST ADD MLOAD PUSH1 0x0 NOT PUSH1 0xF8 DUP5 PUSH1 0x3 SHL AND SHR NOT AND SWAP1 SSTORE DUP11 DUP1 DUP1 PUSH2 0x16D0 JUMP JUMPDEST DUP2 DUP2 ADD MLOAD DUP4 SSTORE PUSH1 0x20 SWAP5 DUP6 ADD SWAP5 PUSH1 0x1 SWAP1 SWAP4 ADD SWAP3 SWAP1 SWAP2 ADD SWAP1 PUSH2 0x16B5 JUMP JUMPDEST ADD MLOAD SWAP1 POP DUP11 DUP1 PUSH2 0x1181 JUMP JUMPDEST SWAP3 POP PUSH1 0x1 DUP5 ADD PUSH1 0x0 MSTORE PUSH1 0x20 PUSH1 0x0 KECCAK256 SWAP1 PUSH1 0x0 SWAP4 JUMPDEST PUSH1 0x1F NOT DUP5 AND DUP6 LT PUSH2 0x1776 JUMPI PUSH1 0x1 SWAP5 POP DUP4 PUSH1 0x1F NOT DUP2 AND LT PUSH2 0x175D JUMPI JUMPDEST POP POP POP DUP2 SHL ADD PUSH1 0x1 DUP3 ADD SSTORE PUSH2 0x1199 JUMP JUMPDEST ADD MLOAD PUSH1 0x0 NOT PUSH1 0xF8 DUP5 PUSH1 0x3 SHL AND SHR NOT AND SWAP1 SSTORE DUP11 DUP1 DUP1 PUSH2 0x174D JUMP JUMPDEST DUP2 DUP2 ADD MLOAD DUP4 SSTORE PUSH1 0x20 SWAP5 DUP6 ADD SWAP5 PUSH1 0x1 SWAP1 SWAP4 ADD SWAP3 SWAP1 SWAP2 ADD SWAP1 PUSH2 0x1732 JUMP JUMPDEST PUSH1 0x40 MLOAD PUSH3 0x461BCD PUSH1 0xE5 SHL DUP2 MSTORE PUSH1 0x20 PUSH1 0x4 DUP3 ADD MSTORE PUSH1 0x12 PUSH1 0x24 DUP3 ADD MSTORE PUSH18 0x115B585A5B08185B1C9958591E481D5CD959 PUSH1 0x72 SHL PUSH1 0x44 DUP3 ADD MSTORE PUSH1 0x64 SWAP1 REVERT JUMPDEST PUSH1 0x40 MLOAD PUSH3 0x461BCD PUSH1 0xE5 SHL DUP2 MSTORE PUSH1 0x20 PUSH1 0x4 DUP3 ADD MSTORE PUSH1 0xE PUSH1 0x24 DUP3 ADD MSTORE PUSH14 0x115B585A5B081C995C5D5A5C9959 PUSH1 0x92 SHL PUSH1 0x44 DUP3 ADD MSTORE PUSH1 0x64 SWAP1 REVERT JUMPDEST PUSH1 0x40 MLOAD PUSH3 0x461BCD PUSH1 0xE5 SHL DUP2 MSTORE PUSH1 0x20 PUSH1 0x4 DUP3 ADD MSTORE PUSH1 0x14 PUSH1 0x24 DUP3 ADD MSTORE PUSH20 0x125B9CDD1A5D1D5D1A5BDB881C995C5D5A5C9959 PUSH1 0x62 SHL PUSH1 0x44 DUP3 ADD MSTORE PUSH1 0x64 SWAP1 REVERT JUMPDEST PUSH1 0x40 MLOAD PUSH3 0x461BCD PUSH1 0xE5 SHL DUP2 MSTORE PUSH1 0x20 PUSH1 0x4 DUP3 ADD MSTORE PUSH1 0xD PUSH1 0x24 DUP3 ADD MSTORE PUSH13 0x13985B59481C995C5D5A5C9959 PUSH1 0x9A SHL PUSH1 0x44 DUP3 ADD MSTORE PUSH1 0x64 SWAP1 REVERT JUMPDEST PUSH1 0x40 MLOAD PUSH3 0x461BCD PUSH1 0xE5 SHL DUP2 MSTORE PUSH1 0x20 PUSH1 0x4 DUP3 ADD MSTORE PUSH1 0x12 PUSH1 0x24 DUP3 ADD MSTORE PUSH18 0x105B1C9958591E481C9959DA5CDD195C9959 PUSH1 0x72 SHL PUSH1 0x44 DUP3 ADD MSTORE PUSH1 0x64 SWAP1 REVERT JUMPDEST CALLVALUE PUSH2 0x26B JUMPI PUSH1 0x0 CALLDATASIZE PUSH1 0x3 NOT ADD SLT PUSH2 0x26B JUMPI PUSH1 0x20 PUSH1 0xFF PUSH1 0x1 SLOAD AND PUSH1 0x40 MLOAD SWAP1 ISZERO ISZERO DUP2 MSTORE RETURN JUMPDEST CALLVALUE PUSH2 0x26B JUMPI PUSH1 0x20 CALLDATASIZE PUSH1 0x3 NOT ADD SLT PUSH2 0x26B JUMPI PUSH1 0x1 PUSH1 0x1 PUSH1 0xA0 SHL SUB DUP1 PUSH2 0x18F1 PUSH2 0x223F JUMP JUMPDEST AND PUSH1 0x0 MSTORE PUSH1 0x2 PUSH1 0x20 MSTORE PUSH1 0x40 PUSH1 0x0 KECCAK256 SWAP1 PUSH1 0x40 MLOAD SWAP1 PUSH2 0x190D DUP3 PUSH2 0x22A5 JUMP JUMPDEST DUP3 SLOAD AND DUP2 MSTORE PUSH2 0x191E PUSH1 0x1 DUP4 ADD PUSH2 0x2318 JUMP JUMPDEST PUSH1 0x20 DUP3 ADD MSTORE PUSH2 0x192F PUSH1 0x2 DUP4 ADD PUSH2 0x2318 JUMP JUMPDEST PUSH1 0x40 DUP3 ADD MSTORE PUSH2 0x1940 PUSH1 0x3 DUP4 ADD PUSH2 0x2318 JUMP JUMPDEST PUSH1 0x60 DUP3 ADD MSTORE PUSH2 0x1951 PUSH1 0x4 DUP4 ADD PUSH2 0x2318 JUMP JUMPDEST PUSH1 0x80 DUP3 ADD MSTORE PUSH2 0x1962 PUSH1 0x5 DUP4 ADD PUSH2 0x2318 JUMP JUMPDEST PUSH1 0xA0 DUP3 ADD MSTORE PUSH2 0x1973 PUSH1 0x6 DUP4 ADD PUSH2 0x2318 JUMP JUMPDEST PUSH1 0xC0 DUP3 ADD MSTORE PUSH1 0xFF PUSH1 0x7 DUP4 ADD SLOAD AND PUSH2 0x198E PUSH1 0xE0 DUP4 ADD SWAP2 DUP3 PUSH2 0x2B13 JUMP JUMPDEST PUSH1 0x8 DUP4 ADD SLOAD PUSH2 0x100 DUP4 ADD MSTORE PUSH1 0x9 DUP4 ADD SLOAD PUSH2 0x120 DUP4 ADD MSTORE PUSH2 0x1A0 PUSH1 0xFF PUSH1 0xD PUSH1 0xA DUP7 ADD SLOAD SWAP6 PUSH2 0x140 DUP7 ADD SWAP7 DUP8 MSTORE PUSH1 0xB DUP2 ADD SLOAD PUSH2 0x160 DUP8 ADD MSTORE PUSH1 0xC DUP2 ADD SLOAD PUSH2 0x180 DUP8 ADD MSTORE ADD SLOAD AND SWAP3 ADD SWAP2 ISZERO ISZERO DUP3 MSTORE MLOAD SWAP2 PUSH1 0x6 DUP4 LT ISZERO PUSH2 0x97C JUMPI PUSH1 0x3 PUSH1 0x20 SWAP4 EQ SWAP2 DUP3 PUSH2 0x1A11 JUMPI JUMPDEST POP DUP2 PUSH2 0x1A03 JUMPI JUMPDEST POP PUSH1 0x40 MLOAD SWAP1 ISZERO ISZERO DUP2 MSTORE RETURN JUMPDEST SWAP1 POP MLOAD PUSH1 0x7 SLOAD GT ISZERO DUP3 PUSH2 0x19F8 JUMP JUMPDEST MLOAD ISZERO ISZERO SWAP2 POP DUP4 PUSH2 0x19F1 JUMP JUMPDEST CALLVALUE PUSH2 0x26B JUMPI PUSH1 0x20 CALLDATASIZE PUSH1 0x3 NOT ADD SLT PUSH2 0x26B JUMPI PUSH1 0x4 CALLDATALOAD PUSH1 0x0 MSTORE PUSH1 0x4 PUSH1 0x20 MSTORE PUSH1 0x40 PUSH1 0x0 KECCAK256 PUSH1 0x1 DUP1 PUSH1 0xA0 SHL SUB DUP2 SLOAD AND PUSH2 0x1A53 PUSH1 0x1 DUP4 ADD PUSH2 0x2318 JUMP JUMPDEST SWAP2 PUSH2 0x1A60 PUSH1 0x2 DUP3 ADD PUSH2 0x2318 JUMP JUMPDEST PUSH2 0x1A9B PUSH1 0xFF PUSH1 0x4 PUSH1 0x3 DUP6 ADD SLOAD SWAP5 ADD SLOAD AND SWAP2 PUSH2 0x1A8D PUSH1 0x40 MLOAD SWAP7 DUP8 SWAP7 DUP8 MSTORE PUSH1 0xA0 PUSH1 0x20 DUP9 ADD MSTORE PUSH1 0xA0 DUP8 ADD SWAP1 PUSH2 0x23E1 JUMP JUMPDEST SWAP1 DUP6 DUP3 SUB PUSH1 0x40 DUP8 ADD MSTORE PUSH2 0x23E1 JUMP JUMPDEST SWAP2 PUSH1 0x60 DUP5 ADD MSTORE ISZERO ISZERO PUSH1 0x80 DUP4 ADD MSTORE SUB SWAP1 RETURN JUMPDEST CALLVALUE PUSH2 0x26B JUMPI PUSH1 0x0 CALLDATASIZE PUSH1 0x3 NOT ADD SLT PUSH2 0x26B JUMPI PUSH2 0x1AC5 PUSH2 0x2516 JUMP JUMPDEST PUSH1 0x1 SLOAD PUSH1 0xFF DUP2 AND ISZERO PUSH2 0x1B04 JUMPI PUSH1 0xFF NOT AND PUSH1 0x1 SSTORE PUSH32 0x5DB9EE0A495BF2E6FF9C91A7834C1BA4FDD244A5E8AA4E537BD38AEAE4B073AA PUSH1 0x20 PUSH1 0x40 MLOAD CALLER DUP2 MSTORE LOG1 STOP JUMPDEST PUSH1 0x40 MLOAD PUSH3 0x461BCD PUSH1 0xE5 SHL DUP2 MSTORE PUSH1 0x20 PUSH1 0x4 DUP3 ADD MSTORE PUSH1 0x14 PUSH1 0x24 DUP3 ADD MSTORE PUSH20 0x14185D5CD8589B194E881B9BDD081C185D5CD959 PUSH1 0x62 SHL PUSH1 0x44 DUP3 ADD MSTORE PUSH1 0x64 SWAP1 REVERT JUMPDEST CALLVALUE PUSH2 0x26B JUMPI PUSH1 0x40 CALLDATASIZE PUSH1 0x3 NOT ADD SLT PUSH2 0x26B JUMPI PUSH2 0x1B59 PUSH2 0x223F JUMP JUMPDEST PUSH1 0x24 CALLDATALOAD SWAP1 PUSH1 0x6 DUP3 LT ISZERO PUSH2 0x26B JUMPI PUSH2 0x1B6E PUSH2 0x2731 JUMP JUMPDEST PUSH1 0x1 PUSH1 0x1 PUSH1 0xA0 SHL SUB SWAP1 DUP2 AND PUSH1 0x0 DUP2 DUP2 MSTORE PUSH1 0x2 PUSH1 0x20 MSTORE PUSH1 0x40 SWAP1 KECCAK256 SLOAD SWAP1 SWAP2 PUSH2 0x1B96 SWAP2 AND ISZERO ISZERO PUSH2 0x2BF0 JUMP JUMPDEST PUSH1 0x0 PUSH1 0x2 DUP4 EQ DUP1 ISZERO PUSH2 0x1C80 JUMPI JUMPDEST DUP2 DUP2 ISZERO PUSH2 0x1C70 JUMPI JUMPDEST POP DUP1 ISZERO PUSH2 0x1C5F JUMPI JUMPDEST PUSH2 0x1BBD SWAP2 POP PUSH2 0x2C2D JUMP JUMPDEST DUP1 PUSH1 0x0 MSTORE PUSH1 0x2 PUSH1 0x20 MSTORE PUSH1 0x40 PUSH1 0x0 KECCAK256 PUSH2 0x1BD8 DUP4 PUSH1 0x7 DUP4 ADD PUSH2 0x2B73 JUMP JUMPDEST PUSH1 0x3 DUP4 EQ DUP1 PUSH2 0x1C53 JUMPI JUMPDEST PUSH2 0x1C48 JUMPI JUMPDEST PUSH1 0x4 DUP4 EQ DUP1 ISZERO PUSH2 0x1C3E JUMPI JUMPDEST PUSH2 0x1C2D JUMPI JUMPDEST POP PUSH2 0x1C05 PUSH1 0x40 MLOAD DUP1 SWAP4 PUSH2 0x2406 JUMP JUMPDEST PUSH32 0x8D0A40B1DD2FFB9CAAC53F99851BE912F5F03248EC106974CBC2E9B7F4E3D66D PUSH1 0x20 CALLER SWAP4 LOG3 STOP JUMPDEST PUSH1 0xD ADD DUP1 SLOAD PUSH1 0xFF NOT AND SWAP1 SSTORE DUP3 PUSH2 0x1BF7 JUMP JUMPDEST POP PUSH1 0x5 DUP4 EQ PUSH2 0x1BF2 JUMP JUMPDEST TIMESTAMP PUSH1 0x9 DUP3 ADD SSTORE PUSH2 0x1BE7 JUMP JUMPDEST POP PUSH1 0x9 DUP2 ADD SLOAD ISZERO PUSH2 0x1BE2 JUMP JUMPDEST POP PUSH2 0x97C JUMPI PUSH2 0x1BBD PUSH1 0x5 DUP4 EQ PUSH2 0x1BB3 JUMP JUMPDEST SWAP1 POP PUSH2 0x97C JUMPI PUSH1 0x4 DUP4 EQ DUP2 PUSH2 0x1BAB JUMP JUMPDEST POP POP PUSH1 0x0 PUSH1 0x3 DUP4 EQ PUSH2 0x1BA3 JUMP JUMPDEST CALLVALUE PUSH2 0x26B JUMPI PUSH1 0x0 CALLDATASIZE PUSH1 0x3 NOT ADD SLT PUSH2 0x26B JUMPI PUSH1 0x40 MLOAD DUP1 PUSH1 0x6 SLOAD DUP1 DUP4 MSTORE PUSH1 0x20 DUP1 SWAP4 ADD DUP1 SWAP2 PUSH1 0x6 PUSH1 0x0 MSTORE PUSH32 0xF652222313E28459528D920B65115C16C04F3EFC82AAEDC97BE59F3F377C0D3F SWAP1 PUSH1 0x0 JUMPDEST DUP7 DUP3 DUP3 LT PUSH2 0x1D38 JUMPI DUP7 DUP7 PUSH2 0x1CEF DUP3 DUP9 SUB DUP4 PUSH2 0x22F7 JUMP JUMPDEST PUSH1 0x40 MLOAD SWAP3 DUP4 SWAP3 DUP2 DUP5 ADD SWAP1 DUP3 DUP6 MSTORE MLOAD DUP1 SWAP2 MSTORE PUSH1 0x40 DUP5 ADD SWAP3 SWAP2 PUSH1 0x0 JUMPDEST DUP3 DUP2 LT PUSH2 0x1D18 JUMPI POP POP POP POP SUB SWAP1 RETURN JUMPDEST DUP4 MLOAD PUSH1 0x1 PUSH1 0x1 PUSH1 0xA0 SHL SUB AND DUP6 MSTORE DUP7 SWAP6 POP SWAP4 DUP2 ADD SWAP4 SWAP3 DUP2 ADD SWAP3 PUSH1 0x1 ADD PUSH2 0x1D09 JUMP JUMPDEST DUP4 SLOAD PUSH1 0x1 PUSH1 0x1 PUSH1 0xA0 SHL SUB AND DUP6 MSTORE SWAP1 SWAP4 ADD SWAP3 PUSH1 0x1 SWAP3 DUP4 ADD SWAP3 ADD PUSH2 0x1CD9 JUMP JUMPDEST CALLVALUE PUSH2 0x26B JUMPI PUSH1 0x40 CALLDATASIZE PUSH1 0x3 NOT ADD SLT PUSH2 0x26B JUMPI PUSH2 0x1D6E PUSH2 0x2255 JUMP JUMPDEST CALLER PUSH1 0x1 PUSH1 0x1 PUSH1 0xA0 SHL SUB DUP3 AND SUB PUSH2 0x1D8A JUMPI PUSH2 0x602 SWAP1 PUSH1 0x4 CALLDATALOAD PUSH2 0x2980 JUMP JUMPDEST PUSH1 0x40 MLOAD PUSH3 0x461BCD PUSH1 0xE5 SHL DUP2 MSTORE PUSH1 0x20 PUSH1 0x4 DUP3 ADD MSTORE PUSH1 0x2F PUSH1 0x24 DUP3 ADD MSTORE PUSH32 0x416363657373436F6E74726F6C3A2063616E206F6E6C792072656E6F756E6365 PUSH1 0x44 DUP3 ADD MSTORE PUSH15 0x103937B632B9903337B91039B2B633 PUSH1 0x89 SHL PUSH1 0x64 DUP3 ADD MSTORE PUSH1 0x84 SWAP1 REVERT JUMPDEST CALLVALUE PUSH2 0x26B JUMPI PUSH1 0x40 CALLDATASIZE PUSH1 0x3 NOT ADD SLT PUSH2 0x26B JUMPI PUSH1 0x4 CALLDATALOAD PUSH2 0x1E03 PUSH2 0x2255 JUMP JUMPDEST DUP2 PUSH1 0x0 MSTORE PUSH1 0x0 PUSH1 0x20 MSTORE PUSH2 0x1E1D PUSH1 0x1 PUSH1 0x40 PUSH1 0x0 KECCAK256 ADD SLOAD PUSH2 0x2876 JUMP JUMPDEST DUP2 PUSH1 0x0 MSTORE PUSH1 0x0 PUSH1 0x20 MSTORE PUSH1 0x40 PUSH1 0x0 KECCAK256 SWAP1 PUSH1 0x1 DUP1 PUSH1 0xA0 SHL SUB AND SWAP1 DUP2 PUSH1 0x0 MSTORE PUSH1 0x20 MSTORE PUSH1 0xFF PUSH1 0x40 PUSH1 0x0 KECCAK256 SLOAD AND ISZERO PUSH2 0x1E4C JUMPI STOP JUMPDEST DUP2 PUSH1 0x0 MSTORE PUSH1 0x0 PUSH1 0x20 MSTORE PUSH1 0x40 PUSH1 0x0 KECCAK256 DUP2 PUSH1 0x0 MSTORE PUSH1 0x20 MSTORE PUSH1 0x40 PUSH1 0x0 KECCAK256 PUSH1 0x1 PUSH1 0xFF NOT DUP3 SLOAD AND OR SWAP1 SSTORE CALLER SWAP2 PUSH32 0x2F8788117E7EFF1D82E926EC794901D17C78024A50270940304540A733656F0D PUSH1 0x0 DUP1 LOG4 STOP JUMPDEST CALLVALUE PUSH2 0x26B JUMPI PUSH1 0x20 CALLDATASIZE PUSH1 0x3 NOT ADD SLT PUSH2 0x26B JUMPI PUSH2 0x1EB3 PUSH2 0x223F JUMP JUMPDEST PUSH2 0x1EBB PUSH2 0x2516 JUMP JUMPDEST PUSH1 0x1 PUSH1 0x1 PUSH1 0xA0 SHL SUB SWAP1 DUP2 AND PUSH1 0x0 DUP2 DUP2 MSTORE PUSH1 0x2 PUSH1 0x20 MSTORE PUSH1 0x40 SWAP1 KECCAK256 SLOAD SWAP1 SWAP2 PUSH2 0x1EE3 SWAP2 AND ISZERO ISZERO PUSH2 0x2BF0 JUMP JUMPDEST DUP1 PUSH1 0x0 MSTORE PUSH1 0x2 PUSH1 0x20 MSTORE PUSH1 0xFF PUSH1 0x7 PUSH1 0x40 PUSH1 0x0 KECCAK256 ADD SLOAD AND PUSH1 0x6 DUP2 LT ISZERO PUSH2 0x97C JUMPI PUSH1 0x4 SUB PUSH2 0x1F5D JUMPI DUP1 PUSH1 0x0 MSTORE PUSH1 0x2 PUSH1 0x20 MSTORE PUSH1 0x40 PUSH1 0x0 KECCAK256 PUSH1 0x1 PUSH1 0xD PUSH1 0x7 DUP4 ADD SWAP3 PUSH1 0xFF NOT SWAP4 PUSH1 0x3 DUP6 DUP3 SLOAD AND OR SWAP1 SSTORE ADD SWAP2 DUP3 SLOAD AND OR SWAP1 SSTORE CALLER SWAP1 PUSH32 0x1D10891D85D39917BCCD66F332EDBA6858650F07C85974035506394CEE5BBA26 PUSH1 0x0 DUP1 LOG3 STOP JUMPDEST PUSH1 0x40 MLOAD PUSH3 0x461BCD PUSH1 0xE5 SHL DUP2 MSTORE PUSH1 0x20 PUSH1 0x4 DUP3 ADD MSTORE PUSH1 0xD PUSH1 0x24 DUP3 ADD MSTORE PUSH13 0x139BDD081CDD5CDC195B991959 PUSH1 0x9A SHL PUSH1 0x44 DUP3 ADD MSTORE PUSH1 0x64 SWAP1 REVERT JUMPDEST CALLVALUE PUSH2 0x26B JUMPI PUSH1 0x40 CALLDATASIZE PUSH1 0x3 NOT ADD SLT PUSH2 0x26B JUMPI PUSH2 0x1FAB PUSH2 0x223F JUMP JUMPDEST PUSH1 0x24 CALLDATALOAD SWAP1 PUSH1 0x1 PUSH1 0x1 PUSH1 0x40 SHL SUB DUP3 GT PUSH2 0x26B JUMPI PUSH32 0xD0640DF4602ABAD54CB0C7050249EF4A002FB8B7CAD09E5C592F5E5A1A97A216 PUSH2 0x1FEF PUSH2 0x814 SWAP4 CALLDATASIZE SWAP1 PUSH1 0x4 ADD PUSH2 0x2413 JUMP JUMPDEST SWAP4 SWAP1 PUSH2 0x1FF9 PUSH2 0x2516 JUMP JUMPDEST PUSH1 0x1 PUSH1 0x1 PUSH1 0xA0 SHL SUB SWAP4 DUP5 AND PUSH1 0x0 DUP2 DUP2 MSTORE PUSH1 0x2 PUSH1 0x20 MSTORE PUSH1 0x40 SWAP1 KECCAK256 SLOAD SWAP1 SWAP5 PUSH2 0x2021 SWAP2 AND ISZERO ISZERO PUSH2 0x2BF0 JUMP JUMPDEST DUP4 PUSH1 0x0 MSTORE PUSH1 0x2 PUSH1 0x20 MSTORE PUSH1 0x40 PUSH1 0x0 KECCAK256 PUSH1 0xD PUSH1 0x7 DUP3 ADD SWAP2 PUSH1 0xFF NOT SWAP3 PUSH1 0x4 DUP5 DUP3 SLOAD AND OR SWAP1 SSTORE ADD SWAP1 DUP2 SLOAD AND SWAP1 SSTORE PUSH1 0x40 MLOAD SWAP2 DUP3 SWAP2 PUSH1 0x20 DUP4 MSTORE CALLER SWAP7 PUSH1 0x20 DUP5 ADD SWAP2 PUSH2 0x2B8B JUMP JUMPDEST CALLVALUE PUSH2 0x26B JUMPI PUSH1 0x20 CALLDATASIZE PUSH1 0x3 NOT ADD SLT PUSH2 0x26B JUMPI PUSH1 0x4 CALLDATALOAD PUSH1 0x0 MSTORE PUSH1 0x0 PUSH1 0x20 MSTORE PUSH1 0x20 PUSH1 0x1 PUSH1 0x40 PUSH1 0x0 KECCAK256 ADD SLOAD PUSH1 0x40 MLOAD SWAP1 DUP2 MSTORE RETURN JUMPDEST CALLVALUE PUSH2 0x26B JUMPI PUSH1 0x20 CALLDATASIZE PUSH1 0x3 NOT ADD SLT PUSH2 0x26B JUMPI PUSH1 0x4 CALLDATALOAD PUSH4 0xFFFFFFFF PUSH1 0xE0 SHL DUP2 AND DUP1 SWAP2 SUB PUSH2 0x26B JUMPI PUSH1 0x20 SWAP1 PUSH4 0x7965DB0B PUSH1 0xE0 SHL DUP2 EQ SWAP1 DUP2 ISZERO PUSH2 0x20D3 JUMPI POP PUSH1 0x40 MLOAD SWAP1 ISZERO ISZERO DUP2 MSTORE RETURN JUMPDEST PUSH4 0x1FFC9A7 PUSH1 0xE0 SHL EQ SWAP1 POP DUP3 PUSH2 0x19F8 JUMP JUMPDEST CALLVALUE PUSH2 0x26B JUMPI PUSH1 0x20 CALLDATASIZE PUSH1 0x3 NOT ADD SLT PUSH2 0x26B JUMPI PUSH1 0x1 PUSH1 0x1 PUSH1 0xA0 SHL SUB DUP1 PUSH2 0x2106 PUSH2 0x223F JUMP JUMPDEST AND PUSH1 0x0 MSTORE PUSH1 0x2 PUSH1 0x20 MSTORE PUSH1 0x40 PUSH1 0x0 KECCAK256 SWAP1 DUP2 SLOAD AND PUSH1 0x1 DUP3 ADD PUSH2 0x2125 SWAP1 PUSH2 0x2318 JUMP JUMPDEST SWAP2 PUSH2 0x2132 PUSH1 0x2 DUP3 ADD PUSH2 0x2318 JUMP JUMPDEST PUSH2 0x213E PUSH1 0x3 DUP4 ADD PUSH2 0x2318 JUMP JUMPDEST SWAP2 PUSH2 0x214B PUSH1 0x4 DUP3 ADD PUSH2 0x2318 JUMP JUMPDEST SWAP3 PUSH2 0x2158 PUSH1 0x5 DUP4 ADD PUSH2 0x2318 JUMP JUMPDEST SWAP4 PUSH2 0x2165 PUSH1 0x6 DUP5 ADD PUSH2 0x2318 JUMP JUMPDEST SWAP5 PUSH1 0x7 DUP5 ADD SLOAD PUSH1 0xFF AND SWAP6 PUSH1 0x8 DUP6 ADD SLOAD SWAP1 PUSH1 0x9 DUP7 ADD SLOAD SWAP3 PUSH1 0xA DUP8 ADD SLOAD SWAP5 PUSH1 0xB DUP9 ADD SLOAD SWAP7 PUSH1 0xC DUP10 ADD SLOAD SWAP9 PUSH1 0xD ADD SLOAD PUSH1 0xFF AND SWAP10 PUSH1 0x40 MLOAD SWAP14 DUP15 SWAP14 DUP15 MSTORE DUP14 PUSH2 0x1C0 SWAP1 DUP2 PUSH1 0x20 DUP3 ADD MSTORE ADD PUSH2 0x21B2 SWAP2 PUSH2 0x23E1 JUMP JUMPDEST DUP14 DUP2 SUB PUSH1 0x40 DUP16 ADD MSTORE PUSH2 0x21C3 SWAP2 PUSH2 0x23E1 JUMP JUMPDEST DUP13 DUP2 SUB PUSH1 0x60 DUP15 ADD MSTORE PUSH2 0x21D4 SWAP2 PUSH2 0x23E1 JUMP JUMPDEST DUP12 DUP2 SUB PUSH1 0x80 DUP14 ADD MSTORE PUSH2 0x21E5 SWAP2 PUSH2 0x23E1 JUMP JUMPDEST DUP11 DUP2 SUB PUSH1 0xA0 DUP13 ADD MSTORE PUSH2 0x21F6 SWAP2 PUSH2 0x23E1 JUMP JUMPDEST DUP10 DUP2 SUB PUSH1 0xC0 DUP12 ADD MSTORE PUSH2 0x2207 SWAP2 PUSH2 0x23E1 JUMP JUMPDEST SWAP7 PUSH1 0xE0 DUP10 ADD PUSH2 0x2215 SWAP2 PUSH2 0x2406 JUMP JUMPDEST PUSH2 0x100 DUP9 ADD MSTORE PUSH2 0x120 DUP8 ADD MSTORE PUSH2 0x140 DUP7 ADD MSTORE PUSH2 0x160 DUP6 ADD MSTORE PUSH2 0x180 DUP5 ADD MSTORE ISZERO ISZERO PUSH2 0x1A0 DUP4 ADD MSTORE SUB SWAP1 RETURN JUMPDEST PUSH1 0x4 CALLDATALOAD SWAP1 PUSH1 0x1 PUSH1 0x1 PUSH1 0xA0 SHL SUB DUP3 AND DUP3 SUB PUSH2 0x26B JUMPI JUMP JUMPDEST PUSH1 0x24 CALLDATALOAD SWAP1 PUSH1 0x1 PUSH1 0x1 PUSH1 0xA0 SHL SUB DUP3 AND DUP3 SUB PUSH2 0x26B JUMPI JUMP JUMPDEST SWAP1 PUSH1 0x1 DUP3 DUP2 SHR SWAP3 AND DUP1 ISZERO PUSH2 0x229B JUMPI JUMPDEST PUSH1 0x20 DUP4 LT EQ PUSH2 0x2285 JUMPI JUMP JUMPDEST PUSH4 0x4E487B71 PUSH1 0xE0 SHL PUSH1 0x0 MSTORE PUSH1 0x22 PUSH1 0x4 MSTORE PUSH1 0x24 PUSH1 0x0 REVERT JUMPDEST SWAP2 PUSH1 0x7F AND SWAP2 PUSH2 0x227A JUMP JUMPDEST PUSH2 0x1C0 DUP2 ADD SWAP1 DUP2 LT PUSH1 0x1 PUSH1 0x1 PUSH1 0x40 SHL SUB DUP3 GT OR PUSH2 0x8C2 JUMPI PUSH1 0x40 MSTORE JUMP JUMPDEST PUSH1 0x20 DUP2 ADD SWAP1 DUP2 LT PUSH1 0x1 PUSH1 0x1 PUSH1 0x40 SHL SUB DUP3 GT OR PUSH2 0x8C2 JUMPI PUSH1 0x40 MSTORE JUMP JUMPDEST PUSH1 0x80 DUP2 ADD SWAP1 DUP2 LT PUSH1 0x1 PUSH1 0x1 PUSH1 0x40 SHL SUB DUP3 GT OR PUSH2 0x8C2 JUMPI PUSH1 0x40 MSTORE JUMP JUMPDEST SWAP1 PUSH1 0x1F DUP1 NOT SWAP2 ADD AND DUP2 ADD SWAP1 DUP2 LT PUSH1 0x1 PUSH1 0x1 PUSH1 0x40 SHL SUB DUP3 GT OR PUSH2 0x8C2 JUMPI PUSH1 0x40 MSTORE JUMP JUMPDEST SWAP1 PUSH1 0x40 MLOAD SWAP2 DUP3 PUSH1 0x0 DUP3 SLOAD SWAP3 PUSH2 0x232C DUP5 PUSH2 0x226B JUMP JUMPDEST SWAP1 DUP2 DUP5 MSTORE PUSH1 0x1 SWAP5 DUP6 DUP2 AND SWAP1 DUP2 PUSH1 0x0 EQ PUSH2 0x239B JUMPI POP PUSH1 0x1 EQ PUSH2 0x2358 JUMPI JUMPDEST POP POP PUSH2 0x2356 SWAP3 POP SUB DUP4 PUSH2 0x22F7 JUMP JUMPDEST JUMP JUMPDEST SWAP1 SWAP4 SWAP2 POP PUSH1 0x0 MSTORE PUSH1 0x20 SWAP1 DUP2 PUSH1 0x0 KECCAK256 SWAP4 PUSH1 0x0 SWAP2 JUMPDEST DUP2 DUP4 LT PUSH2 0x2383 JUMPI POP POP PUSH2 0x2356 SWAP4 POP DUP3 ADD ADD CODESIZE DUP1 PUSH2 0x2348 JUMP JUMPDEST DUP6 SLOAD DUP9 DUP5 ADD DUP6 ADD MSTORE SWAP5 DUP6 ADD SWAP5 DUP8 SWAP5 POP SWAP2 DUP4 ADD SWAP2 PUSH2 0x236B JUMP JUMPDEST SWAP2 POP POP PUSH2 0x2356 SWAP5 POP PUSH1 0x20 SWAP3 POP PUSH1 0xFF NOT AND DUP3 DUP5 ADD MSTORE ISZERO ISZERO PUSH1 0x5 SHL DUP3 ADD ADD CODESIZE DUP1 PUSH2 0x2348 JUMP JUMPDEST PUSH1 0x0 JUMPDEST DUP4 DUP2 LT PUSH2 0x23D1 JUMPI POP POP PUSH1 0x0 SWAP2 ADD MSTORE JUMP JUMPDEST DUP2 DUP2 ADD MLOAD DUP4 DUP3 ADD MSTORE PUSH1 0x20 ADD PUSH2 0x23C1 JUMP JUMPDEST SWAP1 PUSH1 0x20 SWAP2 PUSH2 0x23FA DUP2 MLOAD DUP1 SWAP3 DUP2 DUP6 MSTORE DUP6 DUP1 DUP7 ADD SWAP2 ADD PUSH2 0x23BE JUMP JUMPDEST PUSH1 0x1F ADD PUSH1 0x1F NOT AND ADD ADD SWAP1 JUMP JUMPDEST SWAP1 PUSH1 0x6 DUP3 LT ISZERO PUSH2 0x97C JUMPI MSTORE JUMP JUMPDEST SWAP2 DUP2 PUSH1 0x1F DUP5 ADD SLT ISZERO PUSH2 0x26B JUMPI DUP3 CALLDATALOAD SWAP2 PUSH1 0x1 PUSH1 0x1 PUSH1 0x40 SHL SUB DUP4 GT PUSH2 0x26B JUMPI PUSH1 0x20 DUP4 DUP2 DUP7 ADD SWAP6 ADD ADD GT PUSH2 0x26B JUMPI JUMP JUMPDEST PUSH1 0x6 SLOAD DUP2 LT ISZERO PUSH2 0xE68 JUMPI PUSH1 0x6 PUSH1 0x0 MSTORE PUSH32 0xF652222313E28459528D920B65115C16C04F3EFC82AAEDC97BE59F3F377C0D3F ADD SWAP1 PUSH1 0x0 SWAP1 JUMP JUMPDEST PUSH1 0x24 CALLDATALOAD SWAP1 DUP2 ISZERO ISZERO DUP3 SUB PUSH2 0x26B JUMPI JUMP JUMPDEST SWAP3 SWAP2 SWAP3 PUSH1 0x1 PUSH1 0x1 PUSH1 0x40 SHL SUB DUP3 GT PUSH2 0x8C2 JUMPI PUSH1 0x40 MLOAD SWAP2 PUSH2 0x24AF PUSH1 0x1F DUP3 ADD PUSH1 0x1F NOT AND PUSH1 0x20 ADD DUP5 PUSH2 0x22F7 JUMP JUMPDEST DUP3 SWAP5 DUP2 DUP5 MSTORE DUP2 DUP4 ADD GT PUSH2 0x26B JUMPI DUP3 DUP2 PUSH1 0x20 SWAP4 DUP5 PUSH1 0x0 SWAP7 ADD CALLDATACOPY ADD ADD MSTORE JUMP JUMPDEST PUSH1 0x40 PUSH1 0x3 NOT DUP3 ADD SLT PUSH2 0x26B JUMPI PUSH1 0x1 PUSH1 0x1 PUSH1 0x40 SHL SUB SWAP2 PUSH1 0x4 CALLDATALOAD DUP4 DUP2 GT PUSH2 0x26B JUMPI DUP3 PUSH2 0x24F8 SWAP2 PUSH1 0x4 ADD PUSH2 0x2413 JUMP JUMPDEST SWAP4 SWAP1 SWAP4 SWAP3 PUSH1 0x24 CALLDATALOAD SWAP2 DUP3 GT PUSH2 0x26B JUMPI PUSH2 0x2512 SWAP2 PUSH1 0x4 ADD PUSH2 0x2413 JUMP JUMPDEST SWAP1 SWAP2 JUMP JUMPDEST CALLER PUSH1 0x0 SWAP1 DUP2 MSTORE PUSH32 0x7D7FFB7A348E1C6A02869081A26547B49160DD3DF72D1D75A570EB9B698292EC PUSH1 0x20 SWAP1 DUP2 MSTORE PUSH1 0x40 DUP1 DUP4 KECCAK256 SLOAD SWAP1 SWAP3 PUSH32 0xA49807205CE4D355092EF5A8A18F56E8913CF4A201FBE287825B095693C21775 SWAP2 PUSH1 0xFF AND ISZERO PUSH2 0x257A JUMPI POP POP POP POP JUMP JUMPDEST PUSH2 0x2583 CALLER PUSH2 0x2A05 JUMP JUMPDEST SWAP2 DUP5 MLOAD SWAP1 PUSH2 0x2590 DUP3 PUSH2 0x22DC JUMP JUMPDEST PUSH1 0x42 DUP3 MSTORE DUP5 DUP3 ADD SWAP3 PUSH1 0x60 CALLDATASIZE DUP6 CALLDATACOPY DUP3 MLOAD ISZERO PUSH2 0x271D JUMPI PUSH1 0x30 DUP5 MSTORE8 DUP3 MLOAD SWAP1 PUSH1 0x1 SWAP2 DUP3 LT ISZERO PUSH2 0x271D JUMPI SWAP1 PUSH1 0x78 PUSH1 0x21 DUP6 ADD MSTORE8 PUSH1 0x41 SWAP2 JUMPDEST DUP2 DUP4 GT PUSH2 0x26AF JUMPI POP POP POP PUSH2 0x266D JUMPI PUSH1 0x48 PUSH2 0x2669 SWAP4 DUP7 SWAP4 PUSH2 0x264D SWAP4 PUSH2 0x263E SWAP9 MLOAD SWAP9 DUP10 SWAP4 PUSH23 0x20B1B1B2B9B9A1B7B73A3937B61D1030B1B1B7BAB73A1 PUSH1 0x4D SHL DUP11 DUP7 ADD MSTORE PUSH2 0x2615 DUP2 MLOAD DUP1 SWAP3 DUP13 PUSH1 0x37 DUP10 ADD SWAP2 ADD PUSH2 0x23BE JUMP JUMPDEST DUP5 ADD SWAP2 PUSH17 0x1034B99036B4B9B9B4B733903937B6329 PUSH1 0x7D SHL PUSH1 0x37 DUP5 ADD MSTORE MLOAD DUP1 SWAP4 DUP7 DUP5 ADD SWAP1 PUSH2 0x23BE JUMP JUMPDEST ADD SUB PUSH1 0x28 DUP2 ADD DUP8 MSTORE ADD DUP6 PUSH2 0x22F7 JUMP JUMPDEST MLOAD SWAP3 DUP4 SWAP3 PUSH3 0x461BCD PUSH1 0xE5 SHL DUP5 MSTORE PUSH1 0x4 DUP5 ADD MSTORE PUSH1 0x24 DUP4 ADD SWAP1 PUSH2 0x23E1 JUMP JUMPDEST SUB SWAP1 REVERT JUMPDEST PUSH1 0x64 DUP5 DUP7 MLOAD SWAP1 PUSH3 0x461BCD PUSH1 0xE5 SHL DUP3 MSTORE DUP1 PUSH1 0x4 DUP4 ADD MSTORE PUSH1 0x24 DUP3 ADD MSTORE PUSH32 0x537472696E67733A20686578206C656E67746820696E73756666696369656E74 PUSH1 0x44 DUP3 ADD MSTORE REVERT JUMPDEST SWAP1 SWAP2 SWAP3 PUSH1 0xF DUP2 AND PUSH1 0x10 DUP2 LT ISZERO PUSH2 0x2709 JUMPI PUSH16 0x181899199A1A9B1B9C1CB0B131B232B3 PUSH1 0x81 SHL SWAP1 BYTE PUSH2 0x26DF DUP6 DUP8 PUSH2 0x29F4 JUMP JUMPDEST MSTORE8 PUSH1 0x4 SHR SWAP3 DUP1 ISZERO PUSH2 0x26F5 JUMPI PUSH1 0x0 NOT ADD SWAP2 SWAP1 PUSH2 0x25C1 JUMP JUMPDEST PUSH4 0x4E487B71 PUSH1 0xE0 SHL DUP3 MSTORE PUSH1 0x11 PUSH1 0x4 MSTORE PUSH1 0x24 DUP3 REVERT JUMPDEST PUSH4 0x4E487B71 PUSH1 0xE0 SHL DUP4 MSTORE PUSH1 0x32 PUSH1 0x4 MSTORE PUSH1 0x24 DUP4 REVERT JUMPDEST PUSH4 0x4E487B71 PUSH1 0xE0 SHL DUP2 MSTORE PUSH1 0x32 PUSH1 0x4 MSTORE PUSH1 0x24 SWAP1 REVERT JUMPDEST CALLER PUSH1 0x0 SWAP1 DUP2 MSTORE PUSH32 0x1DA0B5176DFE03406AF5A6EED66CA01DDA9B45AC4DA671C3FA379CB93717EF81 PUSH1 0x20 SWAP1 DUP2 MSTORE PUSH1 0x40 DUP1 DUP4 KECCAK256 SLOAD SWAP1 SWAP3 PUSH32 0xCE23C3E399818CFEE81A7AB0880F714E53D7672B08DF0FA62F2843416E1EA09 SWAP2 PUSH1 0xFF AND ISZERO PUSH2 0x2795 JUMPI POP POP POP POP JUMP JUMPDEST PUSH2 0x279E CALLER PUSH2 0x2A05 JUMP JUMPDEST SWAP2 DUP5 MLOAD SWAP1 PUSH2 0x27AB DUP3 PUSH2 0x22DC JUMP JUMPDEST PUSH1 0x42 DUP3 MSTORE DUP5 DUP3 ADD SWAP3 PUSH1 0x60 CALLDATASIZE DUP6 CALLDATACOPY DUP3 MLOAD ISZERO PUSH2 0x271D JUMPI PUSH1 0x30 DUP5 MSTORE8 DUP3 MLOAD SWAP1 PUSH1 0x1 SWAP2 DUP3 LT ISZERO PUSH2 0x271D JUMPI SWAP1 PUSH1 0x78 PUSH1 0x21 DUP6 ADD MSTORE8 PUSH1 0x41 SWAP2 JUMPDEST DUP2 DUP4 GT PUSH2 0x2830 JUMPI POP POP POP PUSH2 0x266D JUMPI PUSH1 0x48 PUSH2 0x2669 SWAP4 DUP7 SWAP4 PUSH2 0x264D SWAP4 PUSH2 0x263E SWAP9 MLOAD SWAP9 DUP10 SWAP4 PUSH23 0x20B1B1B2B9B9A1B7B73A3937B61D1030B1B1B7BAB73A1 PUSH1 0x4D SHL DUP11 DUP7 ADD MSTORE PUSH2 0x2615 DUP2 MLOAD DUP1 SWAP3 DUP13 PUSH1 0x37 DUP10 ADD SWAP2 ADD PUSH2 0x23BE JUMP JUMPDEST SWAP1 SWAP2 SWAP3 PUSH1 0xF DUP2 AND PUSH1 0x10 DUP2 LT ISZERO PUSH2 0x2709 JUMPI PUSH16 0x181899199A1A9B1B9C1CB0B131B232B3 PUSH1 0x81 SHL SWAP1 BYTE PUSH2 0x2860 DUP6 DUP8 PUSH2 0x29F4 JUMP JUMPDEST MSTORE8 PUSH1 0x4 SHR SWAP3 DUP1 ISZERO PUSH2 0x26F5 JUMPI PUSH1 0x0 NOT ADD SWAP2 SWAP1 PUSH2 0x27DC JUMP JUMPDEST PUSH1 0x0 SWAP1 DUP1 DUP3 MSTORE PUSH1 0x20 SWAP1 DUP3 DUP3 MSTORE PUSH1 0x40 SWAP3 DUP4 DUP2 KECCAK256 CALLER DUP3 MSTORE DUP4 MSTORE PUSH1 0xFF DUP5 DUP3 KECCAK256 SLOAD AND ISZERO PUSH2 0x289F JUMPI POP POP POP POP JUMP JUMPDEST PUSH2 0x28A8 CALLER PUSH2 0x2A05 JUMP JUMPDEST SWAP2 DUP5 MLOAD SWAP1 PUSH2 0x28B5 DUP3 PUSH2 0x22DC JUMP JUMPDEST PUSH1 0x42 DUP3 MSTORE DUP5 DUP3 ADD SWAP3 PUSH1 0x60 CALLDATASIZE DUP6 CALLDATACOPY DUP3 MLOAD ISZERO PUSH2 0x271D JUMPI PUSH1 0x30 DUP5 MSTORE8 DUP3 MLOAD SWAP1 PUSH1 0x1 SWAP2 DUP3 LT ISZERO PUSH2 0x271D JUMPI SWAP1 PUSH1 0x78 PUSH1 0x21 DUP6 ADD MSTORE8 PUSH1 0x41 SWAP2 JUMPDEST DUP2 DUP4 GT PUSH2 0x293A JUMPI POP POP POP PUSH2 0x266D JUMPI PUSH1 0x48 PUSH2 0x2669 SWAP4 DUP7 SWAP4 PUSH2 0x264D SWAP4 PUSH2 0x263E SWAP9 MLOAD SWAP9 DUP10 SWAP4 PUSH23 0x20B1B1B2B9B9A1B7B73A3937B61D1030B1B1B7BAB73A1 PUSH1 0x4D SHL DUP11 DUP7 ADD MSTORE PUSH2 0x2615 DUP2 MLOAD DUP1 SWAP3 DUP13 PUSH1 0x37 DUP10 ADD SWAP2 ADD PUSH2 0x23BE JUMP JUMPDEST SWAP1 SWAP2 SWAP3 PUSH1 0xF DUP2 AND PUSH1 0x10 DUP2 LT ISZERO PUSH2 0x2709 JUMPI PUSH16 0x181899199A1A9B1B9C1CB0B131B232B3 PUSH1 0x81 SHL SWAP1 BYTE PUSH2 0x296A DUP6 DUP8 PUSH2 0x29F4 JUMP JUMPDEST MSTORE8 PUSH1 0x4 SHR SWAP3 DUP1 ISZERO PUSH2 0x26F5 JUMPI PUSH1 0x0 NOT ADD SWAP2 SWAP1 PUSH2 0x28E6 JUMP JUMPDEST SWAP1 PUSH1 0x0 SWAP2 DUP1 DUP4 MSTORE DUP3 PUSH1 0x20 MSTORE PUSH1 0x40 DUP4 KECCAK256 SWAP2 PUSH1 0x1 DUP1 PUSH1 0xA0 SHL SUB AND SWAP2 DUP3 DUP5 MSTORE PUSH1 0x20 MSTORE PUSH1 0xFF PUSH1 0x40 DUP5 KECCAK256 SLOAD AND PUSH2 0x29B0 JUMPI POP POP POP JUMP JUMPDEST DUP1 DUP4 MSTORE DUP3 PUSH1 0x20 MSTORE PUSH1 0x40 DUP4 KECCAK256 DUP3 DUP5 MSTORE PUSH1 0x20 MSTORE PUSH1 0x40 DUP4 KECCAK256 PUSH1 0xFF NOT DUP2 SLOAD AND SWAP1 SSTORE PUSH32 0xF6391F5C32D9C69D2A47EA670B442974B53935D1EDC7FD64EB21E047A839171B CALLER SWAP4 DUP1 LOG4 JUMP JUMPDEST SWAP1 DUP2 MLOAD DUP2 LT ISZERO PUSH2 0xE68 JUMPI ADD PUSH1 0x20 ADD SWAP1 JUMP JUMPDEST PUSH1 0x40 MLOAD SWAP1 PUSH1 0x60 DUP3 ADD DUP3 DUP2 LT PUSH1 0x1 PUSH1 0x1 PUSH1 0x40 SHL SUB DUP3 GT OR PUSH2 0x8C2 JUMPI PUSH1 0x40 MSTORE PUSH1 0x2A DUP3 MSTORE PUSH1 0x20 DUP3 ADD PUSH1 0x40 CALLDATASIZE DUP3 CALLDATACOPY DUP3 MLOAD ISZERO PUSH2 0xE68 JUMPI PUSH1 0x30 SWAP1 MSTORE8 DUP2 MLOAD PUSH1 0x1 SWAP1 DUP2 LT ISZERO PUSH2 0xE68 JUMPI PUSH1 0x78 PUSH1 0x21 DUP5 ADD MSTORE8 PUSH1 0x29 SWAP1 JUMPDEST DUP1 DUP3 GT PUSH2 0x2AA5 JUMPI POP POP PUSH2 0x2A61 JUMPI SWAP1 JUMP JUMPDEST PUSH1 0x64 PUSH1 0x40 MLOAD PUSH3 0x461BCD PUSH1 0xE5 SHL DUP2 MSTORE PUSH1 0x20 PUSH1 0x4 DUP3 ADD MSTORE PUSH1 0x20 PUSH1 0x24 DUP3 ADD MSTORE PUSH32 0x537472696E67733A20686578206C656E67746820696E73756666696369656E74 PUSH1 0x44 DUP3 ADD MSTORE REVERT JUMPDEST SWAP1 SWAP2 PUSH1 0xF DUP2 AND PUSH1 0x10 DUP2 LT ISZERO PUSH2 0x2AFE JUMPI PUSH16 0x181899199A1A9B1B9C1CB0B131B232B3 PUSH1 0x81 SHL SWAP1 BYTE PUSH2 0x2AD4 DUP5 DUP7 PUSH2 0x29F4 JUMP JUMPDEST MSTORE8 PUSH1 0x4 SHR SWAP2 DUP1 ISZERO PUSH2 0x2AE9 JUMPI PUSH1 0x0 NOT ADD SWAP1 PUSH2 0x2A51 JUMP JUMPDEST PUSH1 0x24 PUSH1 0x0 PUSH4 0x4E487B71 PUSH1 0xE0 SHL DUP2 MSTORE PUSH1 0x11 PUSH1 0x4 MSTORE REVERT JUMPDEST PUSH1 0x24 PUSH1 0x0 PUSH4 0x4E487B71 PUSH1 0xE0 SHL DUP2 MSTORE PUSH1 0x32 PUSH1 0x4 MSTORE REVERT JUMPDEST PUSH1 0x6 DUP3 LT ISZERO PUSH2 0x97C JUMPI MSTORE JUMP JUMPDEST SWAP1 PUSH1 0x1F DUP2 GT PUSH2 0x2B2D JUMPI POP POP POP JUMP JUMPDEST PUSH1 0x0 SWAP2 DUP3 MSTORE PUSH1 0x20 DUP3 KECCAK256 SWAP1 PUSH1 0x20 PUSH1 0x1F DUP6 ADD PUSH1 0x5 SHR DUP4 ADD SWAP5 LT PUSH2 0x2B69 JUMPI JUMPDEST PUSH1 0x1F ADD PUSH1 0x5 SHR ADD SWAP2 JUMPDEST DUP3 DUP2 LT PUSH2 0x2B5E JUMPI POP POP POP JUMP JUMPDEST DUP2 DUP2 SSTORE PUSH1 0x1 ADD PUSH2 0x2B52 JUMP JUMPDEST SWAP1 SWAP3 POP DUP3 SWAP1 PUSH2 0x2B49 JUMP JUMPDEST SWAP1 PUSH1 0x6 DUP2 LT ISZERO PUSH2 0x97C JUMPI PUSH1 0xFF DUP1 NOT DUP4 SLOAD AND SWAP2 AND OR SWAP1 SSTORE JUMP JUMPDEST SWAP1 DUP1 PUSH1 0x20 SWAP4 SWAP3 DUP2 DUP5 MSTORE DUP5 DUP5 ADD CALLDATACOPY PUSH1 0x0 DUP3 DUP3 ADD DUP5 ADD MSTORE PUSH1 0x1F ADD PUSH1 0x1F NOT AND ADD ADD SWAP1 JUMP JUMPDEST PUSH1 0xFF PUSH1 0x1 SLOAD AND PUSH2 0x2BB8 JUMPI JUMP JUMPDEST PUSH1 0x40 MLOAD PUSH3 0x461BCD PUSH1 0xE5 SHL DUP2 MSTORE PUSH1 0x20 PUSH1 0x4 DUP3 ADD MSTORE PUSH1 0x10 PUSH1 0x24 DUP3 ADD MSTORE PUSH16 0x14185D5CD8589B194E881C185D5CD959 PUSH1 0x82 SHL PUSH1 0x44 DUP3 ADD MSTORE PUSH1 0x64 SWAP1 REVERT JUMPDEST ISZERO PUSH2 0x2BF7 JUMPI JUMP JUMPDEST PUSH1 0x40 MLOAD PUSH3 0x461BCD PUSH1 0xE5 SHL DUP2 MSTORE PUSH1 0x20 PUSH1 0x4 DUP3 ADD MSTORE PUSH1 0xE PUSH1 0x24 DUP3 ADD MSTORE PUSH14 0x139BDD081C9959DA5CDD195C9959 PUSH1 0x92 SHL PUSH1 0x44 DUP3 ADD MSTORE PUSH1 0x64 SWAP1 REVERT JUMPDEST ISZERO PUSH2 0x2C34 JUMPI JUMP JUMPDEST PUSH1 0x40 MLOAD PUSH3 0x461BCD PUSH1 0xE5 SHL DUP2 MSTORE PUSH1 0x20 PUSH1 0x4 DUP3 ADD MSTORE PUSH1 0xE PUSH1 0x24 DUP3 ADD MSTORE PUSH14 0x496E76616C696420737461747573 PUSH1 0x90 SHL PUSH1 0x44 DUP3 ADD MSTORE PUSH1 0x64 SWAP1 REVERT JUMPDEST PUSH1 0x0 NOT DUP2 EQ PUSH2 0x2C79 JUMPI PUSH1 0x1 ADD SWAP1 JUMP JUMPDEST PUSH4 0x4E487B71 PUSH1 0xE0 SHL PUSH1 0x0 MSTORE PUSH1 0x11 PUSH1 0x4 MSTORE PUSH1 0x24 PUSH1 0x0 REVERT JUMPDEST ISZERO PUSH2 0x2C96 JUMPI JUMP JUMPDEST PUSH1 0x40 MLOAD PUSH3 0x461BCD PUSH1 0xE5 SHL DUP2 MSTORE PUSH1 0x20 PUSH1 0x4 DUP3 ADD MSTORE PUSH1 0x13 PUSH1 0x24 DUP3 ADD MSTORE PUSH19 0x53636F7265206D75737420626520302D31303 PUSH1 0x6C SHL PUSH1 0x44 DUP3 ADD MSTORE PUSH1 0x64 SWAP1 REVERT JUMPDEST PUSH1 0x1 PUSH1 0x1 PUSH1 0x40 SHL SUB DUP2 GT PUSH2 0x8C2 JUMPI PUSH1 0x5 SHL PUSH1 0x20 ADD SWAP1 JUMP INVALID LOG2 PUSH5 0x6970667358 0x22 SLT KECCAK256 0xCA 0xCE SGT 0xC4 0xC8 MSTORE MSTORE8 0xBF 0xE7 SGT 0xF8 CHAINID SWAP16 PUSH21 0x48743961C3B1BA36A0FBDECD8631CBEC528E64736F PUSH13 0x634300081300332F8788117E7E SELFDESTRUCT SAR DUP3 0xE9 0x26 0xEC PUSH26 0x4901D17C78024A50270940304540A733656F0D00000000000000 "},"methodIdentifiers":{"ADMIN_ROLE()":"75b238fc","DEFAULT_ADMIN_ROLE()":"a217fddf","VERIFIER_ROLE()":"e7705db6","allResearchers(uint256)":"75307ec7","getAllResearchers()":"3d3f8c4b","getPendingRequests()":"80a1f712","getResearcher(address)":"e7eba4c2","getRoleAdmin(bytes32)":"248a9ca3","grantRole(bytes32,address)":"2f2ff15d","hasRole(bytes32,address)":"91d14854","isVerifiedResearcher(address)":"508f3a37","minReputationScore()":"bdb3c7f6","pause()":"8456cb59","paused()":"5c975abb","processVerificationRequest(uint256,bool)":"f7aa022c","reactivateResearcher(address)":"2849fecd","registerResearcher(string,string,string,string)":"5e598974","renounceRole(bytes32,address)":"36568abe","researchers(address)":"01bc237d","revokeRole(bytes32,address)":"d547741f","setMinReputationScore(uint256)":"7011f954","submitVerificationDocuments(string,string)":"d019cd1a","supportsInterface(bytes4)":"01ffc9a7","suspendResearcher(address,string)":"26967c0d","unpause()":"3f4ba83a","updateBountyStats(address,bool)":"c05ca2a4","updateProfile(string,string)":"c9d3cc6a","updateReputation(address,uint256)":"f5c91a08","usedEmails(string)":"c53c0859","verificationRequests(uint256)":"4089d49f","verifyResearcher(address,uint8)":"3de30002"}}}}}