{"contracts/GeneticNFT.sol":{"GeneticNFT":{"abi":[{"inputs":[],"stateMutability":"nonpayable","type":"constructor"},{"anonymous":false,"inputs":[{"indexed":true,"internalType":"address","name":"owner","type":"address"},{"indexed":true,"internalType":"address","name":"approved","type":"address"},{"indexed":true,"internalType":"uint256","name":"tokenId","type":"uint256"}],"name":"Approval","type":"event"},{"anonymous":false,"inputs":[{"indexed":true,"internalType":"address","name":"owner","type":"address"},{"indexed":true,"internalType":"address","name":"operator","type":"address"},{"indexed":false,"internalType":"bool","name":"approved","type":"bool"}],"name":"ApprovalForAll","type":"event"},{"anonymous":false,"inputs":[{"indexed":false,"internalType":"uint256","name":"_fromTokenId","type":"uint256"},{"indexed":false,"internalType":"uint256","name":"_toTokenId","type":"uint256"}],"name":"BatchMetadataUpdate","type":"event"},{"anonymous":false,"inputs":[{"indexed":true,"internalType":"uint256","name":"tokenId","type":"uint256"}],"name":"GenomeDeactivated","type":"event"},{"anonymous":false,"inputs":[{"indexed":true,"internalType":"uint256","name":"tokenId","type":"uint256"},{"indexed":true,"internalType":"address","name":"owner","type":"address"},{"indexed":false,"internalType":"string","name":"ipfsCID","type":"string"},{"indexed":false,"internalType":"string","name":"geneType","type":"string"},{"indexed":false,"internalType":"uint256","name":"timestamp","type":"uint256"}],"name":"GenomeMinted","type":"event"},{"anonymous":false,"inputs":[{"indexed":false,"internalType":"uint256","name":"_tokenId","type":"uint256"}],"name":"MetadataUpdate","type":"event"},{"anonymous":false,"inputs":[{"indexed":true,"internalType":"address","name":"previousOwner","type":"address"},{"indexed":true,"internalType":"address","name":"newOwner","type":"address"}],"name":"OwnershipTransferred","type":"event"},{"anonymous":false,"inputs":[{"indexed":true,"internalType":"uint256","name":"tokenId","type":"uint256"},{"indexed":true,"internalType":"address","name":"agent","type":"address"},{"indexed":false,"internalType":"uint256","name":"expiry","type":"uint256"}],"name":"QueryAccessGranted","type":"event"},{"anonymous":false,"inputs":[{"indexed":true,"internalType":"uint256","name":"tokenId","type":"uint256"},{"indexed":true,"internalType":"address","name":"agent","type":"address"}],"name":"QueryAccessRevoked","type":"event"},{"anonymous":false,"inputs":[{"indexed":true,"internalType":"address","name":"from","type":"address"},{"indexed":true,"internalType":"address","name":"to","type":"address"},{"indexed":true,"internalType":"uint256","name":"tokenId","type":"uint256"}],"name":"Transfer","type":"event"},{"anonymous":false,"inputs":[{"indexed":true,"internalType":"address","name":"agent","type":"address"},{"indexed":false,"internalType":"bool","name":"trusted","type":"bool"}],"name":"TrustedAgentUpdated","type":"event"},{"inputs":[{"internalType":"address","name":"to","type":"address"},{"internalType":"uint256","name":"tokenId","type":"uint256"}],"name":"approve","outputs":[],"stateMutability":"nonpayable","type":"function"},{"inputs":[{"internalType":"address","name":"owner","type":"address"}],"name":"balanceOf","outputs":[{"internalType":"uint256","name":"","type":"uint256"}],"stateMutability":"view","type":"function"},{"inputs":[{"internalType":"uint256","name":"tokenId","type":"uint256"}],"name":"deactivateGenome","outputs":[],"stateMutability":"nonpayable","type":"function"},{"inputs":[{"internalType":"uint256","name":"tokenId","type":"uint256"}],"name":"getApproved","outputs":[{"internalType":"address","name":"","type":"address"}],"stateMutability":"view","type":"function"},{"inputs":[{"internalType":"uint256","name":"tokenId","type":"uint256"}],"name":"getEncryptedDataCID","outputs":[{"internalType":"string","name":"","type":"string"}],"stateMutability":"view","type":"function"},{"inputs":[{"internalType":"uint256","name":"tokenId","type":"uint256"}],"name":"getGenomeData","outputs":[{"components":[{"internalType":"string","name":"ipfsCID","type":"string"},{"internalType":"bytes32","name":"dataHash","type":"bytes32"},{"internalType":"string","name":"encryptionAlgo","type":"string"},{"internalType":"string","name":"geneType","type":"string"},{"internalType":"uint256","name":"mintTimestamp","type":"uint256"},{"internalType":"uint256","name":"fileSize","type":"uint256"},{"internalType":"bool","name":"isActive","type":"bool"}],"internalType":"struct GeneticNFT.GenomeData","name":"","type":"tuple"}],"stateMutability":"view","type":"function"},{"inputs":[{"internalType":"address","name":"owner","type":"address"}],"name":"getOwnedTokens","outputs":[{"internalType":"uint256[]","name":"","type":"uint256[]"}],"stateMutability":"view","type":"function"},{"inputs":[{"internalType":"uint256","name":"tokenId","type":"uint256"},{"internalType":"address","name":"agent","type":"address"},{"internalType":"uint256","name":"duration","type":"uint256"}],"name":"grantQueryAccess","outputs":[],"stateMutability":"nonpayable","type":"function"},{"inputs":[{"internalType":"address","name":"owner","type":"address"},{"internalType":"address","name":"operator","type":"address"}],"name":"isApprovedForAll","outputs":[{"internalType":"bool","name":"","type":"bool"}],"stateMutability":"view","type":"function"},{"inputs":[],"name":"mintFee","outputs":[{"internalType":"uint256","name":"","type":"uint256"}],"stateMutability":"view","type":"function"},{"inputs":[{"internalType":"string","name":"ipfsCID","type":"string"},{"internalType":"bytes32","name":"dataHash","type":"bytes32"},{"internalType":"string","name":"encryptionAlgo","type":"string"},{"internalType":"string","name":"geneType","type":"string"},{"internalType":"uint256","name":"fileSize","type":"uint256"},{"internalType":"string","name":"tokenURI_","type":"string"}],"name":"mintGenome","outputs":[{"internalType":"uint256","name":"","type":"uint256"}],"stateMutability":"payable","type":"function"},{"inputs":[],"name":"name","outputs":[{"internalType":"string","name":"","type":"string"}],"stateMutability":"view","type":"function"},{"inputs":[],"name":"owner","outputs":[{"internalType":"address","name":"","type":"address"}],"stateMutability":"view","type":"function"},{"inputs":[{"internalType":"uint256","name":"tokenId","type":"uint256"}],"name":"ownerOf","outputs":[{"internalType":"address","name":"","type":"address"}],"stateMutability":"view","type":"function"},{"inputs":[],"name":"renounceOwnership","outputs":[],"stateMutability":"nonpayable","type":"function"},{"inputs":[{"internalType":"uint256","name":"tokenId","type":"uint256"},{"internalType":"address","name":"agent","type":"address"}],"name":"revokeQueryAccess","outputs":[],"stateMutability":"nonpayable","type":"function"},{"inputs":[{"internalType":"address","name":"from","type":"address"},{"internalType":"address","name":"to","type":"address"},{"internalType":"uint256","name":"tokenId","type":"uint256"}],"name":"safeTransferFrom","outputs":[],"stateMutability":"nonpayable","type":"function"},{"inputs":[{"internalType":"address","name":"from","type":"address"},{"internalType":"address","name":"to","type":"address"},{"internalType":"uint256","name":"tokenId","type":"uint256"},{"internalType":"bytes","name":"data","type":"bytes"}],"name":"safeTransferFrom","outputs":[],"stateMutability":"nonpayable","type":"function"},{"inputs":[{"internalType":"address","name":"operator","type":"address"},{"internalType":"bool","name":"approved","type":"bool"}],"name":"setApprovalForAll","outputs":[],"stateMutability":"nonpayable","type":"function"},{"inputs":[{"internalType":"uint256","name":"newFee","type":"uint256"}],"name":"setMintFee","outputs":[],"stateMutability":"nonpayable","type":"function"},{"inputs":[{"internalType":"address","name":"agent","type":"address"},{"internalType":"bool","name":"trusted","type":"bool"}],"name":"setTrustedAgent","outputs":[],"stateMutability":"nonpayable","type":"function"},{"inputs":[{"internalType":"bytes4","name":"interfaceId","type":"bytes4"}],"name":"supportsInterface","outputs":[{"internalType":"bool","name":"","type":"bool"}],"stateMutability":"view","type":"function"},{"inputs":[],"name":"symbol","outputs":[{"internalType":"string","name":"","type":"string"}],"stateMutability":"view","type":"function"},{"inputs":[{"internalType":"uint256","name":"index","type":"uint256"}],"name":"tokenByIndex","outputs":[{"internalType":"uint256","name":"","type":"uint256"}],"stateMutability":"view","type":"function"},{"inputs":[{"internalType":"address","name":"owner","type":"address"},{"internalType":"uint256","name":"index","type":"uint256"}],"name":"tokenOfOwnerByIndex","outputs":[{"internalType":"uint256","name":"","type":"uint256"}],"stateMutability":"view","type":"function"},{"inputs":[{"internalType":"uint256","name":"tokenId","type":"uint256"}],"name":"tokenURI","outputs":[{"internalType":"string","name":"","type":"string"}],"stateMutability":"view","type":"function"},{"inputs":[],"name":"totalSupply","outputs":[{"internalType":"uint256","name":"","type":"uint256"}],"stateMutability":"view","type":"function"},{"inputs":[{"internalType":"address","name":"from","type":"address"},{"internalType":"address","name":"to","type":"address"},{"internalType":"uint256","name":"tokenId","type":"uint256"}],"name":"transferFrom","outputs":[],"stateMutability":"nonpayable","type":"function"},{"inputs":[{"internalType":"address","name":"newOwner","type":"address"}],"name":"transferOwnership","outputs":[],"stateMutability":"nonpayable","type":"function"},{"inputs":[{"internalType":"address","name":"","type":"address"}],"name":"trustedAgents","outputs":[{"internalType":"bool","name":"","type":"bool"}],"stateMutability":"view","type":"function"},{"inputs":[{"internalType":"uint256","name":"tokenId","type":"uint256"},{"internalType":"address","name":"accessor","type":"address"}],"name":"verifyAccess","outputs":[{"internalType":"bool","name":"","type":"bool"}],"stateMutability":"view","type":"function"},{"inputs":[{"internalType":"uint256","name":"tokenId","type":"uint256"},{"internalType":"bytes32","name":"dataHash","type":"bytes32"}],"name":"verifyDataIntegrity","outputs":[{"internalType":"bool","name":"","type":"bool"}],"stateMutability":"view","type":"function"},{"inputs":[],"name":"withdraw","outputs":[],"stateMutability":"nonpayable","type":"function"}],"evm":{"bytecode":{"linkReferences":{},"object":"60803462000371576001600160401b0390604090808201838111828210176200035b578252601181526020917048656c69785661756c742047656e6f6d6560781b83830152805193818501858110828211176200035b57825260058552640908a9892b60db1b8486015282518181116200035b576000948554916001958684811c9416801562000350575b838510146200033c578190601f94858111620002e9575b5083908583116001146200028557899262000279575b5050600019600383901b1c191690861b1786555b8651928311620002655784548581811c911680156200025a575b828210146200024657828111620001fe575b50809183116001146200019557508495829394959262000189575b5050600019600383901b1c191690831b1782555b600b8054336001600160a01b03198216811790925591519390916001600160a01b0316907f8be0079c531659141344cd1fd0a4f28419497f9722a3daafe3b4186f6b6457e09080a3600c5566038d7ea4c6800060125561280e9081620003778239f35b01519050388062000112565b90601f198316968587528287209287905b898210620001e65750508386979896959610620001cc575b505050811b01825562000126565b015160001960f88460031b161c19169055388080620001be565b808885968294968601518155019501930190620001a6565b8587528187208380860160051c8201928487106200023c575b0160051c019086905b82811062000230575050620000f7565b88815501869062000220565b9250819262000217565b634e487b7160e01b87526022600452602487fd5b90607f1690620000e5565b634e487b7160e01b86526041600452602486fd5b015190503880620000b7565b898052848a208994509190601f1984168b5b87828210620002d25750508411620002b8575b505050811b018655620000cb565b015160001960f88460031b161c19169055388080620002aa565b8385015186558c9790950194938401930162000297565b9091508880528389208580850160051c82019286861062000332575b918a91869594930160051c01915b82811062000323575050620000a1565b8b81558594508a910162000313565b9250819262000305565b634e487b7160e01b88526022600452602488fd5b93607f16936200008a565b634e487b7160e01b600052604160045260246000fd5b600080fdfe608080604052600436101561001357600080fd5b60003560e01c90816301ffc9a714611bd55750806306fdde0314611b32578063081812fc14611b14578063095ea7b31461199a57806313966db51461197c57806318160ddd1461195e5780631fb16f1014610f6157806323b872dd14610f3d5780632b9c91b314610eb25780632dc19ec814610e425780632f745c5914610d905780633ccfd60b14610d4057806342842e0e14610d0d5780634f6ccce714610c625780636352211e14610c3257806369357f4e14610adc57806370a0823114610ab1578063715018a614610a5457806387884e8514610a2457806389e0465b146109ce5780638da5cb5b146109a557806395d89b41146108c65780639754f69b14610887578063a22cb465146107c2578063b88d4fde1461073b578063baa0b46b146106cf578063c085e70514610596578063c87b56dd14610520578063d9d616551461046c578063e985e9c514610416578063eddd0d9c146103f5578063f07679f9146102535763f2fde38b1461018a57600080fd5b3461024e57602036600319011261024e576101a3611cb4565b6101ab611e35565b6001600160a01b039081169081156101fa57600b54826001600160601b0360a01b821617600b55167f8be0079c531659141344cd1fd0a4f28419497f9722a3daafe3b4186f6b6457e0600080a3005b60405162461bcd60e51b815260206004820152602660248201527f4f776e61626c653a206e6577206f776e657220697320746865207a65726f206160448201526564647265737360d01b6064820152608490fd5b600080fd5b3461024e57606036600319011261024e5760043561026f611cca565b906102956044359261028083611f50565b6001600160a01b03928392918316331461273a565b1692836000526020906011825260ff60406000205416156103b957801515806103ac575b1561037457420180421161035e576103557f4c5a8c27a4b5d1e1f99babbb397591032d6bcbecadfa1cf89214ccf69ded111b936002604051916102fb83611d8c565b88835285830185815260408401916001835289600052600f885260406000208b600052885260406000209451166001600160601b0360a01b85541617845551600184015551151591019060ff801983541691151516179055565b604051908152a3005b634e487b7160e01b600052601160045260246000fd5b60405162461bcd60e51b815260048101839052601060248201526f24b73b30b634b210323ab930ba34b7b760811b6044820152606490fd5b50620151808111156102b9565b60405162461bcd60e51b81526004810183905260146024820152731059d95b9d081a5cc81b9bdd081d1c9d5cdd195960621b6044820152606490fd5b3461024e57602036600319011261024e5761040e611e35565b600435601255005b3461024e57604036600319011261024e5761042f611cb4565b610437611cca565b9060018060a01b03809116600052600560205260406000209116600052602052602060ff604060002054166040519015158152f35b3461024e5760208060031936011261024e576001600160a01b0361048e611cb4565b1660005260108152604060002060405190818382549182815201908192600052846000209060005b8682821061050c5786866104cc82880383611dc2565b604051928392818401908285525180915260408401929160005b8281106104f557505050500390f35b8351855286955093810193928101926001016104e6565b8354855290930192600192830192016104b6565b3461024e57602036600319011261024e57600435600081815260026020526040902054610557906001600160a01b03161515611f04565b600052600660205261059261056f6040600020611fb0565b600060405161057d81611da7565b52604051918291602083526020830190611c74565b0390f35b3461024e5760208060031936011261024e576004356000818152600260205260409020546105d3906001600160a01b031615156126a5565b6126a5565b6105dc81611f50565b6001600160a01b0316331480156106bf575b1561067a5780600052600e825260ff600660406000200154161561063557600052600e81526106206040600020611fb0565b90610592604051928284938452830190611c74565b60405162461bcd60e51b815260048101839052601a60248201527f47656e6f6d6520646174612069732064656163746976617465640000000000006044820152606490fd5b60405162461bcd60e51b815260048101839052601d60248201527f4e6f7420617574686f72697a656420746f2061636365737320646174610000006044820152606490fd5b506106ca3382612778565b6105ee565b3461024e5760207fb79006c11ba71c59f37a939fd5b717c19b04eb056694b3674099a80694ddc4d261070036611d42565b929061070a611e35565b6001600160a01b031660008181526011835260409020805460ff191660ff86151516179055926040519015158152a2005b3461024e57608036600319011261024e57610754611cb4565b61075c611cca565b90606435906044356001600160401b03831161024e573660238401121561024e576107c0936107986107bb943690602481600401359101611dfe565b926107ab6107a6843361216d565b612094565b6107b6838383612235565b612565565b612149565b005b3461024e576107d036611d42565b6001600160a01b0390911690338214610842573360005260056020526040600020826000526020526108128160406000209060ff801983541691151516179055565b60405190151581527f17307eab39ab6107e8899845ad3d59bd9653f200f220920489ca2b5937696c3160203392a3005b60405162461bcd60e51b815260206004820152601960248201527f4552433732313a20617070726f766520746f2063616c6c6572000000000000006044820152606490fd5b3461024e57602036600319011261024e576001600160a01b036108a8611cb4565b166000526011602052602060ff604060002054166040519015158152f35b3461024e57600036600319011261024e57604051600060018054906108ea82611f76565b8085529181811690811561097e5750600114610925575b6105928461091181860382611dc2565b604051918291602083526020830190611c74565b600081815292507fb10e2d527612073b26eecdfd717e6a320cf44b4afac2b0732d9fcbe2b7fa0cf65b82841061096657505050810160200161091182610901565b8054602085870181019190915290930192810161094e565b60ff191660208087019190915292151560051b850190920192506109119150839050610901565b3461024e57600036600319011261024e57600b546040516001600160a01b039091168152602090f35b3461024e57604036600319011261024e57600435600081815260026020526040902054610a05906001600160a01b031615156126a5565b600052600e602052602060243560016040600020015414604051908152f35b3461024e57604036600319011261024e576020610a4a610a42611cca565b6004356126e8565b6040519015158152f35b3461024e57600036600319011261024e57610a6d611e35565b600b80546001600160a01b031981169091556000906001600160a01b03167f8be0079c531659141344cd1fd0a4f28419497f9722a3daafe3b4186f6b6457e08280a3005b3461024e57602036600319011261024e576020610ad4610acf611cb4565b611e8d565b604051908152f35b3461024e5760208060031936011261024e5760405190600435610afe83611d71565b600060c0606094858152828582015285604082015285808201528260808201528260a08201520152610b486105ce82600052600260205260018060a01b0360406000205416151590565b600052600e8152604060002060405192610b6184611d71565b610b6a82611fb0565b8452600182015491838501928352610c19610b8760028301611fb0565b9260408701938452610b9b60038401611fb0565b90808801918252610c0860048501549660808a0197885260ff600660058801549760a08d019889520154169660c08b019715158852610bee8a60e06040519d8e9d8e5251918d01526101008c0190611c74565b915160408b015251601f1993848b840301908b0152611c74565b915190878303016080880152611c74565b925160a08501525160c084015251151560e08301520390f35b3461024e57602036600319011261024e576020610c50600435611f50565b6040516001600160a01b039091168152f35b3461024e57602036600319011261024e57600435600954811015610cb35760209060096000527f6e1540171b6c0c960b71a7020d9f60077f6af931a8bbf590da0223dacf75c7af0154604051908152f35b60405162461bcd60e51b815260206004820152602c60248201527f455243373231456e756d657261626c653a20676c6f62616c20696e646578206f60448201526b7574206f6620626f756e647360a01b6064820152608490fd5b3461024e576107c06107bb610d2136611d0d565b9060405192610d2f84611da7565b600084526107ab6107a6843361216d565b3461024e57600036600319011261024e57610d59611e35565b600080808060018060a01b03600b54164790828215610d87575bf115610d7b57005b6040513d6000823e3d90fd5b506108fc610d73565b3461024e57604036600319011261024e57610da9611cb4565b60243590610db681611e8d565b821015610de95760018060a01b031660005260076020526040600020906000526020526020604060002054604051908152f35b60405162461bcd60e51b815260206004820152602b60248201527f455243373231456e756d657261626c653a206f776e657220696e646578206f7560448201526a74206f6620626f756e647360a81b6064820152608490fd5b3461024e57602036600319011261024e57600435610e72610e6282611f50565b6001600160a01b0316331461273a565b80600052600e602052600660406000200160ff1981541690557f75ea8b448d1956bfebcacf251544bc2adfe8237a19a5829e6d07e819c230a29a600080a2005b3461024e57604036600319011261024e57600435610ece611cca565b90610ed881611f50565b6001600160a01b0390610eee908216331461273a565b81600052600f602052604060002092169182600052602052600260406000200160ff1981541690557fd5c930cd6ae2e2972c1991b8477bcf4d612abefa18a977ac1abfaae21dc4eed9600080a3005b3461024e576107c0610f4e36611d0d565b91610f5c6107a6843361216d565b612235565b60c036600319011261024e576004356001600160401b03811161024e57610f8c903690600401611ce0565b6044356001600160401b03811161024e57610fab903690600401611ce0565b90926064356001600160401b03811161024e57610fcc903690600401611ce0565b9260a4356001600160401b03811161024e57610fec903690600401611ce0565b6002600c9892985414611919576002600c5560125434106118dc5786156118a4576024351561186b576001600d54019788600d556040519161102d83611da7565b6000835233156118275761113e6107bb611145946110da61106a8e61107061106a82600052600260205260018060a01b0360406000205416151590565b15612659565b60095481600052600a60205260406000205561108b816125f0565b61109433611e8d565b33600052600760205260406000208160005260205281604060002055816000526008602052604060002055600052600260205260018060a01b0360406000205416151590565b3360005260036020526040600020600181540190558c60005260026020526040600020336001600160601b0360a01b8254161790558c3360007fddf252ad1be2c89b69c2b068fc378daa952ba7f163c4a11628f55a4df523b3ef8180a48c33612445565b3691611dfe565b6000888152600260205260409020546001600160a01b0316156117cb578760005260066020526040600020908051906001600160401b0382116114955761118c8354611f76565b601f8111611787575b50602090601f83116001146117185761121c949392916000918361170d575b50508160011b916000199060031b1c19161790555b7ff8e1a15aba9398e019f0b49df1a4fde98ee17ae345cb5f6b5e2c27f5033e8ce760206040518a8152a16040519261120084611d71565b61120b368988611dfe565b845260243560208501523691611dfe565b604082015261122c368584611dfe565b606082015242608082015260843560a0820152600160c082015285600052600e60205260406000209080518051906001600160401b0382116114955781906112748554611f76565b601f81116116bd575b50602090601f831160011461165157600092611646575b50508160011b916000199060031b1c19161782555b6020810151600183015560408101518051906001600160401b0382116114955781906112d86002860154611f76565b601f81116115f3575b50602090601f831160011461158157600092611576575b50508160011b916000199060031b1c19161760028301555b60608101518051906001600160401b038211611495576113336003850154611f76565b601f811161152f575b50602090601f83116001146114b657928260069360c0936113a397966000926114ab575b50508160011b916000199060031b1c19161760038501555b6080810151600485015560a081015160058501550151151591019060ff801983541691151516179055565b336000526010602052604060002090815493600160401b851015611495576001850180845585101561147f576114177f07d612051a32fc8909d20e811bbe0838a365b8810c679ecfeea6f8eb7100668694888097611425966000526020600020015560405197606089526060890191612638565b918683036020880152612638565b924260408201528033940390a360125480341161144d575b6020826001600c55604051908152f35b8034039034821161035e576000808093819382903414611476575b3390f115610d7b578161143d565b506108fc611468565b634e487b7160e01b600052603260045260246000fd5b634e487b7160e01b600052604160045260246000fd5b015190508c80611360565b906003850160005260206000209160005b601f198516811061151757508360c0936113a3979693600193600697601f198116106114fe575b505050811b016003850155611378565b015160001960f88460031b161c191690558c80806114ee565b919260206001819286850151815501940192016114c7565b600385016000526020600020601f840160051c81016020851061156f575b601f830160051c8201811061156357505061133c565b6000815560010161154d565b508061154d565b0151905089806112f8565b9250600285016000526020600020906000935b601f19841685106115d8576001945083601f198116106115bf575b505050811b016002830155611310565b015160001960f88460031b161c191690558980806115af565b81810151835560209485019460019093019290910190611594565b909150600285016000526020600020601f840160051c81016020851061163f575b90849392915b601f830160051c820181106116305750506112e1565b6000815585945060010161161a565b5080611614565b015190508980611294565b9250846000526020600020906000935b601f19841685106116a2576001945083601f19811610611689575b505050811b0182556112a9565b015160001960f88460031b161c1916905589808061167c565b81810151835560209485019460019093019290910190611661565b909150846000526020600020601f840160051c810160208510611706575b90849392915b601f830160051c820181106116f757505061127d565b600081558594506001016116e1565b50806116db565b015190508b806111b4565b908360005260206000209160005b601f198516811061176f575091839160019361121c979695601f19811610611756575b505050811b0190556111c9565b015160001960f88460031b161c191690558b8080611749565b91926020600181928685015181550194019201611726565b836000526020600020601f840160051c8101602085106117c4575b601f830160051c820181106117b8575050611195565b600081556001016117a2565b50806117a2565b60405162461bcd60e51b815260206004820152602e60248201527f45524337323155524953746f726167653a2055524920736574206f66206e6f6e60448201526d32bc34b9ba32b73a103a37b5b2b760911b6064820152608490fd5b606460405162461bcd60e51b815260206004820152602060248201527f4552433732313a206d696e7420746f20746865207a65726f20616464726573736044820152fd5b60405162461bcd60e51b8152602060048201526011602482015270092dcecc2d8d2c840c8c2e8c240d0c2e6d607b1b6044820152606490fd5b60405162461bcd60e51b815260206004820152601060248201526f125b9d985b1a590812541194c810d25160821b6044820152606490fd5b60405162461bcd60e51b8152602060048201526015602482015274496e73756666696369656e74206d696e742066656560581b6044820152606490fd5b60405162461bcd60e51b815260206004820152601f60248201527f5265656e7472616e637947756172643a207265656e7472616e742063616c6c006044820152606490fd5b3461024e57600036600319011261024e576020600954604051908152f35b3461024e57600036600319011261024e576020601254604051908152f35b3461024e57604036600319011261024e576119b3611cb4565b602435906001600160a01b0380806119ca85611f50565b16921691808314611ac557803314908115611aa0575b5015611a3557600083815260046020526040902080546001600160a01b03191683179055611a0d83611f50565b167f8c5be1e5ebec7d5bd14f71427d1e84f3dd0314c0f7b2291e5b200ac8c7c3b925600080a4005b60405162461bcd60e51b815260206004820152603d60248201527f4552433732313a20617070726f76652063616c6c6572206973206e6f7420746f60448201527f6b656e206f776e6572206f7220617070726f76656420666f7220616c6c0000006064820152608490fd5b9050600052600560205260406000203360005260205260ff60406000205416846119e0565b60405162461bcd60e51b815260206004820152602160248201527f4552433732313a20617070726f76616c20746f2063757272656e74206f776e656044820152603960f91b6064820152608490fd5b3461024e57602036600319011261024e576020610c50600435612056565b3461024e57600036600319011261024e5760405160008054611b5381611f76565b8084529060019081811690811561097e5750600114611b7c576105928461091181860382611dc2565b600080805292507f290decd9548b62a8d60345a988386fc84ba6bc95484008f6362f93160ef3e5635b828410611bbd57505050810160200161091182610901565b80546020858701810191909152909301928101611ba5565b3461024e57602036600319011261024e576004359063ffffffff60e01b821680920361024e5760209163780e9d6360e01b8114908115611c17575b5015158152f35b632483248360e11b811491508115611c31575b5083611c10565b6380ac58cd60e01b811491508115611c63575b8115611c52575b5083611c2a565b6301ffc9a760e01b14905083611c4b565b635b5e139f60e01b81149150611c44565b919082519283825260005b848110611ca0575050826000602080949584010152601f8019910116010190565b602081830181015184830182015201611c7f565b600435906001600160a01b038216820361024e57565b602435906001600160a01b038216820361024e57565b9181601f8401121561024e578235916001600160401b03831161024e576020838186019501011161024e57565b606090600319011261024e576001600160a01b0390600435828116810361024e5791602435908116810361024e579060443590565b604090600319011261024e576004356001600160a01b038116810361024e5790602435801515810361024e5790565b60e081019081106001600160401b0382111761149557604052565b606081019081106001600160401b0382111761149557604052565b602081019081106001600160401b0382111761149557604052565b90601f801991011681019081106001600160401b0382111761149557604052565b6001600160401b03811161149557601f01601f191660200190565b929192611e0a82611de3565b91611e186040519384611dc2565b82948184528183011161024e578281602093846000960137010152565b600b546001600160a01b03163303611e4957565b606460405162461bcd60e51b815260206004820152602060248201527f4f776e61626c653a2063616c6c6572206973206e6f7420746865206f776e65726044820152fd5b6001600160a01b03168015611ead57600052600360205260406000205490565b60405162461bcd60e51b815260206004820152602960248201527f4552433732313a2061646472657373207a65726f206973206e6f7420612076616044820152683634b21037bbb732b960b91b6064820152608490fd5b15611f0b57565b60405162461bcd60e51b815260206004820152601860248201527f4552433732313a20696e76616c696420746f6b656e20494400000000000000006044820152606490fd5b6000908152600260205260409020546001600160a01b0316611f73811515611f04565b90565b90600182811c92168015611fa6575b6020831014611f9057565b634e487b7160e01b600052602260045260246000fd5b91607f1691611f85565b9060405191826000825492611fc484611f76565b9081845260019485811690816000146120335750600114611ff0575b5050611fee92500383611dc2565b565b9093915060005260209081600020936000915b81831061201b575050611fee93508201013880611fe0565b85548884018501529485019487945091830191612003565b915050611fee94506020925060ff191682840152151560051b8201013880611fe0565b600081815260026020526040902054612079906001600160a01b03161515611f04565b6000908152600460205260409020546001600160a01b031690565b1561209b57565b60405162461bcd60e51b815260206004820152602d60248201527f4552433732313a2063616c6c6572206973206e6f7420746f6b656e206f776e6560448201526c1c881bdc88185c1c1c9bdd9959609a1b6064820152608490fd5b60809060208152603260208201527f4552433732313a207472616e7366657220746f206e6f6e20455243373231526560408201527131b2b4bb32b91034b6b83632b6b2b73a32b960711b60608201520190565b1561215057565b60405162461bcd60e51b815280612169600482016120f6565b0390fd5b906001600160a01b03808061218184611f50565b169316918383149384156121b4575b50831561219e575b50505090565b6121aa91929350612056565b1614388080612198565b909350600052600560205260406000208260005260205260ff604060002054169238612190565b156121e257565b60405162461bcd60e51b815260206004820152602560248201527f4552433732313a207472616e736665722066726f6d20696e636f72726563742060448201526437bbb732b960d91b6064820152608490fd5b6122599161224284611f50565b6001600160a01b03938484169391851684146121db565b8382169384156123f45783918261235157506122a39260095487600052600a60205260406000205561228a876125f0565b82860361231e575b5061229c86611f50565b16146121db565b7fddf252ad1be2c89b69c2b068fc378daa952ba7f163c4a11628f55a4df523b3ef60008481526004602052604081206001600160601b0360a01b9081815416905583825260036020526040822060001981540190558482526040822060018154019055858252600260205284604083209182541617905580a4565b61232790611e8d565b60406000878152600760205281812083825260205288828220558881526008602052205538612292565b858303612363575b506122a39261228a565b61236e919250611e8d565b60001981019190821161035e576122a392849260009088825260209060088252604091828420548281036123bd575b508a84528383812055868452600781528284209184525281205592612359565b878552600782528385208386528252838520548886526007835284862082875283528085872055855260088252838520553861239d565b60405162461bcd60e51b8152602060048201526024808201527f4552433732313a207472616e7366657220746f20746865207a65726f206164646044820152637265737360e01b6064820152608490fd5b9192600092909190803b1561255b57612493946040518092630a85bd0160e11b9485835233600484015287602484015260448301526080606483015281878160209a8b966084830190611c74565b03926001600160a01b03165af1849181612517575b50612506575050503d6000146124fe573d6124c281611de3565b906124d06040519283611dc2565b81528091833d92013e5b805191826124fb5760405162461bcd60e51b815280612169600482016120f6565b01fd5b5060606124da565b6001600160e01b0319161492509050565b9091508581813d8311612554575b61252f8183611dc2565b8101031261255057516001600160e01b0319811681036125505790386124a8565b8480fd5b503d612525565b5050915050600190565b9293600093909291803b156125e5579484916125bf9660405180948193630a85bd0160e11b9788845233600485015260018060a01b0380921660248501526044840152608060648401528260209b8c976084830190611c74565b0393165af18491816125175750612506575050503d6000146124fe573d6124c281611de3565b505050915050600190565b600954600160401b81101561149557600181018060095581101561147f5760096000527f6e1540171b6c0c960b71a7020d9f60077f6af931a8bbf590da0223dacf75c7af0155565b908060209392818452848401376000828201840152601f01601f1916010190565b1561266057565b60405162461bcd60e51b815260206004820152601c60248201527f4552433732313a20746f6b656e20616c7265616479206d696e746564000000006044820152606490fd5b156126ac57565b60405162461bcd60e51b8152602060048201526014602482015273151bdad95b88191bd95cc81b9bdd08195e1a5cdd60621b6044820152606490fd5b6000818152600260205260409020549091906001600160a01b0316156127335761271182611f50565b6001600160a01b0382811691161461272c57611f7391612778565b5050600190565b5050600090565b1561274157565b60405162461bcd60e51b815260206004820152600f60248201526e2737ba103a37b5b2b71037bbb732b960891b6044820152606490fd5b90604091600052600f6020528160002060018060a01b0380921660005260205281600020908251906127a982611d8c565b825416815260ff600260018401549384602085015201541615159283910152816127d1575090565b905042109056fea264697066735822122054789bd26a50a5fef4aa5beab95f391a88eff948cd42caff158db892419cedce64736f6c63430008130033","opcodes":"PUSH1 0x80 CALLVALUE PUSH3 0x371 JUMPI PUSH1 0x1 PUSH1 0x1 PUSH1 0x40 SHL SUB SWAP1 PUSH1 0x40 SWAP1 DUP1 DUP3 ADD DUP4 DUP2 GT DUP3 DUP3 LT OR PUSH3 0x35B JUMPI DUP3 MSTORE PUSH1 0x11 DUP2 MSTORE PUSH1 0x20 SWAP2 PUSH17 0x48656C69785661756C742047656E6F6D65 PUSH1 0x78 SHL DUP4 DUP4 ADD MSTORE DUP1 MLOAD SWAP4 DUP2 DUP6 ADD DUP6 DUP2 LT DUP3 DUP3 GT OR PUSH3 0x35B JUMPI DUP3 MSTORE PUSH1 0x5 DUP6 MSTORE PUSH5 0x908A9892B PUSH1 0xDB SHL DUP5 DUP7 ADD MSTORE DUP3 MLOAD DUP2 DUP2 GT PUSH3 0x35B JUMPI PUSH1 0x0 SWAP5 DUP6 SLOAD SWAP2 PUSH1 0x1 SWAP6 DUP7 DUP5 DUP2 SHR SWAP5 AND DUP1 ISZERO PUSH3 0x350 JUMPI JUMPDEST DUP4 DUP6 LT EQ PUSH3 0x33C JUMPI DUP2 SWAP1 PUSH1 0x1F SWAP5 DUP6 DUP2 GT PUSH3 0x2E9 JUMPI JUMPDEST POP DUP4 SWAP1 DUP6 DUP4 GT PUSH1 0x1 EQ PUSH3 0x285 JUMPI DUP10 SWAP3 PUSH3 0x279 JUMPI JUMPDEST POP POP PUSH1 0x0 NOT PUSH1 0x3 DUP4 SWAP1 SHL SHR NOT AND SWAP1 DUP7 SHL OR DUP7 SSTORE JUMPDEST DUP7 MLOAD SWAP3 DUP4 GT PUSH3 0x265 JUMPI DUP5 SLOAD DUP6 DUP2 DUP2 SHR SWAP2 AND DUP1 ISZERO PUSH3 0x25A JUMPI JUMPDEST DUP3 DUP3 LT EQ PUSH3 0x246 JUMPI DUP3 DUP2 GT PUSH3 0x1FE JUMPI JUMPDEST POP DUP1 SWAP2 DUP4 GT PUSH1 0x1 EQ PUSH3 0x195 JUMPI POP DUP5 SWAP6 DUP3 SWAP4 SWAP5 SWAP6 SWAP3 PUSH3 0x189 JUMPI JUMPDEST POP POP PUSH1 0x0 NOT PUSH1 0x3 DUP4 SWAP1 SHL SHR NOT AND SWAP1 DUP4 SHL OR DUP3 SSTORE JUMPDEST PUSH1 0xB DUP1 SLOAD CALLER PUSH1 0x1 PUSH1 0x1 PUSH1 0xA0 SHL SUB NOT DUP3 AND DUP2 OR SWAP1 SWAP3 SSTORE SWAP2 MLOAD SWAP4 SWAP1 SWAP2 PUSH1 0x1 PUSH1 0x1 PUSH1 0xA0 SHL SUB AND SWAP1 PUSH32 0x8BE0079C531659141344CD1FD0A4F28419497F9722A3DAAFE3B4186F6B6457E0 SWAP1 DUP1 LOG3 PUSH1 0xC SSTORE PUSH7 0x38D7EA4C68000 PUSH1 0x12 SSTORE PUSH2 0x280E SWAP1 DUP2 PUSH3 0x377 DUP3 CODECOPY RETURN JUMPDEST ADD MLOAD SWAP1 POP CODESIZE DUP1 PUSH3 0x112 JUMP JUMPDEST SWAP1 PUSH1 0x1F NOT DUP4 AND SWAP7 DUP6 DUP8 MSTORE DUP3 DUP8 KECCAK256 SWAP3 DUP8 SWAP1 JUMPDEST DUP10 DUP3 LT PUSH3 0x1E6 JUMPI POP POP DUP4 DUP7 SWAP8 SWAP9 SWAP7 SWAP6 SWAP7 LT PUSH3 0x1CC JUMPI JUMPDEST POP POP POP DUP2 SHL ADD DUP3 SSTORE PUSH3 0x126 JUMP JUMPDEST ADD MLOAD PUSH1 0x0 NOT PUSH1 0xF8 DUP5 PUSH1 0x3 SHL AND SHR NOT AND SWAP1 SSTORE CODESIZE DUP1 DUP1 PUSH3 0x1BE JUMP JUMPDEST DUP1 DUP9 DUP6 SWAP7 DUP3 SWAP5 SWAP7 DUP7 ADD MLOAD DUP2 SSTORE ADD SWAP6 ADD SWAP4 ADD SWAP1 PUSH3 0x1A6 JUMP JUMPDEST DUP6 DUP8 MSTORE DUP2 DUP8 KECCAK256 DUP4 DUP1 DUP7 ADD PUSH1 0x5 SHR DUP3 ADD SWAP3 DUP5 DUP8 LT PUSH3 0x23C JUMPI JUMPDEST ADD PUSH1 0x5 SHR ADD SWAP1 DUP7 SWAP1 JUMPDEST DUP3 DUP2 LT PUSH3 0x230 JUMPI POP POP PUSH3 0xF7 JUMP JUMPDEST DUP9 DUP2 SSTORE ADD DUP7 SWAP1 PUSH3 0x220 JUMP JUMPDEST SWAP3 POP DUP2 SWAP3 PUSH3 0x217 JUMP JUMPDEST PUSH4 0x4E487B71 PUSH1 0xE0 SHL DUP8 MSTORE PUSH1 0x22 PUSH1 0x4 MSTORE PUSH1 0x24 DUP8 REVERT JUMPDEST SWAP1 PUSH1 0x7F AND SWAP1 PUSH3 0xE5 JUMP JUMPDEST PUSH4 0x4E487B71 PUSH1 0xE0 SHL DUP7 MSTORE PUSH1 0x41 PUSH1 0x4 MSTORE PUSH1 0x24 DUP7 REVERT JUMPDEST ADD MLOAD SWAP1 POP CODESIZE DUP1 PUSH3 0xB7 JUMP JUMPDEST DUP10 DUP1 MSTORE DUP5 DUP11 KECCAK256 DUP10 SWAP5 POP SWAP2 SWAP1 PUSH1 0x1F NOT DUP5 AND DUP12 JUMPDEST DUP8 DUP3 DUP3 LT PUSH3 0x2D2 JUMPI POP POP DUP5 GT PUSH3 0x2B8 JUMPI JUMPDEST POP POP POP DUP2 SHL ADD DUP7 SSTORE PUSH3 0xCB JUMP JUMPDEST ADD MLOAD PUSH1 0x0 NOT PUSH1 0xF8 DUP5 PUSH1 0x3 SHL AND SHR NOT AND SWAP1 SSTORE CODESIZE DUP1 DUP1 PUSH3 0x2AA JUMP JUMPDEST DUP4 DUP6 ADD MLOAD DUP7 SSTORE DUP13 SWAP8 SWAP1 SWAP6 ADD SWAP5 SWAP4 DUP5 ADD SWAP4 ADD PUSH3 0x297 JUMP JUMPDEST SWAP1 SWAP2 POP DUP9 DUP1 MSTORE DUP4 DUP10 KECCAK256 DUP6 DUP1 DUP6 ADD PUSH1 0x5 SHR DUP3 ADD SWAP3 DUP7 DUP7 LT PUSH3 0x332 JUMPI JUMPDEST SWAP2 DUP11 SWAP2 DUP7 SWAP6 SWAP5 SWAP4 ADD PUSH1 0x5 SHR ADD SWAP2 JUMPDEST DUP3 DUP2 LT PUSH3 0x323 JUMPI POP POP PUSH3 0xA1 JUMP JUMPDEST DUP12 DUP2 SSTORE DUP6 SWAP5 POP DUP11 SWAP2 ADD PUSH3 0x313 JUMP JUMPDEST SWAP3 POP DUP2 SWAP3 PUSH3 0x305 JUMP JUMPDEST PUSH4 0x4E487B71 PUSH1 0xE0 SHL DUP9 MSTORE PUSH1 0x22 PUSH1 0x4 MSTORE PUSH1 0x24 DUP9 REVERT JUMPDEST SWAP4 PUSH1 0x7F AND SWAP4 PUSH3 0x8A JUMP JUMPDEST PUSH4 0x4E487B71 PUSH1 0xE0 SHL PUSH1 0x0 MSTORE PUSH1 0x41 PUSH1 0x4 MSTORE PUSH1 0x24 PUSH1 0x0 REVERT JUMPDEST PUSH1 0x0 DUP1 REVERT INVALID PUSH1 0x80 DUP1 PUSH1 0x40 MSTORE PUSH1 0x4 CALLDATASIZE LT ISZERO PUSH2 0x13 JUMPI PUSH1 0x0 DUP1 REVERT JUMPDEST PUSH1 0x0 CALLDATALOAD PUSH1 0xE0 SHR SWAP1 DUP2 PUSH4 0x1FFC9A7 EQ PUSH2 0x1BD5 JUMPI POP DUP1 PUSH4 0x6FDDE03 EQ PUSH2 0x1B32 JUMPI DUP1 PUSH4 0x81812FC EQ PUSH2 0x1B14 JUMPI DUP1 PUSH4 0x95EA7B3 EQ PUSH2 0x199A JUMPI DUP1 PUSH4 0x13966DB5 EQ PUSH2 0x197C JUMPI DUP1 PUSH4 0x18160DDD EQ PUSH2 0x195E JUMPI DUP1 PUSH4 0x1FB16F10 EQ PUSH2 0xF61 JUMPI DUP1 PUSH4 0x23B872DD EQ PUSH2 0xF3D JUMPI DUP1 PUSH4 0x2B9C91B3 EQ PUSH2 0xEB2 JUMPI DUP1 PUSH4 0x2DC19EC8 EQ PUSH2 0xE42 JUMPI DUP1 PUSH4 0x2F745C59 EQ PUSH2 0xD90 JUMPI DUP1 PUSH4 0x3CCFD60B EQ PUSH2 0xD40 JUMPI DUP1 PUSH4 0x42842E0E EQ PUSH2 0xD0D JUMPI DUP1 PUSH4 0x4F6CCCE7 EQ PUSH2 0xC62 JUMPI DUP1 PUSH4 0x6352211E EQ PUSH2 0xC32 JUMPI DUP1 PUSH4 0x69357F4E EQ PUSH2 0xADC JUMPI DUP1 PUSH4 0x70A08231 EQ PUSH2 0xAB1 JUMPI DUP1 PUSH4 0x715018A6 EQ PUSH2 0xA54 JUMPI DUP1 PUSH4 0x87884E85 EQ PUSH2 0xA24 JUMPI DUP1 PUSH4 0x89E0465B EQ PUSH2 0x9CE JUMPI DUP1 PUSH4 0x8DA5CB5B EQ PUSH2 0x9A5 JUMPI DUP1 PUSH4 0x95D89B41 EQ PUSH2 0x8C6 JUMPI DUP1 PUSH4 0x9754F69B EQ PUSH2 0x887 JUMPI DUP1 PUSH4 0xA22CB465 EQ PUSH2 0x7C2 JUMPI DUP1 PUSH4 0xB88D4FDE EQ PUSH2 0x73B JUMPI DUP1 PUSH4 0xBAA0B46B EQ PUSH2 0x6CF JUMPI DUP1 PUSH4 0xC085E705 EQ PUSH2 0x596 JUMPI DUP1 PUSH4 0xC87B56DD EQ PUSH2 0x520 JUMPI DUP1 PUSH4 0xD9D61655 EQ PUSH2 0x46C JUMPI DUP1 PUSH4 0xE985E9C5 EQ PUSH2 0x416 JUMPI DUP1 PUSH4 0xEDDD0D9C EQ PUSH2 0x3F5 JUMPI DUP1 PUSH4 0xF07679F9 EQ PUSH2 0x253 JUMPI PUSH4 0xF2FDE38B EQ PUSH2 0x18A JUMPI PUSH1 0x0 DUP1 REVERT JUMPDEST CALLVALUE PUSH2 0x24E JUMPI PUSH1 0x20 CALLDATASIZE PUSH1 0x3 NOT ADD SLT PUSH2 0x24E JUMPI PUSH2 0x1A3 PUSH2 0x1CB4 JUMP JUMPDEST PUSH2 0x1AB PUSH2 0x1E35 JUMP JUMPDEST PUSH1 0x1 PUSH1 0x1 PUSH1 0xA0 SHL SUB SWAP1 DUP2 AND SWAP1 DUP2 ISZERO PUSH2 0x1FA JUMPI PUSH1 0xB SLOAD DUP3 PUSH1 0x1 PUSH1 0x1 PUSH1 0x60 SHL SUB PUSH1 0xA0 SHL DUP3 AND OR PUSH1 0xB SSTORE AND PUSH32 0x8BE0079C531659141344CD1FD0A4F28419497F9722A3DAAFE3B4186F6B6457E0 PUSH1 0x0 DUP1 LOG3 STOP JUMPDEST PUSH1 0x40 MLOAD PUSH3 0x461BCD PUSH1 0xE5 SHL DUP2 MSTORE PUSH1 0x20 PUSH1 0x4 DUP3 ADD MSTORE PUSH1 0x26 PUSH1 0x24 DUP3 ADD MSTORE PUSH32 0x4F776E61626C653A206E6577206F776E657220697320746865207A65726F2061 PUSH1 0x44 DUP3 ADD MSTORE PUSH6 0x646472657373 PUSH1 0xD0 SHL PUSH1 0x64 DUP3 ADD MSTORE PUSH1 0x84 SWAP1 REVERT JUMPDEST PUSH1 0x0 DUP1 REVERT JUMPDEST CALLVALUE PUSH2 0x24E JUMPI PUSH1 0x60 CALLDATASIZE PUSH1 0x3 NOT ADD SLT PUSH2 0x24E JUMPI PUSH1 0x4 CALLDATALOAD PUSH2 0x26F PUSH2 0x1CCA JUMP JUMPDEST SWAP1 PUSH2 0x295 PUSH1 0x44 CALLDATALOAD SWAP3 PUSH2 0x280 DUP4 PUSH2 0x1F50 JUMP JUMPDEST PUSH1 0x1 PUSH1 0x1 PUSH1 0xA0 SHL SUB SWAP3 DUP4 SWAP3 SWAP2 DUP4 AND CALLER EQ PUSH2 0x273A JUMP JUMPDEST AND SWAP3 DUP4 PUSH1 0x0 MSTORE PUSH1 0x20 SWAP1 PUSH1 0x11 DUP3 MSTORE PUSH1 0xFF PUSH1 0x40 PUSH1 0x0 KECCAK256 SLOAD AND ISZERO PUSH2 0x3B9 JUMPI DUP1 ISZERO ISZERO DUP1 PUSH2 0x3AC JUMPI JUMPDEST ISZERO PUSH2 0x374 JUMPI TIMESTAMP ADD DUP1 TIMESTAMP GT PUSH2 0x35E JUMPI PUSH2 0x355 PUSH32 0x4C5A8C27A4B5D1E1F99BABBB397591032D6BCBECADFA1CF89214CCF69DED111B SWAP4 PUSH1 0x2 PUSH1 0x40 MLOAD SWAP2 PUSH2 0x2FB DUP4 PUSH2 0x1D8C JUMP JUMPDEST DUP9 DUP4 MSTORE DUP6 DUP4 ADD DUP6 DUP2 MSTORE PUSH1 0x40 DUP5 ADD SWAP2 PUSH1 0x1 DUP4 MSTORE DUP10 PUSH1 0x0 MSTORE PUSH1 0xF DUP9 MSTORE PUSH1 0x40 PUSH1 0x0 KECCAK256 DUP12 PUSH1 0x0 MSTORE DUP9 MSTORE PUSH1 0x40 PUSH1 0x0 KECCAK256 SWAP5 MLOAD AND PUSH1 0x1 PUSH1 0x1 PUSH1 0x60 SHL SUB PUSH1 0xA0 SHL DUP6 SLOAD AND OR DUP5 SSTORE MLOAD PUSH1 0x1 DUP5 ADD SSTORE MLOAD ISZERO ISZERO SWAP2 ADD SWAP1 PUSH1 0xFF DUP1 NOT DUP4 SLOAD AND SWAP2 ISZERO ISZERO AND OR SWAP1 SSTORE JUMP JUMPDEST PUSH1 0x40 MLOAD SWAP1 DUP2 MSTORE LOG3 STOP JUMPDEST PUSH4 0x4E487B71 PUSH1 0xE0 SHL PUSH1 0x0 MSTORE PUSH1 0x11 PUSH1 0x4 MSTORE PUSH1 0x24 PUSH1 0x0 REVERT JUMPDEST PUSH1 0x40 MLOAD PUSH3 0x461BCD PUSH1 0xE5 SHL DUP2 MSTORE PUSH1 0x4 DUP2 ADD DUP4 SWAP1 MSTORE PUSH1 0x10 PUSH1 0x24 DUP3 ADD MSTORE PUSH16 0x24B73B30B634B210323AB930BA34B7B7 PUSH1 0x81 SHL PUSH1 0x44 DUP3 ADD MSTORE PUSH1 0x64 SWAP1 REVERT JUMPDEST POP PUSH3 0x15180 DUP2 GT ISZERO PUSH2 0x2B9 JUMP JUMPDEST PUSH1 0x40 MLOAD PUSH3 0x461BCD PUSH1 0xE5 SHL DUP2 MSTORE PUSH1 0x4 DUP2 ADD DUP4 SWAP1 MSTORE PUSH1 0x14 PUSH1 0x24 DUP3 ADD MSTORE PUSH20 0x1059D95B9D081A5CC81B9BDD081D1C9D5CDD1959 PUSH1 0x62 SHL PUSH1 0x44 DUP3 ADD MSTORE PUSH1 0x64 SWAP1 REVERT JUMPDEST CALLVALUE PUSH2 0x24E JUMPI PUSH1 0x20 CALLDATASIZE PUSH1 0x3 NOT ADD SLT PUSH2 0x24E JUMPI PUSH2 0x40E PUSH2 0x1E35 JUMP JUMPDEST PUSH1 0x4 CALLDATALOAD PUSH1 0x12 SSTORE STOP JUMPDEST CALLVALUE PUSH2 0x24E JUMPI PUSH1 0x40 CALLDATASIZE PUSH1 0x3 NOT ADD SLT PUSH2 0x24E JUMPI PUSH2 0x42F PUSH2 0x1CB4 JUMP JUMPDEST PUSH2 0x437 PUSH2 0x1CCA JUMP JUMPDEST SWAP1 PUSH1 0x1 DUP1 PUSH1 0xA0 SHL SUB DUP1 SWAP2 AND PUSH1 0x0 MSTORE PUSH1 0x5 PUSH1 0x20 MSTORE PUSH1 0x40 PUSH1 0x0 KECCAK256 SWAP2 AND PUSH1 0x0 MSTORE PUSH1 0x20 MSTORE PUSH1 0x20 PUSH1 0xFF PUSH1 0x40 PUSH1 0x0 KECCAK256 SLOAD AND PUSH1 0x40 MLOAD SWAP1 ISZERO ISZERO DUP2 MSTORE RETURN JUMPDEST CALLVALUE PUSH2 0x24E JUMPI PUSH1 0x20 DUP1 PUSH1 0x3 NOT CALLDATASIZE ADD SLT PUSH2 0x24E JUMPI PUSH1 0x1 PUSH1 0x1 PUSH1 0xA0 SHL SUB PUSH2 0x48E PUSH2 0x1CB4 JUMP JUMPDEST AND PUSH1 0x0 MSTORE PUSH1 0x10 DUP2 MSTORE PUSH1 0x40 PUSH1 0x0 KECCAK256 PUSH1 0x40 MLOAD SWAP1 DUP2 DUP4 DUP3 SLOAD SWAP2 DUP3 DUP2 MSTORE ADD SWAP1 DUP2 SWAP3 PUSH1 0x0 MSTORE DUP5 PUSH1 0x0 KECCAK256 SWAP1 PUSH1 0x0 JUMPDEST DUP7 DUP3 DUP3 LT PUSH2 0x50C JUMPI DUP7 DUP7 PUSH2 0x4CC DUP3 DUP9 SUB DUP4 PUSH2 0x1DC2 JUMP JUMPDEST PUSH1 0x40 MLOAD SWAP3 DUP4 SWAP3 DUP2 DUP5 ADD SWAP1 DUP3 DUP6 MSTORE MLOAD DUP1 SWAP2 MSTORE PUSH1 0x40 DUP5 ADD SWAP3 SWAP2 PUSH1 0x0 JUMPDEST DUP3 DUP2 LT PUSH2 0x4F5 JUMPI POP POP POP POP SUB SWAP1 RETURN JUMPDEST DUP4 MLOAD DUP6 MSTORE DUP7 SWAP6 POP SWAP4 DUP2 ADD SWAP4 SWAP3 DUP2 ADD SWAP3 PUSH1 0x1 ADD PUSH2 0x4E6 JUMP JUMPDEST DUP4 SLOAD DUP6 MSTORE SWAP1 SWAP4 ADD SWAP3 PUSH1 0x1 SWAP3 DUP4 ADD SWAP3 ADD PUSH2 0x4B6 JUMP JUMPDEST CALLVALUE PUSH2 0x24E JUMPI PUSH1 0x20 CALLDATASIZE PUSH1 0x3 NOT ADD SLT PUSH2 0x24E JUMPI PUSH1 0x4 CALLDATALOAD PUSH1 0x0 DUP2 DUP2 MSTORE PUSH1 0x2 PUSH1 0x20 MSTORE PUSH1 0x40 SWAP1 KECCAK256 SLOAD PUSH2 0x557 SWAP1 PUSH1 0x1 PUSH1 0x1 PUSH1 0xA0 SHL SUB AND ISZERO ISZERO PUSH2 0x1F04 JUMP JUMPDEST PUSH1 0x0 MSTORE PUSH1 0x6 PUSH1 0x20 MSTORE PUSH2 0x592 PUSH2 0x56F PUSH1 0x40 PUSH1 0x0 KECCAK256 PUSH2 0x1FB0 JUMP JUMPDEST PUSH1 0x0 PUSH1 0x40 MLOAD PUSH2 0x57D DUP2 PUSH2 0x1DA7 JUMP JUMPDEST MSTORE PUSH1 0x40 MLOAD SWAP2 DUP3 SWAP2 PUSH1 0x20 DUP4 MSTORE PUSH1 0x20 DUP4 ADD SWAP1 PUSH2 0x1C74 JUMP JUMPDEST SUB SWAP1 RETURN JUMPDEST CALLVALUE PUSH2 0x24E JUMPI PUSH1 0x20 DUP1 PUSH1 0x3 NOT CALLDATASIZE ADD SLT PUSH2 0x24E JUMPI PUSH1 0x4 CALLDATALOAD PUSH1 0x0 DUP2 DUP2 MSTORE PUSH1 0x2 PUSH1 0x20 MSTORE PUSH1 0x40 SWAP1 KECCAK256 SLOAD PUSH2 0x5D3 SWAP1 PUSH1 0x1 PUSH1 0x1 PUSH1 0xA0 SHL SUB AND ISZERO ISZERO PUSH2 0x26A5 JUMP JUMPDEST PUSH2 0x26A5 JUMP JUMPDEST PUSH2 0x5DC DUP2 PUSH2 0x1F50 JUMP JUMPDEST PUSH1 0x1 PUSH1 0x1 PUSH1 0xA0 SHL SUB AND CALLER EQ DUP1 ISZERO PUSH2 0x6BF JUMPI JUMPDEST ISZERO PUSH2 0x67A JUMPI DUP1 PUSH1 0x0 MSTORE PUSH1 0xE DUP3 MSTORE PUSH1 0xFF PUSH1 0x6 PUSH1 0x40 PUSH1 0x0 KECCAK256 ADD SLOAD AND ISZERO PUSH2 0x635 JUMPI PUSH1 0x0 MSTORE PUSH1 0xE DUP2 MSTORE PUSH2 0x620 PUSH1 0x40 PUSH1 0x0 KECCAK256 PUSH2 0x1FB0 JUMP JUMPDEST SWAP1 PUSH2 0x592 PUSH1 0x40 MLOAD SWAP3 DUP3 DUP5 SWAP4 DUP5 MSTORE DUP4 ADD SWAP1 PUSH2 0x1C74 JUMP JUMPDEST PUSH1 0x40 MLOAD PUSH3 0x461BCD PUSH1 0xE5 SHL DUP2 MSTORE PUSH1 0x4 DUP2 ADD DUP4 SWAP1 MSTORE PUSH1 0x1A PUSH1 0x24 DUP3 ADD MSTORE PUSH32 0x47656E6F6D652064617461206973206465616374697661746564000000000000 PUSH1 0x44 DUP3 ADD MSTORE PUSH1 0x64 SWAP1 REVERT JUMPDEST PUSH1 0x40 MLOAD PUSH3 0x461BCD PUSH1 0xE5 SHL DUP2 MSTORE PUSH1 0x4 DUP2 ADD DUP4 SWAP1 MSTORE PUSH1 0x1D PUSH1 0x24 DUP3 ADD MSTORE PUSH32 0x4E6F7420617574686F72697A656420746F206163636573732064617461000000 PUSH1 0x44 DUP3 ADD MSTORE PUSH1 0x64 SWAP1 REVERT JUMPDEST POP PUSH2 0x6CA CALLER DUP3 PUSH2 0x2778 JUMP JUMPDEST PUSH2 0x5EE JUMP JUMPDEST CALLVALUE PUSH2 0x24E JUMPI PUSH1 0x20 PUSH32 0xB79006C11BA71C59F37A939FD5B717C19B04EB056694B3674099A80694DDC4D2 PUSH2 0x700 CALLDATASIZE PUSH2 0x1D42 JUMP JUMPDEST SWAP3 SWAP1 PUSH2 0x70A PUSH2 0x1E35 JUMP JUMPDEST PUSH1 0x1 PUSH1 0x1 PUSH1 0xA0 SHL SUB AND PUSH1 0x0 DUP2 DUP2 MSTORE PUSH1 0x11 DUP4 MSTORE PUSH1 0x40 SWAP1 KECCAK256 DUP1 SLOAD PUSH1 0xFF NOT AND PUSH1 0xFF DUP7 ISZERO ISZERO AND OR SWAP1 SSTORE SWAP3 PUSH1 0x40 MLOAD SWAP1 ISZERO ISZERO DUP2 MSTORE LOG2 STOP JUMPDEST CALLVALUE PUSH2 0x24E JUMPI PUSH1 0x80 CALLDATASIZE PUSH1 0x3 NOT ADD SLT PUSH2 0x24E JUMPI PUSH2 0x754 PUSH2 0x1CB4 JUMP JUMPDEST PUSH2 0x75C PUSH2 0x1CCA JUMP JUMPDEST SWAP1 PUSH1 0x64 CALLDATALOAD SWAP1 PUSH1 0x44 CALLDATALOAD PUSH1 0x1 PUSH1 0x1 PUSH1 0x40 SHL SUB DUP4 GT PUSH2 0x24E JUMPI CALLDATASIZE PUSH1 0x23 DUP5 ADD SLT ISZERO PUSH2 0x24E JUMPI PUSH2 0x7C0 SWAP4 PUSH2 0x798 PUSH2 0x7BB SWAP5 CALLDATASIZE SWAP1 PUSH1 0x24 DUP2 PUSH1 0x4 ADD CALLDATALOAD SWAP2 ADD PUSH2 0x1DFE JUMP JUMPDEST SWAP3 PUSH2 0x7AB PUSH2 0x7A6 DUP5 CALLER PUSH2 0x216D JUMP JUMPDEST PUSH2 0x2094 JUMP JUMPDEST PUSH2 0x7B6 DUP4 DUP4 DUP4 PUSH2 0x2235 JUMP JUMPDEST PUSH2 0x2565 JUMP JUMPDEST PUSH2 0x2149 JUMP JUMPDEST STOP JUMPDEST CALLVALUE PUSH2 0x24E JUMPI PUSH2 0x7D0 CALLDATASIZE PUSH2 0x1D42 JUMP JUMPDEST PUSH1 0x1 PUSH1 0x1 PUSH1 0xA0 SHL SUB SWAP1 SWAP2 AND SWAP1 CALLER DUP3 EQ PUSH2 0x842 JUMPI CALLER PUSH1 0x0 MSTORE PUSH1 0x5 PUSH1 0x20 MSTORE PUSH1 0x40 PUSH1 0x0 KECCAK256 DUP3 PUSH1 0x0 MSTORE PUSH1 0x20 MSTORE PUSH2 0x812 DUP2 PUSH1 0x40 PUSH1 0x0 KECCAK256 SWAP1 PUSH1 0xFF DUP1 NOT DUP4 SLOAD AND SWAP2 ISZERO ISZERO AND OR SWAP1 SSTORE JUMP JUMPDEST PUSH1 0x40 MLOAD SWAP1 ISZERO ISZERO DUP2 MSTORE PUSH32 0x17307EAB39AB6107E8899845AD3D59BD9653F200F220920489CA2B5937696C31 PUSH1 0x20 CALLER SWAP3 LOG3 STOP JUMPDEST PUSH1 0x40 MLOAD PUSH3 0x461BCD PUSH1 0xE5 SHL DUP2 MSTORE PUSH1 0x20 PUSH1 0x4 DUP3 ADD MSTORE PUSH1 0x19 PUSH1 0x24 DUP3 ADD MSTORE PUSH32 0x4552433732313A20617070726F766520746F2063616C6C657200000000000000 PUSH1 0x44 DUP3 ADD MSTORE PUSH1 0x64 SWAP1 REVERT JUMPDEST CALLVALUE PUSH2 0x24E JUMPI PUSH1 0x20 CALLDATASIZE PUSH1 0x3 NOT ADD SLT PUSH2 0x24E JUMPI PUSH1 0x1 PUSH1 0x1 PUSH1 0xA0 SHL SUB PUSH2 0x8A8 PUSH2 0x1CB4 JUMP JUMPDEST AND PUSH1 0x0 MSTORE PUSH1 0x11 PUSH1 0x20 MSTORE PUSH1 0x20 PUSH1 0xFF PUSH1 0x40 PUSH1 0x0 KECCAK256 SLOAD AND PUSH1 0x40 MLOAD SWAP1 ISZERO ISZERO DUP2 MSTORE RETURN JUMPDEST CALLVALUE PUSH2 0x24E JUMPI PUSH1 0x0 CALLDATASIZE PUSH1 0x3 NOT ADD SLT PUSH2 0x24E JUMPI PUSH1 0x40 MLOAD PUSH1 0x0 PUSH1 0x1 DUP1 SLOAD SWAP1 PUSH2 0x8EA DUP3 PUSH2 0x1F76 JUMP JUMPDEST DUP1 DUP6 MSTORE SWAP2 DUP2 DUP2 AND SWAP1 DUP2 ISZERO PUSH2 0x97E JUMPI POP PUSH1 0x1 EQ PUSH2 0x925 JUMPI JUMPDEST PUSH2 0x592 DUP5 PUSH2 0x911 DUP2 DUP7 SUB DUP3 PUSH2 0x1DC2 JUMP JUMPDEST PUSH1 0x40 MLOAD SWAP2 DUP3 SWAP2 PUSH1 0x20 DUP4 MSTORE PUSH1 0x20 DUP4 ADD SWAP1 PUSH2 0x1C74 JUMP JUMPDEST PUSH1 0x0 DUP2 DUP2 MSTORE SWAP3 POP PUSH32 0xB10E2D527612073B26EECDFD717E6A320CF44B4AFAC2B0732D9FCBE2B7FA0CF6 JUMPDEST DUP3 DUP5 LT PUSH2 0x966 JUMPI POP POP POP DUP2 ADD PUSH1 0x20 ADD PUSH2 0x911 DUP3 PUSH2 0x901 JUMP JUMPDEST DUP1 SLOAD PUSH1 0x20 DUP6 DUP8 ADD DUP2 ADD SWAP2 SWAP1 SWAP2 MSTORE SWAP1 SWAP4 ADD SWAP3 DUP2 ADD PUSH2 0x94E JUMP JUMPDEST PUSH1 0xFF NOT AND PUSH1 0x20 DUP1 DUP8 ADD SWAP2 SWAP1 SWAP2 MSTORE SWAP3 ISZERO ISZERO PUSH1 0x5 SHL DUP6 ADD SWAP1 SWAP3 ADD SWAP3 POP PUSH2 0x911 SWAP2 POP DUP4 SWAP1 POP PUSH2 0x901 JUMP JUMPDEST CALLVALUE PUSH2 0x24E JUMPI PUSH1 0x0 CALLDATASIZE PUSH1 0x3 NOT ADD SLT PUSH2 0x24E JUMPI PUSH1 0xB SLOAD PUSH1 0x40 MLOAD PUSH1 0x1 PUSH1 0x1 PUSH1 0xA0 SHL SUB SWAP1 SWAP2 AND DUP2 MSTORE PUSH1 0x20 SWAP1 RETURN JUMPDEST CALLVALUE PUSH2 0x24E JUMPI PUSH1 0x40 CALLDATASIZE PUSH1 0x3 NOT ADD SLT PUSH2 0x24E JUMPI PUSH1 0x4 CALLDATALOAD PUSH1 0x0 DUP2 DUP2 MSTORE PUSH1 0x2 PUSH1 0x20 MSTORE PUSH1 0x40 SWAP1 KECCAK256 SLOAD PUSH2 0xA05 SWAP1 PUSH1 0x1 PUSH1 0x1 PUSH1 0xA0 SHL SUB AND ISZERO ISZERO PUSH2 0x26A5 JUMP JUMPDEST PUSH1 0x0 MSTORE PUSH1 0xE PUSH1 0x20 MSTORE PUSH1 0x20 PUSH1 0x24 CALLDATALOAD PUSH1 0x1 PUSH1 0x40 PUSH1 0x0 KECCAK256 ADD SLOAD EQ PUSH1 0x40 MLOAD SWAP1 DUP2 MSTORE RETURN JUMPDEST CALLVALUE PUSH2 0x24E JUMPI PUSH1 0x40 CALLDATASIZE PUSH1 0x3 NOT ADD SLT PUSH2 0x24E JUMPI PUSH1 0x20 PUSH2 0xA4A PUSH2 0xA42 PUSH2 0x1CCA JUMP JUMPDEST PUSH1 0x4 CALLDATALOAD PUSH2 0x26E8 JUMP JUMPDEST PUSH1 0x40 MLOAD SWAP1 ISZERO ISZERO DUP2 MSTORE RETURN JUMPDEST CALLVALUE PUSH2 0x24E JUMPI PUSH1 0x0 CALLDATASIZE PUSH1 0x3 NOT ADD SLT PUSH2 0x24E JUMPI PUSH2 0xA6D PUSH2 0x1E35 JUMP JUMPDEST PUSH1 0xB DUP1 SLOAD PUSH1 0x1 PUSH1 0x1 PUSH1 0xA0 SHL SUB NOT DUP2 AND SWAP1 SWAP2 SSTORE PUSH1 0x0 SWAP1 PUSH1 0x1 PUSH1 0x1 PUSH1 0xA0 SHL SUB AND PUSH32 0x8BE0079C531659141344CD1FD0A4F28419497F9722A3DAAFE3B4186F6B6457E0 DUP3 DUP1 LOG3 STOP JUMPDEST CALLVALUE PUSH2 0x24E JUMPI PUSH1 0x20 CALLDATASIZE PUSH1 0x3 NOT ADD SLT PUSH2 0x24E JUMPI PUSH1 0x20 PUSH2 0xAD4 PUSH2 0xACF PUSH2 0x1CB4 JUMP JUMPDEST PUSH2 0x1E8D JUMP JUMPDEST PUSH1 0x40 MLOAD SWAP1 DUP2 MSTORE RETURN JUMPDEST CALLVALUE PUSH2 0x24E JUMPI PUSH1 0x20 DUP1 PUSH1 0x3 NOT CALLDATASIZE ADD SLT PUSH2 0x24E JUMPI PUSH1 0x40 MLOAD SWAP1 PUSH1 0x4 CALLDATALOAD PUSH2 0xAFE DUP4 PUSH2 0x1D71 JUMP JUMPDEST PUSH1 0x0 PUSH1 0xC0 PUSH1 0x60 SWAP5 DUP6 DUP2 MSTORE DUP3 DUP6 DUP3 ADD MSTORE DUP6 PUSH1 0x40 DUP3 ADD MSTORE DUP6 DUP1 DUP3 ADD MSTORE DUP3 PUSH1 0x80 DUP3 ADD MSTORE DUP3 PUSH1 0xA0 DUP3 ADD MSTORE ADD MSTORE PUSH2 0xB48 PUSH2 0x5CE DUP3 PUSH1 0x0 MSTORE PUSH1 0x2 PUSH1 0x20 MSTORE PUSH1 0x1 DUP1 PUSH1 0xA0 SHL SUB PUSH1 0x40 PUSH1 0x0 KECCAK256 SLOAD AND ISZERO ISZERO SWAP1 JUMP JUMPDEST PUSH1 0x0 MSTORE PUSH1 0xE DUP2 MSTORE PUSH1 0x40 PUSH1 0x0 KECCAK256 PUSH1 0x40 MLOAD SWAP3 PUSH2 0xB61 DUP5 PUSH2 0x1D71 JUMP JUMPDEST PUSH2 0xB6A DUP3 PUSH2 0x1FB0 JUMP JUMPDEST DUP5 MSTORE PUSH1 0x1 DUP3 ADD SLOAD SWAP2 DUP4 DUP6 ADD SWAP3 DUP4 MSTORE PUSH2 0xC19 PUSH2 0xB87 PUSH1 0x2 DUP4 ADD PUSH2 0x1FB0 JUMP JUMPDEST SWAP3 PUSH1 0x40 DUP8 ADD SWAP4 DUP5 MSTORE PUSH2 0xB9B PUSH1 0x3 DUP5 ADD PUSH2 0x1FB0 JUMP JUMPDEST SWAP1 DUP1 DUP9 ADD SWAP2 DUP3 MSTORE PUSH2 0xC08 PUSH1 0x4 DUP6 ADD SLOAD SWAP7 PUSH1 0x80 DUP11 ADD SWAP8 DUP9 MSTORE PUSH1 0xFF PUSH1 0x6 PUSH1 0x5 DUP9 ADD SLOAD SWAP8 PUSH1 0xA0 DUP14 ADD SWAP9 DUP10 MSTORE ADD SLOAD AND SWAP7 PUSH1 0xC0 DUP12 ADD SWAP8 ISZERO ISZERO DUP9 MSTORE PUSH2 0xBEE DUP11 PUSH1 0xE0 PUSH1 0x40 MLOAD SWAP14 DUP15 SWAP14 DUP15 MSTORE MLOAD SWAP2 DUP14 ADD MSTORE PUSH2 0x100 DUP13 ADD SWAP1 PUSH2 0x1C74 JUMP JUMPDEST SWAP2 MLOAD PUSH1 0x40 DUP12 ADD MSTORE MLOAD PUSH1 0x1F NOT SWAP4 DUP5 DUP12 DUP5 SUB ADD SWAP1 DUP12 ADD MSTORE PUSH2 0x1C74 JUMP JUMPDEST SWAP2 MLOAD SWAP1 DUP8 DUP4 SUB ADD PUSH1 0x80 DUP9 ADD MSTORE PUSH2 0x1C74 JUMP JUMPDEST SWAP3 MLOAD PUSH1 0xA0 DUP6 ADD MSTORE MLOAD PUSH1 0xC0 DUP5 ADD MSTORE MLOAD ISZERO ISZERO PUSH1 0xE0 DUP4 ADD MSTORE SUB SWAP1 RETURN JUMPDEST CALLVALUE PUSH2 0x24E JUMPI PUSH1 0x20 CALLDATASIZE PUSH1 0x3 NOT ADD SLT PUSH2 0x24E JUMPI PUSH1 0x20 PUSH2 0xC50 PUSH1 0x4 CALLDATALOAD PUSH2 0x1F50 JUMP JUMPDEST PUSH1 0x40 MLOAD PUSH1 0x1 PUSH1 0x1 PUSH1 0xA0 SHL SUB SWAP1 SWAP2 AND DUP2 MSTORE RETURN JUMPDEST CALLVALUE PUSH2 0x24E JUMPI PUSH1 0x20 CALLDATASIZE PUSH1 0x3 NOT ADD SLT PUSH2 0x24E JUMPI PUSH1 0x4 CALLDATALOAD PUSH1 0x9 SLOAD DUP2 LT ISZERO PUSH2 0xCB3 JUMPI PUSH1 0x20 SWAP1 PUSH1 0x9 PUSH1 0x0 MSTORE PUSH32 0x6E1540171B6C0C960B71A7020D9F60077F6AF931A8BBF590DA0223DACF75C7AF ADD SLOAD PUSH1 0x40 MLOAD SWAP1 DUP2 MSTORE RETURN JUMPDEST PUSH1 0x40 MLOAD PUSH3 0x461BCD PUSH1 0xE5 SHL DUP2 MSTORE PUSH1 0x20 PUSH1 0x4 DUP3 ADD MSTORE PUSH1 0x2C PUSH1 0x24 DUP3 ADD MSTORE PUSH32 0x455243373231456E756D657261626C653A20676C6F62616C20696E646578206F PUSH1 0x44 DUP3 ADD MSTORE PUSH12 0x7574206F6620626F756E6473 PUSH1 0xA0 SHL PUSH1 0x64 DUP3 ADD MSTORE PUSH1 0x84 SWAP1 REVERT JUMPDEST CALLVALUE PUSH2 0x24E JUMPI PUSH2 0x7C0 PUSH2 0x7BB PUSH2 0xD21 CALLDATASIZE PUSH2 0x1D0D JUMP JUMPDEST SWAP1 PUSH1 0x40 MLOAD SWAP3 PUSH2 0xD2F DUP5 PUSH2 0x1DA7 JUMP JUMPDEST PUSH1 0x0 DUP5 MSTORE PUSH2 0x7AB PUSH2 0x7A6 DUP5 CALLER PUSH2 0x216D JUMP JUMPDEST CALLVALUE PUSH2 0x24E JUMPI PUSH1 0x0 CALLDATASIZE PUSH1 0x3 NOT ADD SLT PUSH2 0x24E JUMPI PUSH2 0xD59 PUSH2 0x1E35 JUMP JUMPDEST PUSH1 0x0 DUP1 DUP1 DUP1 PUSH1 0x1 DUP1 PUSH1 0xA0 SHL SUB PUSH1 0xB SLOAD AND SELFBALANCE SWAP1 DUP3 DUP3 ISZERO PUSH2 0xD87 JUMPI JUMPDEST CALL ISZERO PUSH2 0xD7B JUMPI STOP JUMPDEST PUSH1 0x40 MLOAD RETURNDATASIZE PUSH1 0x0 DUP3 RETURNDATACOPY RETURNDATASIZE SWAP1 REVERT JUMPDEST POP PUSH2 0x8FC PUSH2 0xD73 JUMP JUMPDEST CALLVALUE PUSH2 0x24E JUMPI PUSH1 0x40 CALLDATASIZE PUSH1 0x3 NOT ADD SLT PUSH2 0x24E JUMPI PUSH2 0xDA9 PUSH2 0x1CB4 JUMP JUMPDEST PUSH1 0x24 CALLDATALOAD SWAP1 PUSH2 0xDB6 DUP2 PUSH2 0x1E8D JUMP JUMPDEST DUP3 LT ISZERO PUSH2 0xDE9 JUMPI PUSH1 0x1 DUP1 PUSH1 0xA0 SHL SUB AND PUSH1 0x0 MSTORE PUSH1 0x7 PUSH1 0x20 MSTORE PUSH1 0x40 PUSH1 0x0 KECCAK256 SWAP1 PUSH1 0x0 MSTORE PUSH1 0x20 MSTORE PUSH1 0x20 PUSH1 0x40 PUSH1 0x0 KECCAK256 SLOAD PUSH1 0x40 MLOAD SWAP1 DUP2 MSTORE RETURN JUMPDEST PUSH1 0x40 MLOAD PUSH3 0x461BCD PUSH1 0xE5 SHL DUP2 MSTORE PUSH1 0x20 PUSH1 0x4 DUP3 ADD MSTORE PUSH1 0x2B PUSH1 0x24 DUP3 ADD MSTORE PUSH32 0x455243373231456E756D657261626C653A206F776E657220696E646578206F75 PUSH1 0x44 DUP3 ADD MSTORE PUSH11 0x74206F6620626F756E6473 PUSH1 0xA8 SHL PUSH1 0x64 DUP3 ADD MSTORE PUSH1 0x84 SWAP1 REVERT JUMPDEST CALLVALUE PUSH2 0x24E JUMPI PUSH1 0x20 CALLDATASIZE PUSH1 0x3 NOT ADD SLT PUSH2 0x24E JUMPI PUSH1 0x4 CALLDATALOAD PUSH2 0xE72 PUSH2 0xE62 DUP3 PUSH2 0x1F50 JUMP JUMPDEST PUSH1 0x1 PUSH1 0x1 PUSH1 0xA0 SHL SUB AND CALLER EQ PUSH2 0x273A JUMP JUMPDEST DUP1 PUSH1 0x0 MSTORE PUSH1 0xE PUSH1 0x20 MSTORE PUSH1 0x6 PUSH1 0x40 PUSH1 0x0 KECCAK256 ADD PUSH1 0xFF NOT DUP2 SLOAD AND SWAP1 SSTORE PUSH32 0x75EA8B448D1956BFEBCACF251544BC2ADFE8237A19A5829E6D07E819C230A29A PUSH1 0x0 DUP1 LOG2 STOP JUMPDEST CALLVALUE PUSH2 0x24E JUMPI PUSH1 0x40 CALLDATASIZE PUSH1 0x3 NOT ADD SLT PUSH2 0x24E JUMPI PUSH1 0x4 CALLDATALOAD PUSH2 0xECE PUSH2 0x1CCA JUMP JUMPDEST SWAP1 PUSH2 0xED8 DUP2 PUSH2 0x1F50 JUMP JUMPDEST PUSH1 0x1 PUSH1 0x1 PUSH1 0xA0 SHL SUB SWAP1 PUSH2 0xEEE SWAP1 DUP3 AND CALLER EQ PUSH2 0x273A JUMP JUMPDEST DUP2 PUSH1 0x0 MSTORE PUSH1 0xF PUSH1 0x20 MSTORE PUSH1 0x40 PUSH1 0x0 KECCAK256 SWAP3 AND SWAP2 DUP3 PUSH1 0x0 MSTORE PUSH1 0x20 MSTORE PUSH1 0x2 PUSH1 0x40 PUSH1 0x0 KECCAK256 ADD PUSH1 0xFF NOT DUP2 SLOAD AND SWAP1 SSTORE PUSH32 0xD5C930CD6AE2E2972C1991B8477BCF4D612ABEFA18A977AC1ABFAAE21DC4EED9 PUSH1 0x0 DUP1 LOG3 STOP JUMPDEST CALLVALUE PUSH2 0x24E JUMPI PUSH2 0x7C0 PUSH2 0xF4E CALLDATASIZE PUSH2 0x1D0D JUMP JUMPDEST SWAP2 PUSH2 0xF5C PUSH2 0x7A6 DUP5 CALLER PUSH2 0x216D JUMP JUMPDEST PUSH2 0x2235 JUMP JUMPDEST PUSH1 0xC0 CALLDATASIZE PUSH1 0x3 NOT ADD SLT PUSH2 0x24E JUMPI PUSH1 0x4 CALLDATALOAD PUSH1 0x1 PUSH1 0x1 PUSH1 0x40 SHL SUB DUP2 GT PUSH2 0x24E JUMPI PUSH2 0xF8C SWAP1 CALLDATASIZE SWAP1 PUSH1 0x4 ADD PUSH2 0x1CE0 JUMP JUMPDEST PUSH1 0x44 CALLDATALOAD PUSH1 0x1 PUSH1 0x1 PUSH1 0x40 SHL SUB DUP2 GT PUSH2 0x24E JUMPI PUSH2 0xFAB SWAP1 CALLDATASIZE SWAP1 PUSH1 0x4 ADD PUSH2 0x1CE0 JUMP JUMPDEST SWAP1 SWAP3 PUSH1 0x64 CALLDATALOAD PUSH1 0x1 PUSH1 0x1 PUSH1 0x40 SHL SUB DUP2 GT PUSH2 0x24E JUMPI PUSH2 0xFCC SWAP1 CALLDATASIZE SWAP1 PUSH1 0x4 ADD PUSH2 0x1CE0 JUMP JUMPDEST SWAP3 PUSH1 0xA4 CALLDATALOAD PUSH1 0x1 PUSH1 0x1 PUSH1 0x40 SHL SUB DUP2 GT PUSH2 0x24E JUMPI PUSH2 0xFEC SWAP1 CALLDATASIZE SWAP1 PUSH1 0x4 ADD PUSH2 0x1CE0 JUMP JUMPDEST PUSH1 0x2 PUSH1 0xC SWAP9 SWAP3 SWAP9 SLOAD EQ PUSH2 0x1919 JUMPI PUSH1 0x2 PUSH1 0xC SSTORE PUSH1 0x12 SLOAD CALLVALUE LT PUSH2 0x18DC JUMPI DUP7 ISZERO PUSH2 0x18A4 JUMPI PUSH1 0x24 CALLDATALOAD ISZERO PUSH2 0x186B JUMPI PUSH1 0x1 PUSH1 0xD SLOAD ADD SWAP8 DUP9 PUSH1 0xD SSTORE PUSH1 0x40 MLOAD SWAP2 PUSH2 0x102D DUP4 PUSH2 0x1DA7 JUMP JUMPDEST PUSH1 0x0 DUP4 MSTORE CALLER ISZERO PUSH2 0x1827 JUMPI PUSH2 0x113E PUSH2 0x7BB PUSH2 0x1145 SWAP5 PUSH2 0x10DA PUSH2 0x106A DUP15 PUSH2 0x1070 PUSH2 0x106A DUP3 PUSH1 0x0 MSTORE PUSH1 0x2 PUSH1 0x20 MSTORE PUSH1 0x1 DUP1 PUSH1 0xA0 SHL SUB PUSH1 0x40 PUSH1 0x0 KECCAK256 SLOAD AND ISZERO ISZERO SWAP1 JUMP JUMPDEST ISZERO PUSH2 0x2659 JUMP JUMPDEST PUSH1 0x9 SLOAD DUP2 PUSH1 0x0 MSTORE PUSH1 0xA PUSH1 0x20 MSTORE PUSH1 0x40 PUSH1 0x0 KECCAK256 SSTORE PUSH2 0x108B DUP2 PUSH2 0x25F0 JUMP JUMPDEST PUSH2 0x1094 CALLER PUSH2 0x1E8D JUMP JUMPDEST CALLER PUSH1 0x0 MSTORE PUSH1 0x7 PUSH1 0x20 MSTORE PUSH1 0x40 PUSH1 0x0 KECCAK256 DUP2 PUSH1 0x0 MSTORE PUSH1 0x20 MSTORE DUP2 PUSH1 0x40 PUSH1 0x0 KECCAK256 SSTORE DUP2 PUSH1 0x0 MSTORE PUSH1 0x8 PUSH1 0x20 MSTORE PUSH1 0x40 PUSH1 0x0 KECCAK256 SSTORE PUSH1 0x0 MSTORE PUSH1 0x2 PUSH1 0x20 MSTORE PUSH1 0x1 DUP1 PUSH1 0xA0 SHL SUB PUSH1 0x40 PUSH1 0x0 KECCAK256 SLOAD AND ISZERO ISZERO SWAP1 JUMP JUMPDEST CALLER PUSH1 0x0 MSTORE PUSH1 0x3 PUSH1 0x20 MSTORE PUSH1 0x40 PUSH1 0x0 KECCAK256 PUSH1 0x1 DUP2 SLOAD ADD SWAP1 SSTORE DUP13 PUSH1 0x0 MSTORE PUSH1 0x2 PUSH1 0x20 MSTORE PUSH1 0x40 PUSH1 0x0 KECCAK256 CALLER PUSH1 0x1 PUSH1 0x1 PUSH1 0x60 SHL SUB PUSH1 0xA0 SHL DUP3 SLOAD AND OR SWAP1 SSTORE DUP13 CALLER PUSH1 0x0 PUSH32 0xDDF252AD1BE2C89B69C2B068FC378DAA952BA7F163C4A11628F55A4DF523B3EF DUP2 DUP1 LOG4 DUP13 CALLER PUSH2 0x2445 JUMP JUMPDEST CALLDATASIZE SWAP2 PUSH2 0x1DFE JUMP JUMPDEST PUSH1 0x0 DUP9 DUP2 MSTORE PUSH1 0x2 PUSH1 0x20 MSTORE PUSH1 0x40 SWAP1 KECCAK256 SLOAD PUSH1 0x1 PUSH1 0x1 PUSH1 0xA0 SHL SUB AND ISZERO PUSH2 0x17CB JUMPI DUP8 PUSH1 0x0 MSTORE PUSH1 0x6 PUSH1 0x20 MSTORE PUSH1 0x40 PUSH1 0x0 KECCAK256 SWAP1 DUP1 MLOAD SWAP1 PUSH1 0x1 PUSH1 0x1 PUSH1 0x40 SHL SUB DUP3 GT PUSH2 0x1495 JUMPI PUSH2 0x118C DUP4 SLOAD PUSH2 0x1F76 JUMP JUMPDEST PUSH1 0x1F DUP2 GT PUSH2 0x1787 JUMPI JUMPDEST POP PUSH1 0x20 SWAP1 PUSH1 0x1F DUP4 GT PUSH1 0x1 EQ PUSH2 0x1718 JUMPI PUSH2 0x121C SWAP5 SWAP4 SWAP3 SWAP2 PUSH1 0x0 SWAP2 DUP4 PUSH2 0x170D JUMPI JUMPDEST POP POP DUP2 PUSH1 0x1 SHL SWAP2 PUSH1 0x0 NOT SWAP1 PUSH1 0x3 SHL SHR NOT AND OR SWAP1 SSTORE JUMPDEST PUSH32 0xF8E1A15ABA9398E019F0B49DF1A4FDE98EE17AE345CB5F6B5E2C27F5033E8CE7 PUSH1 0x20 PUSH1 0x40 MLOAD DUP11 DUP2 MSTORE LOG1 PUSH1 0x40 MLOAD SWAP3 PUSH2 0x1200 DUP5 PUSH2 0x1D71 JUMP JUMPDEST PUSH2 0x120B CALLDATASIZE DUP10 DUP9 PUSH2 0x1DFE JUMP JUMPDEST DUP5 MSTORE PUSH1 0x24 CALLDATALOAD PUSH1 0x20 DUP6 ADD MSTORE CALLDATASIZE SWAP2 PUSH2 0x1DFE JUMP JUMPDEST PUSH1 0x40 DUP3 ADD MSTORE PUSH2 0x122C CALLDATASIZE DUP6 DUP5 PUSH2 0x1DFE JUMP JUMPDEST PUSH1 0x60 DUP3 ADD MSTORE TIMESTAMP PUSH1 0x80 DUP3 ADD MSTORE PUSH1 0x84 CALLDATALOAD PUSH1 0xA0 DUP3 ADD MSTORE PUSH1 0x1 PUSH1 0xC0 DUP3 ADD MSTORE DUP6 PUSH1 0x0 MSTORE PUSH1 0xE PUSH1 0x20 MSTORE PUSH1 0x40 PUSH1 0x0 KECCAK256 SWAP1 DUP1 MLOAD DUP1 MLOAD SWAP1 PUSH1 0x1 PUSH1 0x1 PUSH1 0x40 SHL SUB DUP3 GT PUSH2 0x1495 JUMPI DUP2 SWAP1 PUSH2 0x1274 DUP6 SLOAD PUSH2 0x1F76 JUMP JUMPDEST PUSH1 0x1F DUP2 GT PUSH2 0x16BD JUMPI JUMPDEST POP PUSH1 0x20 SWAP1 PUSH1 0x1F DUP4 GT PUSH1 0x1 EQ PUSH2 0x1651 JUMPI PUSH1 0x0 SWAP3 PUSH2 0x1646 JUMPI JUMPDEST POP POP DUP2 PUSH1 0x1 SHL SWAP2 PUSH1 0x0 NOT SWAP1 PUSH1 0x3 SHL SHR NOT AND OR DUP3 SSTORE JUMPDEST PUSH1 0x20 DUP2 ADD MLOAD PUSH1 0x1 DUP4 ADD SSTORE PUSH1 0x40 DUP2 ADD MLOAD DUP1 MLOAD SWAP1 PUSH1 0x1 PUSH1 0x1 PUSH1 0x40 SHL SUB DUP3 GT PUSH2 0x1495 JUMPI DUP2 SWAP1 PUSH2 0x12D8 PUSH1 0x2 DUP7 ADD SLOAD PUSH2 0x1F76 JUMP JUMPDEST PUSH1 0x1F DUP2 GT PUSH2 0x15F3 JUMPI JUMPDEST POP PUSH1 0x20 SWAP1 PUSH1 0x1F DUP4 GT PUSH1 0x1 EQ PUSH2 0x1581 JUMPI PUSH1 0x0 SWAP3 PUSH2 0x1576 JUMPI JUMPDEST POP POP DUP2 PUSH1 0x1 SHL SWAP2 PUSH1 0x0 NOT SWAP1 PUSH1 0x3 SHL SHR NOT AND OR PUSH1 0x2 DUP4 ADD SSTORE JUMPDEST PUSH1 0x60 DUP2 ADD MLOAD DUP1 MLOAD SWAP1 PUSH1 0x1 PUSH1 0x1 PUSH1 0x40 SHL SUB DUP3 GT PUSH2 0x1495 JUMPI PUSH2 0x1333 PUSH1 0x3 DUP6 ADD SLOAD PUSH2 0x1F76 JUMP JUMPDEST PUSH1 0x1F DUP2 GT PUSH2 0x152F JUMPI JUMPDEST POP PUSH1 0x20 SWAP1 PUSH1 0x1F DUP4 GT PUSH1 0x1 EQ PUSH2 0x14B6 JUMPI SWAP3 DUP3 PUSH1 0x6 SWAP4 PUSH1 0xC0 SWAP4 PUSH2 0x13A3 SWAP8 SWAP7 PUSH1 0x0 SWAP3 PUSH2 0x14AB JUMPI JUMPDEST POP POP DUP2 PUSH1 0x1 SHL SWAP2 PUSH1 0x0 NOT SWAP1 PUSH1 0x3 SHL SHR NOT AND OR PUSH1 0x3 DUP6 ADD SSTORE JUMPDEST PUSH1 0x80 DUP2 ADD MLOAD PUSH1 0x4 DUP6 ADD SSTORE PUSH1 0xA0 DUP2 ADD MLOAD PUSH1 0x5 DUP6 ADD SSTORE ADD MLOAD ISZERO ISZERO SWAP2 ADD SWAP1 PUSH1 0xFF DUP1 NOT DUP4 SLOAD AND SWAP2 ISZERO ISZERO AND OR SWAP1 SSTORE JUMP JUMPDEST CALLER PUSH1 0x0 MSTORE PUSH1 0x10 PUSH1 0x20 MSTORE PUSH1 0x40 PUSH1 0x0 KECCAK256 SWAP1 DUP2 SLOAD SWAP4 PUSH1 0x1 PUSH1 0x40 SHL DUP6 LT ISZERO PUSH2 0x1495 JUMPI PUSH1 0x1 DUP6 ADD DUP1 DUP5 SSTORE DUP6 LT ISZERO PUSH2 0x147F JUMPI PUSH2 0x1417 PUSH32 0x7D612051A32FC8909D20E811BBE0838A365B8810C679ECFEEA6F8EB71006686 SWAP5 DUP9 DUP1 SWAP8 PUSH2 0x1425 SWAP7 PUSH1 0x0 MSTORE PUSH1 0x20 PUSH1 0x0 KECCAK256 ADD SSTORE PUSH1 0x40 MLOAD SWAP8 PUSH1 0x60 DUP10 MSTORE PUSH1 0x60 DUP10 ADD SWAP2 PUSH2 0x2638 JUMP JUMPDEST SWAP2 DUP7 DUP4 SUB PUSH1 0x20 DUP9 ADD MSTORE PUSH2 0x2638 JUMP JUMPDEST SWAP3 TIMESTAMP PUSH1 0x40 DUP3 ADD MSTORE DUP1 CALLER SWAP5 SUB SWAP1 LOG3 PUSH1 0x12 SLOAD DUP1 CALLVALUE GT PUSH2 0x144D JUMPI JUMPDEST PUSH1 0x20 DUP3 PUSH1 0x1 PUSH1 0xC SSTORE PUSH1 0x40 MLOAD SWAP1 DUP2 MSTORE RETURN JUMPDEST DUP1 CALLVALUE SUB SWAP1 CALLVALUE DUP3 GT PUSH2 0x35E JUMPI PUSH1 0x0 DUP1 DUP1 SWAP4 DUP2 SWAP4 DUP3 SWAP1 CALLVALUE EQ PUSH2 0x1476 JUMPI JUMPDEST CALLER SWAP1 CALL ISZERO PUSH2 0xD7B JUMPI DUP2 PUSH2 0x143D JUMP JUMPDEST POP PUSH2 0x8FC PUSH2 0x1468 JUMP JUMPDEST PUSH4 0x4E487B71 PUSH1 0xE0 SHL PUSH1 0x0 MSTORE PUSH1 0x32 PUSH1 0x4 MSTORE PUSH1 0x24 PUSH1 0x0 REVERT JUMPDEST PUSH4 0x4E487B71 PUSH1 0xE0 SHL PUSH1 0x0 MSTORE PUSH1 0x41 PUSH1 0x4 MSTORE PUSH1 0x24 PUSH1 0x0 REVERT JUMPDEST ADD MLOAD SWAP1 POP DUP13 DUP1 PUSH2 0x1360 JUMP JUMPDEST SWAP1 PUSH1 0x3 DUP6 ADD PUSH1 0x0 MSTORE PUSH1 0x20 PUSH1 0x0 KECCAK256 SWAP2 PUSH1 0x0 JUMPDEST PUSH1 0x1F NOT DUP6 AND DUP2 LT PUSH2 0x1517 JUMPI POP DUP4 PUSH1 0xC0 SWAP4 PUSH2 0x13A3 SWAP8 SWAP7 SWAP4 PUSH1 0x1 SWAP4 PUSH1 0x6 SWAP8 PUSH1 0x1F NOT DUP2 AND LT PUSH2 0x14FE JUMPI JUMPDEST POP POP POP DUP2 SHL ADD PUSH1 0x3 DUP6 ADD SSTORE PUSH2 0x1378 JUMP JUMPDEST ADD MLOAD PUSH1 0x0 NOT PUSH1 0xF8 DUP5 PUSH1 0x3 SHL AND SHR NOT AND SWAP1 SSTORE DUP13 DUP1 DUP1 PUSH2 0x14EE JUMP JUMPDEST SWAP2 SWAP3 PUSH1 0x20 PUSH1 0x1 DUP2 SWAP3 DUP7 DUP6 ADD MLOAD DUP2 SSTORE ADD SWAP5 ADD SWAP3 ADD PUSH2 0x14C7 JUMP JUMPDEST PUSH1 0x3 DUP6 ADD PUSH1 0x0 MSTORE PUSH1 0x20 PUSH1 0x0 KECCAK256 PUSH1 0x1F DUP5 ADD PUSH1 0x5 SHR DUP2 ADD PUSH1 0x20 DUP6 LT PUSH2 0x156F JUMPI JUMPDEST PUSH1 0x1F DUP4 ADD PUSH1 0x5 SHR DUP3 ADD DUP2 LT PUSH2 0x1563 JUMPI POP POP PUSH2 0x133C JUMP JUMPDEST PUSH1 0x0 DUP2 SSTORE PUSH1 0x1 ADD PUSH2 0x154D JUMP JUMPDEST POP DUP1 PUSH2 0x154D JUMP JUMPDEST ADD MLOAD SWAP1 POP DUP10 DUP1 PUSH2 0x12F8 JUMP JUMPDEST SWAP3 POP PUSH1 0x2 DUP6 ADD PUSH1 0x0 MSTORE PUSH1 0x20 PUSH1 0x0 KECCAK256 SWAP1 PUSH1 0x0 SWAP4 JUMPDEST PUSH1 0x1F NOT DUP5 AND DUP6 LT PUSH2 0x15D8 JUMPI PUSH1 0x1 SWAP5 POP DUP4 PUSH1 0x1F NOT DUP2 AND LT PUSH2 0x15BF JUMPI JUMPDEST POP POP POP DUP2 SHL ADD PUSH1 0x2 DUP4 ADD SSTORE PUSH2 0x1310 JUMP JUMPDEST ADD MLOAD PUSH1 0x0 NOT PUSH1 0xF8 DUP5 PUSH1 0x3 SHL AND SHR NOT AND SWAP1 SSTORE DUP10 DUP1 DUP1 PUSH2 0x15AF JUMP JUMPDEST DUP2 DUP2 ADD MLOAD DUP4 SSTORE PUSH1 0x20 SWAP5 DUP6 ADD SWAP5 PUSH1 0x1 SWAP1 SWAP4 ADD SWAP3 SWAP1 SWAP2 ADD SWAP1 PUSH2 0x1594 JUMP JUMPDEST SWAP1 SWAP2 POP PUSH1 0x2 DUP6 ADD PUSH1 0x0 MSTORE PUSH1 0x20 PUSH1 0x0 KECCAK256 PUSH1 0x1F DUP5 ADD PUSH1 0x5 SHR DUP2 ADD PUSH1 0x20 DUP6 LT PUSH2 0x163F JUMPI JUMPDEST SWAP1 DUP5 SWAP4 SWAP3 SWAP2 JUMPDEST PUSH1 0x1F DUP4 ADD PUSH1 0x5 SHR DUP3 ADD DUP2 LT PUSH2 0x1630 JUMPI POP POP PUSH2 0x12E1 JUMP JUMPDEST PUSH1 0x0 DUP2 SSTORE DUP6 SWAP5 POP PUSH1 0x1 ADD PUSH2 0x161A JUMP JUMPDEST POP DUP1 PUSH2 0x1614 JUMP JUMPDEST ADD MLOAD SWAP1 POP DUP10 DUP1 PUSH2 0x1294 JUMP JUMPDEST SWAP3 POP DUP5 PUSH1 0x0 MSTORE PUSH1 0x20 PUSH1 0x0 KECCAK256 SWAP1 PUSH1 0x0 SWAP4 JUMPDEST PUSH1 0x1F NOT DUP5 AND DUP6 LT PUSH2 0x16A2 JUMPI PUSH1 0x1 SWAP5 POP DUP4 PUSH1 0x1F NOT DUP2 AND LT PUSH2 0x1689 JUMPI JUMPDEST POP POP POP DUP2 SHL ADD DUP3 SSTORE PUSH2 0x12A9 JUMP JUMPDEST ADD MLOAD PUSH1 0x0 NOT PUSH1 0xF8 DUP5 PUSH1 0x3 SHL AND SHR NOT AND SWAP1 SSTORE DUP10 DUP1 DUP1 PUSH2 0x167C JUMP JUMPDEST DUP2 DUP2 ADD MLOAD DUP4 SSTORE PUSH1 0x20 SWAP5 DUP6 ADD SWAP5 PUSH1 0x1 SWAP1 SWAP4 ADD SWAP3 SWAP1 SWAP2 ADD SWAP1 PUSH2 0x1661 JUMP JUMPDEST SWAP1 SWAP2 POP DUP5 PUSH1 0x0 MSTORE PUSH1 0x20 PUSH1 0x0 KECCAK256 PUSH1 0x1F DUP5 ADD PUSH1 0x5 SHR DUP2 ADD PUSH1 0x20 DUP6 LT PUSH2 0x1706 JUMPI JUMPDEST SWAP1 DUP5 SWAP4 SWAP3 SWAP2 JUMPDEST PUSH1 0x1F DUP4 ADD PUSH1 0x5 SHR DUP3 ADD DUP2 LT PUSH2 0x16F7 JUMPI POP POP PUSH2 0x127D JUMP JUMPDEST PUSH1 0x0 DUP2 SSTORE DUP6 SWAP5 POP PUSH1 0x1 ADD PUSH2 0x16E1 JUMP JUMPDEST POP DUP1 PUSH2 0x16DB JUMP JUMPDEST ADD MLOAD SWAP1 POP DUP12 DUP1 PUSH2 0x11B4 JUMP JUMPDEST SWAP1 DUP4 PUSH1 0x0 MSTORE PUSH1 0x20 PUSH1 0x0 KECCAK256 SWAP2 PUSH1 0x0 JUMPDEST PUSH1 0x1F NOT DUP6 AND DUP2 LT PUSH2 0x176F JUMPI POP SWAP2 DUP4 SWAP2 PUSH1 0x1 SWAP4 PUSH2 0x121C SWAP8 SWAP7 SWAP6 PUSH1 0x1F NOT DUP2 AND LT PUSH2 0x1756 JUMPI JUMPDEST POP POP POP DUP2 SHL ADD SWAP1 SSTORE PUSH2 0x11C9 JUMP JUMPDEST ADD MLOAD PUSH1 0x0 NOT PUSH1 0xF8 DUP5 PUSH1 0x3 SHL AND SHR NOT AND SWAP1 SSTORE DUP12 DUP1 DUP1 PUSH2 0x1749 JUMP JUMPDEST SWAP2 SWAP3 PUSH1 0x20 PUSH1 0x1 DUP2 SWAP3 DUP7 DUP6 ADD MLOAD DUP2 SSTORE ADD SWAP5 ADD SWAP3 ADD PUSH2 0x1726 JUMP JUMPDEST DUP4 PUSH1 0x0 MSTORE PUSH1 0x20 PUSH1 0x0 KECCAK256 PUSH1 0x1F DUP5 ADD PUSH1 0x5 SHR DUP2 ADD PUSH1 0x20 DUP6 LT PUSH2 0x17C4 JUMPI JUMPDEST PUSH1 0x1F DUP4 ADD PUSH1 0x5 SHR DUP3 ADD DUP2 LT PUSH2 0x17B8 JUMPI POP POP PUSH2 0x1195 JUMP JUMPDEST PUSH1 0x0 DUP2 SSTORE PUSH1 0x1 ADD PUSH2 0x17A2 JUMP JUMPDEST POP DUP1 PUSH2 0x17A2 JUMP JUMPDEST PUSH1 0x40 MLOAD PUSH3 0x461BCD PUSH1 0xE5 SHL DUP2 MSTORE PUSH1 0x20 PUSH1 0x4 DUP3 ADD MSTORE PUSH1 0x2E PUSH1 0x24 DUP3 ADD MSTORE PUSH32 0x45524337323155524953746F726167653A2055524920736574206F66206E6F6E PUSH1 0x44 DUP3 ADD MSTORE PUSH14 0x32BC34B9BA32B73A103A37B5B2B7 PUSH1 0x91 SHL PUSH1 0x64 DUP3 ADD MSTORE PUSH1 0x84 SWAP1 REVERT JUMPDEST PUSH1 0x64 PUSH1 0x40 MLOAD PUSH3 0x461BCD PUSH1 0xE5 SHL DUP2 MSTORE PUSH1 0x20 PUSH1 0x4 DUP3 ADD MSTORE PUSH1 0x20 PUSH1 0x24 DUP3 ADD MSTORE PUSH32 0x4552433732313A206D696E7420746F20746865207A65726F2061646472657373 PUSH1 0x44 DUP3 ADD MSTORE REVERT JUMPDEST PUSH1 0x40 MLOAD PUSH3 0x461BCD PUSH1 0xE5 SHL DUP2 MSTORE PUSH1 0x20 PUSH1 0x4 DUP3 ADD MSTORE PUSH1 0x11 PUSH1 0x24 DUP3 ADD MSTORE PUSH17 0x92DCECC2D8D2C840C8C2E8C240D0C2E6D PUSH1 0x7B SHL PUSH1 0x44 DUP3 ADD MSTORE PUSH1 0x64 SWAP1 REVERT JUMPDEST PUSH1 0x40 MLOAD PUSH3 0x461BCD PUSH1 0xE5 SHL DUP2 MSTORE PUSH1 0x20 PUSH1 0x4 DUP3 ADD MSTORE PUSH1 0x10 PUSH1 0x24 DUP3 ADD MSTORE PUSH16 0x125B9D985B1A590812541194C810D251 PUSH1 0x82 SHL PUSH1 0x44 DUP3 ADD MSTORE PUSH1 0x64 SWAP1 REVERT JUMPDEST PUSH1 0x40 MLOAD PUSH3 0x461BCD PUSH1 0xE5 SHL DUP2 MSTORE PUSH1 0x20 PUSH1 0x4 DUP3 ADD MSTORE PUSH1 0x15 PUSH1 0x24 DUP3 ADD MSTORE PUSH21 0x496E73756666696369656E74206D696E7420666565 PUSH1 0x58 SHL PUSH1 0x44 DUP3 ADD MSTORE PUSH1 0x64 SWAP1 REVERT JUMPDEST PUSH1 0x40 MLOAD PUSH3 0x461BCD PUSH1 0xE5 SHL DUP2 MSTORE PUSH1 0x20 PUSH1 0x4 DUP3 ADD MSTORE PUSH1 0x1F PUSH1 0x24 DUP3 ADD MSTORE PUSH32 0x5265656E7472616E637947756172643A207265656E7472616E742063616C6C00 PUSH1 0x44 DUP3 ADD MSTORE PUSH1 0x64 SWAP1 REVERT JUMPDEST CALLVALUE PUSH2 0x24E JUMPI PUSH1 0x0 CALLDATASIZE PUSH1 0x3 NOT ADD SLT PUSH2 0x24E JUMPI PUSH1 0x20 PUSH1 0x9 SLOAD PUSH1 0x40 MLOAD SWAP1 DUP2 MSTORE RETURN JUMPDEST CALLVALUE PUSH2 0x24E JUMPI PUSH1 0x0 CALLDATASIZE PUSH1 0x3 NOT ADD SLT PUSH2 0x24E JUMPI PUSH1 0x20 PUSH1 0x12 SLOAD PUSH1 0x40 MLOAD SWAP1 DUP2 MSTORE RETURN JUMPDEST CALLVALUE PUSH2 0x24E JUMPI PUSH1 0x40 CALLDATASIZE PUSH1 0x3 NOT ADD SLT PUSH2 0x24E JUMPI PUSH2 0x19B3 PUSH2 0x1CB4 JUMP JUMPDEST PUSH1 0x24 CALLDATALOAD SWAP1 PUSH1 0x1 PUSH1 0x1 PUSH1 0xA0 SHL SUB DUP1 DUP1 PUSH2 0x19CA DUP6 PUSH2 0x1F50 JUMP JUMPDEST AND SWAP3 AND SWAP2 DUP1 DUP4 EQ PUSH2 0x1AC5 JUMPI DUP1 CALLER EQ SWAP1 DUP2 ISZERO PUSH2 0x1AA0 JUMPI JUMPDEST POP ISZERO PUSH2 0x1A35 JUMPI PUSH1 0x0 DUP4 DUP2 MSTORE PUSH1 0x4 PUSH1 0x20 MSTORE PUSH1 0x40 SWAP1 KECCAK256 DUP1 SLOAD PUSH1 0x1 PUSH1 0x1 PUSH1 0xA0 SHL SUB NOT AND DUP4 OR SWAP1 SSTORE PUSH2 0x1A0D DUP4 PUSH2 0x1F50 JUMP JUMPDEST AND PUSH32 0x8C5BE1E5EBEC7D5BD14F71427D1E84F3DD0314C0F7B2291E5B200AC8C7C3B925 PUSH1 0x0 DUP1 LOG4 STOP JUMPDEST PUSH1 0x40 MLOAD PUSH3 0x461BCD PUSH1 0xE5 SHL DUP2 MSTORE PUSH1 0x20 PUSH1 0x4 DUP3 ADD MSTORE PUSH1 0x3D PUSH1 0x24 DUP3 ADD MSTORE PUSH32 0x4552433732313A20617070726F76652063616C6C6572206973206E6F7420746F PUSH1 0x44 DUP3 ADD MSTORE PUSH32 0x6B656E206F776E6572206F7220617070726F76656420666F7220616C6C000000 PUSH1 0x64 DUP3 ADD MSTORE PUSH1 0x84 SWAP1 REVERT JUMPDEST SWAP1 POP PUSH1 0x0 MSTORE PUSH1 0x5 PUSH1 0x20 MSTORE PUSH1 0x40 PUSH1 0x0 KECCAK256 CALLER PUSH1 0x0 MSTORE PUSH1 0x20 MSTORE PUSH1 0xFF PUSH1 0x40 PUSH1 0x0 KECCAK256 SLOAD AND DUP5 PUSH2 0x19E0 JUMP JUMPDEST PUSH1 0x40 MLOAD PUSH3 0x461BCD PUSH1 0xE5 SHL DUP2 MSTORE PUSH1 0x20 PUSH1 0x4 DUP3 ADD MSTORE PUSH1 0x21 PUSH1 0x24 DUP3 ADD MSTORE PUSH32 0x4552433732313A20617070726F76616C20746F2063757272656E74206F776E65 PUSH1 0x44 DUP3 ADD MSTORE PUSH1 0x39 PUSH1 0xF9 SHL PUSH1 0x64 DUP3 ADD MSTORE PUSH1 0x84 SWAP1 REVERT JUMPDEST CALLVALUE PUSH2 0x24E JUMPI PUSH1 0x20 CALLDATASIZE PUSH1 0x3 NOT ADD SLT PUSH2 0x24E JUMPI PUSH1 0x20 PUSH2 0xC50 PUSH1 0x4 CALLDATALOAD PUSH2 0x2056 JUMP JUMPDEST CALLVALUE PUSH2 0x24E JUMPI PUSH1 0x0 CALLDATASIZE PUSH1 0x3 NOT ADD SLT PUSH2 0x24E JUMPI PUSH1 0x40 MLOAD PUSH1 0x0 DUP1 SLOAD PUSH2 0x1B53 DUP2 PUSH2 0x1F76 JUMP JUMPDEST DUP1 DUP5 MSTORE SWAP1 PUSH1 0x1 SWAP1 DUP2 DUP2 AND SWAP1 DUP2 ISZERO PUSH2 0x97E JUMPI POP PUSH1 0x1 EQ PUSH2 0x1B7C JUMPI PUSH2 0x592 DUP5 PUSH2 0x911 DUP2 DUP7 SUB DUP3 PUSH2 0x1DC2 JUMP JUMPDEST PUSH1 0x0 DUP1 DUP1 MSTORE SWAP3 POP PUSH32 0x290DECD9548B62A8D60345A988386FC84BA6BC95484008F6362F93160EF3E563 JUMPDEST DUP3 DUP5 LT PUSH2 0x1BBD JUMPI POP POP POP DUP2 ADD PUSH1 0x20 ADD PUSH2 0x911 DUP3 PUSH2 0x901 JUMP JUMPDEST DUP1 SLOAD PUSH1 0x20 DUP6 DUP8 ADD DUP2 ADD SWAP2 SWAP1 SWAP2 MSTORE SWAP1 SWAP4 ADD SWAP3 DUP2 ADD PUSH2 0x1BA5 JUMP JUMPDEST CALLVALUE PUSH2 0x24E JUMPI PUSH1 0x20 CALLDATASIZE PUSH1 0x3 NOT ADD SLT PUSH2 0x24E JUMPI PUSH1 0x4 CALLDATALOAD SWAP1 PUSH4 0xFFFFFFFF PUSH1 0xE0 SHL DUP3 AND DUP1 SWAP3 SUB PUSH2 0x24E JUMPI PUSH1 0x20 SWAP2 PUSH4 0x780E9D63 PUSH1 0xE0 SHL DUP2 EQ SWAP1 DUP2 ISZERO PUSH2 0x1C17 JUMPI JUMPDEST POP ISZERO ISZERO DUP2 MSTORE RETURN JUMPDEST PUSH4 0x24832483 PUSH1 0xE1 SHL DUP2 EQ SWAP2 POP DUP2 ISZERO PUSH2 0x1C31 JUMPI JUMPDEST POP DUP4 PUSH2 0x1C10 JUMP JUMPDEST PUSH4 0x80AC58CD PUSH1 0xE0 SHL DUP2 EQ SWAP2 POP DUP2 ISZERO PUSH2 0x1C63 JUMPI JUMPDEST DUP2 ISZERO PUSH2 0x1C52 JUMPI JUMPDEST POP DUP4 PUSH2 0x1C2A JUMP JUMPDEST PUSH4 0x1FFC9A7 PUSH1 0xE0 SHL EQ SWAP1 POP DUP4 PUSH2 0x1C4B JUMP JUMPDEST PUSH4 0x5B5E139F PUSH1 0xE0 SHL DUP2 EQ SWAP2 POP PUSH2 0x1C44 JUMP JUMPDEST SWAP2 SWAP1 DUP3 MLOAD SWAP3 DUP4 DUP3 MSTORE PUSH1 0x0 JUMPDEST DUP5 DUP2 LT PUSH2 0x1CA0 JUMPI POP POP DUP3 PUSH1 0x0 PUSH1 0x20 DUP1 SWAP5 SWAP6 DUP5 ADD ADD MSTORE PUSH1 0x1F DUP1 NOT SWAP2 ADD AND ADD ADD SWAP1 JUMP JUMPDEST PUSH1 0x20 DUP2 DUP4 ADD DUP2 ADD MLOAD DUP5 DUP4 ADD DUP3 ADD MSTORE ADD PUSH2 0x1C7F JUMP JUMPDEST PUSH1 0x4 CALLDATALOAD SWAP1 PUSH1 0x1 PUSH1 0x1 PUSH1 0xA0 SHL SUB DUP3 AND DUP3 SUB PUSH2 0x24E JUMPI JUMP JUMPDEST PUSH1 0x24 CALLDATALOAD SWAP1 PUSH1 0x1 PUSH1 0x1 PUSH1 0xA0 SHL SUB DUP3 AND DUP3 SUB PUSH2 0x24E JUMPI JUMP JUMPDEST SWAP2 DUP2 PUSH1 0x1F DUP5 ADD SLT ISZERO PUSH2 0x24E JUMPI DUP3 CALLDATALOAD SWAP2 PUSH1 0x1 PUSH1 0x1 PUSH1 0x40 SHL SUB DUP4 GT PUSH2 0x24E JUMPI PUSH1 0x20 DUP4 DUP2 DUP7 ADD SWAP6 ADD ADD GT PUSH2 0x24E JUMPI JUMP JUMPDEST PUSH1 0x60 SWAP1 PUSH1 0x3 NOT ADD SLT PUSH2 0x24E JUMPI PUSH1 0x1 PUSH1 0x1 PUSH1 0xA0 SHL SUB SWAP1 PUSH1 0x4 CALLDATALOAD DUP3 DUP2 AND DUP2 SUB PUSH2 0x24E JUMPI SWAP2 PUSH1 0x24 CALLDATALOAD SWAP1 DUP2 AND DUP2 SUB PUSH2 0x24E JUMPI SWAP1 PUSH1 0x44 CALLDATALOAD SWAP1 JUMP JUMPDEST PUSH1 0x40 SWAP1 PUSH1 0x3 NOT ADD SLT PUSH2 0x24E JUMPI PUSH1 0x4 CALLDATALOAD PUSH1 0x1 PUSH1 0x1 PUSH1 0xA0 SHL SUB DUP2 AND DUP2 SUB PUSH2 0x24E JUMPI SWAP1 PUSH1 0x24 CALLDATALOAD DUP1 ISZERO ISZERO DUP2 SUB PUSH2 0x24E JUMPI SWAP1 JUMP JUMPDEST PUSH1 0xE0 DUP2 ADD SWAP1 DUP2 LT PUSH1 0x1 PUSH1 0x1 PUSH1 0x40 SHL SUB DUP3 GT OR PUSH2 0x1495 JUMPI PUSH1 0x40 MSTORE JUMP JUMPDEST PUSH1 0x60 DUP2 ADD SWAP1 DUP2 LT PUSH1 0x1 PUSH1 0x1 PUSH1 0x40 SHL SUB DUP3 GT OR PUSH2 0x1495 JUMPI PUSH1 0x40 MSTORE JUMP JUMPDEST PUSH1 0x20 DUP2 ADD SWAP1 DUP2 LT PUSH1 0x1 PUSH1 0x1 PUSH1 0x40 SHL SUB DUP3 GT OR PUSH2 0x1495 JUMPI PUSH1 0x40 MSTORE JUMP JUMPDEST SWAP1 PUSH1 0x1F DUP1 NOT SWAP2 ADD AND DUP2 ADD SWAP1 DUP2 LT PUSH1 0x1 PUSH1 0x1 PUSH1 0x40 SHL SUB DUP3 GT OR PUSH2 0x1495 JUMPI PUSH1 0x40 MSTORE JUMP JUMPDEST PUSH1 0x1 PUSH1 0x1 PUSH1 0x40 SHL SUB DUP2 GT PUSH2 0x1495 JUMPI PUSH1 0x1F ADD PUSH1 0x1F NOT AND PUSH1 0x20 ADD SWAP1 JUMP JUMPDEST SWAP3 SWAP2 SWAP3 PUSH2 0x1E0A DUP3 PUSH2 0x1DE3 JUMP JUMPDEST SWAP2 PUSH2 0x1E18 PUSH1 0x40 MLOAD SWAP4 DUP5 PUSH2 0x1DC2 JUMP JUMPDEST DUP3 SWAP5 DUP2 DUP5 MSTORE DUP2 DUP4 ADD GT PUSH2 0x24E JUMPI DUP3 DUP2 PUSH1 0x20 SWAP4 DUP5 PUSH1 0x0 SWAP7 ADD CALLDATACOPY ADD ADD MSTORE JUMP JUMPDEST PUSH1 0xB SLOAD PUSH1 0x1 PUSH1 0x1 PUSH1 0xA0 SHL SUB AND CALLER SUB PUSH2 0x1E49 JUMPI JUMP JUMPDEST PUSH1 0x64 PUSH1 0x40 MLOAD PUSH3 0x461BCD PUSH1 0xE5 SHL DUP2 MSTORE PUSH1 0x20 PUSH1 0x4 DUP3 ADD MSTORE PUSH1 0x20 PUSH1 0x24 DUP3 ADD MSTORE PUSH32 0x4F776E61626C653A2063616C6C6572206973206E6F7420746865206F776E6572 PUSH1 0x44 DUP3 ADD MSTORE REVERT JUMPDEST PUSH1 0x1 PUSH1 0x1 PUSH1 0xA0 SHL SUB AND DUP1 ISZERO PUSH2 0x1EAD JUMPI PUSH1 0x0 MSTORE PUSH1 0x3 PUSH1 0x20 MSTORE PUSH1 0x40 PUSH1 0x0 KECCAK256 SLOAD SWAP1 JUMP JUMPDEST PUSH1 0x40 MLOAD PUSH3 0x461BCD PUSH1 0xE5 SHL DUP2 MSTORE PUSH1 0x20 PUSH1 0x4 DUP3 ADD MSTORE PUSH1 0x29 PUSH1 0x24 DUP3 ADD MSTORE PUSH32 0x4552433732313A2061646472657373207A65726F206973206E6F742061207661 PUSH1 0x44 DUP3 ADD MSTORE PUSH9 0x3634B21037BBB732B9 PUSH1 0xB9 SHL PUSH1 0x64 DUP3 ADD MSTORE PUSH1 0x84 SWAP1 REVERT JUMPDEST ISZERO PUSH2 0x1F0B JUMPI JUMP JUMPDEST PUSH1 0x40 MLOAD PUSH3 0x461BCD PUSH1 0xE5 SHL DUP2 MSTORE PUSH1 0x20 PUSH1 0x4 DUP3 ADD MSTORE PUSH1 0x18 PUSH1 0x24 DUP3 ADD MSTORE PUSH32 0x4552433732313A20696E76616C696420746F6B656E2049440000000000000000 PUSH1 0x44 DUP3 ADD MSTORE PUSH1 0x64 SWAP1 REVERT JUMPDEST PUSH1 0x0 SWAP1 DUP2 MSTORE PUSH1 0x2 PUSH1 0x20 MSTORE PUSH1 0x40 SWAP1 KECCAK256 SLOAD PUSH1 0x1 PUSH1 0x1 PUSH1 0xA0 SHL SUB AND PUSH2 0x1F73 DUP2 ISZERO ISZERO PUSH2 0x1F04 JUMP JUMPDEST SWAP1 JUMP JUMPDEST SWAP1 PUSH1 0x1 DUP3 DUP2 SHR SWAP3 AND DUP1 ISZERO PUSH2 0x1FA6 JUMPI JUMPDEST PUSH1 0x20 DUP4 LT EQ PUSH2 0x1F90 JUMPI JUMP JUMPDEST PUSH4 0x4E487B71 PUSH1 0xE0 SHL PUSH1 0x0 MSTORE PUSH1 0x22 PUSH1 0x4 MSTORE PUSH1 0x24 PUSH1 0x0 REVERT JUMPDEST SWAP2 PUSH1 0x7F AND SWAP2 PUSH2 0x1F85 JUMP JUMPDEST SWAP1 PUSH1 0x40 MLOAD SWAP2 DUP3 PUSH1 0x0 DUP3 SLOAD SWAP3 PUSH2 0x1FC4 DUP5 PUSH2 0x1F76 JUMP JUMPDEST SWAP1 DUP2 DUP5 MSTORE PUSH1 0x1 SWAP5 DUP6 DUP2 AND SWAP1 DUP2 PUSH1 0x0 EQ PUSH2 0x2033 JUMPI POP PUSH1 0x1 EQ PUSH2 0x1FF0 JUMPI JUMPDEST POP POP PUSH2 0x1FEE SWAP3 POP SUB DUP4 PUSH2 0x1DC2 JUMP JUMPDEST JUMP JUMPDEST SWAP1 SWAP4 SWAP2 POP PUSH1 0x0 MSTORE PUSH1 0x20 SWAP1 DUP2 PUSH1 0x0 KECCAK256 SWAP4 PUSH1 0x0 SWAP2 JUMPDEST DUP2 DUP4 LT PUSH2 0x201B JUMPI POP POP PUSH2 0x1FEE SWAP4 POP DUP3 ADD ADD CODESIZE DUP1 PUSH2 0x1FE0 JUMP JUMPDEST DUP6 SLOAD DUP9 DUP5 ADD DUP6 ADD MSTORE SWAP5 DUP6 ADD SWAP5 DUP8 SWAP5 POP SWAP2 DUP4 ADD SWAP2 PUSH2 0x2003 JUMP JUMPDEST SWAP2 POP POP PUSH2 0x1FEE SWAP5 POP PUSH1 0x20 SWAP3 POP PUSH1 0xFF NOT AND DUP3 DUP5 ADD MSTORE ISZERO ISZERO PUSH1 0x5 SHL DUP3 ADD ADD CODESIZE DUP1 PUSH2 0x1FE0 JUMP JUMPDEST PUSH1 0x0 DUP2 DUP2 MSTORE PUSH1 0x2 PUSH1 0x20 MSTORE PUSH1 0x40 SWAP1 KECCAK256 SLOAD PUSH2 0x2079 SWAP1 PUSH1 0x1 PUSH1 0x1 PUSH1 0xA0 SHL SUB AND ISZERO ISZERO PUSH2 0x1F04 JUMP JUMPDEST PUSH1 0x0 SWAP1 DUP2 MSTORE PUSH1 0x4 PUSH1 0x20 MSTORE PUSH1 0x40 SWAP1 KECCAK256 SLOAD PUSH1 0x1 PUSH1 0x1 PUSH1 0xA0 SHL SUB AND SWAP1 JUMP JUMPDEST ISZERO PUSH2 0x209B JUMPI JUMP JUMPDEST PUSH1 0x40 MLOAD PUSH3 0x461BCD PUSH1 0xE5 SHL DUP2 MSTORE PUSH1 0x20 PUSH1 0x4 DUP3 ADD MSTORE PUSH1 0x2D PUSH1 0x24 DUP3 ADD MSTORE PUSH32 0x4552433732313A2063616C6C6572206973206E6F7420746F6B656E206F776E65 PUSH1 0x44 DUP3 ADD MSTORE PUSH13 0x1C881BDC88185C1C1C9BDD9959 PUSH1 0x9A SHL PUSH1 0x64 DUP3 ADD MSTORE PUSH1 0x84 SWAP1 REVERT JUMPDEST PUSH1 0x80 SWAP1 PUSH1 0x20 DUP2 MSTORE PUSH1 0x32 PUSH1 0x20 DUP3 ADD MSTORE PUSH32 0x4552433732313A207472616E7366657220746F206E6F6E204552433732315265 PUSH1 0x40 DUP3 ADD MSTORE PUSH18 0x31B2B4BB32B91034B6B83632B6B2B73A32B9 PUSH1 0x71 SHL PUSH1 0x60 DUP3 ADD MSTORE ADD SWAP1 JUMP JUMPDEST ISZERO PUSH2 0x2150 JUMPI JUMP JUMPDEST PUSH1 0x40 MLOAD PUSH3 0x461BCD PUSH1 0xE5 SHL DUP2 MSTORE DUP1 PUSH2 0x2169 PUSH1 0x4 DUP3 ADD PUSH2 0x20F6 JUMP JUMPDEST SUB SWAP1 REVERT JUMPDEST SWAP1 PUSH1 0x1 PUSH1 0x1 PUSH1 0xA0 SHL SUB DUP1 DUP1 PUSH2 0x2181 DUP5 PUSH2 0x1F50 JUMP JUMPDEST AND SWAP4 AND SWAP2 DUP4 DUP4 EQ SWAP4 DUP5 ISZERO PUSH2 0x21B4 JUMPI JUMPDEST POP DUP4 ISZERO PUSH2 0x219E JUMPI JUMPDEST POP POP POP SWAP1 JUMP JUMPDEST PUSH2 0x21AA SWAP2 SWAP3 SWAP4 POP PUSH2 0x2056 JUMP JUMPDEST AND EQ CODESIZE DUP1 DUP1 PUSH2 0x2198 JUMP JUMPDEST SWAP1 SWAP4 POP PUSH1 0x0 MSTORE PUSH1 0x5 PUSH1 0x20 MSTORE PUSH1 0x40 PUSH1 0x0 KECCAK256 DUP3 PUSH1 0x0 MSTORE PUSH1 0x20 MSTORE PUSH1 0xFF PUSH1 0x40 PUSH1 0x0 KECCAK256 SLOAD AND SWAP3 CODESIZE PUSH2 0x2190 JUMP JUMPDEST ISZERO PUSH2 0x21E2 JUMPI JUMP JUMPDEST PUSH1 0x40 MLOAD PUSH3 0x461BCD PUSH1 0xE5 SHL DUP2 MSTORE PUSH1 0x20 PUSH1 0x4 DUP3 ADD MSTORE PUSH1 0x25 PUSH1 0x24 DUP3 ADD MSTORE PUSH32 0x4552433732313A207472616E736665722066726F6D20696E636F727265637420 PUSH1 0x44 DUP3 ADD MSTORE PUSH5 0x37BBB732B9 PUSH1 0xD9 SHL PUSH1 0x64 DUP3 ADD MSTORE PUSH1 0x84 SWAP1 REVERT JUMPDEST PUSH2 0x2259 SWAP2 PUSH2 0x2242 DUP5 PUSH2 0x1F50 JUMP JUMPDEST PUSH1 0x1 PUSH1 0x1 PUSH1 0xA0 SHL SUB SWAP4 DUP5 DUP5 AND SWAP4 SWAP2 DUP6 AND DUP5 EQ PUSH2 0x21DB JUMP JUMPDEST DUP4 DUP3 AND SWAP4 DUP5 ISZERO PUSH2 0x23F4 JUMPI DUP4 SWAP2 DUP3 PUSH2 0x2351 JUMPI POP PUSH2 0x22A3 SWAP3 PUSH1 0x9 SLOAD DUP8 PUSH1 0x0 MSTORE PUSH1 0xA PUSH1 0x20 MSTORE PUSH1 0x40 PUSH1 0x0 KECCAK256 SSTORE PUSH2 0x228A DUP8 PUSH2 0x25F0 JUMP JUMPDEST DUP3 DUP7 SUB PUSH2 0x231E JUMPI JUMPDEST POP PUSH2 0x229C DUP7 PUSH2 0x1F50 JUMP JUMPDEST AND EQ PUSH2 0x21DB JUMP JUMPDEST PUSH32 0xDDF252AD1BE2C89B69C2B068FC378DAA952BA7F163C4A11628F55A4DF523B3EF PUSH1 0x0 DUP5 DUP2 MSTORE PUSH1 0x4 PUSH1 0x20 MSTORE PUSH1 0x40 DUP2 KECCAK256 PUSH1 0x1 PUSH1 0x1 PUSH1 0x60 SHL SUB PUSH1 0xA0 SHL SWAP1 DUP2 DUP2 SLOAD AND SWAP1 SSTORE DUP4 DUP3 MSTORE PUSH1 0x3 PUSH1 0x20 MSTORE PUSH1 0x40 DUP3 KECCAK256 PUSH1 0x0 NOT DUP2 SLOAD ADD SWAP1 SSTORE DUP5 DUP3 MSTORE PUSH1 0x40 DUP3 KECCAK256 PUSH1 0x1 DUP2 SLOAD ADD SWAP1 SSTORE DUP6 DUP3 MSTORE PUSH1 0x2 PUSH1 0x20 MSTORE DUP5 PUSH1 0x40 DUP4 KECCAK256 SWAP2 DUP3 SLOAD AND OR SWAP1 SSTORE DUP1 LOG4 JUMP JUMPDEST PUSH2 0x2327 SWAP1 PUSH2 0x1E8D JUMP JUMPDEST PUSH1 0x40 PUSH1 0x0 DUP8 DUP2 MSTORE PUSH1 0x7 PUSH1 0x20 MSTORE DUP2 DUP2 KECCAK256 DUP4 DUP3 MSTORE PUSH1 0x20 MSTORE DUP9 DUP3 DUP3 KECCAK256 SSTORE DUP9 DUP2 MSTORE PUSH1 0x8 PUSH1 0x20 MSTORE KECCAK256 SSTORE CODESIZE PUSH2 0x2292 JUMP JUMPDEST DUP6 DUP4 SUB PUSH2 0x2363 JUMPI JUMPDEST POP PUSH2 0x22A3 SWAP3 PUSH2 0x228A JUMP JUMPDEST PUSH2 0x236E SWAP2 SWAP3 POP PUSH2 0x1E8D JUMP JUMPDEST PUSH1 0x0 NOT DUP2 ADD SWAP2 SWAP1 DUP3 GT PUSH2 0x35E JUMPI PUSH2 0x22A3 SWAP3 DUP5 SWAP3 PUSH1 0x0 SWAP1 DUP9 DUP3 MSTORE PUSH1 0x20 SWAP1 PUSH1 0x8 DUP3 MSTORE PUSH1 0x40 SWAP2 DUP3 DUP5 KECCAK256 SLOAD DUP3 DUP2 SUB PUSH2 0x23BD JUMPI JUMPDEST POP DUP11 DUP5 MSTORE DUP4 DUP4 DUP2 KECCAK256 SSTORE DUP7 DUP5 MSTORE PUSH1 0x7 DUP2 MSTORE DUP3 DUP5 KECCAK256 SWAP2 DUP5 MSTORE MSTORE DUP2 KECCAK256 SSTORE SWAP3 PUSH2 0x2359 JUMP JUMPDEST DUP8 DUP6 MSTORE PUSH1 0x7 DUP3 MSTORE DUP4 DUP6 KECCAK256 DUP4 DUP7 MSTORE DUP3 MSTORE DUP4 DUP6 KECCAK256 SLOAD DUP9 DUP7 MSTORE PUSH1 0x7 DUP4 MSTORE DUP5 DUP7 KECCAK256 DUP3 DUP8 MSTORE DUP4 MSTORE DUP1 DUP6 DUP8 KECCAK256 SSTORE DUP6 MSTORE PUSH1 0x8 DUP3 MSTORE DUP4 DUP6 KECCAK256 SSTORE CODESIZE PUSH2 0x239D JUMP JUMPDEST PUSH1 0x40 MLOAD PUSH3 0x461BCD PUSH1 0xE5 SHL DUP2 MSTORE PUSH1 0x20 PUSH1 0x4 DUP3 ADD MSTORE PUSH1 0x24 DUP1 DUP3 ADD MSTORE PUSH32 0x4552433732313A207472616E7366657220746F20746865207A65726F20616464 PUSH1 0x44 DUP3 ADD MSTORE PUSH4 0x72657373 PUSH1 0xE0 SHL PUSH1 0x64 DUP3 ADD MSTORE PUSH1 0x84 SWAP1 REVERT JUMPDEST SWAP2 SWAP3 PUSH1 0x0 SWAP3 SWAP1 SWAP2 SWAP1 DUP1 EXTCODESIZE ISZERO PUSH2 0x255B JUMPI PUSH2 0x2493 SWAP5 PUSH1 0x40 MLOAD DUP1 SWAP3 PUSH4 0xA85BD01 PUSH1 0xE1 SHL SWAP5 DUP6 DUP4 MSTORE CALLER PUSH1 0x4 DUP5 ADD MSTORE DUP8 PUSH1 0x24 DUP5 ADD MSTORE PUSH1 0x44 DUP4 ADD MSTORE PUSH1 0x80 PUSH1 0x64 DUP4 ADD MSTORE DUP2 DUP8 DUP2 PUSH1 0x20 SWAP11 DUP12 SWAP7 PUSH1 0x84 DUP4 ADD SWAP1 PUSH2 0x1C74 JUMP JUMPDEST SUB SWAP3 PUSH1 0x1 PUSH1 0x1 PUSH1 0xA0 SHL SUB AND GAS CALL DUP5 SWAP2 DUP2 PUSH2 0x2517 JUMPI JUMPDEST POP PUSH2 0x2506 JUMPI POP POP POP RETURNDATASIZE PUSH1 0x0 EQ PUSH2 0x24FE JUMPI RETURNDATASIZE PUSH2 0x24C2 DUP2 PUSH2 0x1DE3 JUMP JUMPDEST SWAP1 PUSH2 0x24D0 PUSH1 0x40 MLOAD SWAP3 DUP4 PUSH2 0x1DC2 JUMP JUMPDEST DUP2 MSTORE DUP1 SWAP2 DUP4 RETURNDATASIZE SWAP3 ADD RETURNDATACOPY JUMPDEST DUP1 MLOAD SWAP2 DUP3 PUSH2 0x24FB JUMPI PUSH1 0x40 MLOAD PUSH3 0x461BCD PUSH1 0xE5 SHL DUP2 MSTORE DUP1 PUSH2 0x2169 PUSH1 0x4 DUP3 ADD PUSH2 0x20F6 JUMP JUMPDEST ADD REVERT JUMPDEST POP PUSH1 0x60 PUSH2 0x24DA JUMP JUMPDEST PUSH1 0x1 PUSH1 0x1 PUSH1 0xE0 SHL SUB NOT AND EQ SWAP3 POP SWAP1 POP JUMP JUMPDEST SWAP1 SWAP2 POP DUP6 DUP2 DUP2 RETURNDATASIZE DUP4 GT PUSH2 0x2554 JUMPI JUMPDEST PUSH2 0x252F DUP2 DUP4 PUSH2 0x1DC2 JUMP JUMPDEST DUP2 ADD SUB SLT PUSH2 0x2550 JUMPI MLOAD PUSH1 0x1 PUSH1 0x1 PUSH1 0xE0 SHL SUB NOT DUP2 AND DUP2 SUB PUSH2 0x2550 JUMPI SWAP1 CODESIZE PUSH2 0x24A8 JUMP JUMPDEST DUP5 DUP1 REVERT JUMPDEST POP RETURNDATASIZE PUSH2 0x2525 JUMP JUMPDEST POP POP SWAP2 POP POP PUSH1 0x1 SWAP1 JUMP JUMPDEST SWAP3 SWAP4 PUSH1 0x0 SWAP4 SWAP1 SWAP3 SWAP2 DUP1 EXTCODESIZE ISZERO PUSH2 0x25E5 JUMPI SWAP5 DUP5 SWAP2 PUSH2 0x25BF SWAP7 PUSH1 0x40 MLOAD DUP1 SWAP5 DUP2 SWAP4 PUSH4 0xA85BD01 PUSH1 0xE1 SHL SWAP8 DUP9 DUP5 MSTORE CALLER PUSH1 0x4 DUP6 ADD MSTORE PUSH1 0x1 DUP1 PUSH1 0xA0 SHL SUB DUP1 SWAP3 AND PUSH1 0x24 DUP6 ADD MSTORE PUSH1 0x44 DUP5 ADD MSTORE PUSH1 0x80 PUSH1 0x64 DUP5 ADD MSTORE DUP3 PUSH1 0x20 SWAP12 DUP13 SWAP8 PUSH1 0x84 DUP4 ADD SWAP1 PUSH2 0x1C74 JUMP JUMPDEST SUB SWAP4 AND GAS CALL DUP5 SWAP2 DUP2 PUSH2 0x2517 JUMPI POP PUSH2 0x2506 JUMPI POP POP POP RETURNDATASIZE PUSH1 0x0 EQ PUSH2 0x24FE JUMPI RETURNDATASIZE PUSH2 0x24C2 DUP2 PUSH2 0x1DE3 JUMP JUMPDEST POP POP POP SWAP2 POP POP PUSH1 0x1 SWAP1 JUMP JUMPDEST PUSH1 0x9 SLOAD PUSH1 0x1 PUSH1 0x40 SHL DUP2 LT ISZERO PUSH2 0x1495 JUMPI PUSH1 0x1 DUP2 ADD DUP1 PUSH1 0x9 SSTORE DUP2 LT ISZERO PUSH2 0x147F JUMPI PUSH1 0x9 PUSH1 0x0 MSTORE PUSH32 0x6E1540171B6C0C960B71A7020D9F60077F6AF931A8BBF590DA0223DACF75C7AF ADD SSTORE JUMP JUMPDEST SWAP1 DUP1 PUSH1 0x20 SWAP4 SWAP3 DUP2 DUP5 MSTORE DUP5 DUP5 ADD CALLDATACOPY PUSH1 0x0 DUP3 DUP3 ADD DUP5 ADD MSTORE PUSH1 0x1F ADD PUSH1 0x1F NOT AND ADD ADD SWAP1 JUMP JUMPDEST ISZERO PUSH2 0x2660 JUMPI JUMP JUMPDEST PUSH1 0x40 MLOAD PUSH3 0x461BCD PUSH1 0xE5 SHL DUP2 MSTORE PUSH1 0x20 PUSH1 0x4 DUP3 ADD MSTORE PUSH1 0x1C PUSH1 0x24 DUP3 ADD MSTORE PUSH32 0x4552433732313A20746F6B656E20616C7265616479206D696E74656400000000 PUSH1 0x44 DUP3 ADD MSTORE PUSH1 0x64 SWAP1 REVERT JUMPDEST ISZERO PUSH2 0x26AC JUMPI JUMP JUMPDEST PUSH1 0x40 MLOAD PUSH3 0x461BCD PUSH1 0xE5 SHL DUP2 MSTORE PUSH1 0x20 PUSH1 0x4 DUP3 ADD MSTORE PUSH1 0x14 PUSH1 0x24 DUP3 ADD MSTORE PUSH20 0x151BDAD95B88191BD95CC81B9BDD08195E1A5CDD PUSH1 0x62 SHL PUSH1 0x44 DUP3 ADD MSTORE PUSH1 0x64 SWAP1 REVERT JUMPDEST PUSH1 0x0 DUP2 DUP2 MSTORE PUSH1 0x2 PUSH1 0x20 MSTORE PUSH1 0x40 SWAP1 KECCAK256 SLOAD SWAP1 SWAP2 SWAP1 PUSH1 0x1 PUSH1 0x1 PUSH1 0xA0 SHL SUB AND ISZERO PUSH2 0x2733 JUMPI PUSH2 0x2711 DUP3 PUSH2 0x1F50 JUMP JUMPDEST PUSH1 0x1 PUSH1 0x1 PUSH1 0xA0 SHL SUB DUP3 DUP2 AND SWAP2 AND EQ PUSH2 0x272C JUMPI PUSH2 0x1F73 SWAP2 PUSH2 0x2778 JUMP JUMPDEST POP POP PUSH1 0x1 SWAP1 JUMP JUMPDEST POP POP PUSH1 0x0 SWAP1 JUMP JUMPDEST ISZERO PUSH2 0x2741 JUMPI JUMP JUMPDEST PUSH1 0x40 MLOAD PUSH3 0x461BCD PUSH1 0xE5 SHL DUP2 MSTORE PUSH1 0x20 PUSH1 0x4 DUP3 ADD MSTORE PUSH1 0xF PUSH1 0x24 DUP3 ADD MSTORE PUSH15 0x2737BA103A37B5B2B71037BBB732B9 PUSH1 0x89 SHL PUSH1 0x44 DUP3 ADD MSTORE PUSH1 0x64 SWAP1 REVERT JUMPDEST SWAP1 PUSH1 0x40 SWAP2 PUSH1 0x0 MSTORE PUSH1 0xF PUSH1 0x20 MSTORE DUP2 PUSH1 0x0 KECCAK256 PUSH1 0x1 DUP1 PUSH1 0xA0 SHL SUB DUP1 SWAP3 AND PUSH1 0x0 MSTORE PUSH1 0x20 MSTORE DUP2 PUSH1 0x0 KECCAK256 SWAP1 DUP3 MLOAD SWAP1 PUSH2 0x27A9 DUP3 PUSH2 0x1D8C JUMP JUMPDEST DUP3 SLOAD AND DUP2 MSTORE PUSH1 0xFF PUSH1 0x2 PUSH1 0x1 DUP5 ADD SLOAD SWAP4 DUP5 PUSH1 0x20 DUP6 ADD MSTORE ADD SLOAD AND ISZERO ISZERO SWAP3 DUP4 SWAP2 ADD MSTORE DUP2 PUSH2 0x27D1 JUMPI POP SWAP1 JUMP JUMPDEST SWAP1 POP TIMESTAMP LT SWAP1 JUMP INVALID LOG2 PUSH5 0x6970667358 0x22 SLT KECCAK256 SLOAD PUSH25 0x9BD26A50A5FEF4AA5BEAB95F391A88EFF948CD42CAFF158DB8 SWAP3 COINBASE SWAP13 0xED 0xCE PUSH5 0x736F6C6343 STOP ADDMOD SGT STOP CALLER "},"methodIdentifiers":{"approve(address,uint256)":"095ea7b3","balanceOf(address)":"70a08231","deactivateGenome(uint256)":"2dc19ec8","getApproved(uint256)":"081812fc","getEncryptedDataCID(uint256)":"c085e705","getGenomeData(uint256)":"69357f4e","getOwnedTokens(address)":"d9d61655","grantQueryAccess(uint256,address,uint256)":"f07679f9","isApprovedForAll(address,address)":"e985e9c5","mintFee()":"13966db5","mintGenome(string,bytes32,string,string,uint256,string)":"1fb16f10","name()":"06fdde03","owner()":"8da5cb5b","ownerOf(uint256)":"6352211e","renounceOwnership()":"715018a6","revokeQueryAccess(uint256,address)":"2b9c91b3","safeTransferFrom(address,address,uint256)":"42842e0e","safeTransferFrom(address,address,uint256,bytes)":"b88d4fde","setApprovalForAll(address,bool)":"a22cb465","setMintFee(uint256)":"eddd0d9c","setTrustedAgent(address,bool)":"baa0b46b","supportsInterface(bytes4)":"01ffc9a7","symbol()":"95d89b41","tokenByIndex(uint256)":"4f6ccce7","tokenOfOwnerByIndex(address,uint256)":"2f745c59","tokenURI(uint256)":"c87b56dd","totalSupply()":"18160ddd","transferFrom(address,address,uint256)":"23b872dd","transferOwnership(address)":"f2fde38b","trustedAgents(address)":"9754f69b","verifyAccess(uint256,address)":"87884e85","verifyDataIntegrity(uint256,bytes32)":"89e0465b","withdraw()":"3ccfd60b"}}}}}