{
  "_format": "hh-sol-artifact-1",
  "contractName": "BountyMarket",
  "sourceName": "contracts/BountyMarket.sol",
  "abi": [
    {
      "inputs": [
        {
          "internalType": "address",
          "name": "_geneticNFT",
          "type": "address"
        }
      ],
      "stateMutability": "nonpayable",
      "type": "constructor"
    },
    {
      "anonymous": false,
      "inputs": [
        {
          "indexed": true,
          "internalType": "uint256",
          "name": "bountyId",
          "type": "uint256"
        },
        {
          "indexed": false,
          "internalType": "uint256",
          "name": "refundAmount",
          "type": "uint256"
        }
      ],
      "name": "BountyCancelled",
      "type": "event"
    },
    {
      "anonymous": false,
      "inputs": [
        {
          "indexed": true,
          "internalType": "uint256",
          "name": "bountyId",
          "type": "uint256"
        },
        {
          "indexed": true,
          "internalType": "address",
          "name": "researcher",
          "type": "address"
        },
        {
          "indexed": false,
          "internalType": "string",
          "name": "queryType",
          "type": "string"
        },
        {
          "indexed": false,
          "internalType": "uint256",
          "name": "rewardPerResponse",
          "type": "uint256"
        },
        {
          "indexed": false,
          "internalType": "uint256",
          "name": "maxResponses",
          "type": "uint256"
        },
        {
          "indexed": false,
          "internalType": "uint256",
          "name": "expiresAt",
          "type": "uint256"
        }
      ],
      "name": "BountyCreated",
      "type": "event"
    },
    {
      "anonymous": false,
      "inputs": [
        {
          "indexed": true,
          "internalType": "uint256",
          "name": "bountyId",
          "type": "uint256"
        }
      ],
      "name": "BountyExpired",
      "type": "event"
    },
    {
      "anonymous": false,
      "inputs": [
        {
          "indexed": true,
          "internalType": "uint256",
          "name": "bountyId",
          "type": "uint256"
        },
        {
          "indexed": true,
          "internalType": "uint256",
          "name": "responseId",
          "type": "uint256"
        },
        {
          "indexed": true,
          "internalType": "uint256",
          "name": "tokenId",
          "type": "uint256"
        },
        {
          "indexed": false,
          "internalType": "address",
          "name": "responder",
          "type": "address"
        },
        {
          "indexed": false,
          "internalType": "bool",
          "name": "result",
          "type": "bool"
        }
      ],
      "name": "BountyResponse",
      "type": "event"
    },
    {
      "anonymous": false,
      "inputs": [
        {
          "indexed": true,
          "internalType": "address",
          "name": "previousOwner",
          "type": "address"
        },
        {
          "indexed": true,
          "internalType": "address",
          "name": "newOwner",
          "type": "address"
        }
      ],
      "name": "OwnershipTransferred",
      "type": "event"
    },
    {
      "anonymous": false,
      "inputs": [
        {
          "indexed": false,
          "internalType": "address",
          "name": "account",
          "type": "address"
        }
      ],
      "name": "Paused",
      "type": "event"
    },
    {
      "anonymous": false,
      "inputs": [
        {
          "indexed": true,
          "internalType": "uint256",
          "name": "bountyId",
          "type": "uint256"
        },
        {
          "indexed": true,
          "internalType": "uint256",
          "name": "responseId",
          "type": "uint256"
        },
        {
          "indexed": true,
          "internalType": "address",
          "name": "responder",
          "type": "address"
        },
        {
          "indexed": false,
          "internalType": "uint256",
          "name": "amount",
          "type": "uint256"
        }
      ],
      "name": "RewardPaid",
      "type": "event"
    },
    {
      "anonymous": false,
      "inputs": [
        {
          "indexed": false,
          "internalType": "address",
          "name": "account",
          "type": "address"
        }
      ],
      "name": "Unpaused",
      "type": "event"
    },
    {
      "inputs": [],
      "name": "MAX_DURATION",
      "outputs": [
        {
          "internalType": "uint256",
          "name": "",
          "type": "uint256"
        }
      ],
      "stateMutability": "view",
      "type": "function"
    },
    {
      "inputs": [],
      "name": "MIN_DURATION",
      "outputs": [
        {
          "internalType": "uint256",
          "name": "",
          "type": "uint256"
        }
      ],
      "stateMutability": "view",
      "type": "function"
    },
    {
      "inputs": [
        {
          "internalType": "uint256",
          "name": "",
          "type": "uint256"
        }
      ],
      "name": "activeBountyIds",
      "outputs": [
        {
          "internalType": "uint256",
          "name": "",
          "type": "uint256"
        }
      ],
      "stateMutability": "view",
      "type": "function"
    },
    {
      "inputs": [
        {
          "internalType": "uint256",
          "name": "",
          "type": "uint256"
        }
      ],
      "name": "bounties",
      "outputs": [
        {
          "internalType": "uint256",
          "name": "id",
          "type": "uint256"
        },
        {
          "internalType": "address",
          "name": "researcher",
          "type": "address"
        },
        {
          "internalType": "string",
          "name": "queryType",
          "type": "string"
        },
        {
          "internalType": "string",
          "name": "queryParams",
          "type": "string"
        },
        {
          "internalType": "uint256",
          "name": "rewardPerResponse",
          "type": "uint256"
        },
        {
          "internalType": "uint256",
          "name": "maxResponses",
          "type": "uint256"
        },
        {
          "internalType": "uint256",
          "name": "responseCount",
          "type": "uint256"
        },
        {
          "internalType": "uint256",
          "name": "totalFunded",
          "type": "uint256"
        },
        {
          "internalType": "uint256",
          "name": "remainingFunds",
          "type": "uint256"
        },
        {
          "internalType": "uint256",
          "name": "createdAt",
          "type": "uint256"
        },
        {
          "internalType": "uint256",
          "name": "expiresAt",
          "type": "uint256"
        },
        {
          "internalType": "bool",
          "name": "isActive",
          "type": "bool"
        }
      ],
      "stateMutability": "view",
      "type": "function"
    },
    {
      "inputs": [
        {
          "internalType": "uint256",
          "name": "",
          "type": "uint256"
        },
        {
          "internalType": "uint256",
          "name": "",
          "type": "uint256"
        }
      ],
      "name": "bountyResponses",
      "outputs": [
        {
          "internalType": "uint256",
          "name": "",
          "type": "uint256"
        }
      ],
      "stateMutability": "view",
      "type": "function"
    },
    {
      "inputs": [
        {
          "internalType": "uint256",
          "name": "tokenId",
          "type": "uint256"
        },
        {
          "internalType": "uint256",
          "name": "bountyId",
          "type": "uint256"
        }
      ],
      "name": "canRespond",
      "outputs": [
        {
          "internalType": "bool",
          "name": "",
          "type": "bool"
        }
      ],
      "stateMutability": "view",
      "type": "function"
    },
    {
      "inputs": [
        {
          "internalType": "uint256",
          "name": "bountyId",
          "type": "uint256"
        }
      ],
      "name": "cancelBounty",
      "outputs": [],
      "stateMutability": "nonpayable",
      "type": "function"
    },
    {
      "inputs": [
        {
          "internalType": "string",
          "name": "queryType",
          "type": "string"
        },
        {
          "internalType": "string",
          "name": "queryParams",
          "type": "string"
        },
        {
          "internalType": "uint256",
          "name": "rewardPerResponse",
          "type": "uint256"
        },
        {
          "internalType": "uint256",
          "name": "maxResponses",
          "type": "uint256"
        },
        {
          "internalType": "uint256",
          "name": "duration",
          "type": "uint256"
        }
      ],
      "name": "createBounty",
      "outputs": [
        {
          "internalType": "uint256",
          "name": "",
          "type": "uint256"
        }
      ],
      "stateMutability": "payable",
      "type": "function"
    },
    {
      "inputs": [],
      "name": "geneticNFT",
      "outputs": [
        {
          "internalType": "contract IGeneticNFT",
          "name": "",
          "type": "address"
        }
      ],
      "stateMutability": "view",
      "type": "function"
    },
    {
      "inputs": [],
      "name": "getActiveBounties",
      "outputs": [
        {
          "components": [
            {
              "internalType": "uint256",
              "name": "id",
              "type": "uint256"
            },
            {
              "internalType": "address",
              "name": "researcher",
              "type": "address"
            },
            {
              "internalType": "string",
              "name": "queryType",
              "type": "string"
            },
            {
              "internalType": "string",
              "name": "queryParams",
              "type": "string"
            },
            {
              "internalType": "uint256",
              "name": "rewardPerResponse",
              "type": "uint256"
            },
            {
              "internalType": "uint256",
              "name": "maxResponses",
              "type": "uint256"
            },
            {
              "internalType": "uint256",
              "name": "responseCount",
              "type": "uint256"
            },
            {
              "internalType": "uint256",
              "name": "totalFunded",
              "type": "uint256"
            },
            {
              "internalType": "uint256",
              "name": "remainingFunds",
              "type": "uint256"
            },
            {
              "internalType": "uint256",
              "name": "createdAt",
              "type": "uint256"
            },
            {
              "internalType": "uint256",
              "name": "expiresAt",
              "type": "uint256"
            },
            {
              "internalType": "bool",
              "name": "isActive",
              "type": "bool"
            }
          ],
          "internalType": "struct BountyMarket.Bounty[]",
          "name": "",
          "type": "tuple[]"
        }
      ],
      "stateMutability": "view",
      "type": "function"
    },
    {
      "inputs": [
        {
          "internalType": "uint256",
          "name": "bountyId",
          "type": "uint256"
        }
      ],
      "name": "getBountyResponses",
      "outputs": [
        {
          "components": [
            {
              "internalType": "uint256",
              "name": "bountyId",
              "type": "uint256"
            },
            {
              "internalType": "uint256",
              "name": "tokenId",
              "type": "uint256"
            },
            {
              "internalType": "address",
              "name": "responder",
              "type": "address"
            },
            {
              "internalType": "bytes32",
              "name": "responseHash",
              "type": "bytes32"
            },
            {
              "internalType": "bytes",
              "name": "zkProof",
              "type": "bytes"
            },
            {
              "internalType": "bool",
              "name": "result",
              "type": "bool"
            },
            {
              "internalType": "uint256",
              "name": "timestamp",
              "type": "uint256"
            },
            {
              "internalType": "bool",
              "name": "isPaid",
              "type": "bool"
            }
          ],
          "internalType": "struct BountyMarket.Response[]",
          "name": "",
          "type": "tuple[]"
        }
      ],
      "stateMutability": "view",
      "type": "function"
    },
    {
      "inputs": [
        {
          "internalType": "uint256",
          "name": "",
          "type": "uint256"
        },
        {
          "internalType": "uint256",
          "name": "",
          "type": "uint256"
        }
      ],
      "name": "hasResponded",
      "outputs": [
        {
          "internalType": "bool",
          "name": "",
          "type": "bool"
        }
      ],
      "stateMutability": "view",
      "type": "function"
    },
    {
      "inputs": [],
      "name": "owner",
      "outputs": [
        {
          "internalType": "address",
          "name": "",
          "type": "address"
        }
      ],
      "stateMutability": "view",
      "type": "function"
    },
    {
      "inputs": [],
      "name": "pause",
      "outputs": [],
      "stateMutability": "nonpayable",
      "type": "function"
    },
    {
      "inputs": [],
      "name": "paused",
      "outputs": [
        {
          "internalType": "bool",
          "name": "",
          "type": "bool"
        }
      ],
      "stateMutability": "view",
      "type": "function"
    },
    {
      "inputs": [],
      "name": "platformFeeBps",
      "outputs": [
        {
          "internalType": "uint256",
          "name": "",
          "type": "uint256"
        }
      ],
      "stateMutability": "view",
      "type": "function"
    },
    {
      "inputs": [
        {
          "internalType": "uint256[]",
          "name": "bountyIds",
          "type": "uint256[]"
        }
      ],
      "name": "processExpiredBounties",
      "outputs": [],
      "stateMutability": "nonpayable",
      "type": "function"
    },
    {
      "inputs": [],
      "name": "renounceOwnership",
      "outputs": [],
      "stateMutability": "nonpayable",
      "type": "function"
    },
    {
      "inputs": [
        {
          "internalType": "uint256",
          "name": "bountyId",
          "type": "uint256"
        },
        {
          "internalType": "uint256",
          "name": "tokenId",
          "type": "uint256"
        },
        {
          "internalType": "bool",
          "name": "result",
          "type": "bool"
        },
        {
          "internalType": "bytes",
          "name": "zkProof",
          "type": "bytes"
        }
      ],
      "name": "respondToBounty",
      "outputs": [],
      "stateMutability": "nonpayable",
      "type": "function"
    },
    {
      "inputs": [
        {
          "internalType": "uint256",
          "name": "",
          "type": "uint256"
        }
      ],
      "name": "responses",
      "outputs": [
        {
          "internalType": "uint256",
          "name": "bountyId",
          "type": "uint256"
        },
        {
          "internalType": "uint256",
          "name": "tokenId",
          "type": "uint256"
        },
        {
          "internalType": "address",
          "name": "responder",
          "type": "address"
        },
        {
          "internalType": "bytes32",
          "name": "responseHash",
          "type": "bytes32"
        },
        {
          "internalType": "bytes",
          "name": "zkProof",
          "type": "bytes"
        },
        {
          "internalType": "bool",
          "name": "result",
          "type": "bool"
        },
        {
          "internalType": "uint256",
          "name": "timestamp",
          "type": "uint256"
        },
        {
          "internalType": "bool",
          "name": "isPaid",
          "type": "bool"
        }
      ],
      "stateMutability": "view",
      "type": "function"
    },
    {
      "inputs": [
        {
          "internalType": "address",
          "name": "_geneticNFT",
          "type": "address"
        }
      ],
      "name": "setGeneticNFT",
      "outputs": [],
      "stateMutability": "nonpayable",
      "type": "function"
    },
    {
      "inputs": [
        {
          "internalType": "uint256",
          "name": "newFeeBps",
          "type": "uint256"
        }
      ],
      "name": "setPlatformFee",
      "outputs": [],
      "stateMutability": "nonpayable",
      "type": "function"
    },
    {
      "inputs": [
        {
          "internalType": "address",
          "name": "newOwner",
          "type": "address"
        }
      ],
      "name": "transferOwnership",
      "outputs": [],
      "stateMutability": "nonpayable",
      "type": "function"
    },
    {
      "inputs": [],
      "name": "unpause",
      "outputs": [],
      "stateMutability": "nonpayable",
      "type": "function"
    },
    {
      "inputs": [],
      "name": "withdrawFees",
      "outputs": [],
      "stateMutability": "nonpayable",
      "type": "function"
    }
  ],
  "bytecode": "0x6080346100c857601f61252238819003918201601f19168301916001600160401b038311848410176100cd578084926020946040528339810103126100c857516001600160a01b039081811681036100c8576000543360018060a01b0319821617600055604051923391167f8be0079c531659141344cd1fd0a4f28419497f9722a3daafe3b4186f6b6457e0600080a3600180556002805460fa600a556001600160a81b03191660089290921b610100600160a81b031691909117905561243e90816100e48239f35b600080fd5b634e487b7160e01b600052604160045260246000fdfe6080604052600436101561001257600080fd5b60003560e01c806312e8e2c314611cb0578063220f8bc514611c8757806322dcd13e14611c695780633def1bcb14611c165780633f4ba83a14611b82578063476343ee14611aed5780635c975abb14611aca578063715018a614611a715780638456cb5914611a175780638da5cb5b146119ee578063a4938a0f146119cb578063b1724b46146119ad578063b4e5126914611653578063b629ed0014611626578063b6a6d17714611609578063b7bdffc8146113a2578063cb2489f514611363578063cf4e44d614610c5c578063d23e93e214610b24578063d9d6ffc4146104ed578063dc2f8744146103ec578063dffde26d146103b4578063e5e5dff1146102ab578063ed35d7e5146101fa5763f2fde38b1461012f57600080fd5b346101f55760203660031901126101f5576004356001600160a01b03818116918290036101f55761015e611f27565b81156101a157600054826001600160601b0360a01b821617600055167f8be0079c531659141344cd1fd0a4f28419497f9722a3daafe3b4186f6b6457e0600080a3005b60405162461bcd60e51b815260206004820152602660248201527f4f776e61626c653a206e6577206f776e657220697320746865207a65726f206160448201526564647265737360d01b6064820152608490fd5b600080fd5b346101f55760203660031901126101f55760043560005260066020526040600020805460018201549160018060a01b036002820154166003820154916102936040516102548161024d8160048701611e38565b0382611f06565b60ff6005840154169460ff6007600686015495015416946040519889988952602089015260408801526060870152610100806080880152860190611dac565b92151560a085015260c0840152151560e08301520390f35b346101f55760203660031901126101f5576004356102c76120bb565b600081815260056020526040902060018101546001600160a01b0316330361037a5780600b6008920180546102fe60ff8216612111565b60ff191690550160008154915580158015610346575b5060207f4fe522caf12f0adba1b0532093b34bea60fc859fb838ae075b44bcd15fcde9ff91604051908152a260018055005b8190600090610371575b600080809381933390f1156103655782610314565b6040513d6000823e3d90fd5b506108fc610350565b60405162461bcd60e51b81526020600482015260126024820152712737ba103137bab73a3c9031b932b0ba37b960711b6044820152606490fd5b346101f5576103c236611d73565b906000526008602052604060002090600052602052602060ff604060002054166040519015158152f35b346101f55760203660031901126101f55760043560005260056020526020604060002080549060018060a01b036001820154166040519161043b836104348160028501611e38565b0384611f06565b60405192610457846104508160038601611e38565b0385611f06565b600482015493600583015460068401546007850154916104ba6008870154946104ac60098901549760ff600b600a8c01549b0154169a6040519e8f9e8f908152015260408d61018091829101528d0190611dac565b908b820360608d0152611dac565b9760808a015260a089015260c088015260e087015261010086015261012085015261014084015215156101608301520390f35b60a03660031901126101f5576004356001600160401b0381116101f557610518903690600401611dd1565b906024356001600160401b0381116101f557610538903690600401611dd1565b9290916105436120bb565b61054b612077565b8115610aea578315610aae5760443515610a695760643515610a2457610e10608435101580610a15575b156109dd57610588606435604435611f7f565b936105a261271061059b600a5488611f7f565b0486611fa8565b938434106109a1576105b5600354611fb5565b95866003556105f76105c960843542611fa8565b92604051946105d786611ece565b8986523360208701526105eb368989611fdf565b60408701523691611fdf565b6060840152604435608084015260643560a0840152600060c08401528060e0840152610100830152426101208301526101408201526001610160820152846000526005602052604060002090805182556001820160018060a01b036020830151166001600160601b0360a01b82541617905560408101518051906001600160401b03821161088957819061069b826106926002880154611dfe565b60028801612016565b602090601f831160011461092f57600092610924575b50508160011b916000199060031b1c19161760028301555b60608101518051906001600160401b038211610889576106f9826106f06003870154611dfe565b60038701612016565b602090601f83116001146108aa579282600b9361016093610795979660009261089f575b50508160011b916000199060031b1c19161760038501555b6080810151600485015560a0810151600585015560c0810151600685015560e0810151600785015561010081015160088501556101208101516009850155610140810151600a8501550151151591019060ff801983541691151516179055565b600954600160401b8110156108895784916107f4836107db8460017f736ab752f6714f3191bc874ebe0b24d2daa1e5a5281882b7c59d90d19c45fda49601600955611d0e565b90919082549060031b91821b91600019901b1916179055565b61080060843542611fa8565b84604051926080845281608085015260a0840137600060a0868401015260443560208301526064356040830152606082015260a0813395601f80199101168101030190a380341161085b575b60208260018055604051908152f35b6000808061086a81943461206a565b818115610880575b3390f115610365578161084c565b506108fc610872565b634e487b7160e01b600052604160045260246000fd5b015190508b8061071d565b906003850160005260206000209160005b601f198516811061090c57508361016093610795979693600193600b97601f198116106108f3575b505050811b016003850155610735565b015160001960f88460031b161c191690558b80806108e3565b919260206001819286850151815501940192016108bb565b0151905088806106b1565b9250600285016000526020600020906000935b601f1984168510610986576001945083601f1981161061096d575b505050811b0160028301556106c9565b015160001960f88460031b161c1916905588808061095d565b81810151835560209485019460019093019290910190610942565b60405162461bcd60e51b8152602060048201526014602482015273496e73756666696369656e742066756e64696e6760601b6044820152606490fd5b60405162461bcd60e51b815260206004820152601060248201526f24b73b30b634b210323ab930ba34b7b760811b6044820152606490fd5b5062278d006084351115610575565b60405162461bcd60e51b815260206004820152601e60248201527f4d617820726573706f6e736573206d75737420626520706f73697469766500006044820152606490fd5b60405162461bcd60e51b815260206004820152601760248201527f526577617264206d75737420626520706f7369746976650000000000000000006044820152606490fd5b60405162461bcd60e51b8152602060048201526014602482015273496e76616c696420717565727920706172616d7360601b6044820152606490fd5b60405162461bcd60e51b8152602060048201526012602482015271496e76616c6964207175657279207479706560701b6044820152606490fd5b346101f5576020806003193601126101f557600435906001600160401b038083116101f557366023840112156101f55782600401359081116101f55760248301926005906024369184841b0101116101f55760005b828110610b8257005b610b8d8184876123f8565b356000528184526040600020600b8101805460ff811680610c4e575b610bbf575b505050610bba90611fb5565b610b79565b60ff19169055600881018054918215918215610c17575b5050505080610be9610bba9285886123f8565b357f7e45726102429d3393312813ea8bafe4c9b51580b5d82860d827662116ff9df2600080a2908680610bae565b60009384938493848094556001808060a01b0391015416908390610c45575bf1156103655785808080610bd6565b506108fc610c36565b50600a830154421015610ba9565b346101f55760803660031901126101f55760443580151581036101f5576064356001600160401b0381116101f557610c98903690600401611dd1565b9091610ca26120bb565b610caa612077565b6004356000526005602052604060002092610ccb60ff600b86015416612111565b600a84015442101561132d576006840154600585015411156112f0576024356000526008602052604060002060043560005260205260ff604060002054166112a15760018060a01b0360025460081c166040516331a9108f60e11b81526024356004820152602081602481855afa9081156103655760009161125f575b50336001600160a01b03909116036112285760006024916040519283809263349abfa760e11b8252823560048301525afa80156103655760c091600091611205575b500151156111c757602435600052600860205260406000206004356000526020526040600020600160ff19825416179055610dc86006850154611fb5565b6006850155610dd8600454611fb5565b928360045560405190600435602083015260243560408301523360601b606083015283151560f81b6074830152426075830152607582528160a08101106001600160401b0360a0840111176108895760a0820160405281516020830120610e4160a08401611eea565b60043560a0840152610e6d60c0840194602435865260e085019333855261010086019384523691611fdf565b91610120840192835285151561014085015242610160850152600061018085015286600052600660205260406000209460a08501518655516001860155600285019060018060a01b039051166001600160601b0360a01b825416179055516003840155518051906001600160401b03821161088957610efc82610ef36004870154611dfe565b60048701612016565b602090601f831160011461114d57928260079361018093610f7a9796600092611142575b50508160011b916000199060031b1c19161760048501555b610f586101408201511515600586019060ff801983541691151516179055565b61016081015160068501550151151591019060ff801983541691151516179055565b600435600052600760205260406000208054600160401b811015610889576107db81610fac9360018794018155611d5b565b604051903382521515602082015281602435917f21d2a330c9c55eee9f106192fc6ef6dc7f831e8c844821041b847769a888c666604060043592a46004356000526005602052604060002090806000526006602052604060002060078101805460ff811661110e576008850192600484549601958654116110d457600060028194928294936001849560ff191617905588549661104a88825461206a565b90550180549095906001600160a01b03168282156110cb575bf1156103655760018060a01b0390541691546040519081527f948a6b23642cd8250e916708e5abe784e0d7a2f77937955f8906335408fd7dec602060043592a46006810154600582015411156110ba575b60018055005b600b01805460ff19169055806110b4565b506108fc611063565b60405162461bcd60e51b8152602060048201526012602482015271496e73756666696369656e742066756e647360701b6044820152606490fd5b60405162461bcd60e51b815260206004820152600c60248201526b105b1c9958591e481c185a5960a21b6044820152606490fd5b015190508a80610f20565b906004850160005260206000209160005b601f19851681106111af57508361018093610f7a979693600193600797601f19811610611196575b505050811b016004850155610f38565b015160001960f88460031b161c191690558a8080611186565b9192602060018192868501518155019401920161115e565b60405162461bcd60e51b815260206004820152601660248201527547656e6f6d652064617461206e6f742061637469766560501b6044820152606490fd5b61122291503d806000833e61121a8183611f06565b810190612196565b86610d8a565b60405162461bcd60e51b815260206004820152600f60248201526e2737ba103a37b5b2b71037bbb732b960891b6044820152606490fd5b90506020813d602011611299575b8161127a60209383611f06565b810103126101f557516001600160a01b03811681036101f55786610d48565b3d915061126d565b60405162461bcd60e51b815260206004820152602160248201527f416c726561647920726573706f6e6465642077697468207468697320746f6b656044820152603760f91b6064820152608490fd5b60405162461bcd60e51b815260206004820152601560248201527413585e081c995cdc1bdb9cd95cc81c995858da1959605a1b6044820152606490fd5b60405162461bcd60e51b815260206004820152600e60248201526d109bdd5b9d1e48195e1c1a5c995960921b6044820152606490fd5b346101f55761137136611d73565b906000526007602052604060002080548210156101f55760209161139491611d5b565b90546040519160031b1c8152f35b346101f5576020806003193601126101f5576004356000526007808252604060002090604051808385829554938481520190600052856000209260005b878282106115f3575050506113f692500383611f06565b81519061140282612258565b916114106040519384611f06565b80835261141f601f1991612258565b018460005b8281106115a65750505060005b83518110156114ed57806114486114e8928661226f565b516000526006808752604060002090846040519261146584611eea565b8054845260018101548a85015260028101546001600160a01b031660408086019190915260038201546060860152516114a58161024d8160048601611e38565b608085015260ff9283600583015416151560a086015281015460c0850152015416151560e08201526114d7828661226f565b526114e2818561226f565b50611fb5565b611431565b604080518681528451818801819052600092600582901b8301810191878a01918a9085015b82871061151f5785850386f35b909192938280600192603f19898203018552875190815181528282015183820152848060a01b0360408301511660408201526060808301519082015260e080611578608080860151906101008091870152850190611dac565b9360a08082015115159085015260c08082015190850152015115159101529601920196019592919092611512565b6040516115b281611eea565b600081526000838201526000604082015260606000818301526080820152600060a0820152600060c0820152600060e0820152828287010152018590611424565b85548452600195860195889550930192016113df565b346101f55760003660031901126101f5576020604051610e108152f35b346101f55760003660031901126101f55760025460405160089190911c6001600160a01b03168152602090f35b346101f55760003660031901126101f55760008060098054915b82811061192b575061167e83612258565b9261168c6040519485611f06565b80845261169b601f1991612258565b0160005b8181106118be5750506000805b8381106117a3576040805160208082528751818301819052600093600582901b8401810192808b01929185015b8287106116e65785850386f35b909192938280600192603f1989820301855287519081518152848060a01b0383830151168382015261173d61172a6040840151610180806040860152840190611dac565b6060808501519084830390850152611dac565b916080808201519083015260a0808201519083015260c0808201519083015260e081015160e083015261010080820151908301526101208082015190830152610140808201519083015261016080910151151591015296019201960195929190926116d9565b6117ac81611d0e565b9054600391821b1c60005260059060209180835261024d611816604060002093604051956117d987611ece565b8554875260018601546001600160a01b0316908701526040516118038161024d8160028a01611e38565b6040870152604051928380928701611e38565b60608401526004820154608084015281015460a0830152600681015460c0830152600781015460e083015260088101546101008301528481015461012083015260ff600b600a830154928361014086015201541615159081610160840152816118b4575b5061188f575b5061188a90611fb5565b6116ac565b826118ad916118a261188a94958961226f565b526114e2818861226f565b9190611880565b905042108761187a565b6020906040516118cd81611ece565b600081528260008183015260608060408401528083015260006080830152600060a0830152600060c0830152600060e0830152600061010083015260006101208301526000610140830152600061016083015282880101520161169f565b61193481611d0e565b9054600391821b1c6000526005602081815260ff600b60406000200154169283611984575b50505061196f575b61196a90611fb5565b61166d565b9261197c61196a91611fb5565b939050611961565b9091925061199184611d0e565b9054911b1c60005252600a604060002001544210858080611959565b346101f55760003660031901126101f557602060405162278d008152f35b346101f55760206119e46119de36611d73565b90612283565b6040519015158152f35b346101f55760003660031901126101f5576000546040516001600160a01b039091168152602090f35b346101f55760003660031901126101f557611a30611f27565b611a38612077565b600160ff1960025416176002557f62e78cea01bee320cd4e420270b5ea74000d11b0c9f74754ebdbfc544b05a2586020604051338152a1005b346101f55760003660031901126101f557611a8a611f27565b600080546001600160a01b0319811682556001600160a01b03167f8be0079c531659141344cd1fd0a4f28419497f9722a3daafe3b4186f6b6457e08280a3005b346101f55760003660031901126101f557602060ff600254166040519015158152f35b346101f55760003660031901126101f557611b06611f27565b60006001906003545b80831115611b5557611b21824761206a565b80158015611b2b57005b6000808093819360018060a01b03835416908390611b4c575bf11561036557005b506108fc611b44565b90611b75611b7b9184600052600560205260086040600020015490611fa8565b92611fb5565b9190611b0f565b346101f55760003660031901126101f557611b9b611f27565b60025460ff811615611bda5760ff19166002557f5db9ee0a495bf2e6ff9c91a7834c1ba4fdd244a5e8aa4e537bd38aeae4b073aa6020604051338152a1005b60405162461bcd60e51b815260206004820152601460248201527314185d5cd8589b194e881b9bdd081c185d5cd95960621b6044820152606490fd5b346101f55760203660031901126101f5576004356001600160a01b03811681036101f557611c42611f27565b60028054610100600160a81b03191660089290921b610100600160a81b0316919091179055005b346101f55760003660031901126101f5576020600a54604051908152f35b346101f55760203660031901126101f5576004356009548110156101f557611394602091611d0e565b346101f55760203660031901126101f557600435611ccc611f27565b6103e88111611cda57600a55005b60405162461bcd60e51b815260206004820152600c60248201526b08ccaca40e8dede40d0d2ced60a31b6044820152606490fd5b600954811015611d455760096000527f6e1540171b6c0c960b71a7020d9f60077f6af931a8bbf590da0223dacf75c7af0190600090565b634e487b7160e01b600052603260045260246000fd5b8054821015611d455760005260206000200190600090565b60409060031901126101f5576004359060243590565b60005b838110611d9c5750506000910152565b8181015183820152602001611d8c565b90602091611dc581518092818552858086019101611d89565b601f01601f1916010190565b9181601f840112156101f5578235916001600160401b0383116101f557602083818601950101116101f557565b90600182811c92168015611e2e575b6020831014611e1857565b634e487b7160e01b600052602260045260246000fd5b91607f1691611e0d565b9060009291805491611e4983611dfe565b918282526001938481169081600014611eab5750600114611e6b575b50505050565b90919394506000526020928360002092846000945b838610611e97575050505001019038808080611e65565b805485870183015294019385908201611e80565b9294505050602093945060ff191683830152151560051b01019038808080611e65565b61018081019081106001600160401b0382111761088957604052565b61010081019081106001600160401b0382111761088957604052565b90601f801991011681019081106001600160401b0382111761088957604052565b6000546001600160a01b03163303611f3b57565b606460405162461bcd60e51b815260206004820152602060248201527f4f776e61626c653a2063616c6c6572206973206e6f7420746865206f776e65726044820152fd5b81810292918115918404141715611f9257565b634e487b7160e01b600052601160045260246000fd5b91908201809211611f9257565b6000198114611f925760010190565b6001600160401b03811161088957601f01601f191660200190565b929192611feb82611fc4565b91611ff96040519384611f06565b8294818452818301116101f5578281602093846000960137010152565b90601f811161202457505050565b600091825260208220906020601f850160051c83019410612060575b601f0160051c01915b82811061205557505050565b818155600101612049565b9092508290612040565b91908203918211611f9257565b60ff6002541661208357565b60405162461bcd60e51b815260206004820152601060248201526f14185d5cd8589b194e881c185d5cd95960821b6044820152606490fd5b6002600154146120cc576002600155565b60405162461bcd60e51b815260206004820152601f60248201527f5265656e7472616e637947756172643a207265656e7472616e742063616c6c006044820152606490fd5b1561211857565b60405162461bcd60e51b8152602060048201526011602482015270426f756e7479206e6f742061637469766560781b6044820152606490fd5b81601f820112156101f557805161216781611fc4565b926121756040519485611f06565b818452602082840101116101f5576121939160208085019101611d89565b90565b906020828203126101f55781516001600160401b03928382116101f5570160e0818303126101f5576040519260e08401848110828211176108895760405281518181116101f557836121e9918401612151565b84526020820151602085015260408201518181116101f5578361220d918401612151565b604085015260608201519081116101f55760c09261222c918301612151565b60608401526080810151608084015260a081015160a0840152015180151581036101f55760c082015290565b6001600160401b0381116108895760051b60200190565b8051821015611d455760209160051b010190565b90600080928282526005602052604092838320908451916122a383611ece565b8054835260018101546001600160a01b03908116602085015286519093906122d28161024d8160028701611e38565b8782015286516122e98161024d8160038701611e38565b6060820152600482015460808201526005820154918260a08301526006810154918260c0820152600782015460e08201526008820154610100820152600982015461012082015260ff600b600a8401549384610140850152015416159061016082159101526123ed574210156123e35710156123db57828452600860205284842090845260205260ff84842054166123d45760249060025460081c1693518094819363349abfa760e11b835260048301525afa8291816123b8575b506123ad575090565b60c091500151151590565b6123cd9192503d8085833e61121a8183611f06565b90386123a4565b5050505090565b505050505090565b5050505050505090565b505050505050505090565b9190811015611d455760051b019056fea2646970667358221220b5e8bfb57ee974718eb0aeaf730410a331cbf1e5f27f33166a35bf639f49754b64736f6c63430008130033",
  "linkReferences": {},
  "deployedLinkReferences": {}
}