{
  "_format": "hh-sol-artifact-1",
  "contractName": "GeneticNFT",
  "sourceName": "contracts/GeneticNFT.sol",
  "abi": [
    {
      "inputs": [],
      "stateMutability": "nonpayable",
      "type": "constructor"
    },
    {
      "anonymous": false,
      "inputs": [
        {
          "indexed": true,
          "internalType": "address",
          "name": "owner",
          "type": "address"
        },
        {
          "indexed": true,
          "internalType": "address",
          "name": "approved",
          "type": "address"
        },
        {
          "indexed": true,
          "internalType": "uint256",
          "name": "tokenId",
          "type": "uint256"
        }
      ],
      "name": "Approval",
      "type": "event"
    },
    {
      "anonymous": false,
      "inputs": [
        {
          "indexed": true,
          "internalType": "address",
          "name": "owner",
          "type": "address"
        },
        {
          "indexed": true,
          "internalType": "address",
          "name": "operator",
          "type": "address"
        },
        {
          "indexed": false,
          "internalType": "bool",
          "name": "approved",
          "type": "bool"
        }
      ],
      "name": "ApprovalForAll",
      "type": "event"
    },
    {
      "anonymous": false,
      "inputs": [
        {
          "indexed": false,
          "internalType": "uint256",
          "name": "_fromTokenId",
          "type": "uint256"
        },
        {
          "indexed": false,
          "internalType": "uint256",
          "name": "_toTokenId",
          "type": "uint256"
        }
      ],
      "name": "BatchMetadataUpdate",
      "type": "event"
    },
    {
      "anonymous": false,
      "inputs": [
        {
          "indexed": true,
          "internalType": "uint256",
          "name": "tokenId",
          "type": "uint256"
        }
      ],
      "name": "GenomeDeactivated",
      "type": "event"
    },
    {
      "anonymous": false,
      "inputs": [
        {
          "indexed": true,
          "internalType": "uint256",
          "name": "tokenId",
          "type": "uint256"
        },
        {
          "indexed": true,
          "internalType": "address",
          "name": "owner",
          "type": "address"
        },
        {
          "indexed": false,
          "internalType": "string",
          "name": "ipfsCID",
          "type": "string"
        },
        {
          "indexed": false,
          "internalType": "string",
          "name": "geneType",
          "type": "string"
        },
        {
          "indexed": false,
          "internalType": "uint256",
          "name": "timestamp",
          "type": "uint256"
        }
      ],
      "name": "GenomeMinted",
      "type": "event"
    },
    {
      "anonymous": false,
      "inputs": [
        {
          "indexed": false,
          "internalType": "uint256",
          "name": "_tokenId",
          "type": "uint256"
        }
      ],
      "name": "MetadataUpdate",
      "type": "event"
    },
    {
      "anonymous": false,
      "inputs": [
        {
          "indexed": true,
          "internalType": "address",
          "name": "previousOwner",
          "type": "address"
        },
        {
          "indexed": true,
          "internalType": "address",
          "name": "newOwner",
          "type": "address"
        }
      ],
      "name": "OwnershipTransferred",
      "type": "event"
    },
    {
      "anonymous": false,
      "inputs": [
        {
          "indexed": true,
          "internalType": "uint256",
          "name": "tokenId",
          "type": "uint256"
        },
        {
          "indexed": true,
          "internalType": "address",
          "name": "agent",
          "type": "address"
        },
        {
          "indexed": false,
          "internalType": "uint256",
          "name": "expiry",
          "type": "uint256"
        }
      ],
      "name": "QueryAccessGranted",
      "type": "event"
    },
    {
      "anonymous": false,
      "inputs": [
        {
          "indexed": true,
          "internalType": "uint256",
          "name": "tokenId",
          "type": "uint256"
        },
        {
          "indexed": true,
          "internalType": "address",
          "name": "agent",
          "type": "address"
        }
      ],
      "name": "QueryAccessRevoked",
      "type": "event"
    },
    {
      "anonymous": false,
      "inputs": [
        {
          "indexed": true,
          "internalType": "address",
          "name": "from",
          "type": "address"
        },
        {
          "indexed": true,
          "internalType": "address",
          "name": "to",
          "type": "address"
        },
        {
          "indexed": true,
          "internalType": "uint256",
          "name": "tokenId",
          "type": "uint256"
        }
      ],
      "name": "Transfer",
      "type": "event"
    },
    {
      "anonymous": false,
      "inputs": [
        {
          "indexed": true,
          "internalType": "address",
          "name": "agent",
          "type": "address"
        },
        {
          "indexed": false,
          "internalType": "bool",
          "name": "trusted",
          "type": "bool"
        }
      ],
      "name": "TrustedAgentUpdated",
      "type": "event"
    },
    {
      "inputs": [
        {
          "internalType": "address",
          "name": "to",
          "type": "address"
        },
        {
          "internalType": "uint256",
          "name": "tokenId",
          "type": "uint256"
        }
      ],
      "name": "approve",
      "outputs": [],
      "stateMutability": "nonpayable",
      "type": "function"
    },
    {
      "inputs": [
        {
          "internalType": "address",
          "name": "owner",
          "type": "address"
        }
      ],
      "name": "balanceOf",
      "outputs": [
        {
          "internalType": "uint256",
          "name": "",
          "type": "uint256"
        }
      ],
      "stateMutability": "view",
      "type": "function"
    },
    {
      "inputs": [
        {
          "internalType": "uint256",
          "name": "tokenId",
          "type": "uint256"
        }
      ],
      "name": "deactivateGenome",
      "outputs": [],
      "stateMutability": "nonpayable",
      "type": "function"
    },
    {
      "inputs": [
        {
          "internalType": "uint256",
          "name": "tokenId",
          "type": "uint256"
        }
      ],
      "name": "getApproved",
      "outputs": [
        {
          "internalType": "address",
          "name": "",
          "type": "address"
        }
      ],
      "stateMutability": "view",
      "type": "function"
    },
    {
      "inputs": [
        {
          "internalType": "uint256",
          "name": "tokenId",
          "type": "uint256"
        }
      ],
      "name": "getEncryptedDataCID",
      "outputs": [
        {
          "internalType": "string",
          "name": "",
          "type": "string"
        }
      ],
      "stateMutability": "view",
      "type": "function"
    },
    {
      "inputs": [
        {
          "internalType": "uint256",
          "name": "tokenId",
          "type": "uint256"
        }
      ],
      "name": "getGenomeData",
      "outputs": [
        {
          "components": [
            {
              "internalType": "string",
              "name": "ipfsCID",
              "type": "string"
            },
            {
              "internalType": "bytes32",
              "name": "dataHash",
              "type": "bytes32"
            },
            {
              "internalType": "string",
              "name": "encryptionAlgo",
              "type": "string"
            },
            {
              "internalType": "string",
              "name": "geneType",
              "type": "string"
            },
            {
              "internalType": "uint256",
              "name": "mintTimestamp",
              "type": "uint256"
            },
            {
              "internalType": "uint256",
              "name": "fileSize",
              "type": "uint256"
            },
            {
              "internalType": "bool",
              "name": "isActive",
              "type": "bool"
            }
          ],
          "internalType": "struct GeneticNFT.GenomeData",
          "name": "",
          "type": "tuple"
        }
      ],
      "stateMutability": "view",
      "type": "function"
    },
    {
      "inputs": [
        {
          "internalType": "address",
          "name": "owner",
          "type": "address"
        }
      ],
      "name": "getOwnedTokens",
      "outputs": [
        {
          "internalType": "uint256[]",
          "name": "",
          "type": "uint256[]"
        }
      ],
      "stateMutability": "view",
      "type": "function"
    },
    {
      "inputs": [
        {
          "internalType": "uint256",
          "name": "tokenId",
          "type": "uint256"
        },
        {
          "internalType": "address",
          "name": "agent",
          "type": "address"
        },
        {
          "internalType": "uint256",
          "name": "duration",
          "type": "uint256"
        }
      ],
      "name": "grantQueryAccess",
      "outputs": [],
      "stateMutability": "nonpayable",
      "type": "function"
    },
    {
      "inputs": [
        {
          "internalType": "address",
          "name": "owner",
          "type": "address"
        },
        {
          "internalType": "address",
          "name": "operator",
          "type": "address"
        }
      ],
      "name": "isApprovedForAll",
      "outputs": [
        {
          "internalType": "bool",
          "name": "",
          "type": "bool"
        }
      ],
      "stateMutability": "view",
      "type": "function"
    },
    {
      "inputs": [],
      "name": "mintFee",
      "outputs": [
        {
          "internalType": "uint256",
          "name": "",
          "type": "uint256"
        }
      ],
      "stateMutability": "view",
      "type": "function"
    },
    {
      "inputs": [
        {
          "internalType": "string",
          "name": "ipfsCID",
          "type": "string"
        },
        {
          "internalType": "bytes32",
          "name": "dataHash",
          "type": "bytes32"
        },
        {
          "internalType": "string",
          "name": "encryptionAlgo",
          "type": "string"
        },
        {
          "internalType": "string",
          "name": "geneType",
          "type": "string"
        },
        {
          "internalType": "uint256",
          "name": "fileSize",
          "type": "uint256"
        },
        {
          "internalType": "string",
          "name": "tokenURI_",
          "type": "string"
        }
      ],
      "name": "mintGenome",
      "outputs": [
        {
          "internalType": "uint256",
          "name": "",
          "type": "uint256"
        }
      ],
      "stateMutability": "payable",
      "type": "function"
    },
    {
      "inputs": [],
      "name": "name",
      "outputs": [
        {
          "internalType": "string",
          "name": "",
          "type": "string"
        }
      ],
      "stateMutability": "view",
      "type": "function"
    },
    {
      "inputs": [],
      "name": "owner",
      "outputs": [
        {
          "internalType": "address",
          "name": "",
          "type": "address"
        }
      ],
      "stateMutability": "view",
      "type": "function"
    },
    {
      "inputs": [
        {
          "internalType": "uint256",
          "name": "tokenId",
          "type": "uint256"
        }
      ],
      "name": "ownerOf",
      "outputs": [
        {
          "internalType": "address",
          "name": "",
          "type": "address"
        }
      ],
      "stateMutability": "view",
      "type": "function"
    },
    {
      "inputs": [],
      "name": "renounceOwnership",
      "outputs": [],
      "stateMutability": "nonpayable",
      "type": "function"
    },
    {
      "inputs": [
        {
          "internalType": "uint256",
          "name": "tokenId",
          "type": "uint256"
        },
        {
          "internalType": "address",
          "name": "agent",
          "type": "address"
        }
      ],
      "name": "revokeQueryAccess",
      "outputs": [],
      "stateMutability": "nonpayable",
      "type": "function"
    },
    {
      "inputs": [
        {
          "internalType": "address",
          "name": "from",
          "type": "address"
        },
        {
          "internalType": "address",
          "name": "to",
          "type": "address"
        },
        {
          "internalType": "uint256",
          "name": "tokenId",
          "type": "uint256"
        }
      ],
      "name": "safeTransferFrom",
      "outputs": [],
      "stateMutability": "nonpayable",
      "type": "function"
    },
    {
      "inputs": [
        {
          "internalType": "address",
          "name": "from",
          "type": "address"
        },
        {
          "internalType": "address",
          "name": "to",
          "type": "address"
        },
        {
          "internalType": "uint256",
          "name": "tokenId",
          "type": "uint256"
        },
        {
          "internalType": "bytes",
          "name": "data",
          "type": "bytes"
        }
      ],
      "name": "safeTransferFrom",
      "outputs": [],
      "stateMutability": "nonpayable",
      "type": "function"
    },
    {
      "inputs": [
        {
          "internalType": "address",
          "name": "operator",
          "type": "address"
        },
        {
          "internalType": "bool",
          "name": "approved",
          "type": "bool"
        }
      ],
      "name": "setApprovalForAll",
      "outputs": [],
      "stateMutability": "nonpayable",
      "type": "function"
    },
    {
      "inputs": [
        {
          "internalType": "uint256",
          "name": "newFee",
          "type": "uint256"
        }
      ],
      "name": "setMintFee",
      "outputs": [],
      "stateMutability": "nonpayable",
      "type": "function"
    },
    {
      "inputs": [
        {
          "internalType": "address",
          "name": "agent",
          "type": "address"
        },
        {
          "internalType": "bool",
          "name": "trusted",
          "type": "bool"
        }
      ],
      "name": "setTrustedAgent",
      "outputs": [],
      "stateMutability": "nonpayable",
      "type": "function"
    },
    {
      "inputs": [
        {
          "internalType": "bytes4",
          "name": "interfaceId",
          "type": "bytes4"
        }
      ],
      "name": "supportsInterface",
      "outputs": [
        {
          "internalType": "bool",
          "name": "",
          "type": "bool"
        }
      ],
      "stateMutability": "view",
      "type": "function"
    },
    {
      "inputs": [],
      "name": "symbol",
      "outputs": [
        {
          "internalType": "string",
          "name": "",
          "type": "string"
        }
      ],
      "stateMutability": "view",
      "type": "function"
    },
    {
      "inputs": [
        {
          "internalType": "uint256",
          "name": "index",
          "type": "uint256"
        }
      ],
      "name": "tokenByIndex",
      "outputs": [
        {
          "internalType": "uint256",
          "name": "",
          "type": "uint256"
        }
      ],
      "stateMutability": "view",
      "type": "function"
    },
    {
      "inputs": [
        {
          "internalType": "address",
          "name": "owner",
          "type": "address"
        },
        {
          "internalType": "uint256",
          "name": "index",
          "type": "uint256"
        }
      ],
      "name": "tokenOfOwnerByIndex",
      "outputs": [
        {
          "internalType": "uint256",
          "name": "",
          "type": "uint256"
        }
      ],
      "stateMutability": "view",
      "type": "function"
    },
    {
      "inputs": [
        {
          "internalType": "uint256",
          "name": "tokenId",
          "type": "uint256"
        }
      ],
      "name": "tokenURI",
      "outputs": [
        {
          "internalType": "string",
          "name": "",
          "type": "string"
        }
      ],
      "stateMutability": "view",
      "type": "function"
    },
    {
      "inputs": [],
      "name": "totalSupply",
      "outputs": [
        {
          "internalType": "uint256",
          "name": "",
          "type": "uint256"
        }
      ],
      "stateMutability": "view",
      "type": "function"
    },
    {
      "inputs": [
        {
          "internalType": "address",
          "name": "from",
          "type": "address"
        },
        {
          "internalType": "address",
          "name": "to",
          "type": "address"
        },
        {
          "internalType": "uint256",
          "name": "tokenId",
          "type": "uint256"
        }
      ],
      "name": "transferFrom",
      "outputs": [],
      "stateMutability": "nonpayable",
      "type": "function"
    },
    {
      "inputs": [
        {
          "internalType": "address",
          "name": "newOwner",
          "type": "address"
        }
      ],
      "name": "transferOwnership",
      "outputs": [],
      "stateMutability": "nonpayable",
      "type": "function"
    },
    {
      "inputs": [
        {
          "internalType": "address",
          "name": "",
          "type": "address"
        }
      ],
      "name": "trustedAgents",
      "outputs": [
        {
          "internalType": "bool",
          "name": "",
          "type": "bool"
        }
      ],
      "stateMutability": "view",
      "type": "function"
    },
    {
      "inputs": [
        {
          "internalType": "uint256",
          "name": "tokenId",
          "type": "uint256"
        },
        {
          "internalType": "address",
          "name": "accessor",
          "type": "address"
        }
      ],
      "name": "verifyAccess",
      "outputs": [
        {
          "internalType": "bool",
          "name": "",
          "type": "bool"
        }
      ],
      "stateMutability": "view",
      "type": "function"
    },
    {
      "inputs": [
        {
          "internalType": "uint256",
          "name": "tokenId",
          "type": "uint256"
        },
        {
          "internalType": "bytes32",
          "name": "dataHash",
          "type": "bytes32"
        }
      ],
      "name": "verifyDataIntegrity",
      "outputs": [
        {
          "internalType": "bool",
          "name": "",
          "type": "bool"
        }
      ],
      "stateMutability": "view",
      "type": "function"
    },
    {
      "inputs": [],
      "name": "withdraw",
      "outputs": [],
      "stateMutability": "nonpayable",
      "type": "function"
    }
  ],
  "bytecode": "0x60803462000371576001600160401b0390604090808201838111828210176200035b578252601181526020917048656c69785661756c742047656e6f6d6560781b83830152805193818501858110828211176200035b57825260058552640908a9892b60db1b8486015282518181116200035b576000948554916001958684811c9416801562000350575b838510146200033c578190601f94858111620002e9575b5083908583116001146200028557899262000279575b5050600019600383901b1c191690861b1786555b8651928311620002655784548581811c911680156200025a575b828210146200024657828111620001fe575b50809183116001146200019557508495829394959262000189575b5050600019600383901b1c191690831b1782555b600b8054336001600160a01b03198216811790925591519390916001600160a01b0316907f8be0079c531659141344cd1fd0a4f28419497f9722a3daafe3b4186f6b6457e09080a3600c5566038d7ea4c6800060125561280e9081620003778239f35b01519050388062000112565b90601f198316968587528287209287905b898210620001e65750508386979896959610620001cc575b505050811b01825562000126565b015160001960f88460031b161c19169055388080620001be565b808885968294968601518155019501930190620001a6565b8587528187208380860160051c8201928487106200023c575b0160051c019086905b82811062000230575050620000f7565b88815501869062000220565b9250819262000217565b634e487b7160e01b87526022600452602487fd5b90607f1690620000e5565b634e487b7160e01b86526041600452602486fd5b015190503880620000b7565b898052848a208994509190601f1984168b5b87828210620002d25750508411620002b8575b505050811b018655620000cb565b015160001960f88460031b161c19169055388080620002aa565b8385015186558c9790950194938401930162000297565b9091508880528389208580850160051c82019286861062000332575b918a91869594930160051c01915b82811062000323575050620000a1565b8b81558594508a910162000313565b9250819262000305565b634e487b7160e01b88526022600452602488fd5b93607f16936200008a565b634e487b7160e01b600052604160045260246000fd5b600080fdfe608080604052600436101561001357600080fd5b60003560e01c90816301ffc9a714611bd55750806306fdde0314611b32578063081812fc14611b14578063095ea7b31461199a57806313966db51461197c57806318160ddd1461195e5780631fb16f1014610f6157806323b872dd14610f3d5780632b9c91b314610eb25780632dc19ec814610e425780632f745c5914610d905780633ccfd60b14610d4057806342842e0e14610d0d5780634f6ccce714610c625780636352211e14610c3257806369357f4e14610adc57806370a0823114610ab1578063715018a614610a5457806387884e8514610a2457806389e0465b146109ce5780638da5cb5b146109a557806395d89b41146108c65780639754f69b14610887578063a22cb465146107c2578063b88d4fde1461073b578063baa0b46b146106cf578063c085e70514610596578063c87b56dd14610520578063d9d616551461046c578063e985e9c514610416578063eddd0d9c146103f5578063f07679f9146102535763f2fde38b1461018a57600080fd5b3461024e57602036600319011261024e576101a3611cb4565b6101ab611e35565b6001600160a01b039081169081156101fa57600b54826001600160601b0360a01b821617600b55167f8be0079c531659141344cd1fd0a4f28419497f9722a3daafe3b4186f6b6457e0600080a3005b60405162461bcd60e51b815260206004820152602660248201527f4f776e61626c653a206e6577206f776e657220697320746865207a65726f206160448201526564647265737360d01b6064820152608490fd5b600080fd5b3461024e57606036600319011261024e5760043561026f611cca565b906102956044359261028083611f50565b6001600160a01b03928392918316331461273a565b1692836000526020906011825260ff60406000205416156103b957801515806103ac575b1561037457420180421161035e576103557f4c5a8c27a4b5d1e1f99babbb397591032d6bcbecadfa1cf89214ccf69ded111b936002604051916102fb83611d8c565b88835285830185815260408401916001835289600052600f885260406000208b600052885260406000209451166001600160601b0360a01b85541617845551600184015551151591019060ff801983541691151516179055565b604051908152a3005b634e487b7160e01b600052601160045260246000fd5b60405162461bcd60e51b815260048101839052601060248201526f24b73b30b634b210323ab930ba34b7b760811b6044820152606490fd5b50620151808111156102b9565b60405162461bcd60e51b81526004810183905260146024820152731059d95b9d081a5cc81b9bdd081d1c9d5cdd195960621b6044820152606490fd5b3461024e57602036600319011261024e5761040e611e35565b600435601255005b3461024e57604036600319011261024e5761042f611cb4565b610437611cca565b9060018060a01b03809116600052600560205260406000209116600052602052602060ff604060002054166040519015158152f35b3461024e5760208060031936011261024e576001600160a01b0361048e611cb4565b1660005260108152604060002060405190818382549182815201908192600052846000209060005b8682821061050c5786866104cc82880383611dc2565b604051928392818401908285525180915260408401929160005b8281106104f557505050500390f35b8351855286955093810193928101926001016104e6565b8354855290930192600192830192016104b6565b3461024e57602036600319011261024e57600435600081815260026020526040902054610557906001600160a01b03161515611f04565b600052600660205261059261056f6040600020611fb0565b600060405161057d81611da7565b52604051918291602083526020830190611c74565b0390f35b3461024e5760208060031936011261024e576004356000818152600260205260409020546105d3906001600160a01b031615156126a5565b6126a5565b6105dc81611f50565b6001600160a01b0316331480156106bf575b1561067a5780600052600e825260ff600660406000200154161561063557600052600e81526106206040600020611fb0565b90610592604051928284938452830190611c74565b60405162461bcd60e51b815260048101839052601a60248201527f47656e6f6d6520646174612069732064656163746976617465640000000000006044820152606490fd5b60405162461bcd60e51b815260048101839052601d60248201527f4e6f7420617574686f72697a656420746f2061636365737320646174610000006044820152606490fd5b506106ca3382612778565b6105ee565b3461024e5760207fb79006c11ba71c59f37a939fd5b717c19b04eb056694b3674099a80694ddc4d261070036611d42565b929061070a611e35565b6001600160a01b031660008181526011835260409020805460ff191660ff86151516179055926040519015158152a2005b3461024e57608036600319011261024e57610754611cb4565b61075c611cca565b90606435906044356001600160401b03831161024e573660238401121561024e576107c0936107986107bb943690602481600401359101611dfe565b926107ab6107a6843361216d565b612094565b6107b6838383612235565b612565565b612149565b005b3461024e576107d036611d42565b6001600160a01b0390911690338214610842573360005260056020526040600020826000526020526108128160406000209060ff801983541691151516179055565b60405190151581527f17307eab39ab6107e8899845ad3d59bd9653f200f220920489ca2b5937696c3160203392a3005b60405162461bcd60e51b815260206004820152601960248201527f4552433732313a20617070726f766520746f2063616c6c6572000000000000006044820152606490fd5b3461024e57602036600319011261024e576001600160a01b036108a8611cb4565b166000526011602052602060ff604060002054166040519015158152f35b3461024e57600036600319011261024e57604051600060018054906108ea82611f76565b8085529181811690811561097e5750600114610925575b6105928461091181860382611dc2565b604051918291602083526020830190611c74565b600081815292507fb10e2d527612073b26eecdfd717e6a320cf44b4afac2b0732d9fcbe2b7fa0cf65b82841061096657505050810160200161091182610901565b8054602085870181019190915290930192810161094e565b60ff191660208087019190915292151560051b850190920192506109119150839050610901565b3461024e57600036600319011261024e57600b546040516001600160a01b039091168152602090f35b3461024e57604036600319011261024e57600435600081815260026020526040902054610a05906001600160a01b031615156126a5565b600052600e602052602060243560016040600020015414604051908152f35b3461024e57604036600319011261024e576020610a4a610a42611cca565b6004356126e8565b6040519015158152f35b3461024e57600036600319011261024e57610a6d611e35565b600b80546001600160a01b031981169091556000906001600160a01b03167f8be0079c531659141344cd1fd0a4f28419497f9722a3daafe3b4186f6b6457e08280a3005b3461024e57602036600319011261024e576020610ad4610acf611cb4565b611e8d565b604051908152f35b3461024e5760208060031936011261024e5760405190600435610afe83611d71565b600060c0606094858152828582015285604082015285808201528260808201528260a08201520152610b486105ce82600052600260205260018060a01b0360406000205416151590565b600052600e8152604060002060405192610b6184611d71565b610b6a82611fb0565b8452600182015491838501928352610c19610b8760028301611fb0565b9260408701938452610b9b60038401611fb0565b90808801918252610c0860048501549660808a0197885260ff600660058801549760a08d019889520154169660c08b019715158852610bee8a60e06040519d8e9d8e5251918d01526101008c0190611c74565b915160408b015251601f1993848b840301908b0152611c74565b915190878303016080880152611c74565b925160a08501525160c084015251151560e08301520390f35b3461024e57602036600319011261024e576020610c50600435611f50565b6040516001600160a01b039091168152f35b3461024e57602036600319011261024e57600435600954811015610cb35760209060096000527f6e1540171b6c0c960b71a7020d9f60077f6af931a8bbf590da0223dacf75c7af0154604051908152f35b60405162461bcd60e51b815260206004820152602c60248201527f455243373231456e756d657261626c653a20676c6f62616c20696e646578206f60448201526b7574206f6620626f756e647360a01b6064820152608490fd5b3461024e576107c06107bb610d2136611d0d565b9060405192610d2f84611da7565b600084526107ab6107a6843361216d565b3461024e57600036600319011261024e57610d59611e35565b600080808060018060a01b03600b54164790828215610d87575bf115610d7b57005b6040513d6000823e3d90fd5b506108fc610d73565b3461024e57604036600319011261024e57610da9611cb4565b60243590610db681611e8d565b821015610de95760018060a01b031660005260076020526040600020906000526020526020604060002054604051908152f35b60405162461bcd60e51b815260206004820152602b60248201527f455243373231456e756d657261626c653a206f776e657220696e646578206f7560448201526a74206f6620626f756e647360a81b6064820152608490fd5b3461024e57602036600319011261024e57600435610e72610e6282611f50565b6001600160a01b0316331461273a565b80600052600e602052600660406000200160ff1981541690557f75ea8b448d1956bfebcacf251544bc2adfe8237a19a5829e6d07e819c230a29a600080a2005b3461024e57604036600319011261024e57600435610ece611cca565b90610ed881611f50565b6001600160a01b0390610eee908216331461273a565b81600052600f602052604060002092169182600052602052600260406000200160ff1981541690557fd5c930cd6ae2e2972c1991b8477bcf4d612abefa18a977ac1abfaae21dc4eed9600080a3005b3461024e576107c0610f4e36611d0d565b91610f5c6107a6843361216d565b612235565b60c036600319011261024e576004356001600160401b03811161024e57610f8c903690600401611ce0565b6044356001600160401b03811161024e57610fab903690600401611ce0565b90926064356001600160401b03811161024e57610fcc903690600401611ce0565b9260a4356001600160401b03811161024e57610fec903690600401611ce0565b6002600c9892985414611919576002600c5560125434106118dc5786156118a4576024351561186b576001600d54019788600d556040519161102d83611da7565b6000835233156118275761113e6107bb611145946110da61106a8e61107061106a82600052600260205260018060a01b0360406000205416151590565b15612659565b60095481600052600a60205260406000205561108b816125f0565b61109433611e8d565b33600052600760205260406000208160005260205281604060002055816000526008602052604060002055600052600260205260018060a01b0360406000205416151590565b3360005260036020526040600020600181540190558c60005260026020526040600020336001600160601b0360a01b8254161790558c3360007fddf252ad1be2c89b69c2b068fc378daa952ba7f163c4a11628f55a4df523b3ef8180a48c33612445565b3691611dfe565b6000888152600260205260409020546001600160a01b0316156117cb578760005260066020526040600020908051906001600160401b0382116114955761118c8354611f76565b601f8111611787575b50602090601f83116001146117185761121c949392916000918361170d575b50508160011b916000199060031b1c19161790555b7ff8e1a15aba9398e019f0b49df1a4fde98ee17ae345cb5f6b5e2c27f5033e8ce760206040518a8152a16040519261120084611d71565b61120b368988611dfe565b845260243560208501523691611dfe565b604082015261122c368584611dfe565b606082015242608082015260843560a0820152600160c082015285600052600e60205260406000209080518051906001600160401b0382116114955781906112748554611f76565b601f81116116bd575b50602090601f831160011461165157600092611646575b50508160011b916000199060031b1c19161782555b6020810151600183015560408101518051906001600160401b0382116114955781906112d86002860154611f76565b601f81116115f3575b50602090601f831160011461158157600092611576575b50508160011b916000199060031b1c19161760028301555b60608101518051906001600160401b038211611495576113336003850154611f76565b601f811161152f575b50602090601f83116001146114b657928260069360c0936113a397966000926114ab575b50508160011b916000199060031b1c19161760038501555b6080810151600485015560a081015160058501550151151591019060ff801983541691151516179055565b336000526010602052604060002090815493600160401b851015611495576001850180845585101561147f576114177f07d612051a32fc8909d20e811bbe0838a365b8810c679ecfeea6f8eb7100668694888097611425966000526020600020015560405197606089526060890191612638565b918683036020880152612638565b924260408201528033940390a360125480341161144d575b6020826001600c55604051908152f35b8034039034821161035e576000808093819382903414611476575b3390f115610d7b578161143d565b506108fc611468565b634e487b7160e01b600052603260045260246000fd5b634e487b7160e01b600052604160045260246000fd5b015190508c80611360565b906003850160005260206000209160005b601f198516811061151757508360c0936113a3979693600193600697601f198116106114fe575b505050811b016003850155611378565b015160001960f88460031b161c191690558c80806114ee565b919260206001819286850151815501940192016114c7565b600385016000526020600020601f840160051c81016020851061156f575b601f830160051c8201811061156357505061133c565b6000815560010161154d565b508061154d565b0151905089806112f8565b9250600285016000526020600020906000935b601f19841685106115d8576001945083601f198116106115bf575b505050811b016002830155611310565b015160001960f88460031b161c191690558980806115af565b81810151835560209485019460019093019290910190611594565b909150600285016000526020600020601f840160051c81016020851061163f575b90849392915b601f830160051c820181106116305750506112e1565b6000815585945060010161161a565b5080611614565b015190508980611294565b9250846000526020600020906000935b601f19841685106116a2576001945083601f19811610611689575b505050811b0182556112a9565b015160001960f88460031b161c1916905589808061167c565b81810151835560209485019460019093019290910190611661565b909150846000526020600020601f840160051c810160208510611706575b90849392915b601f830160051c820181106116f757505061127d565b600081558594506001016116e1565b50806116db565b015190508b806111b4565b908360005260206000209160005b601f198516811061176f575091839160019361121c979695601f19811610611756575b505050811b0190556111c9565b015160001960f88460031b161c191690558b8080611749565b91926020600181928685015181550194019201611726565b836000526020600020601f840160051c8101602085106117c4575b601f830160051c820181106117b8575050611195565b600081556001016117a2565b50806117a2565b60405162461bcd60e51b815260206004820152602e60248201527f45524337323155524953746f726167653a2055524920736574206f66206e6f6e60448201526d32bc34b9ba32b73a103a37b5b2b760911b6064820152608490fd5b606460405162461bcd60e51b815260206004820152602060248201527f4552433732313a206d696e7420746f20746865207a65726f20616464726573736044820152fd5b60405162461bcd60e51b8152602060048201526011602482015270092dcecc2d8d2c840c8c2e8c240d0c2e6d607b1b6044820152606490fd5b60405162461bcd60e51b815260206004820152601060248201526f125b9d985b1a590812541194c810d25160821b6044820152606490fd5b60405162461bcd60e51b8152602060048201526015602482015274496e73756666696369656e74206d696e742066656560581b6044820152606490fd5b60405162461bcd60e51b815260206004820152601f60248201527f5265656e7472616e637947756172643a207265656e7472616e742063616c6c006044820152606490fd5b3461024e57600036600319011261024e576020600954604051908152f35b3461024e57600036600319011261024e576020601254604051908152f35b3461024e57604036600319011261024e576119b3611cb4565b602435906001600160a01b0380806119ca85611f50565b16921691808314611ac557803314908115611aa0575b5015611a3557600083815260046020526040902080546001600160a01b03191683179055611a0d83611f50565b167f8c5be1e5ebec7d5bd14f71427d1e84f3dd0314c0f7b2291e5b200ac8c7c3b925600080a4005b60405162461bcd60e51b815260206004820152603d60248201527f4552433732313a20617070726f76652063616c6c6572206973206e6f7420746f60448201527f6b656e206f776e6572206f7220617070726f76656420666f7220616c6c0000006064820152608490fd5b9050600052600560205260406000203360005260205260ff60406000205416846119e0565b60405162461bcd60e51b815260206004820152602160248201527f4552433732313a20617070726f76616c20746f2063757272656e74206f776e656044820152603960f91b6064820152608490fd5b3461024e57602036600319011261024e576020610c50600435612056565b3461024e57600036600319011261024e5760405160008054611b5381611f76565b8084529060019081811690811561097e5750600114611b7c576105928461091181860382611dc2565b600080805292507f290decd9548b62a8d60345a988386fc84ba6bc95484008f6362f93160ef3e5635b828410611bbd57505050810160200161091182610901565b80546020858701810191909152909301928101611ba5565b3461024e57602036600319011261024e576004359063ffffffff60e01b821680920361024e5760209163780e9d6360e01b8114908115611c17575b5015158152f35b632483248360e11b811491508115611c31575b5083611c10565b6380ac58cd60e01b811491508115611c63575b8115611c52575b5083611c2a565b6301ffc9a760e01b14905083611c4b565b635b5e139f60e01b81149150611c44565b919082519283825260005b848110611ca0575050826000602080949584010152601f8019910116010190565b602081830181015184830182015201611c7f565b600435906001600160a01b038216820361024e57565b602435906001600160a01b038216820361024e57565b9181601f8401121561024e578235916001600160401b03831161024e576020838186019501011161024e57565b606090600319011261024e576001600160a01b0390600435828116810361024e5791602435908116810361024e579060443590565b604090600319011261024e576004356001600160a01b038116810361024e5790602435801515810361024e5790565b60e081019081106001600160401b0382111761149557604052565b606081019081106001600160401b0382111761149557604052565b602081019081106001600160401b0382111761149557604052565b90601f801991011681019081106001600160401b0382111761149557604052565b6001600160401b03811161149557601f01601f191660200190565b929192611e0a82611de3565b91611e186040519384611dc2565b82948184528183011161024e578281602093846000960137010152565b600b546001600160a01b03163303611e4957565b606460405162461bcd60e51b815260206004820152602060248201527f4f776e61626c653a2063616c6c6572206973206e6f7420746865206f776e65726044820152fd5b6001600160a01b03168015611ead57600052600360205260406000205490565b60405162461bcd60e51b815260206004820152602960248201527f4552433732313a2061646472657373207a65726f206973206e6f7420612076616044820152683634b21037bbb732b960b91b6064820152608490fd5b15611f0b57565b60405162461bcd60e51b815260206004820152601860248201527f4552433732313a20696e76616c696420746f6b656e20494400000000000000006044820152606490fd5b6000908152600260205260409020546001600160a01b0316611f73811515611f04565b90565b90600182811c92168015611fa6575b6020831014611f9057565b634e487b7160e01b600052602260045260246000fd5b91607f1691611f85565b9060405191826000825492611fc484611f76565b9081845260019485811690816000146120335750600114611ff0575b5050611fee92500383611dc2565b565b9093915060005260209081600020936000915b81831061201b575050611fee93508201013880611fe0565b85548884018501529485019487945091830191612003565b915050611fee94506020925060ff191682840152151560051b8201013880611fe0565b600081815260026020526040902054612079906001600160a01b03161515611f04565b6000908152600460205260409020546001600160a01b031690565b1561209b57565b60405162461bcd60e51b815260206004820152602d60248201527f4552433732313a2063616c6c6572206973206e6f7420746f6b656e206f776e6560448201526c1c881bdc88185c1c1c9bdd9959609a1b6064820152608490fd5b60809060208152603260208201527f4552433732313a207472616e7366657220746f206e6f6e20455243373231526560408201527131b2b4bb32b91034b6b83632b6b2b73a32b960711b60608201520190565b1561215057565b60405162461bcd60e51b815280612169600482016120f6565b0390fd5b906001600160a01b03808061218184611f50565b169316918383149384156121b4575b50831561219e575b50505090565b6121aa91929350612056565b1614388080612198565b909350600052600560205260406000208260005260205260ff604060002054169238612190565b156121e257565b60405162461bcd60e51b815260206004820152602560248201527f4552433732313a207472616e736665722066726f6d20696e636f72726563742060448201526437bbb732b960d91b6064820152608490fd5b6122599161224284611f50565b6001600160a01b03938484169391851684146121db565b8382169384156123f45783918261235157506122a39260095487600052600a60205260406000205561228a876125f0565b82860361231e575b5061229c86611f50565b16146121db565b7fddf252ad1be2c89b69c2b068fc378daa952ba7f163c4a11628f55a4df523b3ef60008481526004602052604081206001600160601b0360a01b9081815416905583825260036020526040822060001981540190558482526040822060018154019055858252600260205284604083209182541617905580a4565b61232790611e8d565b60406000878152600760205281812083825260205288828220558881526008602052205538612292565b858303612363575b506122a39261228a565b61236e919250611e8d565b60001981019190821161035e576122a392849260009088825260209060088252604091828420548281036123bd575b508a84528383812055868452600781528284209184525281205592612359565b878552600782528385208386528252838520548886526007835284862082875283528085872055855260088252838520553861239d565b60405162461bcd60e51b8152602060048201526024808201527f4552433732313a207472616e7366657220746f20746865207a65726f206164646044820152637265737360e01b6064820152608490fd5b9192600092909190803b1561255b57612493946040518092630a85bd0160e11b9485835233600484015287602484015260448301526080606483015281878160209a8b966084830190611c74565b03926001600160a01b03165af1849181612517575b50612506575050503d6000146124fe573d6124c281611de3565b906124d06040519283611dc2565b81528091833d92013e5b805191826124fb5760405162461bcd60e51b815280612169600482016120f6565b01fd5b5060606124da565b6001600160e01b0319161492509050565b9091508581813d8311612554575b61252f8183611dc2565b8101031261255057516001600160e01b0319811681036125505790386124a8565b8480fd5b503d612525565b5050915050600190565b9293600093909291803b156125e5579484916125bf9660405180948193630a85bd0160e11b9788845233600485015260018060a01b0380921660248501526044840152608060648401528260209b8c976084830190611c74565b0393165af18491816125175750612506575050503d6000146124fe573d6124c281611de3565b505050915050600190565b600954600160401b81101561149557600181018060095581101561147f5760096000527f6e1540171b6c0c960b71a7020d9f60077f6af931a8bbf590da0223dacf75c7af0155565b908060209392818452848401376000828201840152601f01601f1916010190565b1561266057565b60405162461bcd60e51b815260206004820152601c60248201527f4552433732313a20746f6b656e20616c7265616479206d696e746564000000006044820152606490fd5b156126ac57565b60405162461bcd60e51b8152602060048201526014602482015273151bdad95b88191bd95cc81b9bdd08195e1a5cdd60621b6044820152606490fd5b6000818152600260205260409020549091906001600160a01b0316156127335761271182611f50565b6001600160a01b0382811691161461272c57611f7391612778565b5050600190565b5050600090565b1561274157565b60405162461bcd60e51b815260206004820152600f60248201526e2737ba103a37b5b2b71037bbb732b960891b6044820152606490fd5b90604091600052600f6020528160002060018060a01b0380921660005260205281600020908251906127a982611d8c565b825416815260ff600260018401549384602085015201541615159283910152816127d1575090565b905042109056fea26469706673582212209a93c8fb0a0a65e256bf480a549370ae7ddb0b37651ec5a92d32acec93cb2c7f64736f6c63430008130033",
  "linkReferences": {},
  "deployedLinkReferences": {}
}